:040000008031102813
:100008007E1480310B1F0E2841011A19101D0E286D
:1000180082310A227E10090080311228F801F90184
:10002800FA01FB01FC014001A001A101A201A30109
:10003800A401A501A601A701A801A9017E104001FC
:100048008131F4292616A214F0071F3EF0031F3E43
:10005800E1031F3EE103FF3D301E1F3EF003AD3EAE
:10006800CA0C7F080616A204F0071F3EEF3F1F04C4
:10007800E1031F3E552A5F3DF0151F3EF0031F3E6A
:10008800E1031F3EE1031F3CFA215F27EA2B4F3FA4
:10009800F52B5F3DE1031F3CF0211F3EF0031F3E9F
:1000A800E1031F3E35295F3DF0151F3EF0031F3E5B
:1000B800E1031F3EE103FF3D1A1E5F01EA2B1F3ECD
:1000C800E1031F3EE1031F3CFA215F11EA2BA53E25
:1000D800FE170118CB3C053C600A1F3EF0034E3F5B
:1000E800F52B5F3D9F15A23C50001F3EF003013EDB
:1000F80011001F3DF1231F3DF8111F3FE8231F3F4B
:10010800F1231F3DE001000000000000003800005E
:100118004001980199019A0114309200F03093003F
:10012800FF3094007D018C019601A00137308D00CD
:10013800F0309700FF30A10020308E009801A20116
:1001480017308F00F0309900FF30A300083090007E
:100158009A01A40102307C01BD000C30BF000D30B3
:10016800C0000430BE000E30D7000F30D800243055
:100178007B018C0025308D007D0191019201930156
:100188009B019C019D01A501A601A7010800BE34A1
:1001980001340034003400340034003400340034B6
:1001A80000340034003400340034003400340034A7
:1001B8000034003400340034003400340034003497
:1001C8000034003400340034003400340034003487
:1001D800003400340034003400340034003429344E
:1001E80002341F34023400340034003400347901FE
:1001F800A5010730A6000730A7002508F3390838FD
:10020800A500A401A301A201D530A100F330A505E2
:10021800A401A301A201A101A0019F019E019D01CA
:10022800FF309700FF309600940193019A01410135
:100238008D1097100D1117117901A501103092003A
:10024800080098127B01910141011A114D01960194
:100258008D1541011011FA017A084A018D007A08BA
:100268008E007A088F007A0890000C1839294D0101
:1002780096018D110D150D11410110111A1540012E
:10028800981601307B01910008004D0196018030DD
:100298008D0024308E0001308F00243090002430EF
:1002A8009100023092000430930094019501970167
:1002B8008C308C00410110116A30F0000230F100DE
:1002C800823152221A15080001304D01960008307B
:1002D8008D008E0102308F000330900091010230B2
:1002E80092000430930010309400950197018230F9
:1002F8008C000030F0000030F10082314C224101C6
:10030800901108007408663EF6000030753DF7004D
:100318007508F1007408F0007708F3007608F20019
:1003280082313322813182316022813182315722F8
:100338008131003A031D9A2982315C2208008231FA
:100348003D22813180318C2081318131D921813127
:100358008131492181318131682181318031FB200E
:1003680081318131BE2181318231642281318231F2
:100378001522080048304E01920090309000263037
:100388009100FF308E008F010030F0000030F10046
:100398008231292281310030F0000030F1008231B1
:1003A8001F224001A401A50108004A018C13263030
:1003B800F4000030F5008131862106304A019500AD
:1003C8009901980197019601410113101D1093108E
:1003D8009D1013111D1193119D114A018C170800CE
:1003E8008131A32181318131252181314101101DC4
:1003F800FA29101140010E08FA007A084A01900003
:1004080084304D018D0080308D00FA291011780854
:1004180079040319080079088A0078080A008231EB
:10042800080041010C100B140030F0000030F100FE
:100438008231462208007008710403190800710807
:100448004001A1007008A000080070087104031999
:10045800080071084001A3007008A2000800730892
:10046800790197007208960071089400700893004B
:100478000800603045018D008F019101053093001F
:100488009201080071084001A7007008A600080042
:1004980071084001A9007008A80008007108F90057
:1004A8007008F80008007901120E890C013908005B
:1004B8001910121392130800921719141217080032
:0E04C8008231672208007901901108000800B7
:020000040001F9
:0A000E008C3FFF3D9F3FFF3FFF3F87
:00000001FF
