:0400000081EF00F09C
:1000080038093809380938094000380940003809E2
:10001800B708380938093809380938093809380952
:1000280038094000400040003809380938093809C3
:1000380038093809380938093809380938094108A8
:100048003809380938093809400040001D08EB050F
:100058003809380938094000380938091008D20524
:10006800BD081D093809340938093809380938091B
:100078003809380938093809400038093809380971
:100088003809380938093809380938093809380960
:100098003809380938093809400038094000400053
:1000A800C3083809380933093809380938093809BB
:1000B8003809380938093809380938093809380930
:1000C8003809380938093809380938093809380920
:1000D8003809380938093809380938093809380910
:1000E800400038093809320940004000400040000B
:1000F8003809200938093809FF0067EF09F0C19865
:1001080002011D6BA492010E0001D56FD785B49230
:10011800D795A492AD92070ED56FD785BD92D79586
:10012800AD820501A66B010E906F8F6B020E000168
:10013800916FC40E926F020E936F010E966F996BBA
:10014800360E0201196FC990C9940001956B906B26
:100158008F6B300E05018D6FD2940001918F020EC6
:100168008F6F4B0E8E6F8E6B0201AE69010EAF6FF3
:100178001D0E0501F16FFE0EF26FBFEC10F07E0E42
:100188000501F16FFF0EF26FBFEC10F0C00E050114
:10019800F16FFF0EF26FBFEC10F0D50E0501F16F95
:1001A800FF0EF26FBFEC10F0AB0E0501F16FFF0E02
:1001B800F26FBFEC10F04C0E0501F16FFF0EF26FFD
:1001C800BFEC10F003011969186B1A8F18C38AF570
:1001D800DAEC06F018C389F503011A9F650E0501CC
:1001E800F16FFF0EF26F8A51895DF36FF46BD8A03F
:1001F800F407BFEC10F003011969186B1A8F18C3C4
:100208008AF5536A000E526EC2EC0CF018C389F5D9
:1002180003011A9F690E0501F16FFE0EF26F8A51F4
:10022800895DF36FF46BD8A0F407BFEC10F00301FD
:100238001969186B1A8F18C38AF5070E516E506822
:1002480096EC0CF018C389F503011A9F870E050177
:10025800F16FFE0EF26F8A51895DF36FF46BD8A0CF
:10026800F407BFEC10F003011969186B1A8F18C353
:100278008AF50F0E4F6E4E686AEC0CF018C389F5BC
:1002880003011A9FA50E0501F16FFE0EF26F8A5148
:10029800895DF36FF46BD8A0F407BFEC10F003018D
:1002A8001969186B1A8F18C38AF50501766B000E49
:1002B800756F3EEC0DF018C389F503011A9FC30E44
:1002C8000501F16FFE0EF26F8A51895DF36FF46BD1
:1002D800D8A0F407BFEC10F003011969186B1A8F46
:1002E80018C38AF50F0E0501746F736917EC0DF0CA
:1002F80018C389F503011A9FE10E0501F16FFE0E7F
:10030800F26F8A51895DF36FF46BD8A0F407BFECE4
:1003180010F005018C6B9051D8B402D0310E01D089
:10032800590E8E6FB19EA18E8EC519F3190EF16FFD
:10033800FF0EF26F8EC5F3F5F46BBFEC10F0040EF0
:100348000301236F248F0501AB6BAA6B000E606F4E
:10035800000E616F010E626F9F6B586A585034EC43
:1003680011F00501A16B9D699C690A01406B200E83
:10037800606F400E806F600EA06F0501A56BA46BC7
:100388000A0E6E6F220E6D6FD2B006D0010E946FFA
:100398001E0E706F000E04D0946B230E706F240E27
:1003A8006F6FD2B203D0010E546E01D0546A540458
:1003B800D8A408D09405D8A405D0010E926F0301E3
:1003C8001A9F05D0926BB19EA19E03011A8F5450BB
:1003D800D8B407D0960E0501F16FFF0EF26FBFEC8F
:1003E80010F005019251D8B406D0EA0EF16FFF0E55
:1003F800F26FBFEC10F0460E0501F16FFE0EF26FC2
:1004080062C5F3F5F46B60C5F5F561C5F6F5BFECAB
:1004180010F005019251D8B405D0010E0001D56F36
:10042800D78505D0010E0001D56FD785D795B49231
:10043800A482D7C0B2F5D75104090501B36F070EDE
:100448000001D56FD785D795BD92AD82D7C05AF533
:10045800D75104095B6EC188030E02011D6F0501A7
:100468009251D8A410D059EC12F055EC12F051EC7E
:1004780012F04DEC12F049EC12F00401468F4E8F49
:10048800568F698E788E070E0001D56F010EF86EB3
:1004980005019251D8A4E1EC0EF0D68E1200200E80
:1004A8005C600ED05C501F0B156E166A000E15248A
:1004B800D96E060E1620DA6E5F50800FDF6E1200BE
:1004C800400E5C600ED05C501F0B156E166A200E35
:1004D8001524D96E060E1620DA6E5F50800FDF6E77
:1004E8001200600E5C600ED05C501F0B156E166A11
:1004F800400E1524D96E060E1620DA6E5F50800F56
:10050800DF6E1200800E5C600ED05C501F0B156E03
:10051800166A600E1524D96E060E1620DA6E5F5024
:10052800800FDF6E1200A00E5C600ED05C501F0BB7
:10053800156E166AB80E1524D96E050E1620DA6ED9
:100548005F50800FDF6E1200A00E5C18D8A40ED08A
:10055800000E5214156E0F0E5314166E5F501510C0
:10056800526E1650536EC2EC0CF01200A10E5C18BD
:10057800D8A415D05F50166E156AFF0E5214176E68
:10058800000E5314186E15501710526E165018108E
:10059800536EFF0E5214526E0F0E5314E3D7A20E71
:1005A8005C18D8A40ED0000E5014156E0F0E5114FE
:1005B800166E5F501510506E1650516E96EC0CF07A
:1005C8001200A30E5C18D8A415D05F50166E156AD9
:1005D800FF0E5014176E000E5114186E1550171098
:1005E800506E16501810516EFF0E5014506E0F0EAC
:1005F8005114E3D7A40E5C18D8A40ED0000E4E14E4
:10060800156E0F0E4F14166E5F5015104E6E165065
:100618004F6E6AEC0CF01200A50E5C18D8A415D029
:100628005F50166E156AFF0E4E14176E000E4F14AB
:10063800186E155017104E6E165018104F6EFF0E8C
:100648004E144E6E0F0E4F14E3D7A60E5C18D8A4A6
:100658000ED0000E7515156E0F0E7615166E5F50BE
:100668001510756F1650766F3EEC0DF01200A70E40
:100678005C18D8A415D05F50166E156AFF0E751554
:10068800176E000E7615186E15501710756F1650E8
:100698001810766FFF0E7515756F0F0E7615E3D768
:1006A800A80E5C18D8A40ED0000E7315156E0F0E88
:1006B8007415166E5F501510736F1650746F17EC23
:1006C8000DF01200A90E5C18D8A415D05F50166E54
:1006D800156AFF0E7315176E000E7415186E1550F7
:1006E8001710736F16501810746FFF0E7315736F11
:1006F8000F0E7415E3D7AA0E5C18D8A404D05F5067
:100708000F0BB16F1200AB0E5C18D8A404D05F5069
:100718000F0BB06F1200AC0E5C18D8A404D05F5059
:100728000F0BAF6F1200AD0E5C18D8A404D05F5049
:100738000F0BAE6F1200AE0E5C18D8A404D05F5039
:100748000F0BAD6F1200AF0E5C18D8A403D05FC5B5
:1007580059F51200BF0E5C6412005FC5ACF51200BB
:10076800200E5C600ED05C501F0B156E166A000ED2
:100778001524D96E060E1620DA6E5F50800FDF6ED4
:100788001200400E5C600ED05C501F0B156E166A8E
:10079800200E1524D96E060E1620DA6E5F50800FD3
:1007A800DF6E1200600E5C600ED05C501F0B156E81
:1007B800166A400E1524D96E060E1620DA6E5F50A2
:1007C800800FDF6E1200800E5C601BD0800E5F26EB
:1007D8005C501F0B156E166A600E1524D96E060E36
:1007E8001620DA6E5FC5DFF45C501F0B156E166AB3
:1007F800B80E1524D96E050E1620DA6E5FC5DFF423
:100808001200800E5C18D8A40ED0000E5214156E7B
:100818000F0E5314166E5F501510526E1650536E0D
:10082800C2EC0CF01200810E5C18D8A415D05F50F1
:10083800166E156AFF0E5214176E000E5314186EBA
:1008480015501710526E16501810536EFF0E521492
:10085800526E0F0E5314E3D7820E5C18D8A40ED034
:10086800000E5014156E0F0E5114166E5F501510B1
:10087800506E1650516E96EC0CF01200830E5C18F8
:10088800D8A415D05F50166E156AFF0E5014176E57
:10089800000E5114186E15501710506E165018107F
:1008A800516EFF0E5014506E0F0E5114E3D7840E84
:1008B8005C18D8A40ED0000E4E14156E0F0E4F14EF
:1008C800166E5F5015104E6E16504F6E6AEC0CF097
:1008D8001200850E5C18D8A415D05F50166E156AE4
:1008E800FF0E4E14176E000E4F14186E1550171089
:1008F8004E6E165018104F6EFF0E4E144E6E0F0EA1
:100908004F14E3D7860E5C18D8A40ED0000E7515C8
:10091800156E0F0E7615166E5F501510756F165002
:10092800766F3EEC0DF01200870E5C18D8A415D037
:100938005F50166E156AFF0E7515176E000E761548
:10094800186E15501710756F16501810766FFF0E29
:100958007515756F0F0E7615E3D7880E5C18D8A439
:100968000ED0000E7315156E0F0E7415166E5F50AF
:100978001510736F1650746F17EC0DF01200890E76
:100988005C18D8A415D05F50166E156AFF0E731543
:10099800176E000E7415186E15501710736F1650D9
:1009A8001810746FFF0E7315736F0F0E7415E3D75D
:1009B8008A0E5C18D8A404D05F500F0BB16F1200D8
:1009C8008B0E5C18D8A404D05F500F0BB06F1200C8
:1009D8008C0E5C18D8A404D05F500F0BAF6F1200B8
:1009E8008D0E5C18D8A404D05F500F0BAE6F1200A8
:1009F8008E0E5C18D8A404D05F500F0BAD6F120098
:100A08008F0E5C18D8A403D05FC559F51200DF0E0D
:100A18005C6412005FC5ACF51200010E0001D56FD1
:100A2800CEC457F5CFC49BF5D0C456F5B3C5D7F09F
:100A3800B492B2C5D7F0070ED56FBF0E5718D8A419
:100A480029D005019B51FE0BFE0AD8A423D0A15141
:100A5800D8B403D0585071EC0BF056AA03D0010E4D
:100A6800A56F01D0A56B56A807D0010EA46F150E6F
:100A7800706F180E6F6F1100A46B9451D8B405D025
:100A88001E0E706F000E6F6F1100140E706F0E0E39
:100A98006F6F11000501A451D8A498D05750DF0BEF
:100AA800980AD8A412D0000EA825D96EDA6A080EC2
:100AB800DA229BC5DFF4000EA825D96EDA6A070E84
:100AC800DA2256C5DFF4A82B1100900E5718D8A4C7
:100AD8002CD05638E846E00B0A01806F5450D8B441
:100AE80002D0400E80273F0E5618D8A404D0010E1D
:100AF8000501AB6F02D00501AB6BAB51D8A403D095
:100B0800AA51D8B40FD0010EA96F9451D8B405D00A
:100B18001E0E706F000E6F6F1100140E706F0E0EA8
:100B28006F6F1100A96BF4D71100B00E5718D8A435
:100B38002CD05638E846E00B0A01A06F5450D8B4C0
:100B480002D0400EA027800E5618D8A404D0010E5B
:100B58000501AA6F02D00501AA6BAB51D8A403D036
:100B6800AA51D8B40FD0010EA96F9451D8B405D0AA
:100B78001E0E706F000E6F6F1100140E706F0E0E48
:100B88006F6F1100A96BF4D71100700E5718D8A415
:100B98000CD05638E846E00B0A01606F5450D8B4C0
:100BA8001100400E602711001100500E5718D8A4EC
:100BB80011005638E846E00B0A01406F5450D8B48B
:100BC8001100400E40271100110012005750E00B91
:100BD800FD6FFE6B000EFD25D96E0A0EFE21DA6E42
:100BE800DF50FF6F57501F0BFF119A6F9BC599F588
:100BF80058C59FF59AC558F59F515818D8B409D0CB
:100C0800A151D8B403D09F5171EC0BF0585034EC7B
:100C180011F0000E05019925D96EDA6A250EDA223F
:100C280056C5DFF4010EA16F9929D8A411005850B8
:100C380071EC0BF0110012003BC5D9F43CC5DAF495
:100C4800DEC4F6F4DDC4F7F4F86A0800F550250AA6
:100C5800D8A498D03BC5D9F43CC5DAF4DE2A000EF6
:100C6800DD220501646B000E636F63C587F5656956
:100C78006669456A1CD0050187833BC5D9F43CC524
:100C8800DAF4DE2A000EDD2212D0010E456E0FD0F6
:100C98003BC5D9F43CC5DAF4DEC4F6F4DDC4F7F498
:100CA800F86A0800F550300AD8B4E5D7EED74550B1
:100CB800D8B4EED73BC511F53CC512F53DC513F5C3
:100CC8003EC514F562EC08F011C563F512C564F56C
:100CD800050164AF05D08781636D641FD8B0642BAC
:100CE8003BC5D9F43CC5DAF4DEC446F5DDC447F5A6
:100CF80046C5F6F447C5F7F4F86A0800F550780ACF
:100D0800D8A438D03DC5D9F43EC5DAF4DFC43FF5E0
:100D1800020EDE26DFC440F5000EDD223FC5D9F401
:100D280040C5DAF4DEC441F5DDC442F5010E4624BF
:100D38003F6E000E4720406E3BC5D9F43CC5DAF43F
:100D48003FC5DEF440C5DDF40BD039C52CF53AC5F6
:100D58002DF541C52EF542C52FF5AAEC07F0120076
:100D680046C5F6F447C5F7F4F86A0800F550780A5E
:100D7800D8B4EBD73BC5D9F43CC5DAF4DE2A000E6B
:100D8800DD2212003BC5D9F43CC5DAF4DEC4F6F422
:100D9800DDC4F7F4F86A0800F550136E146A39C513
:100DA80015F53AC516F5B7EC09F0E4D70501686BF7
:100DB800000E676FB1516727000E6823B05167278F
:100DC800000E6823AF516727000E6823AE516727CE
:100DD800000E6823AD516727000E682367514B0842
:100DE800676F6851D8A0E82A0008686F070ED89086
:100DF80067376837E82EFBD759B002D0800ED86F16
:100E080059B202D0800ED96F59B402D0800EDA6F71
:100E180059B602D0800EDB6F59B802D0800EDC6F55
:100E280059C511F51F0E1116D8A405D0250E786FD7
:100E3800800E776F1200D851B103F3C477F5F4C46C
:100E480078F5D951B003F3507727F4507823DA5165
:100E5800AF03F3507727F4507823DB51AE03F350F8
:100E68007727F4507823DC51AD03F3507727F450FB
:100E78007823675177276851782312000501686B3A
:100E8800000E676FB1516727000E6823B0516727BE
:100E9800000E6823AF516727000E6823AE516727FD
:100EA800000E6823AD516727000E682367514B0871
:100EB800676F6851D8A0E82A0008686F070ED890B5
:100EC80067376837E82EFBD759B002D0800ED86F45
:100ED80059B202D0800ED96F59B402D0800EDA6FA1
:100EE80059B602D0800EDB6F59B802D0800EDC6F85
:100EF80059C50FF51F0E0F16D8A405D0250E786F0B
:100F0800800E776F1200D851B103F3C477F5F4C49B
:100F180078F5D951B003F3507727F4507823DA5194
:100F2800AF03F3507727F4507823DB51AE03F35027
:100F38007727F4507823DC51AD03F3507727F4502A
:100F4800782367517727685178231200010E336E92
:100F580063C534F564C535F5386A1F0E376E06016A
:100F68009F6B28D03706D8A038062E500F0B366E48
:100F78000A0E366002D0300E01D0570E3626800E8B
:100F88003724D96E060E3820DA6E36C5DFF4336A98
:100F98003406D8A035062EC530F52FC531F5040E18
:100FA800326ED89031323032322EFBD730C52EF522
:100FB80031C52FF538BE17D0385004E1020E375C22
:100FC800D8A011D02E502F10D8A4CCD73350D8A4E5
:100FD800C9D735BE08D0355003E13404D8A003D0B2
:100FE800050187B3BFD72CC523F52DC524F5800E81
:100FF8003724256E060E3820266E34C527F535C5EC
:1010080028F5C8EC0AF01200200E5C600ED05C5087
:101018001F0B116E126A000E1124D96E060E1220D3
:10102800DA6EDF50800FC06E1200400E5C600ED08A
:101038005C501F0B116E126A200E1124D96E060E19
:101048001220DA6EDF50800FC06E1200600E5C60F6
:101058000ED05C501F0B116E126A400E1124D96E0F
:10106800060E1220DA6EDF50800FC06E1200800E5E
:101078005C600ED05C501F0B116E126A600E11245A
:10108800D96E060E1220DA6EDF50800FC06E120085
:10109800C00E5C6011D09F0E5C640ED05C501F0BBC
:1010A800116E126AB80E1124D96E050E1220DA6E6E
:1010B800DF50800FC06E1200C0681200196A000E5F
:1010C800186E11C5D9F412C5DAF4DEC4F6F4DDC41D
:1010D800F7F4F86A0800F5502A0AD8A432D011C5E6
:1010E800D9F412C5DAF4DE2A000EDD2213C5D9F4CC
:1010F80014C5DAF4DFC415F5020EDE26DFC416F5D2
:10110800000EDD2215C5D9F416C5DAF4DEC418F5CB
:10111800DDC419F526D00A0E1802F3C415F5F4C477
:1011280016F51902F350162617501524186E000EDE
:101138001620196E11C5D9F412C5DAF4DE2A000E8C
:10114800DD2211C5D9F412C5DAF4DEC4F6F4DDC423
:10115800F7F4F86A0800F550D00F176E090E1764F7
:10116800DAD718C511F519C512F51200200E5C6002
:101178000ED05C501F0B116E126A000E1124D96E2E
:10118800060E1220DA6EDF50800FC06E1200400E7D
:101198005C600ED05C501F0B116E126A200E112479
:1011A800D96E060E1220DA6EDF50800FC06E120064
:1011B800600E5C600ED05C501F0B116E126A400E00
:1011C8001124D96E060E1220DA6EDF50800FC06E21
:1011D8001200800E5C600ED05C501F0B116E126AFC
:1011E800600E1124D96E060E1220DA6EDF50800FC1
:1011F800C06E1200A00E5C600ED05C501F0B116E0A
:10120800126AB80E1124D96E050E1220DA6EDF505C
:10121800800FC06E1200C0681200BE6ABF6AC06A42
:10122800010EC16E040EC26E0401026B0A6B126BD2
:10123800100E1A6F226BC668C768C868E40EC96EBC
:101248000B0ECA6E006B086B106B186B206B016974
:1012580009691169F00E196F070E216F03690B698F
:101268001369F80E1B6F070E236F046B0C6B146B5E
:101278001F0E1C6F0F0E246F0201896B886B876B22
:10128800866B1E0E646F1D0E676F040E616F050E70
:10129800626F060E656F070E666F350E1A6F230EA6
:1012A8001C6F1A0E6D6F340E1B6F0401056B066BF5
:1012B800076B0D6B0E6B0F6B156B166B176B256B36
:1012C800266B276B1200980EF66E140EF76E000E42
:1012D800F86E01EE00F210EE80F00900F5C4EEF4AD
:1012E800E550E150FAE1560EF66E210EF76E000E4B
:1012F800F86E01EEB6F110EE27F00900F5C4EEF431
:10130800E550E150FAE102EE00F010EE00F1EE6A6D
:10131800E550E150FCE1E250FAE101EE00F310EE95
:1013280000F1EE6AE550E150FCE1E250FAE101EE2D
:1013380080F2200EEE6AE806FDE101EE60F1560E3D
:10134800EE6AE806FDE101EE4EF1120EEE6AE806DD
:10135800FDE10401080E5D6F000E5E6F000E5F6F09
:101368000001B0EF11F015501610D8B404D0155084
:101378001610D8A404D013509CEC11F0120020EEE3
:1013880009F01550D9261650DA22DE50DE10D8B4EE
:1013980016D020EE09F01550D9261650DA2210EE94
:1013A80002F01550E1261650E222DE50E65CE650C7
:1013B800800A1B6EDE50800A1B58D8B0120020EE3F
:1013C80002F01550D9261650DA22DEC417F5DDC40E
:1013D80018F515C5D9F416C5DAF4DEC419F5DDC457
:1013E8001AF517501924D96E18501A20DA6E13C539
:1013F800DFF420EE02F01550D9261650DA22DE2A44
:10140800000EDD2212000501A951D8B422D0CE5019
:10141800DF0B980AD8A41DD0D4EC0DF0CFC45CF52E
:10142800AA51D8B403D0BAEC08F002D008EC08F0FE
:10143800C86A5BC5D7F0BD925AC5D7F0D1BAC8689B
:10144800D1BCC868D1BAC868D1BCC868C8685C686B
:101458001100CE50E00BD96E0A0EDA6ECE501F0B7B
:10146800DF10F76ECFC4F6F40800C86AF5C4C0F4FC
:101478005BC5D7F0BD925AC5D7F0D1BAC868D1BC00
:10148800C868D1BAC868D1BCC868C8681100120059
:101498008080808080808080808080808080808044
:1014A8008080808080808080808080808080808034
:1014B8008080808080808080808080808080808024
:1014C8008080808080808080808080808080808014
:1014D8008080808080808080808080808080808004
:1014E80080808080808080808080808080808080F4
:1014F80080808080808080808080808080808080E4
:1015080080808080808080808080808080808080D3
:10151800CEC457F5CFC49BF505015751E00BD96EE2
:101528000A0EDA6E57511F0BDF109A6F9BC599F59B
:1015380058C59FF59AC558F505019F515818D8B454
:1015480009D0A151D8B403D09F5171EC0BF0585079
:1015580034EC11F0C86A000E05019925D96EDA6AD3
:10156800250EDA22DF50C06E5BC5D7F0BD925AC592
:10157800D7F0D1BAC868D1BCC868D1BAC868D1BCDC
:10158800C868C86811001200050187A10AD025C5DE
:101598001CF526C51DF523C51EF524C51FF5EAEC67
:1015A8000FF028AE03D0286A000E276E2B6A000EB3
:1015B8002A6E0BD0146A200E136E23C515F524C5A8
:1015C80016F5B7EC09F02A4A2B2A27502A5C2B502B
:1015D800800A296E2850800A2958D8A0EBD705011F
:1015E80087B1120025C51CF526C51DF523C51EF5B6
:1015F80024C51FF5EAEC0FF01200A6EC11F011EC6F
:1016080009F097EC10F0F4EC10F0E4EC10F095EC25
:101618000FF03DEC0FF078EC0FF05BEC0FF005EC01
:1016280010F0CEEC0FF0B2EC0FF01FEC0FF06CECFA
:1016380010F0C0EC0EF05CEC0EF03AEC0EF018EC8A
:101648000EF0F6EC0DF043EC11F060EC11F052ECFA
:1016580011F05DEC12F039EC0CF008EC0CF0EEEC4B
:101668000CF03AEC0BF0DDEC11F01200D68A000E0B
:10167800D6BE010E136ED69E550E0401596FAA0EE2
:10168800596F59915F6B5E6B080E5D6F550E596F00
:10169800AA0E596F598113B002D0D69E01D0D68EAA
:1016A8000301658F68837183AF90D680E20E116E57
:1016B800240E126E0CEC12F0B490D682E40E116E69
:1016C800240E126E07EC12F0B890D684E60E116E56
:1016D800240E126E02EC12F01200F96F0501FB6B7A
:1016E800000EFA6FF951B0EC0DF00501FC6FFC51DA
:1016F800D8A412D0F9518BEC0DF00501FC6FFC5108
:10170800D8B41CD060EC12F0330E0501F16FFF0E57
:10171800F26FBFEC10F009D060EC12F0FF0E05017B
:10172800F16FFE0EF26FBFEC10F00501FA4BFB2BC8
:10173800FB5104E1030EFA5DD8A0D4D7A16B1200C7
:10174800FAC401F5FBC402F5B39E77B076A011D0B8
:1017580076900501E751E811D8B41FD001D81DD003
:101768000500FA6EE751FD6EE851FE6EFF6AFA5009
:10177800120077B276A211D076920501E551E611F2
:10178800D8B40BD001D809D00500FA6EE551FD6E2A
:10179800E651FE6EFF6AFA50120002C5FBF401C55D
:1017A800FAF41100FAC405F5FBC406F5B29E68B058
:1017B80067A011D067900501E151E211D8B41FD09C
:1017C80001D81DD00500FA6EE151FD6EE251FE6EA2
:1017D800FF6AFA50120068B267A211D06792050139
:1017E800DF51E011D8B40BD001D809D00500FA6E4A
:1017F800DF51FD6EE051FE6EFF6AFA50120006C519
:10180800FBF405C5FAF411006F6A020E706E716A76
:101818007F0E726E3E0E736E030E746E756A766A74
:10182800776A796A400E7A6E1F0E7B6E400E7C6E68
:101838001F0E7D6EB39CB39E76907692A39EA39C5A
:10184800D60E116E240E126EE9EC11F0D40E116E44
:10185800240E126EE4EC11F0D80E116E240E126EE6
:10186800EEEC11F0800E786E1200606A020E616E66
:10187800626A6F0E636E040E646E030E656E666AAE
:10188800676A686A6A6A380E6B6E020E6C6E380E8A
:101898006D6E020E6E6EB29CB29E67906792A29EAB
:1018A800A29CDC0E116E240E126EF8EC11F0DA0E0A
:1018B800116E240E126EF3EC11F0DE0E116E240E72
:1018C800126EFDEC11F0800E696E1200000ED6BE8D
:1018D800010E556ED69ED8904E34F66E4F34F76E84
:1018E800F50EF626DD0EF722F86A000EF82209003A
:1018F800F5C413F50A00F5C414F5010EF86E55B0D9
:1019080002D0D69E01D0D68E13C511F51450136E91
:10191800146A13C512F50401556B12C554F411C5A8
:1019280053F41200000ED6BE010E556ED69ED89006
:101938005034F66E5134F76EF50EF626DD0EF722AA
:10194800F86A000EF8220900F5C413F50A00F5C478
:1019580014F5010EF86E55B002D0D69E01D0D68E81
:1019680013C511F51450136E146A13C512F504014A
:101978004D6B12C54CF411C54BF41200000ED6BEC7
:10198800010E556ED69ED8905234F66E5334F76ECB
:10199800F50EF626DD0EF722F86A000EF822090089
:1019A800F5C413F50A00F5C414F5010EF86E55B028
:1019B80002D0D69E01D0D68E13C511F51450136EE1
:1019C800146A13C512F50401456B12C544F411C518
:1019D80043F412000201B86BBA6BBC6BA00EBE6F69
:1019E800800EBF6FC06BC169010EC26F2E0EC36F30
:1019F800C46B800EC56FC66B000E116E000E126EA2
:101A0800D4EC11F0000E116E000E126ECBEC11F03A
:101A1800000E116E000E126EC2EC11F00501806B03
:101A2800000E7F6F1200000ED6BE010E556ED69EB8
:101A3800D8907335F66E7435F76EF50EF626BD0E32
:101A4800F722F86A000EF8220900F5C411F50A0019
:101A5800F5C412F5010EF86E55B002D0D69E01D02D
:101A6800D68E11C572F41250116E126A11C573F434
:101A780078841200000ED6BE010E556ED69ED89000
:101A88007535F66E7635F76EF50EF626BD0EF7222D
:101A9800F86A000EF8220900F5C411F50A00F5C429
:101AA80012F5010EF86E55B002D0D69E01D0D68E32
:101AB80011C563F41250116E126A11C564F4698479
:101AC80012000501A151D8B403D0585071EC0BF0A5
:101AD800CE50E00BD96E0A0EDA6ECE501F0BDF1017
:101AE800F76ECFC4F6F40800C86AF5C4C0F45BC545
:101AF800D7F0BD925AC5D7F0D1BAC868D1BCC8686A
:101B0800D1BAC868D1BCC868C86811001200116E83
:101B1800000ED6BE010E126E010E0001456F11C5F2
:101B280044F0436B4151F80B0509416FD69E000103
:101B3800550E0001426FAA0E426F408112B002D0CA
:101B4800D69E01D0D68EF80E0001411741AF02D0C3
:101B5800010E1200000E1200116E000ED6BE010E0C
:101B6800126E010E0001456F11C544F04151F80B8A
:101B78000609416FD69E0001550E0001426FAA0E5C
:101B8800426F408112B002D0D69E01D0D68EF80E98
:101B98000001411741AF02D0010E1200000E1200E1
:101BA800A7C519F519D0000E1924D96EDA6A080EDE
:101BB800DA22DF505C6E000E1924D96EDA6A070E3D
:101BC800DA22DF505F6EA551D8B403D053EC02F08F
:101BD80002D0B4EC03F0192A19500501A819D8B499
:101BE8001200E1D7040EE86FB80EF96F050EFA6F10
:101BF800000EFB6F050EF16FDC0EF06F020EFD6F2D
:101C0800F86B200EF76FEF6B010EEE6F2E0EFF6F65
:101C1800FE6BBA9ABA98BA9EBA9CAA9AAA98AA9E31
:101C2800AA9C800EFC6F1200030EE86F600EF96F1D
:101C3800060EFA6F000EFB6F050EF16FDB0EF06FEC
:101C4800020EFD6FF86B200EF76FEF6B010EEE6F53
:101C5800260EFF6FFE6BB99AB998B99EB99CA99ADE
:101C6800A998A99EA99C800EFC6F1200020EE86F2D
:101C7800400EF96F060EFA6F000EFB6F050EF16F3E
:101C8800DA0EF06F020EFD6FF86B200EF76FEF6B38
:101C9800010EEE6F730EFF6FFE6BB89AB898B89E80
:101CA800B89CA89AA898A89EA89C800EFC6F1200C1
:101CB800010EE86F200EF96F060EFA6F000EFB6F2B
:101CC800050EF16FD90EF06F020EFD6FF86B200E46
:101CD800F76FEF6B010EEE6F530EFF6FFE6BB49A4A
:101CE800B498B49EB49CA49AA498A49EA49C800E74
:101CF800FC6F12004AC5EFF54BC5F0F50ED048C58C
:101D080039F549C53AF5EF0E3B6E050E3C6E4CC5EC
:101D18003DF54DC53EF520EC06F0EFC5F6F4F0C5EF
:101D2800F7F4F86A0800F5500009D8A4E8D7496A1A
:101D3800000E486E12001AD0000EA725D96EDA6A76
:101D4800080EDA22DF505C6E000EA725D96EDA6A1B
:101D5800070EDA22DF505F6EA551D8B403D053ECDA
:101D680002F002D0B4EC03F00501A72B0501A7513E
:101D7800A819D8B41200E0D7E86B000EF96F060E68
:101D8800FA6F000EFB6F050EF16FD80EF06F020EA2
:101D9800FD6FF86B200EF76FEF6B010EEE6F330ED1
:101DA800FF6FFE6BB09AB098B09EB09CA09AA098B6
:101DB800A09EA09C800EFC6F1200D69E070E00010C
:101DC800D56F010EF86EBDA2FED7CEC4F7F4CFC40E
:101DD800F6F40800C86AF5C4C0F45BC5D7F0BD9234
:101DE8005AC5D7F0D1BAC868D1BCC868D1BAC868D2
:101DF800D1BCC868C868E7D7CE50E00BD96E0A0EC8
:101E0800DA6ECE501F0BDF10F76ECFC4F6F4080061
:101E1800C86AF5C4C0F45BC5D7F0BD925AC5D7F0FF
:101E2800D1BAC868D1BCC868D1BAC868D1BCC868BA
:101E3800C86811001200070ED56F800ED76F380ED4
:101E4800D86F330ED96F330EDA6F330EDB6F010E96
:101E5800DC6F080EDD6FDE6BDF6BD46B8C0ED66F1C
:101E6800BD92000E116E000E126E11EC12F0AD82D2
:101E78001200010ED56F800ED76F380ED86F360E50
:101E8800D96F380EDA6F380EDB6F010EDC6F080E73
:101E9800DD6FDE6BDF6BD46B8C0ED66FB492000EE9
:101EA800116E000E126E2FEC12F0A4821200030EB7
:101EB800D56F060ED76F370ED86F370ED96F370E1E
:101EC800DA6F030EDB6F020EDC6FDD6BDE6B800EEC
:101ED800DF6FD46B820ED66F000E116E000E126E7D
:101EE80025EC12F0B79A1200020ED56F0C0ED76FC0
:101EF800340ED86F3A0ED96F340EDA6F3A0EDB6FA4
:101F0800020EDC6F080EDD6FDE6BDF6BD46B820EAA
:101F1800D66F000E116E000E126E2AEC12F0B59AF2
:101F280012000001D56B060ED76F370ED86F370E2B
:101F3800D96F370EDA6F030EDB6F020EDC6FDD6BC5
:101F4800DE6B400EDF6FD46B820ED66F000E116E03
:101F5800000E126E34EC12F0AE9A1200060ED56F17
:101F68000E0ED76F060ED86F060ED96F060EDA6FF3
:101F7800060EDB6F020EDC6FDD6BDE6BDF6BD46B86
:101F8800820ED66F000E116E000E126E16EC12F055
:101F9800BC921200050ED56F010ED76F060ED86FD2
:101FA800390ED96F060EDA6F060EDB6FDC6B080E82
:101FB800DD6FDE6BDF6BD46B870ED66F000E116E94
:101FC800000E126E1BEC12F0B9921200226A000E7B
:101FD800216E0BD020C513F5146A1EC515F51FC553
:101FE80016F5B7EC09F0214A222A21501C24D96E93
:101FF80022501D20DA6EDF50206E2050D8B4120017
:10200800E9D7040ED56FD76B050ED86F010ED96FBF
:10201800040EDA6FDB6B020EDC6FDD6B200EDE6FF9
:10202800DF6BD46B810ED66F000E116E000E126E30
:1020380020EC12F0B8921200FAC403F5FBC404F5C0
:10204800B39C0501E351E411D8B40BD001D809D0F1
:102058000500FA6EE351FD6EE451FE6EFF6AFA5018
:10206800120004C5FBF403C5FAF41100FAC407F51D
:10207800FBC408F5B29C0501DD51DE11D8B40BD0C4
:1020880001D809D00500FA6EDD51FD6EDE51FE6EF5
:10209800FF6AFA50120008C5FBF407C5FAF41100EC
:1020A800CEC4F7F4CFC4F6F40800C86AF5C4C0F487
:1020B8005BC5D7F0BD925AC5D7F0D1BAC868D1BCB4
:1020C800C868D1BAC868D1BCC868C868110012000D
:1020D800070EB56F070EB66F070EB76F070EB86F0E
:1020E800070EB96F070EBA6F070EBB6F070EBE6FEC
:1020F800070EBF6FF46AF36AB46B1200B19E42EC2C
:1021080007F0D8907737783778C510F5020E0001B8
:102118008F6F10C58EF077C58EF0B1AE1100010E2D
:1021280005018B6F11000001919FA394A392A390C6
:10213800400E926F936B966B996B8F6B906B946B51
:10214800956B986B976B9485020E916F1200002522
:102158008080808080808080808080808080808077
:102168008080808080808080808080808080808067
:052178008080808080E2
:10217E00F30EF76F050EF86F000E486E000E496EE7
:10218E00F1C54AF5F2C54BF5F70E4C6E050E4D6EC8
:10219E007EEC0EF01200B1AE1200B19EDAEC06F03B
:1021AE00D8907737783778C588F5020E00018F6F93
:1021BE0088C58EF077C58EF01200030E266F256B44
:1021CE00276B0F0E236F226B000E0601A06F000E01
:1021DE00A16FB1960301246B12002C0E0301196F2F
:1021EE00186B740E1B6F000E0601A26F000EA36F0C
:1021FE00B19EA18E03011A6B120005018551861145
:10220E00D8B4120001D812000500FA6E8551FD6E89
:10221E008651FE6EFF6AFA50120005018351841139
:10222E00D8B4120001D812000500FA6E8351FD6E6B
:10223E008451FE6EFF6AFA5012000501815182111F
:10224E00D8B4120001D812000500FA6E8151FD6E4D
:10225E008251FE6EFF6AFA501200116E010E0001DD
:10226E00456F11C544F0436B4151F80B0209416FA4
:10227E004081F80E41171200080E0401476F426BA1
:10228E00416B406B0E0E456F140E446F7B0E436F09
:10229E00800E466F1200080E576F526B516B506BCB
:1022AE000E0E556F140E546F7B0E536F800E566FBD
:1022BE001200080E4F6F4A6B496B486B0E0E4D6F36
:1022CE00140E4C6F7B0E4B6F800E4E6F1200FAC4C5
:1022DE0009F5FBC40AF5AF9004EC11F00AC5FBF446
:1022EE0009C5FAF41100FAC40BF5FBC40CF5B49051
:1022FE0014EC11F00CC5FBF40BC5FAF41100FAC482
:10230E000DF5FBC40EF5B89024EC11F00EC5FBF4E0
:10231E000DC5FAF41100BD92070E0001D56F5BC515
:10232E00D7F05AC5D7F011001200126EB9EC11F0A9
:10233E000009D8B4FBD7125045EC12F01200600E13
:10234E000001AD6FAF6BB36B080EB16FB06BAC6BC2
:10235E00120001EC0BF083EC00F09FEC0EF0D2ECCF
:10236E0010F0FBD7116A0201C3BBBEAB02D0010E47
:10237E00116E1150120011501210D8B4120011C566
:10238E0079F512C57AF5120011501210D8B4120058
:10239E0011C57BF512C57CF5120011501210D8B480
:1023AE00120011C57DF512C57EF51200550E000105
:1023BE00B46FAA0EB46FB481120011C5E5F512C543
:1023CE00E6F5120011C5E7F512C5E8F5120011C5C4
:1023DE00E3F512C5E4F5120011C5DFF512C5E0F5FF
:1023EE00120011C5E1F512C5E2F5120011C5DDF5B9
:1023FE0012C5DEF5120011C581F512C582F5120067
:10240E0011C583F512C584F5120011C585F512C5E7
:10241E0086F5120011C5A8F612C5A9F6120011C54F
:10242E00A4F612C5A5F6120011C5EDF512C5EEF50E
:10243E00120011C5A6F612C5A7F6120011C5ACF60C
:10244E0012C5ADF6120011C5E9F512C5EAF5120076
:10245E0011C5EBF512C5ECF5120011C5AAF612C5A1
:04246E00ABF61200B7
:0A2474006EC5FAF46DC5F9F411000D
:1024800070C5FAF46FC5F9F41100116E11C5B6F2FA
:102490001200040EE86FFC8D1200030EE86FFC8D35
:1024A0001200020EE86FFC8D1200010EE86FFC8D29
:1024B00012000001E86BFC8D120060EC12F01200BB
:0624C0000001419F120023
:1024C800BC961100B8961100B496110012001200C3
:1024D8001200120012001200110012001200120065
:10BDF40000040008000D00110016001A001F0023A3
:10BE04000028002C00310035003A003E0043004772
:10BE1400004B005000540059005D00620066006B46
:10BE2400006F00740078007D00810086008A008F16
:10BE340000930097009C00A000A500A900AE00B2EA
:10BE440000B700BB00C000C400C900CD00D200D6BA
:10BE540000DB00DF00E300E800EC00F100F500FA8D
:10BE640000FE00030107010C011001150119011E58
:10BE740001220127012B012F01340138013D014129
:10BE84000146014A014F01530158015C01610165FA
:10BE9400016A016E01720177017B018001840189CD
:10BEA400018D01920196019B019F01A401A801AD9E
:10BEB40001B101B601BA01BE01C301C701CC01D071
:10BEC40001D501D901DE01E201E701EB01F001F442
:10BED40001F901FD01020206020A020F021302180F
:10BEE400021C02210225022A022E02330237023CDE
:10BEF400024002450249024E02520256025B025FB0
:10BF040002640268026D02710276027A027F028381
:10BF14000288028C02910295029A029E02A202A752
:10BF240002AB02B002B402B902BD02C202C602CB25
:10BF340002CF02D402D802DD02E102E502EA02EEF7
:10BF440002F302F702FC020003050309030E0312C5
:10BF54000317031B032003240329032D0331033692
:10BF6400033A033F03430348034C03510355035A65
:10BF7400035E03630367036C037003750379037D36
:10BF840003820386038B038F03940398039D03A109
:10BF940003A603AA03AF03B303B803BC03C103C5D9
:10BFA40003C903CE03D203D703DB03E003E403E9AD
:10BFB40003ED03F203F603FB03FF03040408040D7B
:10BFC40004110415041A041E04230427042C043049
:10BFD40004350439043E04420447044B0450045419
:10BFE4000458045D04610466046A046F04730478ED
:10BFF400047C04810485048A048E04930497049CBD
:10C0040004A004A404A904AD04B204B604BB04BF90
:10C0140004C404C804CD04D104D604DA04DF04E360
:10C0240004E804EC04F004F504F904FE0402050732
:10C03400050B051005140519051D05220526052BFC
:10C04400052F05340538053C05410545054A054ECF
:10C0540005530557055C056005650569056E0572A0
:10C064000577057B058005840588058D0591059672
:10C07400059A059F05A305A805AC05B105B505BA44
:10C0840005BE05C305C705CB05D005D405D905DD17
:10C0940005E205E605EB05EF05F405F805FD0501E8
:10C0A4000606060A060F06130617061C06200625B2
:10C0B4000629062E06320637063B06400644064984
:10C0C400064D06520656065B065F06630668066C56
:10C0D40006710675067A067E06830687068C069028
:10C0E40006950699069E06A206A706AB06AF06B4F9
:10C0F40006B806BD06C106C606CA06CF06D306D8CC
:10C1040006DC06E106E506EA06EE06F206F706FB9D
:10C11400060007040709070D07120716071B071F68
:10C1240007240728072D07310736073A073E074338
:10C134000747074C075007550759075E076207670B
:10C14400076B077007740779077D07820786078ADC
:10C15400078F07930798079C07A107A507AA07AEAF
:10C1640007B307B707BC07C007C507C907CE07D27F
:10C1740007D607DB07DF07E407E807ED07F107F653
:10C1840007FA07FF07030808080C08110815081A1E
:10C19400081E08220827082B083008340839083DEF
:10C1A40008420846084B084F08540858085D0861BF
:10C1B4000865086A086E08730877087C0880088593
:10C1C4000889088E08920897089B08A008A408A963
:10C1D40008AD08B108B608BA08BF08C308C808CC37
:10C1E40008D108D508DA08DE08E308E708EC08F007
:10C1F40008F508F908FD08020906090B090F0914D6
:10C204000918091D09210926092A092F09330938A2
:10C21400093C094109450949094E09520957095B75
:10C22400096009640969096D09720976097B097F46
:10C2340009840988098D09910995099A099E09A318
:10C2440009A709AC09B009B509B909BE09C209C7EA
:10C2540009CB09D009D409D809DD09E109E609EABD
:10C2640009EF09F309F809FC09010A050A0A0A0E8B
:10C274000A130A170A1C0A200A240A290A2D0A3258
:10C284000A360A3B0A3F0A440A480A4D0A510A562A
:10C294000A5A0A5F0A630A680A6C0A700A750A79FC
:10C2A4000A7E0A820A870A8B0A900A940A990A9DCE
:10C2B4000AA20AA60AAB0AAF0AB40AB80ABC0AC19F
:10C2C4000AC50ACA0ACE0AD30AD70ADC0AE00AE572
:10C2D4000AE90AEE0AF20AF70AFB0A000B040B0841
:10C2E4000B0D0B110B160B1A0B1F0B230B280B2C0E
:10C2F4000B310B350B3A0B3E0B430B470B4B0B50DF
:10C304000B540B590B5D0B620B660B6B0B6F0B74B1
:10C314000B780B7D0B810B860B8A0B8F0B930B9782
:10C324000B9C0BA00BA50BA90BAE0BB20BB70BBB55
:10C334000BC00BC40BC90BCD0BD20BD60BDB0BDF25
:10C344000BE30BE80BEC0BF10BF50BFA0BFE0B03F9
:10C354000C070C0C0C100C150C190C1E0C220C27C1
:10C364000C2B0C2F0C340C380C3D0C410C460C4A95
:10C374000C4F0C530C580C5C0C610C650C6A0C6E65
:10C384000C720C770C7B0C800C840C890C8D0C9239
:10C394000C960C9B0C9F0CA40CA80CAD0CB10CB609
:10C3A4000CBA0CBE0CC30CC70CCC0CD00CD50CD9DD
:10C3B4000CDE0CE20CE70CEB0CF00CF40CF90CFDAD
:10C3C4000C020D060D0A0D0F0D130D180D1C0D2179
:10C3D4000D250D2A0D2E0D330D370D3C0D400D4549
:10C3E4000D490D4E0D520D560D5B0D5F0D640D681C
:10C3F4000D6D0D710D760D7A0D7F0D830D880D8CED
:10C404000D910D950D9A0D9E0DA20DA70DAB0DB0BE
:10C414000DB40DB90DBD0DC20DC60DCB0DCF0DD490
:10C424000DD80DDD0DE10DE50DEA0DEE0DF30DF763
:10C434000DFC0D000E050E090E0E0E120E170E1B2E
:10C444000E200E240E290E2D0E310E360E3A0E3FFE
:10C454000E430E480E4C0E510E550E5A0E5E0E63D0
:10C464000E670E6C0E700E750E790E7D0E820E86A2
:10C474000E8B0E8F0E940E980E9D0EA10EA60EAA74
:10C484000EAF0EB30EB80EBC0EC10EC50EC90ECE45
:10C494000ED20ED70EDB0EE00EE40EE90EED0EF218
:10C4A4000EF60EFB0EFF0E040F080F0D0F110F15E5
:10C4B4000F1A0F1E0F230F270F2C0F300F350F39B4
:10C4C4000F3E0F420F470F4B0F500F540F580F5D85
:10C4D4000F610F660F6A0F6F0F730F780F7C0F8158
:10C4E4000F850F8A0F8E0F930F970F9C0FA00FA429
:10C4F4000FA90FAD0FB20FB60FBB0FBF0FC40FC8FC
:10C504000FCD0FD10FD60FDA0FDF0FE30FE80FECCB
:10C514000FF00FF50FF90FFE0F021007100B10109C
:10C5240010141019101D10221026102B102F103467
:10C534001038103C10411045104A104E105310573B
:10C54400105C106010651069106E10721077107B0B
:10C55400108010841088108D10911096109A109FDE
:10C5640010A310A810AC10B110B510BA10BE10C3AF
:10C5740010C710CB10D010D410D910DD10E210E683
:10C5840010EB10EF10F410F810FD10011106110A51
:10C59400110F11131117111C112011251129112E1E
:10C5A40011321137113B114011441149114D1152EF
:10C5B4001156115B115F11631168116C11711175C2
:10C5C400117A117E11831187118C11901195119993
:10C5D400119E11A211A711AB11AF11B411B811BD65
:10C5E40011C111C611CA11CF11D311D811DC11E137
:10C5F40011E511EA11EE11F211F711FB1100120409
:10C604001209120D12121216121B121F12241228D2
:10C61400122D12311236123A123E12431247124CA4
:10C62400125012551259125E12621267126B127076
:10C6340012741279127D12821286128A128F129348
:10C644001298129C12A112A512AA12AE12B312B71A
:10C6540012BC12C012C512C912CE12D212D612DBEB
:10C6640012DF12E412E812ED12F112F612FA12FFBE
:10C6740012031308130C13111315131A131E132288
:10C684001327132B133013341339133D134213465A
:10C69400134B134F13541358135D13611365136A2B
:10C6A400136E13731377137C138013851389138EFE
:10C6B40013921397139B13A013A413A913AD13B1CF
:10C6C40013B613BA13BF13C313C813CC13D113D5A2
:10C6D40013DA13DE13E313E713EC13F013F513F972
:10C6E40013FD13021406140B140F14141418141D40
:10C6F40014211426142A142F14331438143C14410E
:10C7040014451449144E14521457145B14601464E1
:10C714001469146D14721476147B147F14841488B1
:10C72400148D14911495149A149E14A314A714AC84
:10C7340014B014B514B914BE14C214C714CB14D055
:10C7440014D414D814DD14E114E614EA14EF14F329
:10C7540014F814FC14011505150A150E15131517F4
:10C76400151C152015241529152D15321536153BC4
:10C77400153F15441548154D15511556155A155F95
:10C7840015631568156C157015751579157E158268
:10C794001587158B159015941599159D15A215A639
:10C7A40015AB15AF15B415B815BC15C115C515CA0B
:10C7B40015CE15D315D715DC15E015E515E915EEDD
:10C7C40015F215F715FB150016041608160D1611AB
:10C7D4001616161A161F16231628162C1631163579
:10C7E400163A163E16431647164B1650165416594B
:10C7F400165D16621666166B166F16741678167D1D
:10C8040016811686168A168F16931697169C16A0EE
:10C8140016A516A916AE16B216B716BB16C016C4C0
:10C8240016C916CD16D216D616DB16DF16E316E891
:10C8340016EC16F116F516FA16FE16031707170C62
:10C84400171017151719171E17221727172B172F2D
:10C8540017341738173D17411746174A174F175300
:10C864001758175C17611765176A176E17721777D1
:10C87400177B178017841789178D17921796179BA4
:10C88400179F17A417A817AD17B117B617BA17BE75
:10C8940017C317C717CC17D017D517D917DE17E248
:10C8A40017E717EB17F017F417F917FD1702180617
:10C8B400180A180F18131818181C18211825182AE4
:10C8C400182E18331837183C184018451849184EB4
:10C8D40018521856185B185F18641868186D187188
:10C8E4001876187A187F18831888188C1891189558
:10C8F400189A189E18A218A718AB18B018B418B92B
:10C9040018BD18C218C618CB18CF18D418D818DDFB
:10C9140018E118E518EA18EE18F318F718FC1800CF
:10C9240019051909190E19121917191B1920192497
:10C934001929192D19311936193A193F194319486A
:10C94400194C19511955195A195E19631967196C3B
:10C95400197019751979197D19821986198B198F0E
:10C9640019941998199D19A119A619AA19AF19B3DF
:10C9740019B819BC19C119C519C919CE19D219D7B1
:10C9840019DB19E019E419E919ED19F219F619FB83
:10C9940019FF19041A081A0D1A111A151A1A1A1E4F
:10C9A4001A231A271A2C1A301A351A391A3E1A421F
:10C9B4001A471A4B1A501A541A581A5D1A611A66F1
:10C9C4001A6A1A6F1A731A781A7C1A811A851A8AC3
:10C9D4001A8E1A931A971A9C1AA01AA41AA91AAD95
:10C9E4001AB21AB61ABB1ABF1AC41AC81ACD1AD167
:10C9F4001AD61ADA1ADF1AE31AE81AEC1AF01AF538
:10CA04001AF91AFE1A021B071B0B1B101B141B1905
:10CA14001B1D1B221B261B2B1B2F1B341B381B3CD3
:10CA24001B411B451B4A1B4E1B531B571B5C1B60A6
:10CA34001B651B691B6E1B721B771B7B1B801B8476
:10CA44001B881B8D1B911B961B9A1B9F1BA31BA84A
:10CA54001BAC1BB11BB51BBA1BBE1BC31BC71BCB1B
:10CA64001BD01BD41BD91BDD1BE21BE61BEB1BEFEE
:10CA74001BF41BF81BFD1B011C061C0A1C0F1C13BA
:10CA84001C171C1C1C201C251C291C2E1C321C378A
:10CA94001C3B1C401C441C491C4D1C521C561C5B5A
:10CAA4001C5F1C631C681C6C1C711C751C7A1C7E2E
:10CAB4001C831C871C8C1C901C951C991C9E1CA2FE
:10CAC4001CA71CAB1CAF1CB41CB81CBD1CC11CC6D1
:10CAD4001CCA1CCF1CD31CD81CDC1CE11CE51CEAA2
:10CAE4001CEE1CF21CF71CFB1C001D041D091D0D73
:10CAF4001D121D161D1B1D1F1D241D281D2D1D313E
:10CB04001D361D3A1D3E1D431D471D4C1D501D5510
:10CB14001D591D5E1D621D671D6B1D701D741D79E1
:10CB24001D7D1D821D861D8A1D8F1D931D981D9CB4
:10CB34001DA11DA51DAA1DAE1DB31DB71DBC1DC085
:10CB44001DC51DC91DCE1DD21DD61DDB1DDF1DE457
:10CB54001DE81DED1DF11DF61DFA1DFF1D031E0828
:10CB64001E0C1E111E151E1A1E1E1E221E271E2BF3
:10CB74001E301E341E391E3D1E421E461E4B1E4FC5
:10CB84001E541E581E5D1E611E651E6A1E6E1E7397
:10CB94001E771E7C1E801E851E891E8E1E921E9769
:10CBA4001E9B1EA01EA41EA91EAD1EB11EB61EBA3B
:10CBB4001EBF1EC31EC81ECC1ED11ED51EDA1EDE0D
:10CBC4001EE31EE71EEC1EF01EF51EF91EFD1E02DE
:10CBD4001F061F0B1F0F1F141F181F1D1F211F26A9
:10CBE4001F2A1F2F1F331F381F3C1F411F451F497A
:10CBF4001F4E1F521F571F5B1F601F641F691F6D4D
:10CC04001F721F761F7B1F7F1F841F881F8D1F911C
:10CC14001F951F9A1F9E1FA31FA71FAC1FB01FB5F0
:10CC24001FB91FBE1FC21FC71FCB1FD01FD41FD8C1
:10CC34001FDD1FE11FE61FEA1FEF1FF31FF81FFC94
:10CC44001F012005200A200E20132017201C20205D
:10CC540020242029202D20322036203B203F204430
:10CC64002048204D20512056205A205F2063206800
:10CC7400206C207020752079207E20822087208BD4
:10CC8400209020942099209D20A220A620AB20AFA4
:10CC940020B420B820BC20C120C520CA20CE20D377
:10CCA40020D720DC20E020E520E920EE20F220F748
:10CCB40020FB200021042108210D21112116211A15
:10CCC400211F21232128212C21312135213A213EE4
:10CCD40021432147214B215021542159215D2162B7
:10CCE4002166216B216F21742178217D2181218688
:10CCF400218A218F21932197219C21A021A521A95B
:10CD040021AE21B221B721BB21C021C421C921CD2B
:10CD140021D221D621DB21DF21E321E821EC21F1FD
:10CD240021F521FA21FE21032207220C22102215CB
:10CD34002219221E22222227222B222F2234223899
:10CD4400223D22412246224A224F22532258225C6B
:10CD540022612265226A226E22722277227B22803D
:10CD640022842289228D22922296229B229F22A40F
:10CD740022A822AD22B122B622BA22BE22C322C7E1
:10CD840022CC22D022D522D922DE22E222E722EBB3
:10CD940022F022F422F922FD22022306230A230F81
:10CDA40023132318231C23212325232A232E23334F
:10CDB4002337233C234023452349234E2352235620
:10CDC400235B235F23642368236D23712376237AF3
:10CDD400237F23832388238C23912395239A239EC3
:10CDE40023A223A723AB23B023B423B923BD23C297
:10CDF40023C623CB23CF23D423D823DD23E123E568
:10CE040023EA23EE23F323F723FC23002405240938
:10CE1400240E24122417241B242024242429242D02
:10CE240024312436243A243F24432448244C2451D6
:10CE34002455245A245E24632467246C24702475A6
:10CE44002479247D24822486248B248F249424987A
:10CE5400249D24A124A624AA24AF24B324B824BC4A
:10CE640024C124C524C924CE24D224D724DB24E01D
:10CE740024E424E924ED24F224F624FB24FF2404EE
:10CE84002508250D25112515251A251E25232527B9
:10CE9400252C253025352539253E25422547254B8A
:10CEA400255025542558255D25612566256A256F5D
:10CEB40025732578257C25812585258A258E25932E
:10CEC4002597259C25A025A425A925AD25B225B601
:10CED40025BB25BF25C425C825CD25D125D625DAD2
:10CEE40025DF25E325E825EC25F025F525F925FEA4
:10CEF40025022607260B261026142619261D26226F
:10CF04002626262B262F26342638263C264126453F
:10CF1400264A264E26532657265C26602665266911
:10CF2400266E26722677267B268026842688268DE2
:10CF340026912696269A269F26A326A826AC26B1B5
:10CF440026B526BA26BE26C326C726CB26D026D487
:10CF540026D926DD26E226E626EB26EF26F426F859
:10CF640026FD26012706270A270F27132717271C24
:10CF7400272027252729272E27322737273B2740F5
:10CF840027442749274D27522756275B275F2763C6
:10CF94002768276C27712775277A277E2783278799
:10CFA400278C279027952799279E27A227A727AB69
:10CFB40027AF27B427B827BD27C127C627CA27CF3D
:10CFC40027D327D827DC27E127E527EA27EE27F20E
:10CFD40027F727FB270028042809280D28122816DC
:10CFE400281B281F28242828282D28312836283AA9
:10CFF400283E28432847284C285028552859285E7D
:10D0040028622867286B287028742879287D28824C
:10D014002886288A288F28932898289C28A128A520
:10D0240028AA28AE28B328B728BC28C028C528C9F0
:10D0340028CE28D228D628DB28DF28E428E828EDC3
:10D0440028F128F628FA28FF28032908290C291191
:10D054002915291A291E29222927292B293029345F
:10D064002939293D29422946294B294F2954295830
:10D07400295D29612965296A296E29732977297C03
:10D08400298029852989298E29922997299B29A0D4
:10D0940029A429A929AD29B129B629BA29BF29C3A7
:10D0A40029C829CC29D129D529DA29DE29E329E778
:10D0B40029EC29F029F529F929FD29022A062A0B48
:10D0C4002A0F2A142A182A1D2A212A262A2A2A2F14
:10D0D4002A332A382A3C2A412A452A492A4E2A52E6
:10D0E4002A572A5B2A602A642A692A6D2A722A76B8
:10D0F4002A7B2A7F2A842A882A8D2A912A952A9A89
:10D104002A9E2AA32AA72AAC2AB02AB52AB92ABE5B
:10D114002AC22AC72ACB2AD02AD42AD82ADD2AE12D
:10D124002AE62AEA2AEF2AF32AF82AFC2A012B05FE
:10D134002B0A2B0E2B132B172B1C2B202B242B29C8
:10D144002B2D2B322B362B3B2B3F2B442B482B4D9B
:10D154002B512B562B5A2B5F2B632B682B6C2B706C
:10D164002B752B792B7E2B822B872B8B2B902B943F
:10D174002B992B9D2BA22BA62BAB2BAF2BB42BB80F
:10D184002BBC2BC12BC52BCA2BCE2BD32BD72BDCE3
:10D194002BE02BE52BE92BEE2BF22BF72BFB2B00B3
:10D1A4002C042C082C0D2C112C162C1A2C1F2C237F
:10D1B4002C282C2C2C312C352C3A2C3E2C432C474F
:10D1C4002C4B2C502C542C592C5D2C622C662C6B23
:10D1D4002C6F2C742C782C7D2C812C862C8A2C8FF3
:10D1E4002C932C972C9C2CA02CA52CA92CAE2CB2C7
:10D1F4002CB72CBB2CC02CC42CC92CCD2CD22CD697
:10D204002CDB2CDF2CE32CE82CEC2CF12CF52CFA69
:10D214002CFE2C032D072D0C2D102D152D192D1E34
:10D224002D222D272D2B2D2F2D342D382D3D2D4105
:10D234002D462D4A2D4F2D532D582D5C2D612D65D6
:10D244002D6A2D6E2D722D772D7B2D802D842D89A9
:10D254002D8D2D922D962D9B2D9F2DA42DA82DAD7A
:10D264002DB12DB62DBA2DBE2DC32DC72DCC2DD04D
:10D274002DD52DD92DDE2DE22DE72DEB2DF02DF41E
:10D284002DF92DFD2D022E062E0A2E0F2E132E18EB
:10D294002E1C2E212E252E2A2E2E2E332E372E3CBA
:10D2A4002E402E452E492E4E2E522E562E5B2E5F8C
:10D2B4002E642E682E6D2E712E762E7A2E7F2E835E
:10D2C4002E882E8C2E912E952E9A2E9E2EA22EA72F
:10D2D4002EAB2EB02EB42EB92EBD2EC22EC62ECB02
:10D2E4002ECF2ED42ED82EDD2EE12EE52EEA2EEED4
:10D2F4002EF32EF72EFC2E002F052F092F0E2F12A2
:10D304002F172F1B2F202F242F292F2D2F312F366E
:10D314002F3A2F3F2F432F482F4C2F512F552F5A41
:10D324002F5E2F632F672F6C2F702F752F792F7D12
:10D334002F822F862F8B2F8F2F942F982F9D2FA1E5
:10D344002FA62FAA2FAF2FB32FB82FBC2FC12FC5B5
:10D354002FC92FCE2FD22FD72FDB2FE02FE42FE989
:10D364002FED2FF22FF62FFB2FFF2F043008300D57
:10D3740030113015301A301E30233027302C303025
:10D3840030353039303E30423047304B30503054F5
:10D394003058305D30613066306A306F30733078C9
:10D3A400307C30813085308A308E30933097309C99
:10D3B40030A030A430A930AD30B230B630BB30BF6D
:10D3C40030C430C830CD30D130D630DA30DF30E33D
:10D3D40030E830EC30F030F530F930FE300231070F
:10D3E400310B311031143119311D31223126312BD9
:10D3F400312F31343138313C31413145314A314EAC
:10D4040031533157315C316031653169316E31727C
:10D414003177317B318031843188318D319131964E
:10D42400319A319F31A331A831AC31B131B531BA20
:10D4340031BE31C331C731CB31D031D431D931DDF3
:10D4440031E231E631EB31EF31F431F831FD3101C4
:10D454003206320A320F32133217321C322032258E
:10D464003229322E32323237323B32403244324960
:10D47400324D32523256325B325F32633268326C32
:10D4840032713275327A327E32833287328C329004
:10D4940032953299329E32A232A732AB32AF32B4D5
:10D4A40032B832BD32C132C632CA32CF32D332D8A8
:10D4B40032DC32E132E532EA32EE32F232F732FB7A
:10D4C400320033043309330D33123316331B331F45
:10D4D40033243328332D33313336333A333E334315
:10D4E4003347334C335033553359335E33623367E8
:10D4F400336B337033743379337D33823386338AB9
:10D50400338F33933398339C33A133A533AA33AE8B
:10D5140033B333B733BC33C033C533C933CE33D25B
:10D5240033D633DB33DF33E433E833ED33F133F62F
:10D5340033FA33FF33033408340C34113415341AFA
:10D54400341E34223427342B343034343439343DCB
:10D5540034423446344B344F34543458345D34619B
:10D564003465346A346E34733477347C348034856F
:10D574003489348E34923497349B34A034A434A93F
:10D5840034AD34B134B634BA34BF34C334C834CC13
:10D5940034D134D534DA34DE34E334E734EC34F0E3
:10D5A40034F534F934FD34023506350B350F3514B2
:10D5B4003518351D35213526352A352F353335387F
:10D5C400353C354135453549354E35523557355B52
:10D5D400356035643569356D35723576357B357F23
:10D5E40035843588358D35913595359A359E35A3F5
:10D5F40035A735AC35B035B535B935BE35C235C7C7
:10D6040035CB35D035D435D835DD35E135E635EA99
:10D6140035EF35F335F835FC35013605360A360E67
:10D6240036133617361C362036243629362D363234
:10D634003636363B363F36443648364D3651365606
:10D64400365A365F36633668366C367036753679D8
:10D65400367E36823687368B369036943699369DAA
:10D6640036A236A636AB36AF36B436B836BC36C17B
:10D6740036C536CA36CE36D336D736DC36E036E54E
:10D6840036E936EE36F236F736FB3600370437081D
:10D69400370D37113716371A371F37233728372CEA
:10D6A40037313735373A373E37433747374B3750BB
:10D6B40037543759375D37623766376B376F37748E
:10D6C4003778377D37813786378A378F379337975F
:10D6D400379C37A037A537A937AE37B237B737BB32
:10D6E40037C037C437C937CD37D237D637DB37DF02
:10D6F40037E337E837EC37F137F537FA37FE3703D6
:10D704003807380C381038153819381E382238279D
:10D71400382B382F38343838383D38413846384A71
:10D72400384F38533858385C38613865386A386E41
:10D7340038723877387B388038843889388D389215
:10D744003896389B389F38A438A838AD38B138B6E5
:10D7540038BA38BE38C338C738CC38D038D538D9B9
:10D7640038DE38E238E738EB38F038F438F938FD89
:10D7740038023906390A390F39133918391C392155
:10D784003925392A392E39333937393C3940394525
:10D794003949394E39523956395B395F39643968F8
:10D7A400396D39713976397A397F39833988398CC9
:10D7B40039913995399A399E39A239A739AB39B09B
:10D7C40039B439B939BD39C239C639CB39CF39D46D
:10D7D40039D839DD39E139E539EA39EE39F339F740
:10D7E40039FC39003A053A093A0E3A123A173A1B0B
:10D7F4003A203A243A293A2D3A313A363A3A3A3FDB
:10D804003A433A483A4C3A513A553A5A3A5E3A63AC
:10D814003A673A6C3A703A753A793A7D3A823A867E
:10D824003A8B3A8F3A943A983A9D3AA13AA63AAA50
:10D834003AAF3AB33AB83ABC3AC13AC53AC93ACE21
:10D844003AD23AD73ADB3AE03AE43AE93AED3AF2F4
:10D854003AF63AFB3AFF3A043B083B0D3B113B15C1
:10D864003B1A3B1E3B233B273B2C3B303B353B3990
:10D874003B3E3B423B473B4B3B503B543B583B5D61
:10D884003B613B663B6A3B6F3B733B783B7C3B8134
:10D894003B853B8A3B8E3B933B973B9C3BA03BA405
:10D8A4003BA93BAD3BB23BB63BBB3BBF3BC43BC8D8
:10D8B4003BCD3BD13BD63BDA3BDF3BE33BE83BECA8
:10D8C4003BF03BF53BF93BFE3B023C073C0B3C1079
:10D8D4003C143C193C1D3C223C263C2B3C2F3C3444
:10D8E4003C383C3C3C413C453C4A3C4E3C533C5718
:10D8F4003C5C3C603C653C693C6E3C723C773C7BE8
:10D904003C803C843C883C8D3C913C963C9A3C9FBA
:10D914003CA33CA83CAC3CB13CB53CBA3CBE3CC38B
:10D924003CC73CCB3CD03CD43CD93CDD3CE23CE65F
:10D934003CEB3CEF3CF43CF83CFD3C013D063D0A2D
:10D944003D0F3D133D173D1C3D203D253D293D2EFA
:10D954003D323D373D3B3D403D443D493D4D3D52CB
:10D964003D563D5B3D5F3D633D683D6C3D713D759E
:10D974003D7A3D7E3D833D873D8C3D903D953D996F
:10D984003D9E3DA23DA73DAB3DAF3DB43DB83DBD41
:10D994003DC13DC63DCA3DCF3DD33DD83DDC3DE113
:10D9A4003DE53DEA3DEE3DF23DF73DFB3D003E04E5
:10D9B4003E093E0D3E123E163E1B3E1F3E243E28AF
:10D9C4003E2D3E313E363E3A3E3E3E433E473E4C81
:10D9D4003E503E553E593E5E3E623E673E6B3E7053
:10D9E4003E743E793E7D3E823E863E8A3E8F3E9325
:10D9F4003E983E9C3EA13EA53EAA3EAE3EB33EB7F7
:10DA04003EBC3EC03EC53EC93ECE3ED23ED63EDBC7
:10DA14003EDF3EE43EE83EED3EF13EF63EFA3EFF9A
:10DA24003E033F083F0C3F113F153F1A3F1E3F2264
:10DA34003F273F2B3F303F343F393F3D3F423F4636
:10DA44003F4B3F4F3F543F583F5D3F613F653F6A07
:10DA54003F6E3F733F773F7C3F803F853F893F8EDA
:10DA64003F923F973F9B3FA03FA43FA93FAD3FB1AB
:10DA74003FB63FBA3FBF3FC33FC83FCC3FD13FD57E
:10DA84003FDA3FDE3FE33FE73FEC3FF03FF53FF94E
:10DA94003FFD3F024006400B400F40144018401D1C
:10DAA40040214026402A402F40334038403C4041EA
:10DAB40040454049404E40524057405B40604064BE
:10DAC4004069406D40724076407B407F408440888E
:10DAD400408D40914095409A409E40A340A740AC61
:10DAE40040B040B540B940BE40C240C740CB40D032
:10DAF40040D440D840DD40E140E640EA40EF40F306
:10DB040040F840FC40014105410A410E41134117D0
:10DB1400411C412041244129412D41324136413BA0
:10DB2400413F41444148414D41514156415A415F71
:10DB340041634168416C417041754179417E418244
:10DB44004187418B419041944199419D41A241A615
:10DB540041AB41AF41B441B841BC41C141C541CAE7
:10DB640041CE41D341D741DC41E041E541E941EEB9
:10DB740041F241F741FB410042044208420D421187
:10DB84004216421A421F42234228422C4231423555
:10DB9400423A423E42434247424B42504254425927
:10DBA400425D42624266426B426F42744278427DF9
:10DBB40042814286428A428F42934297429C42A0CB
:10DBC40042A542A942AE42B242B742BB42C042C49D
:10DBD40042C942CD42D242D642DB42DF42E342E86E
:10DBE40042EC42F142F542FA42FE42034307430C3F
:10DBF400431043154319431E43224327432B432F0A
:10DC040043344338433D43414346434A434F4353DC
:10DC14004358435C43614365436A436E43724377AD
:10DC2400437B438043844389438D43924396439B80
:10DC3400439F43A443A843AD43B143B643BA43BE51
:10DC440043C343C743CC43D043D543D943DE43E224
:10DC540043E743EB43F043F443F943FD43024406F3
:10DC6400440A440F44134418441C44214425442AC0
:10DC7400442E44334437443C444044454449444E90
:10DC840044524456445B445F44644468446D447164
:10DC94004476447A447F44834488448C4491449534
:10DCA400449A449E44A244A744AB44B044B444B907
:10DCB40044BD44C244C644CB44CF44D444D844DDD8
:10DCC40044E144E544EA44EE44F344F744FC4400AC
:10DCD40045054509450E45124517451B4520452474
:10DCE4004529452D45314536453A453F4543454847
:10DCF400454C45514555455A455E45634567456C18
:10DD0400457045754579457D45824586458B458FEA
:10DD140045944598459D45A145A645AA45AF45B3BB
:10DD240045B845BC45C145C545C945CE45D245D78D
:10DD340045DB45E045E445E945ED45F245F645FB5F
:10DD440045FF45044608460D46114615461A461E2B
:10DD540046234627462C463046354639463E4642FB
:10DD64004647464B465046544658465D46614666CD
:10DD7400466A466F46734678467C46814685468A9F
:10DD8400468E46934697469C46A046A446A946AD71
:10DD940046B246B646BB46BF46C446C846CD46D143
:10DDA40046D646DA46DF46E346E846EC46F046F514
:10DDB40046F946FE46024707470B471047144719E2
:10DDC400471D47224726472B472F47344738473CB0
:10DDD40047414745474A474E47534757475C476083
:10DDE40047654769476E47724777477B4780478453
:10DDF40047FFFFFFFFFFFFFFFF17E5E8BEA2A32ECB
:10DE04008F457F8B722168745F1C58D1515D4C978C
:10DE1400476143A23F493C45398B361034CD31BA72
:10DE24002FD12D0E2C6C2AE8287F272E26F324CB05
:10DE340023B522B021BA20D11FF51E241E5E1DA2D7
:10DE44001CF01B451BA31A081A7419E6185F18DD89
:10DE5400176017E816751607169C153615D3147433
:10DE6400141814BF136A131713C71279122E12E56C
:10DE7400119F115A111811D81099105D102210E831
:10DE84000FB00F7A0F450F120FE00EAF0E7F0E5139
:10DE94000E240EF80DCC0DA20D790D510D2A0D0492
:10DEA4000DDE0CBA0C960C730C510C2F0C0E0CEEF0
:10DEB4000BCF0BB00B910B740B570B3A0B1E0B03D0
:10DEC4000BE80ACE0AB40A9B0A820A690A510A3A82
:10DED4000A230A0C0AF509DF09CA09B509A0098B46
:10DEE400097709630950093C09290917090409F24A
:10DEF40008E108CF08BE08AD089C088C087C086CB3
:10DF0400085C084C083D082E081F0811080208F494
:10DF140007E607D807CA07BD07B007A20795078910
:10DF2400077C077007630757074B073F0734072829
:10DF3400071D0712070607FC06F106E606DB06D1F5
:10DF440006C706BC06B206A8069F0695068B06827F
:10DF54000678066F0666065D0654064B06420639C9
:10DF64000631062806200617060F060706FF05F7E2
:10DF740005EF05E705DF05D805D005C805C105BAD5
:10DF840005B205AB05A4059D0596058F0588058199
:10DF9400057B0574056D05670560055A0553054D38
:10DFA40005470541053A0534052E05280522051DBA
:10DFB40005170511050B0506050005FA04F504EF20
:10DFC40004EA04E504DF04DA04D504D004CA04C571
:10DFD40004C004BB04B604B104AC04A804A3049EA6
:10DFE400049904940490048B04870482047D0479C6
:10DFF40004740470046C04670463045F045A0456D4
:10E004000452044E044A04460442043E043A0436CC
:10E014000432042E042A04260422041E041B0417BA
:10E024000413040F040C04080404040104FD03FA9B
:10E0340003F603F303EF03EC03E803E503E203DE73
:10E0440003DB03D803D403D103CE03CA03C703C439
:10E0540003C103BE03BB03B803B403B103AE03ABF4
:10E0640003A803A503A2039F039D039A03970394A4
:10E074000391038E038B0389038603830380037E4A
:10E08400037B0378037503730370036D036B0368E9
:10E09400036603630361035E035B0359035603547E
:10E0A4000351034F034D034A03480345034303410C
:10E0B400033E033C033A0337033503330330032E93
:10E0C400032C032A0327032503230321031F031C13
:10E0D400031A03180316031403120310030D030B8E
:10E0E4000309030703050303030103FF02FD02FB06
:10E0F40002F902F702F502F302F102EF02ED02EC7B
:10E1040002EA02E802E602E402E202E002DE02DDE2
:10E1140002DB02D902D702D502D402D202D002CE47
:10E1240002CC02CB02C902C702C602C402C202C0A8
:10E1340002BF02BD02BB02BA02B802B602B502B304
:10E1440002B102B002AE02AD02AB02A902A802A65D
:10E1540002A502A302A202A0029F029D029B029AB0
:10E164000298029702950294029202910290028E02
:10E17400028D028B028A028802870285028402834E
:10E1840002810280027E027D027C027A0279027799
:10E1940002760275027302720271026F026E026DE0
:10E1A400026B026A02690268026602650264026224
:10E1B40002610260025F025D025C025B025A025865
:10E1C4000257025602550254025202510250024FA3
:10E1D400024E024C024B024A0249024802460245E0
:10E1E40002440243024202410240023E023D023C1A
:10E1F400023B023A02390238023702360235023350
:10E20400023202310230022F022E022D022C022B86
:10E21400022A0229022802270226022502240223B6
:10E22400022202210220021F021E021D021C021BE6
:10E23400021A021902180217021602150214021316
:10E24400021202110210020F020E020D020C020B46
:10E25400020A020902080207020702060205020472
:10E26400020302020201020002FF01FE01FD01FDA0
:10E2740001FC01FB01FA01F901F801F701F601F6CD
:10E2840001F501F401F301F201F101F101F001EFF3
:10E2940001EE01ED01EC01EC01EB01EA01E901E819
:10E2A40001E701E701E601E501E401E301E301E23D
:10E2B40001E101E001DF01DF01DE01DD01DC01DC60
:10E2C40001DB01DA01D901D801D801D701D601D582
:10E2D40001D501D401D301D201D201D101D001CFA2
:10E2E40001CF01CE01CD01CD01CC01CB01CA01CAC0
:10E2F40001C901C801C801C701C601C501C501C4DE
:10E3040001C301C301C201C101C101C001BF01BFF9
:10E3140001BE01BD01BC01BC01BB01BA01BA01B916
:10E3240001B801B801B701B601B601B501B501B430
:10E3340001B301B301B201B101B101B001AF01AF49
:10E3440001AE01AD01AD01AC01AC01AB01AA01AA62
:10E3540001A901A801A801A701A701A601A501A57A
:10E3640001A401A401A301A201A201A101A101A090
:10E37400019F019F019E019E019D019D019C019BA6
:10E38400019B019A019A01990198019801970197BB
:10E3940001960196019501950194019301930192CF
:10E3A40001920191019101900190018F018E018EE2
:10E3B400018D018D018C018C018B018B018A018AF5
:10E3C4000189018901880188018701860186018507
:10E3D4000185018401840183018301820182018119
:10E3E400018101800180017F017F017E017E017D29
:10E3F400017D017C017C017B017B017A017A017939
:10E404000179017801780177017701760176017647
:10E414000175017501740174017301730172017254
:10E424000171017101700170016F016F016F016E63
:10E43400016E016D016D016C016C016B016B016A70
:10E44400016A016A0169016901680168016701677C
:10E454000166016601660165016501640164016389
:10E464000163016301620162016101610160016094
:10E474000160015F015F015E015E015D015D015D9F
:10E48400015C015C015B015B015B015A015A0159AA
:10E4940001590158015801580157015701560156B5
:10E4A40001560155015501540154015401530153BE
:10E4B40001530152015201510151015101500150C6
:10E4C400014F014F014F014E014E014D014D014DD0
:10E4D400014C014C014C014B014B014A014A014AD8
:10E4E40001490149014901480148014801470147DF
:10E4F40001460146014601450145014501440144E7
:10E5040001440143014301420142014201410141ED
:10E514000141014001400140013F013F013F013EF3
:10E52400013E013E013D013D013D013C013C013BF9
:10E53400013B013B013A013A013A01390139013900
:10E544000138013801380137013701370136013606
:10E55400013601350135013501340134013401340A
:10E56400013301330133013201320132013101310E
:10E574000131013001300130012F012F012F012E13
:10E58400012E012E012D012D012D012D012C012C17
:10E59400012C012B012B012B012A012A012A012A1A
:10E5A400012901290129012801280128012701271E
:10E5B4000127012701260126012601250125012520
:10E5C4000124012401240124012301230123012224
:10E5D4000122012201220121012101210120012026
:10E5E40001200120011F011F011F011E011E011E28
:10E5F400011E011D011D011D011C011C011C011C2A
:10E60400011B011B011B011B011A011A011A01192B
:10E61400011901190119011801180118011801172C
:10E62400011701170117011601160116011501152D
:10E63400011501150114011401140114011301132E
:10E64400011301130112011201120112011101112E
:10E65400011101110110011001100110010F010F2E
:10E66400010F010F010E010E010E010E010D010D2E
:10E67400010D010D010C010C010C010C010B010B2E
:10E68400010B010B010A010A010A010A010901092E
:10E69400010901090108010801080108010701072E
:10E6A400010701070106010601060106010601052D
:10E6B400010501050105010401040104010401032C
:10E6C400010301030103010301020102010201022A
:10E6D400010101010101010101000100010001002A
:10E6E400010001FF00FF00FF00FF00FE00FE00FE2E
:10E6F40000FE00FE00FD00FD00FD00FD00FD00FC2D
:10E7040000FC00FC00FC00FB00FB00FB00FB00FB2A
:10E7140000FA00FA00FA00FA00F900F900F900F929
:10E7240000F900F800F800F800F800F800F700F726
:10E7340000F700F700F700F600F600F600F600F622
:10E7440000F500F500F500F500F400F400F400F421
:10E7540000F400F300F300F300F300F300F200F21E
:10E7640000F200F200F200F100F100F100F100F11A
:10E7740000F000F000F000F000F000EF00EF00EF18
:10E7840000EF00EF00EE00EE00EE00EE00EE00EE13
:10E7940000ED00ED00ED00ED00ED00EC00EC00EC10
:10E7A40000EC00EC00EB00EB00EB00EB00EB00EA0C
:10E7B40000EA00EA00EA00EA00EA00E900E900E908
:10E7C40000E900E900E800E800E800E800E800E704
:10E7D40000E700E700E700E700E700E600E600E600
:10E7E40000E600E600E500E500E500E500E500E5FB
:10E7F40000E400E400E400E400E400E400E300E3F7
:10E8040000E300E300E300E200E200E200E200E2F1
:10E8140000E200E100E100E100E100E100E100E0EC
:10E8240000E000E000E000E000E000DF00DF00DFE7
:10E8340000DF00DF00DE00DE00DE00DE00DE00DEE2
:10E8440000DD00DD00DD00DD00DD00DD00DC00DCDE
:10E8540000DC00DC00DC00DC00DB00DB00DB00DBD8
:10E8640000DB00DB00DA00DA00DA00DA00DA00DAD2
:10E8740000DA00D900D900D900D900D900D900D8CC
:10E8840000D800D800D800D800D800D700D700D7C7
:10E8940000D700D700D700D600D600D600D600D6C1
:10E8A40000D600D600D500D500D500D500D500D5BA
:10E8B40000D400D400D400D400D400D400D400D3B5
:10E8C40000D300D300D300D300D300D200D200D2AF
:10E8D40000D200D200D200D200D100D100D100D1A8
:10E8E40000D100D100D100D000D000D000D000D0A1
:10E8F40000D000CF00CF00CF00CF00CF00CF00CF9B
:10E9040000CE00CE00CE00CE00CE00CE00CE00CD94
:10E9140000CD00CD00CD00CD00CD00CD00CC00CC8D
:10E9240000CC00CC00CC00CC00CC00CB00CB00CB86
:10E9340000CB00CB00CB00CB00CA00CA00CA00CA7F
:10E9440000CA00CA00CA00C900C900C900C900C978
:10E9540000C900C900C800C800C800C800C800C871
:10E9640000C800C800C700C700C700C700C700C769
:10E9740000C700C600C600C600C600C600C600C662
:10E9840000C500C500C500C500C500C500C500C55B
:10E9940000C400C400C400C400C400C400C400C453
:10E9A40000C300C300C300C300C300C300C300C24C
:10E9B40000C200C200C200C200C200C200C200C144
:10E9C40000C100C100C100C100C100C100C100C03C
:10E9D40000C000C000C000C000C000C000C000BF34
:10E9E40000BF00BF00BF00BF00BF00BF00BF00BE2C
:10E9F40000BE00BE00BE00BE00BE00BE00BE00BD24
:10EA040000BD00BD00BD00BD00BD00BD00BD00BC1B
:10EA140000BC00BC00BC00BC00BC00BC00BC00BB13
:10EA240000BB00BB00BB00BB00BB00BB00BB00BB0A
:10EA340000BA00BA00BA00BA00BA00BA00BA00BA02
:10EA440000B900B900B900B900B900B900B900B9FA
:10EA540000B900B800B800B800B800B800B800B8F1
:10EA640000B800B700B700B700B700B700B700B7E9
:10EA740000B700B700B600B600B600B600B600B6E0
:10EA840000B600B600B600B500B500B500B500B5D7
:10EA940000B500B500B500B500B400B400B400B4CE
:10EAA40000B400B400B400B400B400B300B300B3C5
:10EAB40000B300B300B300B300B300B300B200B2BC
:10EAC40000B200B200B200B200B200B200B200B1B3
:10EAD40000B100B100B100B100B100B100B100B1AA
:10EAE40000B000B000B000B000B000B000B000B0A2
:10EAF40000B000B000AF00AF00AF00AF00AF00AF98
:10EB040000AF00AF00AF00AE00AE00AE00AE00AE8E
:10EB140000AE00AE00AE00AE00AE00AD00AD00AD84
:10EB240000AD00AD00AD00AD00AD00AD00AD00AC7A
:10EB340000AC00AC00AC00AC00AC00AC00AC00AC71
:10EB440000AB00AB00AB00AB00AB00AB00AB00AB69
:10EB540000AB00AB00AA00AA00AA00AA00AA00AA5F
:10EB640000AA00AA00AA00AA00A900A900A900A955
:10EB740000A900A900A900A900A900A900A900A84A
:10EB840000A800A800A800A800A800A800A800A841
:10EB940000A800A700A700A700A700A700A700A738
:10EBA40000A700A700A700A600A600A600A600A62E
:10EBB40000A600A600A600A600A600A600A500A523
:10EBC40000A500A500A500A500A500A500A500A519
:10EBD40000A500A400A400A400A400A400A400A410
:10EBE40000A400A400A400A400A300A300A300A305
:10EBF40000A300A300A300A300A300A300A200A2FB
:10EC040000A200A200A200A200A200A200A200A2F0
:10EC140000A200A200A100A100A100A100A100A1E6
:10EC240000A100A100A100A100A100A000A000A0DB
:10EC340000A000A000A000A000A000A000A000A0D0
:10EC4400009F009F009F009F009F009F009F009FC8
:10EC5400009F009F009F009F009E009E009E009EBC
:10EC6400009E009E009E009E009E009E009E009DB1
:10EC7400009D009D009D009D009D009D009D009DA8
:10EC8400009D009D009D009C009C009C009C009C9D
:10EC9400009C009C009C009C009C009C009C009B91
:10ECA400009B009B009B009B009B009B009B009B88
:10ECB400009B009B009B009A009A009A009A009A7D
:10ECC400009A009A009A009A009A009A009A009A70
:10ECD4000099009900990099009900990099009968
:10ECE400009900990099009900980098009800985C
:10ECF4000098009800980098009800980098009850
:10ED04000098009700970097009700970097009746
:10ED1400009700970097009700970096009600963A
:10ED2400009600960096009600960096009600962F
:10ED34000096009600950095009500950095009525
:10ED44000095009500950095009500950095009517
:10ED5400009400940094009400940094009400940F
:10ED64000094009400940094009400930093009302
:10ED740000930093009300930093009300930093F7
:10ED840000930093009200920092009200920092ED
:10ED940000920092009200920092009200920092DF
:10EDA40000910091009100910091009100910091D7
:10EDB40000910091009100910091009100900090C9
:10EDC40000900090009000900090009000900090BF
:10EDD4000090009000900090008F008F008F008FB3
:10EDE400008F008F008F008F008F008F008F008FA7
:10EDF400008F008F008E008E008E008E008E008E9D
:10EE0400008E008E008E008E008E008E008E008E8E
:10EE1400008E008D008D008D008D008D008D008D85
:10EE2400008D008D008D008D008D008D008D008C77
:10EE3400008C008C008C008C008C008C008C008C6E
:10EE4400008C008C008C008C008C008C008B008B60
:10EE5400008B008B008B008B008B008B008B008B56
:10EE6400008B008B008B008B008B008A008A008A49
:10EE7400008A008A008A008A008A008A008A008A3E
:10EE8400008A008A008A008A008900890089008932
:10EE94000089008900890089008900890089008926
:10EEA400008900890089008900880088008800881A
:10EEB400008800880088008800880088008800880E
:10EEC4000088008800880088008700870087008702
:10EED40000870087008700870087008700870087F6
:10EEE40000870087008700870086008600860086EA
:10EEF40000860086008600860086008600860086DE
:10EF040000860086008600860085008500850085D1
:10EF140000850085008500850085008500850085C5
:10EF240000850085008500850084008400840084B9
:10EF340000840084008400840084008400840084AD
:10EF440000840084008400840084008300830083A0
:10EF54000083008300830083008300830083008395
:10EF64000083008300830083008300830082008287
:10EF7400008200820082008200820082008200827D
:10EF8400008200820082008200820082008200816E
:10EF94000081008100810081008100810081008165
:10EFA4000081008100810081008100810081008155
:10EFB400008100800080008000800080008000804C
:10EFC400008000800080008000800080008000803D
:10EFD40000800080007F007F007F007F007F007F33
:10EFE400007F007F007F007F007F007F007F007F25
:10EFF400007F007F007F007F007E007E007E007E19
:10F00400007E007E007E007E007E007E007E007E0C
:10F01400007E007E007E007E007E007E007E007DFD
:10F02400007D007D007D007D007D007D007D007DF4
:10F03400007D007D007D007D007D007D007D007DE4
:10F04400007D007C007C007C007C007C007C007CDB
:10F05400007C007C007C007C007C007C007C007CCC
:10F06400007C007C007C007C007B007B007B007BC0
:10F07400007B007B007B007B007B007B007B007BB4
:10F08400007B007B007B007B007B007B007B007BA4
:10F09400007A007A007A007A007A007A007A007A9C
:10F0A400007A007A007A007A007A007A007A007A8C
:10F0B400007A007A007A0079007900790079007981
:10F0C4000079007900790079007900790079007974
:10F0D4000079007900790079007900790079007865
:10F0E400007800780078007800780078007800785C
:10F0F400007800780078007800780078007800784C
:10F104000078007800780077007700770077007740
:10F114000077007700770077007700770077007733
:10F124000077007700770077007700770077007723
:10F13400007600760076007600760076007600761B
:10F14400007600760076007600760076007600760B
:10F1540000760076007600760076007500750075FE
:10F1640000750075007500750075007500750075F3
:10F1740000750075007500750075007500750075E3
:10F1840000750075007400740074007400740074D9
:10F1940000740074007400740074007400740074CB
:10F1A40000740074007400740074007400740073BC
:10F1B40000730073007300730073007300730073B3
:10F1C40000730073007300730073007300730073A3
:10F1D4000073007300730073007300720072007296
:10F1E400007200720072007200720072007200728B
:10F1F400007200720072007200720072007200727B
:10F20400007200720072007200710071007100716E
:10F214000071007100710071007100710071007162
:10F224000071007100710071007100710071007152
:10F234000071007100710070007000700070007047
:10F24400007000700070007000700070007000703A
:10F25400007000700070007000700070007000702A
:10F2640000700070006F006F006F006F006F006F20
:10F27400006F006F006F006F006F006F006F006F12
:10F28400006F006F006F006F006F006F006F006F02
:10F29400006F006E006E006E006E006E006E006EF9
:10F2A400006E006E006E006E006E006E006E006EEA
:10F2B400006E006E006E006E006E006E006E006EDA
:10F2C400006E006D006D006D006D006D006D006DD1
:10F2D400006D006D006D006D006D006D006D006DC2
:10F2E400006D006D006D006D006D006D006D006DB2
:10F2F400006D006D006C006C006C006C006C006CA8
:10F30400006C006C006C006C006C006C006C006C99
:10F31400006C006C006C006C006C006C006C006C89
:10F32400006C006C006C006B006B006B006B006B7E
:10F33400006B006B006B006B006B006B006B006B71
:10F34400006B006B006B006B006B006B006B006B61
:10F35400006B006B006B006B006A006A006A006A55
:10F36400006A006A006A006A006A006A006A006A49
:10F37400006A006A006A006A006A006A006A006A39
:10F38400006A006A006A006A006A006A006900692B
:10F394000069006900690069006900690069006921
:10F3A4000069006900690069006900690069006911
:10F3B4000069006900690069006900690069006901
:10F3C40000680068006800680068006800680068F9
:10F3D40000680068006800680068006800680068E9
