:0400000081EF00F09C
:10000800854885488548854840008548400085489A
:1000180012488548854885488548854885488548E3
:100028008548400040004000854885488548854807
:1000380085488548854885488548854885487C475A
:10004800854885488548854840004000AB4540457F
:1000580085488548854840008548854865475B450B
:1000680018483446854880488548854885488548E5
:100078008548854885488548400085483447764501
:100088008548854885488548854885488548854800
:100098008548854885488548400085484000400097
:1000A8001E48854885487F4885488548854885484D
:1000B80085488548854881488548854885488548D4
:1000C80085488548854885488548854885488548C0
:1000D80085488548854885488548854885488548B0
:1000E800400085488548DA4740004000400040000D
:0E00F8008548854885488548FF0083EF88F0DD
:10C6940000FFFFFFFFFFFFFFFFFFFFFFFFFFFFFFA5
:10C6A400FFFFFFFFFFFFFFFFFFFFFFFFFFFFFF5D38
:10C6B400F417E59DD7A2CBEBC045B78BAE9CA65E25
:10C6C4009FBA989E92FA8CC187E882657E2E7A3D45
:10C6D400768B72136FCE6BBA68D16510637560FC8C
:10C6E4005DA25B665945573E554E537451AF4FFD9D
:10C6F4004D5D4CCE4A4F49DF477D462845E043A572
:10C704004274414E40323F203E173D163C1E3B2EA4
:10C714003A453964388937B536E7351F355D34A075
:10C7240033E83236328831DF303A309A2FFE2E65C4
:10C734002ED12D402DB32C292CA22B1F2B9F2A2127
:10C744002AA7292F29BA284728D7276927FE2695FB
:10C75400262E26C92567250625A7244A24EF2396D5
:10C76400233E23E82294224122F021A021522105D4
:10C7740021BA2070202720DF1F991F541F101FCDBE
:10C784001E8B1E4B1E0B1ECC1D8F1D521D171DDC38
:10C794001CA21C6A1C321CFB1BC41B8F1B5A1B26AD
:10C7A4001BF31AC11A8F1A5E1A2E1AFF19D019A177
:10C7B40019741947191B19EF18C41899186F1846DA
:10C7C400181D18F517CD17A5177F17581732170D11
:10C7D40017E816C416A0167C16591637161416F246
:10C7E40015D115B0158F156F154F1530151015F29D
:10C7F40014D314B51497147A145D14401423140735
:10C8040014EB13D013B41399137F1364134A133026
:10C81400131713FD12E412CC12B3129B1283126B82
:10C824001253123C1225120E12F711E111CB11B55D
:10C83400119F11891174115F114A11351120110CC6
:10C8440011F810E410D010BC10A910951082106FCC
:10C85400105D104A103810251013100110EF0FDE70
:10C864000FCC0FBB0FAA0F990F880F770F660F56C7
:10C874000F450F350F250F150F050FF60EE60ED7D2
:10C884000EC70EB80EA90E9A0E8B0E7C0E6E0E5F9E
:10C894000E510E430E350E260E190E0B0EFD0DEF26
:10C8A4000DE20DD40DC70DBA0DAD0DA00D930D867F
:10C8B4000D790D6D0D600D540D470D3B0D2F0D239E
:10C8C4000D170D0B0DFF0CF30CE80CDC0CD00CC594
:10C8D4000CBA0CAE0CA30C980C8D0C820C770C6C5F
:10C8E4000C620C570C4C0C420C370C2D0C230C18FE
:10C8F4000C0E0C040CFA0BF00BE60BDC0BD20BC980
:10C904000BBF0BB50BAC0BA20B990B900B860B7DDD
:10C914000B740B6B0B620B590B500B470B3E0B3517
:10C924000B2C0B240B1B0B120B0A0B010BF90AF13A
:10C934000AE80AE00AD80AD00AC70ABF0AB70AAF47
:10C944000AA70A9F0A980A900A880A800A790A7133
:10C954000A690A620A5A0A530A4B0A440A3D0A350A
:10C964000A2E0A270A200A190A110A0A0A030AFCCB
:10C9740009F509EE09E809E109DA09D309CC09C680
:10C9840009BF09B909B209AB09A5099E0998099219
:10C99400098B0985097E09780972096C0966095FA2
:10C9A40009590953094D09470941093B0935092F1B
:10C9B40009290924091E09180912090C0907090182
:10C9C40009FB08F608F008EB08E508E008DA08D5E2
:10C9D40008CF08CA08C408BF08BA08B408AF08AA30
:10C9E40008A5089F089A08950890088B088608816E
:10C9F400087C08770872086D08680863085E08599F
:10CA04000854084F084A08460841083C08370833C8
:10CA1400082E082908250820081C08170812080EE3
:10CA240008090805080008FC07F707F307EF07EAF9
:10CA340007E607E107DD07D907D507D007CC07C804
:10CA440007C407BF07BB07B707B307AF07AB07A602
:10CA540007A2079E079A07960792078E078A0786FA
:10CA64000782077E077B07770773076F076B0767E4
:10CA740007630760075C075807540750074D0749C9
:10CA840007450742073E073A07370733072F072CA6
:10CA9400072807250721071E071A0717071307107A
:10CAA400070C07090705070207FE06FB06F706F44D
:10CAB40006F106ED06EA06E706E306E006DD06D91A
:10CAC40006D606D306D006CC06C906C606C306C0DB
:10CAD40006BC06B906B606B306B006AD06AA06A796
:10CAE40006A306A0069D069A069706940691068E4E
:10CAF400068B068806850682067F067C06790676FE
:10CB040006740671066E066B066806650662065FA5
:10CB1400065D065A065706540651064F064C06494A
:10CB2400064606440641063E063B063906360633EB
:10CB34000631062E062B0629062606230621061E86
:10CB4400061B0619061606140611060F060C06091E
:10CB540006070604060206FF05FD05FA05F805F5B5
:10CB640005F305F005EE05EB05E905E705E405E247
:10CB740005DF05DD05DA05D805D605D305D105CFD2
:10CB840005CC05CA05C805C505C305C105BE05BC58
:10CB940005BA05B705B505B305B105AE05AC05AADB
:10CBA40005A805A505A305A1059F059C059A05985B
:10CBB400059605940592058F058D058B05890587D6
:10CBC400058505830580057E057C057A057805764F
:10CBD400057405720570056E056C056A05680565C2
:10CBE40005630561055F055D055B05590557055539
:10CBF40005530551054F054D054C054A05480546A5
:10CC0400054405420540053E053C053A0538053610
:10CC1400053405330531052F052D052B0529052779
:10CC24000525052405220520051E051C051A0519E0
:10CC340005170515051305110510050E050C050A44
:10CC440005080507050505030501050005FE04FCA7
:10CC540004FA04F904F704F504F404F204F004EE0D
:10CC640004ED04EB04E904E804E604E404E304E169
:10CC740004DF04DE04DC04DA04D904D704D504D4C4
:10CC840004D204D104CF04CD04CC04CA04C904C71B
:10CC940004C504C404C204C104BF04BD04BC04BA72
:10CCA40004B904B704B604B404B304B104AF04AEC5
:10CCB40004AC04AB04A904A804A604A504A304A218
:10CCC40004A0049F049D049C049A04990497049668
:10CCD4000494049304920490048F048D048C048AB5
:10CCE4000489048704860485048304820480047F01
:10CCF400047D047C047B047904780476047504744C
:10CD0400047204710470046E046D046B046A046993
:10CD1400046704660465046304620461045F045EDA
:10CD2400045D045B045A045904570456045504531F
:10CD340004520451044F044E044D044C044A044963
:10CD44000448044604450444044304410440043FA5
:10CD5400043E043C043B043A0439043704360435E5
:10CD64000434043204310430042F042D042C042B25
:10CD7400042A042904270426042504240423042162
:10CD84000420041F041E041D041B041A041904189F
:10CD94000417041604140413041204110410040FD9
:10CDA400040E040C040B040A040904080407040612
:10CDB4000404040304020401040004FF03FE03FD4D
:10CDC40003FB03FA03F903F803F703F603F503F48B
:10CDD40003F303F203F003EF03EE03ED03EC03EBC1
:10CDE40003EA03E903E803E703E603E503E403E3F3
:10CDF40003E203E003DF03DE03DD03DC03DB03DA2A
:10CE040003D903D803D703D603D503D403D303D25A
:10CE140003D103D003CF03CE03CD03CC03CB03CA8A
:10CE240003C903C803C703C603C503C403C303C2BA
:10CE340003C103C003BF03BE03BD03BC03BB03BAEA
:10CE440003B903B803B703B603B503B403B303B21A
:10CE540003B103B003B003AF03AE03AD03AC03AB44
:10CE640003AA03A903A803A703A603A503A403A372
:10CE740003A203A103A103A0039F039E039D039C9C
:10CE8400039B039A039903980397039703960395C7
:10CE940003940393039203910390038F038F038EF0
:10CEA400038D038C038B038A038903880388038718
:10CEB4000386038503840383038203810381038040
:10CEC400037F037E037D037C037B037B037A037967
:10CED400037803770376037603750374037303728D
:10CEE400037103710370036F036E036D036C036CB2
:10CEF400036B036A036903680368036703660365D6
:10CF04000364036403630362036103600360035FF8
:10CF1400035E035D035C035C035B035A035903581C
:10CF2400035803570356035503550354035303523D
:10CF3400035103510350034F034E034E034D034C5F
:10CF4400034B034B034A034903480348034703467F
:10CF5400034503450344034303420342034103409F
:10CF6400033F033F033E033D033C033C033B033ABF
:10CF7400033A0339033803370337033603350334DD
:10CF8400033403330332033203310330032F032FFB
:10CF9400032E032D032D032C032B032B032A032918
:10CFA4000328032803270326032603250324032435
:10CFB40003230322032203210320031F031F031E51
:10CFC400031D031D031C031B031B031A031903196D
:10CFD4000318031703170316031503150314031388
:10CFE40003130312031103110310030F030F030EA2
:10CFF400030D030D030C030C030B030A030A0309BB
:10D0040003080308030703060306030503040304D4
:10D0140003030303030203010301030003FF02FFED
:10D0240002FE02FE02FD02FC02FC02FB02FA02FA0C
:10D0340002F902F902F802F702F702F602F502F524
:10D0440002F402F402F302F202F202F102F102F03B
:10D0540002EF02EF02EE02EE02ED02EC02EC02EB52
:10D0640002EB02EA02E902E902E802E802E702E668
:10D0740002E602E502E502E402E402E302E202E27D
:10D0840002E102E102E002DF02DF02DE02DE02DD93
:10D0940002DD02DC02DB02DB02DA02DA02D902D9A7
:10D0A40002D802D702D702D602D602D502D502D4BC
:10D0B40002D402D302D202D202D102D102D002D0CF
:10D0C40002CF02CF02CE02CD02CD02CC02CC02CBE3
:10D0D40002CB02CA02CA02C902C902C802C702C7F5
:10D0E40002C602C602C502C502C402C402C302C308
:10D0F40002C202C202C102C102C002BF02BF02BE1A
:10D1040002BE02BD02BD02BC02BC02BB02BB02BA2B
:10D1140002BA02B902B902B802B802B702B702B63B
:10D1240002B602B502B502B402B402B302B202B24C
:10D1340002B102B102B002B002AF02AF02AE02AE5F
:10D1440002AD02AD02AC02AC02AB02AB02AA02AA6F
:10D1540002A902A902A802A802A702A702A602A67F
:10D1640002A602A502A502A402A402A302A302A28B
:10D1740002A202A102A102A002A0029F029F029E9B
:10D18400029E029D029D029C029C029B029B029AAB
:10D19400029A0299029902990298029802970297B8
:10D1A40002960296029502950294029402930293C7
:10D1B4000292029202920291029102900290028FD4
:10D1C400028F028E028E028D028D028C028C028CE2
:10D1D400028B028B028A028A0289028902880288EF
:10D1E40002880287028702860286028502850284FB
:10D1F4000284028402830283028202820281028107
:10D20400028002800280027F027F027E027E027D13
:10D21400027D027D027C027C027B027B027A027A1E
:10D22400027A027902790278027802770277027729
:10D234000276027602750275027402740274027335
:10D244000273027202720271027102710270027040
:10D25400026F026F026F026E026E026D026D026D4A
:10D26400026C026C026B026B026A026A026A026955
:10D27400026902680268026802670267026602665F
:10D284000266026502650264026402640263026368
:10D294000262026202620261026102600260026072
:10D2A400025F025F025E025E025E025D025D025D7B
:10D2B400025C025C025B025B025B025A025A025984
:10D2C400025902590258025802570257025702568D
:10D2D4000256025602550255025402540254025395
:10D2E400025302530252025202510251025102509D
:10D2F40002500250024F024F024E024E024E024DA5
:10D30400024D024D024C024C024B024B024B024AAC
:10D31400024A024A024902490249024802480247B3
:10D3240002470247024602460246024502450245BA
:10D3340002440244024302430243024202420242C2
:10D34400024102410241024002400240023F023FC8
:10D35400023E023E023E023D023D023D023C023CD0
:10D36400023C023B023B023B023A023A023A0239D5
:10D3740002390239023802380238023702370236DB
:10D3840002360236023502350235023402340234E2
:10D3940002330233023302320232023202310231E8
:10D3A4000231023002300230022F022F022F022EED
:10D3B400022E022E022D022D022D022C022C022CF2
:10D3C400022B022B022B022A022A022A02290229F8
:10D3D40002290228022802280227022702270227FC
:10D3E4000226022602260225022502250224022400
:10D3F4000224022302230223022202220222022105
:10D4040002210221022002200220021F021F021F09
:10D41400021F021E021E021E021D021D021D021C0C
:10D42400021C021C021B021B021B021A021A021A11
:10D43400021A021902190219021802180218021714
:10D444000217021702160216021602160215021518
:10D45400021502140214021402130213021302131B
:10D46400021202120212021102110211021002101F
:10D4740002100210020F020F020F020E020E020E21
:10D48400020D020D020D020D020C020C020C020B25
:10D49400020B020B020B020A020A020A0209020927
:10D4A4000209020902080208020802070207020729
:10D4B400020702060206020602050205020502052B
:10D4C400020402040204020302030203020302022E
:10D4D4000202020202010201020102010200020030
:10D4E400020002FF01FF01FF01FF01FE01FE01FE38
:10D4F40001FD01FD01FD01FD01FC01FC01FC01FC3C
:10D5040001FB01FB01FB01FA01FA01FA01FA01F93D
:10D5140001F901F901F901F801F801F801F701F73E
:10D5240001F701F701F601F601F601F601F501F53F
:10D5340001F501F401F401F401F401F301F301F341
:10D5440001F301F201F201F201F201F101F101F141
:10D5540001F101F001F001F001EF01EF01EF01EF42
:10D5640001EE01EE01EE01EE01ED01ED01ED01ED43
:10D5740001EC01EC01EC01EC01EB01EB01EB01EB43
:10D5840001EA01EA01EA01EA01E901E901E901E844
:10D5940001E801E801E801E701E701E701E701E645
:10D5A40001E601E601E601E501E501E501E501E445
:10D5B40001E401E401E401E301E301E301E301E245
:10D5C40001E201E201E201E101E101E101E101E045
:10D5D40001E001E001E001DF01DF01DF01DF01DE45
:10D5E40001DE01DE01DE01DE01DD01DD01DD01DD43
:10D5F40001DC01DC01DC01DC01DB01DB01DB01DB43
:10D6040001DA01DA01DA01DA01D901D901D901D942
:10D6140001D801D801D801D801D801D701D701D741
:10D6240001D701D601D601D601D601D501D501D540
:10D6340001D501D401D401D401D401D401D301D33F
:10D6440001D301D301D201D201D201D201D101D13E
:10D6540001D101D101D001D001D001D001D001CF3D
:10D6640001CF01CF01CF01CE01CE01CE01CE01CE3B
:10D6740001CD01CD01CD01CD01CC01CC01CC01CC3A
:10D6840001CB01CB01CB01CB01CB01CA01CA01CA39
:10D6940001CA01C901C901C901C901C901C801C837
:10D6A40001C801C801C701C701C701C701C701C635
:10D6B40001C601C601C601C501C501C501C501C533
:10D6C40001C401C401C401C401C401C301C301C331
:10D6D40001C301C201C201C201C201C201C101C12F
:10D6E40001C101C101C001C001C001C001C001BF2D
:10D6F40001BF01BF01BF01BF01BE01BE01BE01BE2A
:10D7040001BD01BD01BD01BD01BD01BC01BC01BC28
:10D7140001BC01BC01BB01BB01BB01BB01BB01BA24
:10D7240001BA01BA01BA01B901B901B901B901B922
:10D7340001B801B801B801B801B801B701B701B720
:10D7440001B701B701B601B601B601B601B601B51C
:10D7540001B501B501B501B501B401B401B401B419
:10D7640001B401B301B301B301B301B301B201B216
:10D7740001B201B201B201B101B101B101B101B112
:10D7840001B001B001B001B001B001AF01AF01AF10
:10D7940001AF01AF01AE01AE01AE01AE01AE01AD0C
:10D7A40001AD01AD01AD01AD01AC01AC01AC01AC09
:10D7B40001AC01AB01AB01AB01AB01AB01AA01AA06
:10D7C40001AA01AA01AA01A901A901A901A901A902
:10D7D40001A801A801A801A801A801A801A701A7FF
:10D7E40001A701A701A701A601A601A601A601A6FA
:10D7F40001A501A501A501A501A501A401A401A4F8
:10D8040001A401A401A401A301A301A301A301A3F1
:10D8140001A201A201A201A201A201A101A101A1EF
:10D8240001A101A101A101A001A001A001A001A0E9
:10D83400019F019F019F019F019F019F019E019EE6
:10D84400019E019E019E019D019D019D019D019DE1
:10D85400019D019C019C019C019C019C019B019BDD
:10D86400019B019B019B019B019A019A019A019AD8
:10D87400019A0199019901990199019901990198D4
:10D8840001980198019801980197019701970197D0
:10D8940001970197019601960196019601960196CA
:10D8A40001950195019501950195019401940194C7
:10D8B40001940194019401930193019301930193C1
:10D8C40001930192019201920192019201920191BC
:10D8D40001910191019101910191019001900190B7
:10D8E40001900190018F018F018F018F018F018FB2
:10D8F400018E018E018E018E018E018E018D018DAE
:10D90400018D018D018D018D018C018C018C018CA7
:10D91400018C018C018B018B018B018B018B018BA1
:10D92400018A018A018A018A018A018A018901899D
:10D934000189018901890189018801880188018897
:10D944000188018801870187018701870187018791
:10D95400018601860186018601860186018601858C
:10D964000185018501850185018501840184018486
:10D974000184018401840183018301830183018380
:10D98400018301820182018201820182018201817B
:10D994000181018101810181018101810180018075
:10D9A4000180018001800180017F017F017F017F6F
:10D9B400017F017F017F017E017E017E017E017E68
:10D9C400017E017D017D017D017D017D017D017C63
:10D9D400017C017C017C017C017C017C017B017B5D
:10D9E400017B017B017B017B017A017A017A017A57
:10D9F400017A017A017A0179017901790179017950
:10DA04000179017901780178017801780178017848
:10DA14000177017701770177017701770177017643
:10DA2400017601760176017601760175017501753D
:10DA34000175017501750175017401740174017436
:10DA4400017401740174017301730173017301732F
:10DA54000173017301720172017201720172017228
:10DA64000172017101710171017101710171017022
:10DA7400017001700170017001700170016F016F1C
:10DA8400016F016F016F016F016F016E016E016E15
:10DA9400016E016E016E016E016D016D016D016D0E
:10DAA400016D016D016D016C016C016C016C016C07
:10DAB400016C016C016B016B016B016B016B016B00
:10DAC400016B016B016A016A016A016A016A016AF8
:10DAD400016A0169016901690169016901690169F1
:10DAE40001680168016801680168016801680167EB
:10DAF40001670167016701670167016701660166E4
:10DB040001660166016601660166016601650165DB
:10DB140001650165016501650165016401640164D4
:10DB240001640164016401640163016301630163CD
:10DB340001630163016301630162016201620162C5
:10DB440001620162016201610161016101610161BE
:10DB540001610161016101600160016001600160B6
:10DB640001600160015F015F015F015F015F015FAF
:10DB7400015F015F015E015E015E015E015E015EA7
:10DB8400015E015E015D015D015D015D015D015D9F
:10DB9400015D015C015C015C015C015C015C015C98
:10DBA400015C015B015B015B015B015B015B015B90
:10DBB400015B015A015A015A015A015A015A015A88
:10DBC400015A015901590159015901590159015980
:10DBD4000158015801580158015801580158015879
:10DBE4000157015701570157015701570157015771
:10DBF4000156015601560156015601560156015669
:10DC04000155015501550155015501550155015560
:10DC14000154015401540154015401540154015458
:10DC24000153015301530153015301530153015350
:10DC34000153015201520152015201520152015247
:10DC4400015201510151015101510151015101513F
:10DC54000151015001500150015001500150015037
:10DC64000150014F014F014F014F014F014F014F2F
:10DC7400014F014F014E014E014E014E014E014E26
:10DC8400014E014E014D014D014D014D014D014D1E
:10DC9400014D014D014C014C014C014C014C014C16
:10DCA400014C014C014C014B014B014B014B014B0D
:10DCB400014B014B014B014A014A014A014A014A05
:10DCC400014A014A014A014A0149014901490149FC
:10DCD40001490149014901490149014801480148F3
:10DCE40001480148014801480148014701470147EB
:10DCF40001470147014701470147014701460146E2
:10DD040001460146014601460146014601460145D8
:10DD140001450145014501450145014501450145CF
:10DD240001440144014401440144014401440144C7
:10DD340001440143014301430143014301430143BE
:10DD440001430143014201420142014201420142B5
:10DD540001420142014201410141014101410141AC
:10DD640001410141014101410140014001400140A3
:10DD740001400140014001400140013F013F013F9A
:10DD8400013F013F013F013F013F013F013E013E91
:10DD9400013E013E013E013E013E013E013E013D88
:10DDA400013D013D013D013D013D013D013D013D7F
:10DDB400013D013C013C013C013C013C013C013C76
:10DDC400013C013C013B013B013B013B013B013B6D
:10DDD400013B013B013B013A013A013A013A013A64
:10DDE400013A013A013A013A013A0139013901395A
:10DDF4000139013901390139013901390138013851
:10DE04000138013801380138013801380138013846
:10DE1400013701370137013701370137013701373E
:10DE24000137013701360136013601360136013634
:10DE3400013601360136013501350135013501352B
:10DE44000135013501350135013501340134013421
:10DE54000134013401340134013401340134013317
:10DE6400013301330133013301330133013301330E
:10DE74000133013201320132013201320132013205
:10DE840001320132013201310131013101310131FB
:10DE940001310131013101310131013001300130F1
:10DEA4000130013001300130013001300130012FE7
:10DEB400012F012F012F012F012F012F012F012FDE
:10DEC400012F012E012E012E012E012E012E012ED5
:10DED400012E012E012E012E012D012D012D012DCA
:10DEE400012D012D012D012D012D012D012C012CC0
:10DEF400012C012C012C012C012C012C012C012CB6
:10DF0400012B012B012B012B012B012B012B012BAD
:10DF1400012B012B012B012A012A012A012A012AA2
:10DF2400012A012A012A012A012A01290129012998
:10DF3400012901290129012901290129012901298D
:10DF44000128012801280128012801280128012885
:10DF5400012801280128012701270127012701277A
:10DF64000127012701270127012701260126012670
:10DF74000126012601260126012601260126012665
:10DF8400012501250125012501250125012501255D
:10DF94000125012501250124012401240124012452
:10DFA4000124012401240124012401240123012347
:10DFB400012301230123012301230123012301233D
:10DFC4000123012201220122012201220122012234
:10DFD4000122012201220122012101210121012129
:10DFE400012101210121012101210121012101201E
:10DFF4000120012001200120012001200120012015
:10E00400012001200120011F011F011F011F011F09
:10E01400011F011F011F011F011F011F011E011EFE
:10E02400011E011E011E011E011E011E011E011EF4
:10E03400011E011D011D011D011D011D011D011DEB
:10E04400011D011D011D011D011D011C011C011CDF
:10E05400011C011C011C011C011C011C011C011CD4
:10E06400011C011B011B011B011B011B011B011BCB
:10E07400011B011B011B011B011A011A011A011AC0
:10E08400011A011A011A011A011A011A011A011AB4
:10E0940001190119011901190119011901190119AC
:10E0A40001190119011901190118011801180118A0
:10E0B4000118011801180118011801180118011894
:10E0C400011701170117011701170117011701178C
:10E0D4000117011701170117011601160116011680
:10E0E4000116011601160116011601160116011674
:10E0F400011501150115011501150115011501156C
:10E10400011501150115011501140114011401145F
:10E114000114011401140114011401140114011453
:10E12400011301130113011301130113011301134B
:10E13400011301130113011301130112011201123E
:10E144000112011201120112011201120112011233
:10E15400011201110111011101110111011101112A
:10E16400011101110111011101110111011001101D
:10E174000110011001100110011001100110011013
:10E1840001100110010F010F010F010F010F010F09
:10E19400010F010F010F010F010F010F010F010EFC
:10E1A400010E010E010E010E010E010E010E010EF3
:10E1B400010E010E010E010E010D010D010D010DE7
:10E1C400010D010D010D010D010D010D010D010DDB
:10E1D400010D010C010C010C010C010C010C010CD2
:10E1E400010C010C010C010C010C010C010B010BC5
:10E1F400010B010B010B010B010B010B010B010BBB
:10E20400010B010B010B010A010A010A010A010AAF
:10E21400010A010A010A010A010A010A010A010AA2
:10E22400010901090109010901090109010901099A
:10E23400010901090109010901090108010801088D
:10E244000108010801080108010801080108010882
:10E254000108010801080107010701070107010777
:10E26400010701070107010701070107010701076A
:10E274000106010601060106010601060106010662
:10E284000106010601060106010601060105010554
:10E29400010501050105010501050105010501054A
:10E2A400010501050105010501040104010401043E
:10E2B4000104010401040104010401040104010432
:10E2C4000104010401030103010301030103010328
:10E2D400010301030103010301030103010301021B
:10E2E4000102010201020102010201020102010212
:10E2F4000102010201020102010201020101010104
:10E3040001010101010101010101010101010101F9
:10E3140001010101010101010100010001000100ED
:10E3240001000100010001000100010001000100E1
:10E334000100010001FF00FF00FF00FF00FF00FFDC
:10E3440000FF00FF00FF00FF00FF00FF00FF00FFD1
:10E3540000FE00FE00FE00FE00FE00FE00FE00FEC9
:10E3640000FE00FE00FE00FE00FE00FE00FE00FDBA
:10E3740000FD00FD00FD00FD00FD00FD00FD00FDB1
:10E3840000FD00FD00FD00FD00FD00FC00FC00FCA4
:10E3940000FC00FC00FC00FC00FC00FC00FC00FC99
:10E3A40000FC00FC00FC00FC00FB00FB00FB00FB8D
:10E3B40000FB00FB00FB00FB00FB00FB00FB00FB81
:10E3C40000FB00FB00FB00FA00FA00FA00FA00FA76
:10E3D40000FA00FA00FA00FA00FA00FA00FA00FA69
:10E3E40000FA00FA00F900F900F900F900F900F95F
:10E3F40000F900F900F900F900F900F900F900F951
:10E4040000F900F800F800F800F800F800F800F847
:10E4140000F800F800F800F800F800F800F800F838
:10E4240000F700F700F700F700F700F700F700F730
:10E4340000F700F700F700F700F700F700F700F720
:10E4440000F600F600F600F600F600F600F600F618
:10E4540000F600F600F600F600F600F600F600F509
:10E4640000F500F500F500F500F500F500F500F500
:10E4740000F500F500F500F500F500F500F500F4F1
:10E4840000F400F400F400F400F400F400F400F4E8
:10E4940000F400F400F400F400F400F400F300F3DA
:10E4A40000F300F300F300F300F300F300F300F3D0
:10E4B40000F300F300F300F300F300F300F200F2C2
:10E4C40000F200F200F200F200F200F200F200F2B8
:10E4D40000F200F200F200F200F200F200F100F1AA
:10E4E40000F100F100F100F100F100F100F100F1A0
:10E4F40000F100F100F100F100F100F100F000F092
:10E5040000F000F000F000F000F000F000F000F087
:10E5140000F000F000F000F000F000F000EF00EF79
:10E5240000EF00EF00EF00EF00EF00EF00EF00EF6F
:10E5340000EF00EF00EF00EF00EF00EF00EF00EE60
:10E5440000EE00EE00EE00EE00EE00EE00EE00EE57
:10E5540000EE00EE00EE00EE00EE00EE00EE00ED48
:10E5640000ED00ED00ED00ED00ED00ED00ED00ED3F
:10E5740000ED00ED00ED00ED00ED00ED00ED00ED2F
:10E5840000EC00EC00EC00EC00EC00EC00EC00EC27
:10E5940000EC00EC00EC00EC00EC00EC00EC00EC17
:10E5A40000EC00EB00EB00EB00EB00EB00EB00EB0E
:10E5B40000EB00EB00EB00EB00EB00EB00EB00EBFF
:10E5C40000EB00EB00EA00EA00EA00EA00EA00EAF5
:10E5D40000EA00EA00EA00EA00EA00EA00EA00EAE7
:10E5E40000EA00EA00EA00E900E900E900E900E9DC
:10E5F40000E900E900E900E900E900E900E900E9CF
:10E6040000E900E900E900E900E800E800E800E8C2
:10E6140000E800E800E800E800E800E800E800E8B6
:10E6240000E800E800E800E800E800E700E700E7A9
:10E6340000E700E700E700E700E700E700E700E79E
:10E6440000E700E700E700E700E700E700E700E68F
:10E6540000E600E600E600E600E600E600E600E686
:10E6640000E600E600E600E600E600E600E600E676
:10E6740000E500E500E500E500E500E500E500E56E
:10E6840000E500E500E500E500E500E500E500E55E
:10E6940000040008000D00110016001A001F0023DA
:10E6A4000028002C00310035003A003E00430047AA
:10E6B400004B005000540059005D00620066006B7E
:10E6C400006F00740078007D00810086008A008F4E
:10E6D40000930097009C00A000A500A900AE00B222
:10E6E40000B700BB00C000C400C900CD00D200D6F2
:10E6F40000DB00DF00E300E800EC00F100F500FAC5
:10E7040000FE00030107010C011001150119011E8F
:10E7140001220127012B012F01340138013D014160
:10E724000146014A014F01530158015C0161016531
:10E73400016A016E01720177017B01800184018904
:10E74400018D01920196019B019F01A401A801ADD5
:10E7540001B101B601BA01BE01C301C701CC01D0A8
:10E7640001D501D901DE01E201E701EB01F001F479
:10E7740001F901FD01020206020A020F0213021846
:10E78400021C02210225022A022E02330237023C15
:10E79400024002450249024E02520256025B025FE7
:10E7A40002640268026D02710276027A027F0283B9
:10E7B4000288028C02910295029A029E02A202A78A
:10E7C40002AB02B002B402B902BD02C202C602CB5D
:10E7D40002CF02D402D802DD02E102E502EA02EE2F
:10E7E40002F302F702FC020003050309030E0312FD
:10E7F4000317031B032003240329032D03310336CA
:10E80400033A033F03430348034C03510355035A9C
:10E81400035E03630367036C037003750379037D6D
:10E8240003820386038B038F03940398039D03A140
:10E8340003A603AA03AF03B303B803BC03C103C510
:10E8440003C903CE03D203D703DB03E003E403E9E4
:10E8540003ED03F203F603FB03FF03040408040DB2
:10E8640004110415041A041E04230427042C043080
:10E8740004350439043E04420447044B0450045450
:10E884000458045D04610466046A046F0473047824
:10E89400047C04810485048A048E04930497049CF4
:10E8A40004A004A404A904AD04B204B604BB04BFC8
:10E8B40004C404C804CD04D104D604DA04DF04E398
:10E8C40004E804EC04F004F504F904FE040205076A
:10E8D400050B051005140519051D05220526052B34
:10E8E400052F05340538053C05410545054A054E07
:10E8F40005530557055C056005650569056E0572D8
:10E904000577057B058005840588058D05910596A9
:10E91400059A059F05A305A805AC05B105B505BA7B
:10E9240005BE05C305C705CB05D005D405D905DD4E
:10E9340005E205E605EB05EF05F405F805FD05011F
:10E944000606060A060F06130617061C06200625E9
:10E954000629062E06320637063B064006440649BB
:10E96400064D06520656065B065F06630668066C8D
:10E9740006710675067A067E06830687068C06905F
:10E9840006950699069E06A206A706AB06AF06B430
:10E9940006B806BD06C106C606CA06CF06D306D803
:10E9A40006DC06E106E506EA06EE06F206F706FBD5
:10E9B400060007040709070D07120716071B071FA0
:10E9C40007240728072D07310736073A073E074370
:10E9D4000747074C075007550759075E0762076743
:10E9E400076B077007740779077D07820786078A14
:10E9F400078F07930798079C07A107A507AA07AEE7
:10EA040007B307B707BC07C007C507C907CE07D2B6
:10EA140007D607DB07DF07E407E807ED07F107F68A
:10EA240007FA07FF07030808080C08110815081A55
:10EA3400081E08220827082B083008340839083D26
:10EA440008420846084B084F08540858085D0861F6
:10EA54000865086A086E08730877087C08800885CA
:10EA64000889088E08920897089B08A008A408A99A
:10EA740008AD08B108B608BA08BF08C308C808CC6E
:10EA840008D108D508DA08DE08E308E708EC08F03E
:10EA940008F508F908FD08020906090B090F09140D
:10EAA4000918091D09210926092A092F09330938DA
:10EAB400093C094109450949094E09520957095BAD
:10EAC400096009640969096D09720976097B097F7E
:10EAD40009840988098D09910995099A099E09A350
:10EAE40009A709AC09B009B509B909BE09C209C722
:10EAF40009CB09D009D409D809DD09E109E609EAF5
:10EB040009EF09F309F809FC09010A050A0A0A0EC2
:10EB14000A130A170A1C0A200A240A290A2D0A328F
:10EB24000A360A3B0A3F0A440A480A4D0A510A5661
:10EB34000A5A0A5F0A630A680A6C0A700A750A7933
:10EB44000A7E0A820A870A8B0A900A940A990A9D05
:10EB54000AA20AA60AAB0AAF0AB40AB80ABC0AC1D6
:10EB64000AC50ACA0ACE0AD30AD70ADC0AE00AE5A9
:10EB74000AE90AEE0AF20AF70AFB0A000B040B0878
:10EB84000B0D0B110B160B1A0B1F0B230B280B2C45
:10EB94000B310B350B3A0B3E0B430B470B4B0B5016
:10EBA4000B540B590B5D0B620B660B6B0B6F0B74E9
:10EBB4000B780B7D0B810B860B8A0B8F0B930B97BA
:10EBC4000B9C0BA00BA50BA90BAE0BB20BB70BBB8D
:10EBD4000BC00BC40BC90BCD0BD20BD60BDB0BDF5D
:10EBE4000BE30BE80BEC0BF10BF50BFA0BFE0B0331
:10EBF4000C070C0C0C100C150C190C1E0C220C27F9
:10EC04000C2B0C2F0C340C380C3D0C410C460C4ACC
:10EC14000C4F0C530C580C5C0C610C650C6A0C6E9C
:10EC24000C720C770C7B0C800C840C890C8D0C9270
:10EC34000C960C9B0C9F0CA40CA80CAD0CB10CB640
:10EC44000CBA0CBE0CC30CC70CCC0CD00CD50CD914
:10EC54000CDE0CE20CE70CEB0CF00CF40CF90CFDE4
:10EC64000C020D060D0A0D0F0D130D180D1C0D21B0
:10EC74000D250D2A0D2E0D330D370D3C0D400D4580
:10EC84000D490D4E0D520D560D5B0D5F0D640D6853
:10EC94000D6D0D710D760D7A0D7F0D830D880D8C24
:10ECA4000D910D950D9A0D9E0DA20DA70DAB0DB0F6
:10ECB4000DB40DB90DBD0DC20DC60DCB0DCF0DD4C8
:10ECC4000DD80DDD0DE10DE50DEA0DEE0DF30DF79B
:10ECD4000DFC0D000E050E090E0E0E120E170E1B66
:10ECE4000E200E240E290E2D0E310E360E3A0E3F36
:10ECF4000E430E480E4C0E510E550E5A0E5E0E6308
:10ED04000E670E6C0E700E750E790E7D0E820E86D9
:10ED14000E8B0E8F0E940E980E9D0EA10EA60EAAAB
:10ED24000EAF0EB30EB80EBC0EC10EC50EC90ECE7C
:10ED34000ED20ED70EDB0EE00EE40EE90EED0EF24F
:10ED44000EF60EFB0EFF0E040F080F0D0F110F151C
:10ED54000F1A0F1E0F230F270F2C0F300F350F39EB
:10ED64000F3E0F420F470F4B0F500F540F580F5DBC
:10ED74000F610F660F6A0F6F0F730F780F7C0F818F
:10ED84000F850F8A0F8E0F930F970F9C0FA00FA460
:10ED94000FA90FAD0FB20FB60FBB0FBF0FC40FC833
:10EDA4000FCD0FD10FD60FDA0FDF0FE30FE80FEC03
:10EDB4000FF00FF50FF90FFE0F021007100B1010D4
:10EDC40010141019101D10221026102B102F10349F
:10EDD4001038103C10411045104A104E1053105773
:10EDE400105C106010651069106E10721077107B43
:10EDF400108010841088108D10911096109A109F16
:10EE040010A310A810AC10B110B510BA10BE10C3E6
:10EE140010C710CB10D010D410D910DD10E210E6BA
:10EE240010EB10EF10F410F810FD10011106110A88
:10EE3400110F11131117111C112011251129112E55
:10EE440011321137113B114011441149114D115226
:10EE54001156115B115F11631168116C11711175F9
:10EE6400117A117E11831187118C119011951199CA
:10EE7400119E11A211A711AB11AF11B411B811BD9C
:10EE840011C111C611CA11CF11D311D811DC11E16E
:10EE940011110023003500470059006B007D008FDD
:10EEA40000A000B200C400D600E800FA000C011E65
:10EEB400012F01410153016501770189019B01ADD6
:10EEC40001BE01D001E201F401060218022A023C4B
:10EED400024E025F02710283029502A702B902CBBD
:10EEE40002DD02EE02000312032403360348035A30
:10EEF400036C037D038F03A103B303C503D703E9A5
:10EF040003FB030D041E0430044204540466047815
:10EF1400048A049C04AD04BF04D104E304F504078B
:10EF24000519052B053C054E0560057205840596FB
:10EF340005A805BA05CB05DD05EF05010613062571
:10EF440006370649065B066C067E069006A206B4E2
:10EF540006C606D806EA06FB060D071F0731074357
:10EF6400075507670779078A079C07AE07C007D2CA
:10EF740007E407F60708081A082B083D084F08613C
:10EF840008730885089708A908BA08CC08DE08F0B1
:10EF940008020914092609380949095B096D097F22
:10EFA400099109A309B509C709D809EA09FC090E99
:10EFB4000A200A320A440A560A680A790A8B0A9D08
:10EFC4000AAF0AC10AD30AE50AF70A080B1A0B2C7E
:10EFD4000B3E0B500B620B740B860B970BA90BBBF0
:10EFE4000BCD0BDF0BF10B030C150C270C380C4A63
:10EFF4000C5C0C6E0C800C920CA40CB60CC70CD9D7
:10F004000CEB0CFD0C0F0D210D330D450D560D6849
:10F014000D7A0D8C0D9E0DB00DC20DD40DE50DF7BE
:10F024000D090E1B0E2D0E3F0E510E630E750E862E
:10F034000E980EAA0EBC0ECE0EE00EF20E040F15A4
:10F044000F270F390F4B0F5D0F6F0F810F930FA415
:10F054000FB60FC80FDA0FEC0FFE0F10102210348A
:10F06400104510571069107B108D109F10B110C3FC
:10F0740010D410E610F8100A111C112E1140115270
:10F08400116311751187119911AB11BD11CF11E1E4
:10F0940011F2110412161228123A124C125E127056
:10F0A4001282129312A512B712C912DB12ED12FFCB
:10F0B40012111322133413461358136A137C138E3C
:10F0C40013A013B113C313D513E713F9130B141DB2
:10F0D400142F14411452146414761488149A14AC22
:10F0E40014BE14D014E114F3140515171529153B97
:10F0F400154D155F15701582159415A615B815CA0A
:10F1040015DC15EE1500161116231635164716597B
:10F11400166B167D168F16A016B216C416D616E8F0
:10F1240016FA160C171E172F174117531765177762
:10F134001789179B17AD17BE17D017E217F41706D8
:10F144001818182A183C184E185F18711883189547
:10F1540018A718B918CB18DD18EE180019121924BD
:10F1640019361948195A196C197D198F19A119B32F
:10F1740019C519D719E919FB190D1A1E1A301A42A3
:10F184001A541A661A781A8A1A9C1AAD1ABF1AD116
:10F194001AE31AF51A071B191B2B1B3C1B4E1B6089
:10F1A4001B721B841B961BA81BBA1BCB1BDD1BEFFE
:10F1B4001B011C131C251C371C491C5B1C6C1C7E6E
:10F1C4001C901CA21CB41CC61CD81CEA1CFB1C0DE5
:10F1D4001D1F1D311D431D551D671D791D8A1D9C55
:10F1E4001DAE1DC01DD21DE41DF61D081E1A1E2BCA
:10F1F4001E3D1E4F1E611E731E851E971EA91EBA3C
:10F204001ECC1EDE1EF01E021F141F261F381F49AF
:10F214001F5B1F6D1F7F1F911FA31FB51FC71FD823
:10F224001FEA1FFC1F0E2020203220442056206895
:10F234002079208B209D20AF20C120D320E520F70A
:10F244002008211A212C213E21502162217421867B
:10F25400219721A921BB21CD21DF21F121032215F1
:10F2640022272238224A225C226E2280229222A461
:10F2740022B622C722D922EB22FD220F23212333D7
:10F28400234523562368237A238C239E23B023C249
:10F2940023D423E523F72309241B242D243F2451BD
:10F2A400246324752486249824AA24BC24CE24E030
:10F2B40024F22404251525272539254B255D256FA2
:10F2C4002581259325A425B625C825DA25EC25FE18
:10F2D400251026222634264526572669267B268D88
:10F2E400269F26B126C326D426E626F8260A271CFE
:10F2F400272E27402752276327752787279927AB6F
:10F3040027BD27CF27E127F2270428162828283AE3
:10F31400284C285E28702882289328A528B728C955
:10F3240028DB28ED28FF28112922293429462958C9
:10F33400296A297C298E29A029B129C329D529E73D
:10F3440029F9290B2A1D2A2F2A412A522A642A76AE
:10F354002A882A9A2AAC2ABE2AD02AE12AF32A0524
:10F364002B172B292B3B2B4D2B5F2B702B822B9494
:10F374002BA62BB82BCA2BDC2BEE2B002C112C2309
:10F384002C352C472C592C6B2C7D2C8F2CA02CB27B
:10F394002CC42CD62CE82CFA2C0C2D1E2D2F2D41F0
:10F3A4002D532D652D772D892D9B2DAD2DBE2DD063
:10F3B4002DE22DF42D062E182E2A2E3C2E4E2E5FD5
:10F3C4002E712E832E952EA72EB92ECB2EDD2EEE4A
:10F3D4002E002F122F242F362F482F5A2F6C2F7DBB
:10F3E4002F8F2FA12FB32FC52FD72FE92FFB2F0D31
:10F3F400301E30303042305430663078308A309CA1
:10F4040030AD30BF30D130E330F530073119312B16
:10F41400313C314E316031723184319631A831BA88
:10F4240031CB31DD31EF31013213322532373249FC
:10F43400325B326C327E329032A232B432C632D86F
:10F4440032EA32FB320D331F3331334333553367E2
:10F454003379338A339C33AE33C033D233E433F657
:10F464003308341A342B343D344F346134733485C7
:10F47400349734A934BA34CC34DE34F0340235143D
:10F48400352635383549355B356D357F359135A3AE
:10F4940035B535C735D835EA35FC350E3620363224
:10F4A4003644365636683679368B369D36AF36C195
:10F4B40036D336E536F73608371A372C373E375009
:10F4C400376237743786379737A937BB37CD37DF7D
:10F4D40037F13703381538273838384A385C386EEE
:10F4E4003880389238A438B638C738D938EB38FD64
:10F4F400380F39213933394539563968397A398CD5
:10F50400399E39B039C239D439E539F739093A1B4A
:10F514003A2D3A3F3A513A633A753A863A983AAABA
:10F524003ABC3ACE3AE03AF23A043B153B273B392F
:10F534003B4B3B5D3B6F3B813B933BA43BB63BC8A2
:10F544003BDA3BEC3BFE3B103C223C343C453C5715
:10F554003C693C7B3C8D3C9F3CB13CC33CD43CE689
:10F564003CF83C0A3D1C3D2E3D403D523D633D75FB
:10F574003D873D993DAB3DBD3DCF3DE13DF23D0471
:10F584003E163E283E3A3E4C3E5E3E703E823E93E0
:10F594003EA53EB73EC93EDB3EED3EFF3E113F2257
:10F5A4003F343F463F583F6A3F7C3F8E3FA03FB1C8
:10F5B4003FC33FD53FE73FF93F0B401D402F40413C
:10F5C4004052406440764088409A40AC40BE40D0AF
:10F5D40040E140F3400541174129413B414D415F22
:10F5E40041704182419441A641B841CA41DC41EE97
:10F5F400410042114223423542474259426B427D07
:10F60400428F42A042B242C442D642E842FA420C7D
:10F61400431E432F43414353436543774389439BED
:10F6240043AD43BE43D043E243F443064418442A63
:10F63400443C444E445F44714483449544A744B9D4
:10F6440044CB44DD44EE4400451245244536454848
:10F65400455A456C457D458F45A145B345C545D7BC
:10F6640045E945FB450D461E46304642465446662E
:10F674004678468A469C46AD46BF46D146E346F5A3
:10F6840046074719472B473C474E47604772478414
:10F6940047FFFFFFFFFFFF17E545B7BA98E8828BE6
:10F6A40072D165A25B4E535D4C7D467441173D4556
:10F6B40039E735E8323A30D12DA22BA729D7272EA6
:10F6C40026A7243E23F021BA20991F8B1E8F1DA24A
:10F6D4001CC41BF31A2E1A7419C4181D187F17E8BA
:10F6E400165916D1154F15D3145D14EB137F131748
:10F6F40013B3125312F7119F114A11F810A9105D98
:10F70400101310CC0F880F450F050FC70E8B0E5129
:10F714000E190EE20DAD0D790D470D170DE80CBA5B
:10F724000C8D0C620C370C0E0CE60BBF0B990B7492
:10F734000B500B2C0B0A0BE80AC70AA70A880A69A4
:10F744000A4B0A2E0A110AF509DA09BF09A5098B21
:10F754000972095909410929091209FB08E508CF69
:10F7640008BA08A50890087C086808540841082EBF
:10F77400081C080908F707E607D507C407B307A25A
:10F78400079207820773076307540745073707285B
:10F79400071A070C07FE06F106E306D606C906BCDF
:10F7A40006B006A30697068B067F06740668065DF8
:10F7B40006510646063B06310626061B06110607B9
:10F7C40006FD05F305E905DF05D605CC05C305BA35
:10F7D40005B105A8059F0596058D0585057C05746D
:10F7E400056C0563055B0553054C0544053C053470
:10F7F400052D0525051E051705100508050105FA43
:10F8040004F404ED04E604DF04D904D204CC04C5F2
:10F8140004BF04B904B304AC04A604A0049A049479
:10F82400048F04890483047D04780472046D0467DE
:10F834000462045D04570452044D04480443043E26
:10F8440004390434042F042A04250420041B041757
:10F854000412040E04090404040004FB03F703F374
:10F8640003EE03EA03E603E203DD03D903D503D180
:10F8740003CD03C903C503C103BD03B903B503B174
:10F8840003AE03AA03A603A2039F039B0397039457
:10F894000390038D038903860382037F037B03782C
:10F8A40003750371036E036B036803640361035EF2
:10F8B400035B035803550351034E034B03480345AD
:10F8C4000342033F033C033A033703340331032E5B
:10F8D400032B0328032603230320031D031B031800
:10F8E400031503130310030D030B0308030603039B
:10F8F400030103FE02FC02F902F702F402F202EF32
:10F9040002ED02EB02E802E602E402E102DF02DDBC
:10F9140002DA02D802D602D402D102CF02CD02CB3F
:10F9240002C902C602C402C202C002BE02BC02BABA
:10F9340002B802B602B402B102AF02AD02AB02A930
:10F9440002A702A602A402A202A0029E029C029A9C
:10F9540002980296029402920291028F028D028B07
:10F96400028902880286028402820280027F027D6A
:10F97400027B027A02780276027402730271026FC9
:10F98400026E026C026A0269026702660264026223
:10F994000261025F025E025C025B02590257025678
:10F9A4000254025302510250024E024D024B024ACB
:10F9B4000249024702460244024302410240023E17
:10F9C400023D023C023A0239023802360235023361
:10F9D40002320231022F022E022D022B022A0229A8
:10F9E4000227022602250224022202210220021FEB
:10F9F400021D021C021B021A02180217021602152B
:10FA04000213021202110210020F020D020C020B69
:10FA1400020A0209020802070205020402030202A2
:10FA24000201020002FF01FD01FC01FB01FA01F9E0
:10FA340001F801F701F601F501F401F301F201F116
:10FA440001EF01EE01ED01EC01EB01EA01E901E84E
:10FA540001E701E601E501E401E301E201E101E07E
:10FA640001DF01DE01DD01DC01DB01DA01D901D8AE
:10FA740001D801D701D601D501D401D301D201D1D6
:10FA840001D001CF01CE01CD01CC01CB01CB01CA04
:10FA940001C901C801C701C601C501C401C401C32C
:10FAA40001C201C101C001BF01BE01BD01BD01BC54
:10FAB40001BB01BA01B901B801B801B701B601B57A
:10FAC40001B401B401B301B201B101B001B001AF9D
:10FAD40001AE01AD01AC01AC01AB01AA01A901A8C1
:10FAE40001A801A701A601A501A501A401A301A2E2
:10FAF40001A201A101A0019F019F019E019D019D01
:10FB0400019C019B019A019A01990198019701971F
:10FB1400019601950195019401930193019201913C
:10FB240001910190018F018E018E018D018C018C58
:10FB3400018B018A018A0189018801880187018674
:10FB4400018601850185018401830183018201818C
:10FB540001810180017F017F017E017E017D017CA5
:10FB6400017C017B017A017A0179017901780177BD
:10FB740001770176017601750174017401730173D3
:10FB840001720172017101700170016F016F016EE8
:10FB9400016D016D016C016C016B016B016A016AFD
:10FBA4000169016801680167016701660166016511
:10FBB4000165016401630163016201620161016124
:10FBC40001600160015F015F015E015E015D015D35
:10FBD400015C015C015B015B015A015A0159015846
:10FBE4000158015701570156015601550155015459
:10FBF4000154015301530153015201520151015166
:10FC040001500150014F014F014E014E014D014D74
:10FC1400014C014C014B014B014A014A0149014984
:10FC24000149014801480147014701460146014590
:10FC3400014501440144014401430143014201429D
:10FC440001410141014001400140013F013F013EAA
:10FC5400013E013D013D013D013C013C013B013BB5
:10FC6400013A013A013A01390139013801380137C1
:10FC740001370137013601360135013501350134CB
:10FC840001340133013301330132013201310131D5
:10FC9400013101300130012F012F012F012E012EDE
:10FCA400012D012D012D012C012C012B012B012BE8
:10FCB400012A012A012A01290129012801280128F0
:10FCC40001270127012701260126012501250125F8
:10FCD40001240124012401230123012301220122FF
:10FCE400012101210121012001200120011F011F07
:10FCF400011F011E011E011E011D011D011D011C0C
:10FD0400011C011C011B011B011A011A011A011912
:10FD14000119011901180118011801170117011718
:10FD2400011601160116011501150115011401141E
:10FD34000114011301130113011301120112011221
:10FD4400011101110111011001100110010F010F26
:10FD5400010F010E010E010E010D010D010D010D2A
:10FD6400010C010C010C010B010B010B010A010A2E
:10FD7400010A010901090109010901080108010831
:10FD84000107010701070106010601060106010535
:10FD94000105010501040104010401040103010337
:10FDA4000103010201020102010201010101010139
:10FDB400010001000100010001FF00FF00FF00FE3F
:10FDC40000FE00FE00FE00FD00FD00FD00FD00FC45
:10FDD40000FC00FC00FB00FB00FB00FB00FA00FA47
:10FDE40000FA00FA00F900F900F900F900F800F847
:10FDF40000F800F700F700F700F700F600F600F649
:10FE040000F600F500F500F500F500F400F400F448
:10FE140000F400F300F300F300F300F200F200F248
:10FE240000F200F100F100F100F100F000F000F048
:10FE340000F000EF00EF00EF00EF00EE00EE00EE48
:10FE440000EE00ED00ED00ED00ED00EC00EC00EC48
:10FE540000EC00EC00EB00EB00EB00EB00EA00EA46
:10FE640000EA00EA00E900E900E900E900E800E846
:10FE740000E800E800E800E700E700E700E700E644
:10FE840000E600E600E600E500E500E500E500E543
:10FE9400008C1401000000000000EC2101000000AF
:10FEA400E41F01000000000000000000000000004A
:10FEB400000000000000000000000000000000003E
:10FEC400000000000000000000000000002E2001DF
:10FED400162001FE1F01000000081C0100000000A4
:10FEE4000000000000CC2001000000C21D01000041
:10FEF40000000000000000E82001000000321D01A5
:10FF0400000000000000000000DA200100000049A9
:10FF14004F45753A205053472D456D752053696DF3
:10FF2400706C6578206275696C742D696E2044412B
:10FF3400430D0A0020534F554E445F4D4F44453AFC
:10FF440020505347202841592D332D383931302939
:10FF540020456D750D0A0020504F4C4C494E475FAB
:10FF64005053475F4E4F4953455F4D4F44453A20E8
:10FF74004F4E0D0A0020504F4C4C494E475F505392
:10FF8400475F4857454E565F4D4F44453A204F4EC4
:10FF94000D0A00204441435F4656525F4D4F44458D
:10FFA4003A2078342028342E30393656290D0A0068
:10FFB40020504F4C4C494E475F44524956455F4D83
:10FFC4004F44453A204F4E0D0A002053796E746811
:10FFD400657369732053706565643A2025303278FF
:10FFE4000D0A00205265762E20312E302E303A2014
:0CFFF40032303236303530390D0A000052
:020000040001F9
:100000008F008F001E01AD013C02CB025A03E903B1
:100010007804070596052506B4064307D20761084C
:10002000F0087F090E0A9D0A2C0BBB0B4A0CD90C59
:10003000680DF70D860E150FA50F3410C310521161
:10004000E1117012FF128E131D14AC143B15CA156A
:100050005916E8167717061895182419B319421A75
:10006000D11A601BEF1B7E1C0D1D9C1D2B1EBA1E82
:100070004A1FD91F6820F72086211522A422332386
:10008000C2235124E0246F25FE258D261C27AB2793
:100090003A28C9285829E729762A052B942B232C9E
:1000A000B22C412DD02D5F2EEF2E7E2F0D309C30A7
:1000B0002B31BA314932D8326733F63385341435AF
:1000C000A3353236C1365037DF376E38FD388C39BC
:1000D0001B3AAA3A393BC83B573CE63C753D043EC7
:1000E000943E233FB23F4140D0405F41EE417D42CC
:1000F0000C439B432A44B9444845D7456646F546D8
:1001000084471348A2483149C0494F4ADE4A6D4BE3
:10011000FC4B8B4C1A4DA94D394EC84E574FE64FEC
:100120007550045193512252B1524053CF535E54F3
:10013000ED547C550B569A562957B8574758D65800
:100140006559F459835A125BA15B305CBF5C4F5D0B
:10015000DE5D6D5EFC5E8B5F1A60A9603861C76111
:100160005662E5627463036492642165B0653F661C
:10017000CE665D67EC677B680A699969286AB76A29
:10018000466BD56B646CF46C836D126EA16E306F30
:10019000BF6F4E70DD706C71FB718A721973A8733A
:1001A0003774C6745575E475737602779177207845
:1001B000AF783E79CD795C7AEB7A7A7B097C997C51
:1001C000287DB77D467ED57E647FF37F8280118156
:1001D000A0812F82BE824D83DC836B84FA84898563
:1001E0001886A7863687C5875488E3887289018A6E
:1001F000908A1F8BAE8B3E8CCD8C5C8DEB8D7A8E76
:100200000F0E0D0C0B0A0908070605040302010076
:1002100000000000000000000000000000000000DE
:1002200000000000000000000000000000000000CE
:1002300000000000000000000000000000000000BE
:100240000F0E0D0C0B0A0908070605040302010036
:10025000000000000000000000000000000000009E
:10026000000000000000000000000000000000008E
:10027000000000000000000000000000000000007E
:100280000F0E0D0C0B0A09080706050403020100F6
:10029000000000000000000000000000000000005E
:1002A000000000000000000000000000000000004E
:1002B000000000000000000000000000000000003E
:1002C0000F0E0D0C0B0A09080706050403020100B6
:1002D000000000000000000000000000000000001E
:1002E000000000000000000000000000000000000E
:1002F00000000000000000000000000000000000FE
:10030000000102030405060708090A0B0C0D0E0F75
:1003100000000000000000000000000000000000DD
:1003200000000000000000000000000000000000CD
:1003300000000000000000000000000000000000BD
:10034000000102030405060708090A0B0C0D0E0F35
:10035000000000000000000000000000000000009D
:10036000000000000000000000000000000000008D
:10037000000000000000000000000000000000007D
:10038000000102030405060708090A0B0C0D0E0FF5
:10039000000000000000000000000000000000005D
:1003A000000000000000000000000000000000004D
:1003B000000000000000000000000000000000003D
:1003C000000102030405060708090A0B0C0D0E0FB5
:1003D000000000000000000000000000000000001D
:1003E000000000000000000000000000000000000D
:1003F00000000000000000000000000000000000FD
:100400000F0E0D0C0B0A0908070605040302010074
:100410000F0E0D0C0B0A0908070605040302010064
:100420000F0E0D0C0B0A0908070605040302010054
:100430000F0E0D0C0B0A0908070605040302010044
:100440000F0E0D0C0B0A0908070605040302010034
:10045000000000000000000000000000000000009C
:10046000000000000000000000000000000000008C
:10047000000000000000000000000000000000007C
:100480000F0E0D0C0B0A09080706050403020100F4
:10049000000102030405060708090A0B0C0D0E0FE4
:1004A0000F0E0D0C0B0A09080706050403020100D4
:1004B000000102030405060708090A0B0C0D0E0FC4
:1004C0000F0E0D0C0B0A09080706050403020100B4
:1004D0000F0F0F0F0F0F0F0F0F0F0F0F0F0F0F0F2C
:1004E0000F0F0F0F0F0F0F0F0F0F0F0F0F0F0F0F1C
:1004F0000F0F0F0F0F0F0F0F0F0F0F0F0F0F0F0F0C
:10050000000102030405060708090A0B0C0D0E0F73
:10051000000102030405060708090A0B0C0D0E0F63
:10052000000102030405060708090A0B0C0D0E0F53
:10053000000102030405060708090A0B0C0D0E0F43
:10054000000102030405060708090A0B0C0D0E0F33
:100550000F0F0F0F0F0F0F0F0F0F0F0F0F0F0F0FAB
:100560000F0F0F0F0F0F0F0F0F0F0F0F0F0F0F0F9B
:100570000F0F0F0F0F0F0F0F0F0F0F0F0F0F0F0F8B
:10058000000102030405060708090A0B0C0D0E0FF3
:100590000F0E0D0C0B0A09080706050403020100E3
:1005A000000102030405060708090A0B0C0D0E0FD3
:1005B0000F0E0D0C0B0A09080706050403020100C3
:1005C000000102030405060708090A0B0C0D0E0FB3
:1005D000000000000000000000000000000000001B
:1005E000000000000000000000000000000000000B
:1005F00000000000000000000000000000000000FB
:10060000BE90000E0201016FA492010E0001D56F91
:10061000D787B492050ED56F840ED76F070ED56FAE
:10062000000ED76F020ED86F030ED96F060EDA6F69
:10063000070EDB6F010EDC6F080EDD6F100EDE6F34
:10064000800EDF6F000ED46F820ED66F130E060180
:10065000AD6FFF0EAE6F35EC8FF0E70EAD6FFF0E96
:10066000AE6F35EC8FF0380EAD6FFF0EAE6F35EC20
:100670008FF0B40EAD6FFF0EAE6F35EC8FF05B0EEA
:10068000AD6FFF0EAE6F35EC8FF0790EAD6FFF0ED4
:10069000AE6F35EC8FF0970EAD6FFF0EAE6F35EC91
:1006A0008FF003011969000E186FB19E1A8F18C3DD
:1006B00092F5B0EC86F018C391F503011A9FCE0EA7
:1006C0000601AD6FFF0EAE6F05019251915D0601FF
:1006D000AF6FB06BD8A0B00735EC8FF0000E0501FE
:1006E000966F2C0E0301196F100E196FB19EA19E0B
:1006F0001A8F2369248FB996A996309F636864681E
:10070000B29CA29C699E010E0501646F000E656F8C
:10071000000E666F000E676F72687368789EB39CF8
:10072000A39CCC0E0301D76F81688268879EB59C1D
:10073000A59C000E0201036FA80E00017F6F000E42
:100740000501AB6F010EAC6F000EAF6F010EB06F05
:10075000000EAD6F010EAE6F0F0EA86F0F0EA76FDC
:100760000F0EA66F0F0EA46F010E1A6E010E196EFA
:10077000010E186E010E176E010E166E010E156E2B
:10078000000E136E000E116E000E0F6E000E146E32
:10079000000E126E000E106E000E0E6E000E846FB4
:1007A000000E836F000E0B6E000E0C6E0C50400D91
:1007B000000EF324016E0A0EF420026E010E646F27
:1007C000000E656F000E666F000E676F720E686F29
:1007D000170E696F010E6A6FE7EC90F00401468F07
:1007E000E2EC90F004014E8FDDEC90F0BC96AC96FC
:1007F0000401568F010E0001D56FD797D785D79585
:10080000B492A482BE80020E0201016FD68E120045
:1008100098C6D9F499C6DAF4DEC4F6F4DDC4F7F468
:10082000000EF86E0800F550250AD8A49ED098C690
:10083000D9F499C6DAF4DE2A000EDD22000E050195
:100840007E6F000E7D6F7DC58FF57F698069000E1C
:1008500006010BD005018F8398C6D9F499C6DAF446
:10086000DE2A000EDD2213D0010EA26F10D098C632
:10087000D9F499C6DAF4DEC4F6F4DDC4F7F4000E58
:10088000F86E0800F550300AD8B4E4D7EDD7060169
:10089000A251D8B4ECD798C6C3F599C6C4F59AC688
:1008A000C5F59BC6C6F57EEC87F0C3C57DF5C4C50E
:1008B0007EF57EAF05D08F817D6D7E1FD8B07E2BFB
:1008C00098C6D9F499C6DAF4DEC4A3F6DDC4A4F65A
:1008D000A3C6F6F4A4C6F7F4000EF86E0800F550AF
:1008E000780AD8A43AD09AC6D9F49BC6DAF4DFC401
:1008F0009CF6020EDE26DFC49DF6000EDD229CC6AD
:10090000D9F49DC6DAF4DEC49EF6DDC49FF6010E6E
:100910000601A3259C6F000EA4219D6F98C6D9F4F3
:1009200099C6DAF49CC6DEF49DC6DDF40BD096C6FB
:10093000D8F597C6D9F59EC6DAF59FC6DBF545EC26
:1009400086F01200A3C6F6F4A4C6F7F4000EF86E03
:100950000800F550780AD8B4EAD798C6D9F499C6F1
:10096000DAF4DE2A000EDD22120098C6D9F499C608
:10097000DAF4DEC4F6F4DDC4F7F4000EF86E080015
:10098000F5500501BF6FC06B96C6C1F597C6C2F59D
:1009900033EC88F0E2D76DD03CEC8CF0120011EC17
:1009A0008CF01200E6EC8BF0120096EC8DF0120049
:1009B0001EA002D0010E01D0000E1A6E1EA202D09F
:1009C000010E01D0000E196E1EA402D0010E01D03E
:1009D000000E186E1EA602D0010E01D0000E176E7A
:1009E0001EA802D0010E01D0000E166E1EAA03D062
:1009F000010E156E1200000E156E12001D500F0B29
:100A0000146E1DA803D0010E136E1200000E136E9B
:100A100012001C500F0B126E1CA803D0010E116E99
:100A20001200000E116E12001B500F0B106E1BA84F
:100A300003D0010E0F6E1200000E0F6E1200000E9A
:100A40000314036EFF0E0414046E9E510312120071
:100A50000350036E046A9D51C46FC36BC3510312EC
:100A6000C451041212009C510F0B0C6EDBEC87F08A
:100A700012009951000AD8B48FD7010AD8B48CD784
:100A8000030AD8B48CD7010AD8B489D7070AD8B4D6
:100A900089D7010AD8B486D7030AD8B486D7010A01
:100AA000D8B486D70F0AD8B4A9D7010AD8B4B1D719
:100AB000030AD8B4B9D7010AD8B4C1D7070AD8B441
:100AC000C7D7010AD8B4CFD7030AD8B41200010A95
:100AD00012003CD022C521F5120022500F0B206ECF
:100AE000120022C51FF5120022500F0B0501A26F44
:100AF000120022C5A1F5120022500F0B0501A06FB4
:100B0000120022501F0B05019F6F120022C51EF517
:100B1000120022501F0B1D6E120022501F0B1C6E64
:100B2000120022501F0B1B6E120022C59EF51200F0
:100B300022C59DF5120022500F0B05019C6F12007B
:100B400022C59BF5120022C59AF512002350000A17
:100B5000D8B4C0D7010AD8B4C0D7030AD8B4C1D713
:100B6000010AD8B4C1D7070AD8B4C3D7010AD8B488
:100B7000C3D7030AD8B4C5D7010AD8B4C7D70F0A58
:100B8000D8B4C7D7010AD8B4C8D7030AD8B4C9D7CC
:100B9000010AD8B4CAD7070AD8B4CAD7010AD8B448
:100BA000CAD7030AD8B4CCD7010AD8A41200CBD72D
:100BB000100EBE6E000EBF6E000EC06E000EC16E37
:100BC000000EC26E6A0EC66EC768C868C968080E95
:100BD000CA6E040E0401006F000E086F000E106F45
:100BE000FB0E016F09691169000E216F410E026F42
:100BF000000E0A6F000E126F000E226F000E036FC0
:100C0000000E0B6F000E136F000E236F040E046FA7
:100C1000000E0C6F000E146F080E246F000E020100
:100C2000896F000E886F000E876F000E866F050EAD
:100C3000626F0C0E636F0D0E646F0E0E676F0F0EFA
:100C4000686F030E666F010E616F260E086F060E49
:100C5000056F010E036F000E0401056F000E066F95
:100C6000000E076F000E0D6F000E0E6F000E0F6F5F
:100C7000000E156F000E166F000E176F000E256F19
:100C8000000E266F000E276F1200010E906F7DC5BB
:100C900091F67EC592F6000E956F1F0E946F000EB2
:100CA0008F6F2DD006019407D8A095070501DA5162
:100CB0000F0B0601936F0A0E936102D0300E01D024
:100CC000570E9327700E9425D96E060E9521DA6E75
:100CD00093C6DFF4000E906F9107D8A09207DAC593
:100CE000DCF5DBC5DDF5040E0501DE6FD890DD33E4
:100CF000DC33DE2FFBD7DCC5DAF5DDC5DBF506011D
:100D000095BF19D0955104E1020E945DD8A013D07F
:100D10000501DA51DB11D8A4C5D706019051D8A43A
:100D2000C1D792BF08D0925103E19105D8A003D05A
:100D300005018FB3B7D7D8C5CFF5D9C5D0F5700E9B
:100D4000060194250501D16F060E060195210501C6
:100D5000D26F91C6D3F592C6D4F50BEC8AF012008F
:100D6000000E05018C6F000E8B6F1A502810BE6F9D
:100D700019502A10BF6F18502910C06F17500D104E
:100D8000C16F16500D10C26F15500D10C36FBE51BC
:100D9000C1150009D8B412D01350D8B403D0400EF6
:100DA0000E2402D0400E1424D96EDA6A060EDA221E
:100DB000DF50BD6FBD518B27000E8C23BF51C21574
:100DC0000009D8B412D01150D8B403D0400E0E246C
:100DD00002D0400E1224D96EDA6A060EDA22DF50F3
:100DE000BD6FBD518B27000E8C23C051C315000968
:100DF000D8B412000F50D8B40DD0400E0E24D96EC6
:100E0000DA6A060EDA22DF50BD6FBD518B27000E65
:100E10008C231200400E1024D96EDA6A060EDA22F4
:100E2000DF50BD6FBD518B27000E8C231200000ECA
:100E300005018C6F000E8B6F1A502810416E1950EF
:100E40002A10426E18502910436E17500D10446E30
:100E500016500D10456E15500D10466E415044143D
:100E60000009D8B412D01350D8B403D0400E0E24C9
:100E700002D0400E1424D96EDA6A060EDA22DF5050
:100E8000406E40508B27000E8C23425045140009C1
:100E9000D8B412D01150D8B403D0400E0E2402D0D2
:100EA000400E1224D96EDA6A060EDA22DF50406E46
:100EB00040508B27000E8C23435046140009D8B4B1
:100EC00012000F50D8B40DD0400E0E24D96EDA6A3D
:100ED000060EDA22DF50406E40508B27000E8C2326
:100EE0001200400E1024D96EDA6A060EDA22DF50A4
:100EF000406E40508B27000E8C231200000E05011F
:100F0000CB6F000ECA6FC3C5D9F4C4C5DAF4DEC412
:100F1000F6F4DDC4F7F4000EF86E0800F5502A0A66
:100F2000D8A433D0C3C5D9F4C4C5DAF4DE2A000E80
:100F3000DD22C5C5D9F4C6C5DAF4DFC4C7F5020E93
:100F4000DE26DFC4C8F5000EDD22C7C5D9F4C8C54A
:100F5000DAF4DEC4CAF5DDC4CBF528D0CAC5BDF5C8
:100F6000CBC5BEF5000EC06F0A0EBF6F48EC8FF008
:100F7000C951BD25CA6F000EBE21CB6FC3C5D9F4C0
:100F8000C4C5DAF4DE2A000EDD22C3C5D9F4C4C517
:100F9000DAF4DEC4F6F4DDC4F7F4000EF86E0800EF
:100FA000F550D00FC96F090EC965D8D7CAC5C3F5AA
:100FB000CBC5C4F51200789EB39CA39C0404D8B0A2
:100FC00017D0020E686F1D0E696F010E6A6F035015
:100FD000020D000EF324D96E080EF420DA6EDEC482
:100FE000C0F5DDC4C1F5C0C572F4C1C573F41DD030
:100FF000000E846F000E836F03C5BDF504C5BEF5FA
:10100000040EBF6FD890BE33BD33BF2FFBD7BDC515
:1010100081F5BEC582F5720E686F170E696F010EFD
:101020006A6FC10E726E230E736E000E0B6E0C5043
:10103000400D000EF324016E0A0EF420026E0B50D8
:101040000124D96E000E0220DA6EDF500E6E0CB055
:1010500002D00CB602D0010E01D0000E0A6EB39C75
:10106000A39C788E1200C151C211D8B404D0C151D2
:10107000C211D8A404D0BF5153EC90F0120020EE5E
:101080000AF0C151D926C251DA22DE50DE10D8B49E
:1010900016D020EE0AF0C151D926C251DA2210EE44
:1010A00003F0C151E126C251E222DE50E65CE65077
:1010B000800AC76FDE50800AC759D8B0120020EEF0
:1010C00003F0C151D926C251DA22DEC4C3F5DDC412
:1010D000C4F5C1C5D9F4C2C5DAF4DEC4C5F5DDC4B2
:1010E000C6F5C351C525D96EC451C621DA6EBFC538
:1010F000DFF420EE03F0C151D926C251DA22DE2AF4
:10110000000EDD221200000EF66E000EF76E010ECC
:10111000F86E02EE00F011EE00F20900F5C4EEF4F4
:10112000E550E150FAE1E250F8E1120EF66E170ECA
:10113000F76E010EF86E01EE00F210EE60F009009D
:10114000F5C4EEF4E550E150FAE101EE00F310EEE3
:1011500000F1EE6AE550E150FCE1E250FAE101EE07
:1011600060F2300EEE6AE806FDE101EE60F1510E2C
:10117000EE6AE806FDE101EE01F12A0EEE6AE806EC
:10118000FDE10401080E5D6F000E5E6F000E5F6FE3
:10119000000148EF90F0D68A000ED6BE010EC06F57
:1011A000D69E550E0401596FAA0E596F5991000E23
:1011B0005F6F000E5E6F080E5D6F550E596FAA0EC1
:1011C000596F59810501C0B102D0D69E01D0D68E8B
:1011D0000301658F668D678D6883698D6D87708764
:1011E000AF90D680160E0501BD6F220EBE6F010EA8
:1011F000BF6FCFEC90F0B490D682180EBD6F220E68
:10120000BE6F010EBF6FC8EC90F0B890D6841A0E76
:10121000BD6F220EBE6F010EBF6FC1EC90F01200C9
:10122000B2AC31D0B29C000E05016415606F200E87
:101230006515616F010E6615626F000E6715636FAD
:10124000D890643765376637673766A102D0010EDC
:1012500001D0000E0D6E6051611162116311D8B49E
:1012600012D0000E6019BF6F200E6119C06F010E01
:101270006219C16F000E6319C26FBF51C011C11155
:10128000C211D8A46481B3AC1200B39C01D812007F
:101290000500FA6E05016851FD6E6951FE6E6A51D6
:1012A000FF6EFA501200000E606E030E616E000EAB
:1012B000626EC10E636E230E646E000E656E000ECC
:1012C000666E000E676E000E686E000E6A6EE10EAE
:1012D0006B6E110E6C6EE10E6D6E110E6E6EB29C29
:1012E000B29E67906792A29EA28C0A0E0501BD6F06
:1012F000220EBE6F010EBF6FB3EC90F0080EBD6FF3
:10130000220EBE6F010EBF6FACEC90F0000EBD6FF1
:10131000000EBE6F000EBF6FBAEC90F0000E696E4B
:101320001200000E7E6E020E7F6E000E806ED60ED4
:10133000816E020E826E000E836E000E846E000EB1
:10134000856E000E866E000E886E6B0E896E010E25
:101350008A6E6B0E8B6E010E8C6EB59CB59E859061
:101360008592A59EA58C120EBD6F220EBE6F010E3A
:10137000BF6F89EC90F0100EBD6F220EBE6F010E94
:10138000BF6F82EC90F0000EBD6F000EBE6F000EBE
:10139000BF6F90EC90F0800E876E1200000E6F6EA3
:1013A000020E706E000E716E7F0E726E3E0E736EC8
:1013B000030E746E000E756E000E766E000E776E64
:1013C000000E796E400E7A6E1F0E7B6E400E7C6EA4
:1013D0001F0E7D6EB39CB39E76907692A39EA38CD7
:1013E0000E0EBD6F220EBE6F010EBF6F9EEC90F011
:1013F0000C0EBD6F220EBE6F010EBF6F97EC90F00A
:10140000000EBD6F000EBE6F000EBF6FA5EC90F01A
:10141000000E786E12008FA10AD0D1C5C8F5D2C5D2
:10142000C9F5CFC5CAF5D0C5CBF5B3EC8DF0D4AFB7
:1014300004D0000ED46F000ED36F000ED76F000ED5
:10144000D66F0DD0000EC06F200EBF6FCFC5C1F597
:10145000D0C5C2F533EC88F00501D64BD72BD3515C
:10146000D65DD751800AD56FD451800AD559D8A0FE
:10147000E9D78FB11200D1C5C8F5D2C5C9F5CFC51E
:10148000CAF5D0C5CBF5B3EC8DF01200000E020109
:10149000C76F000EC96F000ECB6F000ECD6F000E30
:1014A000CF6FB00ED16F800ED26F000ED36FD469A4
:1014B000010ED56F2E0ED66F000ED76F800ED86F2F
:1014C000000ED96F000E0501BD6F000EBE6F000E3D
:1014D000BF6F17EC90F0000EBD6F000EBE6F000ED8
:1014E000BF6F0BEC90F0000EBD6F000EBE6F000ED4
:1014F000BF6FFFEC8FF0000E8E6F000E8D6F12002D
:10150000FAC42BF5FBC42CF5B29E68B067A013D0CB
:1015100067900501F151F211F311D8B422D001D82E
:1015200020D00500FA6EF151FD6EF251FE6EF351BE
:10153000FF6EFA50120068B267A213D067920501DD
:10154000EE51EF11F011D8B40CD001D80AD005003B
:10155000FA6EEE51FD6EEF51FE6EF051FF6EFA50D5
:1015600012002CC5FBF42BC5FAF41100FAC42DF5BA
:10157000FBC42EF5B39E77B076A013D0769005010C
:10158000EB51EC11ED11D8B422D001D820D00500D8
:10159000FA6EEB51FD6EEC51FE6EED51FF6EFA509E
:1015A000120077B276A213D076920501E851E911C4
:1015B000EA11D8B40CD001D80AD00500FA6EE8516F
:1015C000FD6EE951FE6EEA51FF6EFA5012002EC513
:1015D000FBF42DC5FAF41100FAC42FF5FBC430F565
:1015E000B59E86B085A013D085900501E551E61122
:1015F000E711D8B422D001D820D00500FA6EE55109
:10160000FD6EE651FE6EE751FF6EFA50120086B293
:1016100085A213D085920501E251E311E411D8B4FB
:101620000CD001D80AD00500FA6EE251FD6EE351EC
:10163000FE6EE451FF6EFA50120030C5FBF42FC568
:10164000FAF41100E4EC8FF0D8EC85F0EAEC8DF0C0
:101650004EEC8DF0D0EC8DF04FEC8EF036EC8EF041
:101660001DEC8EF0ECEC90F029EC8DF004EC8DF09C
:10167000DFEC8CF0FAEC90F0C5EC8FF0D5EC8FF04D
:10168000A3EC8FF053EC89F0CEEC89F091EC89F06B
:10169000E1EC8EF099EC8EF004EC8EF046EC8AF0E2
:0A16A000CBEC88F07BEC90F0120018
:1016AC00B29C000E05016415606F200E6515616F0C
:1016BC00010E6615626F000E6715636FD890643764
:1016CC0065376637673766A102D0010E01D0000E70
:1016DC000D6E6051611162116311D8B41100000ECE
:1016EC006019B56F200E6119B66F010E6219B76FD4
:1016FC00000E6319B86FB551B611B711B811D8B443
:10170C001100648111003B023B027704B306EF0821
:10171C002B0B670DA30FE0111C1458169418D01A3C
:10172C000C1D481F8521C123FD253928752AB12C94
:10173C00ED2E2A316633A235DE371A3A563C923EEC
:10174C00CF400B4347450002030406080B1017203B
:10175C002D405A80B4FF403228201914100C0A086E
:10176C00060504030200D7AE02D091EF8CF0040EF4
:10177C008327000E8423FC0E8115BD6FFF0E82158E
:10178C00BE6F8351BD191BE18451BE19D8A4120040
:10179C00000E846F000E836F0B2A1F0E0B6407D094
:1017AC000A50D8B402D01F0E01D0000E0B6E0B5095
:1017BC000124D96E000E0220DA6EDF500E6E12007C
:1017CC00A1C585F5866BA051BE6FBD6BBD51851350
:1017DC00BE518613D8908535F66E8635F76E950E0C
:1017EC00F626C60EF722F86A000EF8220900F5C498
:1017FC00C1F50A00F5C4C2F5C1C5BFF5C2C5C1F536
:10180C00C26BC1C5C0F5000E0401556FC0C554F4C0
:10181C00BFC553F412001FC587F5886BA251BE6F6C
:10182C00BD6BBD518713BE518813D8908735F66EAA
:10183C008835F76E950EF626C60EF722F86A000E5E
:10184C00F8220900F5C4C1F50A00F5C4C2F5C1C5FA
:10185C00BFF5C2C5C1F5C26BC1C5C0F5000E040110
:10186C004D6FC0C54CF4BFC54BF4120021C589F5B2
:10187C008A6B2050BE6FBD6BBD518913BE518A134C
:10188C00D8908935F66E8A35F76E950EF626C60E0B
:10189C00F722F86A000EF8220900F5C4C1F50A0017
:1018AC00F5C4C2F5C1C5BFF5C2C5C1F5C26BC1C592
:1018BC00C0F5000E0401456FC0C544F4BFC543F428
:0218CC00120008
:1018D000CFC427F5CEAA20D0D0C426F50001D785E5
:1018E000B492D795A00E2718D8A404D026500F0B79
:1018F000236E1100A10E2718D8A4110026C522F5C9
:10190000000E0924D96EDA6A070EDA2223C5DFF445
:10191000092A69EC85F011000001D785B492D795AA
:101920001100040E8327000E8423FC0E8115B16F75
:10193000FF0E8215B26F8351B1191BE18451B219A8
:10194000D8A41200000E846F000E836F0B2A1F0EA6
:101950000B6407D00A50D8B402D01F0E01D0000E7D
:101960000B6E0B500124D96E000E0220DA6EDF5090
:101970000E6E1200A7C6ABF6A8C6ACF60FD0A5C671
:1019800096F6A6C697F6AB0E0601986F060E996FEF
:10199000A9C69AF6AAC69BF608EC84F0ABC6F6F484
:1019A000ACC6F7F4000EF86E0800F5500009D8A494
:1019B000E6D7000E0601A66F000EA56F1200020EFC
:1019C000E86FAD0EF96F050EFA6F000EFB6F050E96
:1019D000F16F290EF06F020EFD6F000EF86F020E10
:1019E000F76F000EEF6F010EEE6F730EFF6F000EBC
:1019F000FE6FB89AB898B89EB89CA89AA898A89E66
:101A0000A89C800EFC6F1200010EE86FAF0EF96FFC
:101A1000050EFA6F000EFB6F050EF16F2A0EF06FC8
:101A2000020EFD6F000EF86F020EF76F000EEF6FE3
:101A3000010EEE6F530EFF6F000EFE6FB49AB49856
:101A4000B49EB49CA49AA498A49EA49C800EFC6FFF
:101A50001200000EE86FAB0EF96F050EFA6F000E64
:101A6000FB6F050EF16F280EF06F020EFD6F000E7A
:101A7000F86F020EF76F000EEF6F010EEE6F330E70
:101A8000FF6F000EFE6FB09AB098B09EB09CA09A07
:101A9000A098A09EA09C800EFC6F1200010ED56F36
:101AA000800ED76F000ED86F370ED96F000EDA6F29
:101AB000000EDB6F010EDC6F080EDD6F000EDE6FB7
:101AC000000EDF6F000ED46F8C0ED66FB492000E36
:101AD0000501BD6F000EBE6F000EBF6FD6EC90F01B
:101AE000A4821200000E05140501BB6F600E0614DF
:101AF000BC6FD8900536063606AC02D0010E01D078
:101B0000000EA36F000EBB19B96F600EBC19BA6F3F
:101B1000B951BA11D8B404D0BB51BC11D8A404D067
:101B200005500610D8A41200058012009F51020D26
:101B3000000EF324D96E060EF420DA6EDEC4BDF575
:101B4000DDC4BEF5699EBDC563F4BEC564F4B29C38
:101B5000A29C698E010E646F000E656F000E666FA9
:101B6000000E676F1200000ECE6F000ECD6F0CD00E
:101B7000CCC5BFF5C06BCAC5C1F5CBC5C2F533EC4A
:101B800088F00501CD4BCE2BCD51C825D96ECE5155
:101B9000C921DA6EDF50CC6FCC51D8B41200E8D72F
:101BA000040E0001D56F0C0ED76F3A0ED86F050EDC
:101BB000D96F050EDA6F050EDB6F020EDC6F080EB3
:101BC000DD6F000EDE6F000EDF6F000ED46F820E31
:101BD000D66F1200000E0001D56F0E0ED76F260EC5
:101BE000D86F000ED96F000EDA6F000EDB6F020E99
:101BF000DC6F000EDD6F000EDE6F000EDF6F000E7B
:101C0000D46F820ED66F1200050E326F000E316F48
:101C1000000E336F8E0E2F6F000E2E6F000E05011B
:101C2000BD6F000EBE6F000EBF6F66EC90F0B996F0
:101C3000A986300E0301306F1200000EB46F070E3C
:101C4000B56F070EB66F070EB76F070EB86F070EAA
:101C5000B96F070EBA6F070EBB6F070EBE6F070E88
:101C6000BF6F000EF46E000EF36E1200070ED56FFC
:101C7000000ED76F020ED86F030ED96F060EDA6F03
:101C8000070EDB6F010EDC6F080EDD6F100EDE6FCE
:101C9000800EDF6F000ED46F820ED66F1200050E1D
:101CA000D56F840ED76F3A0ED86F010ED96F010E23
:101CB000DA6F010EDB6F020EDC6F040EDD6F000EBB
:101CC000DE6F000EDF6F000ED46F820ED66F120033
:101CD000B59C17EC87F08BC547F58CC548F5D890B7
:101CE00048324732D8904832473247C540F548C558
:101CF00041F5F1EC90F08784B5AC1100010E936FC3
:101D00001100D7AE02D00EEF8FF00B2A1F0E0B641E
:101D100007D00A50D8B402D01F0E01D0000E0B6EAF
:101D20000B500124D96E000E0220DA6EDF500E6EC9
:101D30001200030E266F000E256F000E276F0F0E88
:101D4000236F000E226F000E0501BD6F000EBE6FE7
:101D5000000EBF6F6DEC90F0B196000E0301246F82
:101D6000120006BC04D005500610D8A405D0000E01
:101D7000066E010E056E03D0D8900536063606AC09
:101D800004D0010E0501A36F1200000E0501A36F20
:021D900012003F
:101D9400FAC4B3F5FBC4B4F5B39C01D80BD0050069
:101DA400FA6E05016851FD6E6951FE6E6A51FF6E4F
:101DB400FA501200B4C5FBF4B3C5FAF41100590E7D
:101DC4000301196F000E186F740E1B6F000E0501CE
:101DD400BD6F000EBE6F000EBF6F74EC90F0B19E2D
:0A1DE400A18E000E03011A6F120019
:101DF000B19E17EC87F08BC53EF58CC53FF5D890AA
:101E00003F323E32D8903F323E323E5000017D6F2D
:101E1000B1AE1100010E0501956F11000B2A1F0EC6
:101E20000B6407D00A50D8B402D01F0E01D0000EA8
:101E30000B6E0B500124D96E000E0220DA6EDF50BB
:101E40000E6E1200B1AE1200B19EB0EC86F08BC5E2
:101E5000C4F58CC5C5F5D890C533C433D890C53307
:101E6000C433C45100017D6F1200AF0EB16F060E76
:101E7000B26F000EA56F000EA66FADC6A7F6AEC678
:101E8000A8F6B10EA96F060EAA6FBAEC8CF012007C
:101E9000BD51BF03F3C4C1F5F4C4C2F5BD51C003C5
:101EA000F350C227BE51BF03F350C227C1C5BDF5D1
:101EB000C2C5BEF512000CD0000E0824D96EDA6A35
:101EC000070EDA22DF500501996FCBEC84F0082A67
:101ED00008500918D8B41200EFD705017A517B11C8
:101EE0007C11D8B4120001D812000500FA6E7A51A4
:101EF000FD6E7B51FE6E7C51FF6EFA5012000501A3
:101F0000775178117911D8B4120001D81200050068
:101F1000FA6E7751FD6E7851FE6E7951FF6EFA5070
:101F200012000501745175117611D8B4120001D850
:101F300012000500FA6E7451FD6E7551FE6E7651F9
:101F4000FF6EFA501200080E576F000E526F000E0F
:101F5000516F000E506F0F0E556F54695369BC9648
:101F6000AC86000E566F1200BC960750D8B403D052
:101F7000000E076E01D0072A0704D8A4110024041C
:101F8000D8A411005DEC90F01100080E0401476F19
:101F9000000E426F000E416F000E406F0F0E456F36
:101FA00044694369000E466F1200080E4F6F000E21
:101FB0004A6F000E496F000E486F0F0E4D6F4C694F
:101FC0004B69000E4E6F1200600E0001AD6F000EE7
:101FD000AF6F000EB36F080EB16F000EB06F000E42
:101FE000AC6F1200000E0501BD6F0201D6BBD1AB74
:101FF00003D0010E0501BD6F0501BD511200BD5199
:10200000BE11BF11D8B41200BDC56BF5BEC56CF5CD
:10201000BFC56DF51200BD51BE11BF11D8B412007D
:10202000BDC56EF5BEC56FF5BFC570F51200BD51DB
:10203000BE11BF11D8B41200BDC571F5BEC572F591
:06204000BFC573F512009C
:10204800FAC431F5FBC432F5AF906DEC8FF032C5B0
:10205800FBF431C5FAF41100FAC433F5FBC434F5C6
