:0400000081EF00F09C
:100008000B4A0B4A0B4A0B4A4000524240000B4A2B
:1000180080490B4A0B4A0B4A0B4A0B4A0B4A0B4ABC
:100028000B4A4000400040000B4A0B4A0B4A0B4A5F
:100038000B4A0B4A0B4A0B4A0B4A0B4A0B4A4649D6
:100048000B4A0B4A0B4A0B4A400040002647F04631
:100058000B4A0B4A0B4A40000B4A0B4AD148BA4696
:1000680086490B4A0B4A064A0B4A0B4A0B4A0B4A6B
:100078000B4A0B4A0B4A0B4A40000B4ADD48D5464F
:100088000B4A0B4A0B4A0B4A0B4A0B4A0B4A0B4AC0
:100098009D49024A0B4A0B4A40000B4A4000400067
:1000A8008C490B4A0B4A054A0B4A0B4A0B4A0B4A26
:1000B8000B4A0B4A0B4A074A0B4A0B4A0B4A0B4A94
:1000C8000B4A0B4A0B4A0B4A0B4A0B4A0B4A0B4A80
:1000D8000B4A0B4A0B4A0B4A0B4A0B4A0B4A0B4A70
:1000E80040000B4A0B4A044A4000400040004000D0
:0E00F8000B4A0B4A0B4A0B4AFF00F0EF88F050
:10DF6E0000FFFFFFFFFFFFFFFFFFFFFFFFFFFFFFB2
:10DF7E00FFFFFFFFFFFFFFFFFFFFFFFFFFFFFF5D45
:10DF8E00F417E59DD7A2CBEBC045B78BAE9CA65E32
:10DF9E009FBA989E92FA8CC187E882657E2E7A3D52
:10DFAE00768B72136FCE6BBA68D16510637560FC99
:10DFBE005DA25B665945573E554E537451AF4FFDAA
:10DFCE004D5D4CCE4A4F49DF477D462845E043A57F
:10DFDE004274414E40323F203E173D163C1E3B2EB2
:10DFEE003A453964388937B536E7351F355D34A083
:10DFFE0033E83236328831DF303A309A2FFE2E65D2
:10E00E002ED12D402DB32C292CA22B1F2B9F2A2134
:10E01E002AA7292F29BA284728D7276927FE269508
:10E02E00262E26C92567250625A7244A24EF2396E2
:10E03E00233E23E82294224122F021A021522105E1
:10E04E0021BA2070202720DF1F991F541F101FCDCB
:10E05E001E8B1E4B1E0B1ECC1D8F1D521D171DDC45
:10E06E001CA21C6A1C321CFB1BC41B8F1B5A1B26BA
:10E07E001BF31AC11A8F1A5E1A2E1AFF19D019A184
:10E08E0019741947191B19EF18C41899186F1846E7
:10E09E00181D18F517CD17A5177F17581732170D1E
:10E0AE0017E816C416A0167C16591637161416F253
:10E0BE0015D115B0158F156F154F1530151015F2AA
:10E0CE0014D314B51497147A145D14401423140742
:10E0DE0014EB13D013B41399137F1364134A133034
:10E0EE00131713FD12E412CC12B3129B1283126B90
:10E0FE001253123C1225120E12F711E111CB11B56B
:10E10E00119F11891174115F114A11351120110CD3
:10E11E0011F810E410D010BC10A910951082106FD9
:10E12E00105D104A103810251013100110EF0FDE7D
:10E13E000FCC0FBB0FAA0F990F880F770F660F56D4
:10E14E000F450F350F250F150F050FF60EE60ED7DF
:10E15E000EC70EB80EA90E9A0E8B0E7C0E6E0E5FAB
:10E16E000E510E430E350E260E190E0B0EFD0DEF33
:10E17E000DE20DD40DC70DBA0DAD0DA00D930D868C
:10E18E000D790D6D0D600D540D470D3B0D2F0D23AB
:10E19E000D170D0B0DFF0CF30CE80CDC0CD00CC5A1
:10E1AE000CBA0CAE0CA30C980C8D0C820C770C6C6C
:10E1BE000C620C570C4C0C420C370C2D0C230C180B
:10E1CE000C0E0C040CFA0BF00BE60BDC0BD20BC98D
:10E1DE000BBF0BB50BAC0BA20B990B900B860B7DEB
:10E1EE000B740B6B0B620B590B500B470B3E0B3525
:10E1FE000B2C0B240B1B0B120B0A0B010BF90AF148
:10E20E000AE80AE00AD80AD00AC70ABF0AB70AAF54
:10E21E000AA70A9F0A980A900A880A800A790A7140
:10E22E000A690A620A5A0A530A4B0A440A3D0A3517
:10E23E000A2E0A270A200A190A110A0A0A030AFCD8
:10E24E0009F509EE09E809E109DA09D309CC09C68D
:10E25E0009BF09B909B209AB09A5099E0998099226
:10E26E00098B0985097E09780972096C0966095FAF
:10E27E0009590953094D09470941093B0935092F28
:10E28E0009290924091E09180912090C090709018F
:10E29E0009FB08F608F008EB08E508E008DA08D5EF
:10E2AE0008CF08CA08C408BF08BA08B408AF08AA3D
:10E2BE0008A5089F089A08950890088B088608817B
:10E2CE00087C08770872086D08680863085E0859AC
:10E2DE000854084F084A08460841083C08370833D6
:10E2EE00082E082908250820081C08170812080EF1
:10E2FE0008090805080008FC07F707F307EF07EA07
:10E30E0007E607E107DD07D907D507D007CC07C811
:10E31E0007C407BF07BB07B707B307AF07AB07A60F
:10E32E0007A2079E079A07960792078E078A078607
:10E33E000782077E077B07770773076F076B0767F1
:10E34E0007630760075C075807540750074D0749D6
:10E35E0007450742073E073A07370733072F072CB3
:10E36E00072807250721071E071A07170713071087
:10E37E00070C07090705070207FE06FB06F706F45A
:10E38E0006F106ED06EA06E706E306E006DD06D927
:10E39E0006D606D306D006CC06C906C606C306C0E8
:10E3AE0006BC06B906B606B306B006AD06AA06A7A3
:10E3BE0006A306A0069D069A069706940691068E5B
:10E3CE00068B068806850682067F067C067906760B
:10E3DE0006740671066E066B066806650662065FB3
:10E3EE00065D065A065706540651064F064C064958
:10E3FE00064606440641063E063B063906360633F9
:10E40E000631062E062B0629062606230621061E93
:10E41E00061B0619061606140611060F060C06092B
:10E42E0006070604060206FF05FD05FA05F805F5C2
:10E43E0005F305F005EE05EB05E905E705E405E254
:10E44E0005DF05DD05DA05D805D605D305D105CFDF
:10E45E0005CC05CA05C805C505C305C105BE05BC65
:10E46E0005BA05B705B505B305B105AE05AC05AAE8
:10E47E0005A805A505A305A1059F059C059A059868
:10E48E00059605940592058F058D058B05890587E3
:10E49E00058505830580057E057C057A057805765C
:10E4AE00057405720570056E056C056A05680565CF
:10E4BE0005630561055F055D055B05590557055546
:10E4CE0005530551054F054D054C054A05480546B2
:10E4DE00054405420540053E053C053A053805361E
:10E4EE00053405330531052F052D052B0529052787
:10E4FE000525052405220520051E051C051A0519EE
:10E50E0005170515051305110510050E050C050A51
:10E51E0005080507050505030501050005FE04FCB4
:10E52E0004FA04F904F704F504F404F204F004EE1A
:10E53E0004ED04EB04E904E804E604E404E304E176
:10E54E0004DF04DE04DC04DA04D904D704D504D4D1
:10E55E0004D204D104CF04CD04CC04CA04C904C728
:10E56E0004C504C404C204C104BF04BD04BC04BA7F
:10E57E0004B904B704B604B404B304B104AF04AED2
:10E58E0004AC04AB04A904A804A604A504A304A225
:10E59E0004A0049F049D049C049A04990497049675
:10E5AE000494049304920490048F048D048C048AC2
:10E5BE000489048704860485048304820480047F0E
:10E5CE00047D047C047B0479047804760475047459
:10E5DE00047204710470046E046D046B046A0469A1
:10E5EE00046704660465046304620461045F045EE8
:10E5FE00045D045B045A045904570456045504532D
:10E60E0004520451044F044E044D044C044A044970
:10E61E000448044604450444044304410440043FB2
:10E62E00043E043C043B043A0439043704360435F2
:10E63E000434043204310430042F042D042C042B32
:10E64E00042A04290427042604250424042304216F
:10E65E000420041F041E041D041B041A04190418AC
:10E66E000417041604140413041204110410040FE6
:10E67E00040E040C040B040A04090408040704061F
:10E68E000404040304020401040004FF03FE03FD5A
:10E69E0003FB03FA03F903F803F703F603F503F498
:10E6AE0003F303F203F003EF03EE03ED03EC03EBCE
:10E6BE0003EA03E903E803E703E603E503E403E300
:10E6CE0003E203E003DF03DE03DD03DC03DB03DA37
:10E6DE0003D903D803D703D603D503D403D303D268
:10E6EE0003D103D003CF03CE03CD03CC03CB03CA98
:10E6FE0003C903C803C703C603C503C403C303C2C8
:10E70E0003C103C003BF03BE03BD03BC03BB03BAF7
:10E71E0003B903B803B703B603B503B403B303B227
:10E72E0003B103B003B003AF03AE03AD03AC03AB51
:10E73E0003AA03A903A803A703A603A503A403A37F
:10E74E0003A203A103A103A0039F039E039D039CA9
:10E75E00039B039A039903980397039703960395D4
:10E76E0003940393039203910390038F038F038EFD
:10E77E00038D038C038B038A038903880388038725
:10E78E00038603850384038303820381038103804D
:10E79E00037F037E037D037C037B037B037A037974
:10E7AE00037803770376037603750374037303729A
:10E7BE00037103710370036F036E036D036C036CBF
:10E7CE00036B036A036903680368036703660365E3
:10E7DE000364036403630362036103600360035F06
:10E7EE00035E035D035C035C035B035A035903582A
:10E7FE00035803570356035503550354035303524B
:10E80E00035103510350034F034E034E034D034C6C
:10E81E00034B034B034A034903480348034703468C
:10E82E0003450345034403430342034203410340AC
:10E83E00033F033F033E033D033C033C033B033ACC
:10E84E00033A0339033803370337033603350334EA
:10E85E00033403330332033203310330032F032F08
:10E86E00032E032D032D032C032B032B032A032925
:10E87E000328032803270326032603250324032442
:10E88E0003230322032203210320031F031F031E5E
:10E89E00031D031D031C031B031B031A031903197A
:10E8AE000318031703170316031503150314031395
:10E8BE0003130312031103110310030F030F030EAF
:10E8CE00030D030D030C030C030B030A030A0309C8
:10E8DE0003080308030703060306030503040304E2
:10E8EE0003030303030203010301030003FF02FFFB
:10E8FE0002FE02FE02FD02FC02FC02FB02FA02FA1A
:10E90E0002F902F902F802F702F702F602F502F531
:10E91E0002F402F402F302F202F202F102F102F048
:10E92E0002EF02EF02EE02EE02ED02EC02EC02EB5F
:10E93E0002EB02EA02E902E902E802E802E702E675
:10E94E0002E602E502E502E402E402E302E202E28A
:10E95E0002E102E102E002DF02DF02DE02DE02DDA0
:10E96E0002DD02DC02DB02DB02DA02DA02D902D9B4
:10E97E0002D802D702D702D602D602D502D502D4C9
:10E98E0002D402D302D202D202D102D102D002D0DC
:10E99E0002CF02CF02CE02CD02CD02CC02CC02CBF0
:10E9AE0002CB02CA02CA02C902C902C802C702C702
:10E9BE0002C602C602C502C502C402C402C302C315
:10E9CE0002C202C202C102C102C002BF02BF02BE27
:10E9DE0002BE02BD02BD02BC02BC02BB02BB02BA39
:10E9EE0002BA02B902B902B802B802B702B702B649
:10E9FE0002B602B502B502B402B402B302B202B25A
:10EA0E0002B102B102B002B002AF02AF02AE02AE6C
:10EA1E0002AD02AD02AC02AC02AB02AB02AA02AA7C
:10EA2E0002A902A902A802A802A702A702A602A68C
:10EA3E0002A602A502A502A402A402A302A302A298
:10EA4E0002A202A102A102A002A0029F029F029EA8
:10EA5E00029E029D029D029C029C029B029B029AB8
:10EA6E00029A0299029902990298029802970297C5
:10EA7E0002960296029502950294029402930293D4
:10EA8E000292029202920291029102900290028FE1
:10EA9E00028F028E028E028D028D028C028C028CEF
:10EAAE00028B028B028A028A0289028902880288FC
:10EABE000288028702870286028602850285028408
:10EACE000284028402830283028202820281028114
:10EADE00028002800280027F027F027E027E027D21
:10EAEE00027D027D027C027C027B027B027A027A2C
:10EAFE00027A027902790278027802770277027737
:10EB0E000276027602750275027402740274027342
:10EB1E00027302720272027102710271027002704D
:10EB2E00026F026F026F026E026E026D026D026D57
:10EB3E00026C026C026B026B026A026A026A026962
:10EB4E00026902680268026802670267026602666C
:10EB5E000266026502650264026402640263026375
:10EB6E00026202620262026102610260026002607F
:10EB7E00025F025F025E025E025E025D025D025D88
:10EB8E00025C025C025B025B025B025A025A025991
:10EB9E00025902590258025802570257025702569A
:10EBAE0002560256025502550254025402540253A2
:10EBBE0002530253025202520251025102510250AA
:10EBCE0002500250024F024F024E024E024E024DB2
:10EBDE00024D024D024C024C024B024B024B024ABA
:10EBEE00024A024A024902490249024802480247C1
:10EBFE0002470247024602460246024502450245C8
:10EC0E0002440244024302430243024202420242CF
:10EC1E00024102410241024002400240023F023FD5
:10EC2E00023E023E023E023D023D023D023C023CDD
:10EC3E00023C023B023B023B023A023A023A0239E2
:10EC4E0002390239023802380238023702370236E8
:10EC5E0002360236023502350235023402340234EF
:10EC6E0002330233023302320232023202310231F5
:10EC7E000231023002300230022F022F022F022EFA
:10EC8E00022E022E022D022D022D022C022C022CFF
:10EC9E00022B022B022B022A022A022A0229022905
:10ECAE000229022802280228022702270227022709
:10ECBE00022602260226022502250225022402240D
:10ECCE000224022302230223022202220222022112
:10ECDE0002210221022002200220021F021F021F17
:10ECEE00021F021E021E021E021D021D021D021C1A
:10ECFE00021C021C021B021B021B021A021A021A1F
:10ED0E00021A021902190219021802180218021721
:10ED1E000217021702160216021602160215021525
:10ED2E000215021402140214021302130213021328
:10ED3E00021202120212021102110211021002102C
:10ED4E0002100210020F020F020F020E020E020E2E
:10ED5E00020D020D020D020D020C020C020C020B32
:10ED6E00020B020B020B020A020A020A0209020934
:10ED7E000209020902080208020802070207020736
:10ED8E000207020602060206020502050205020538
:10ED9E00020402040204020302030203020302023B
:10EDAE00020202020201020102010201020002003D
:10EDBE00020002FF01FF01FF01FF01FE01FE01FE45
:10EDCE0001FD01FD01FD01FD01FC01FC01FC01FC49
:10EDDE0001FB01FB01FB01FA01FA01FA01FA01F94B
:10EDEE0001F901F901F901F801F801F801F701F74C
:10EDFE0001F701F701F601F601F601F601F501F54D
:10EE0E0001F501F401F401F401F401F301F301F34E
:10EE1E0001F301F201F201F201F201F101F101F14E
:10EE2E0001F101F001F001F001EF01EF01EF01EF4F
:10EE3E0001EE01EE01EE01EE01ED01ED01ED01ED50
:10EE4E0001EC01EC01EC01EC01EB01EB01EB01EB50
:10EE5E0001EA01EA01EA01EA01E901E901E901E851
:10EE6E0001E801E801E801E701E701E701E701E652
:10EE7E0001E601E601E601E501E501E501E501E452
:10EE8E0001E401E401E401E301E301E301E301E252
:10EE9E0001E201E201E201E101E101E101E101E052
:10EEAE0001E001E001E001DF01DF01DF01DF01DE52
:10EEBE0001DE01DE01DE01DE01DD01DD01DD01DD50
:10EECE0001DC01DC01DC01DC01DB01DB01DB01DB50
:10EEDE0001DA01DA01DA01DA01D901D901D901D950
:10EEEE0001D801D801D801D801D801D701D701D74F
:10EEFE0001D701D601D601D601D601D501D501D54E
:10EF0E0001D501D401D401D401D401D401D301D34C
:10EF1E0001D301D301D201D201D201D201D101D14B
:10EF2E0001D101D101D001D001D001D001D001CF4A
:10EF3E0001CF01CF01CF01CE01CE01CE01CE01CE48
:10EF4E0001CD01CD01CD01CD01CC01CC01CC01CC47
:10EF5E0001CB01CB01CB01CB01CB01CA01CA01CA46
:10EF6E0001CA01C901C901C901C901C901C801C844
:10EF7E0001C801C801C701C701C701C701C701C642
:10EF8E0001C601C601C601C501C501C501C501C540
:10EF9E0001C401C401C401C401C401C301C301C33E
:10EFAE0001C301C201C201C201C201C201C101C13C
:10EFBE0001C101C101C001C001C001C001C001BF3A
:10EFCE0001BF01BF01BF01BF01BE01BE01BE01BE37
:10EFDE0001BD01BD01BD01BD01BD01BC01BC01BC36
:10EFEE0001BC01BC01BB01BB01BB01BB01BB01BA32
:10EFFE0001BA01BA01BA01B901B901B901B901B930
:10F00E0001B801B801B801B801B801B701B701B72D
:10F01E0001B701B701B601B601B601B601B601B529
:10F02E0001B501B501B501B501B401B401B401B426
:10F03E0001B401B301B301B301B301B301B201B223
:10F04E0001B201B201B201B101B101B101B101B11F
:10F05E0001B001B001B001B001B001AF01AF01AF1D
:10F06E0001AF01AF01AE01AE01AE01AE01AE01AD19
:10F07E0001AD01AD01AD01AD01AC01AC01AC01AC16
:10F08E0001AC01AB01AB01AB01AB01AB01AA01AA13
:10F09E0001AA01AA01AA01A901A901A901A901A90F
:10F0AE0001A801A801A801A801A801A801A701A70C
:10F0BE0001A701A701A701A601A601A601A601A607
:10F0CE0001A501A501A501A501A501A401A401A405
:10F0DE0001A401A401A401A301A301A301A301A3FF
:10F0EE0001A201A201A201A201A201A101A101A1FD
:10F0FE0001A101A101A101A001A001A001A001A0F7
:10F10E00019F019F019F019F019F019F019E019EF3
:10F11E00019E019E019E019D019D019D019D019DEE
:10F12E00019D019C019C019C019C019C019B019BEA
:10F13E00019B019B019B019B019A019A019A019AE5
:10F14E00019A0199019901990199019901990198E1
:10F15E0001980198019801980197019701970197DD
:10F16E0001970197019601960196019601960196D7
:10F17E0001950195019501950195019401940194D4
:10F18E0001940194019401930193019301930193CE
:10F19E0001930192019201920192019201920191C9
:10F1AE0001910191019101910191019001900190C4
:10F1BE0001900190018F018F018F018F018F018FBF
:10F1CE00018E018E018E018E018E018E018D018DBB
:10F1DE00018D018D018D018D018C018C018C018CB5
:10F1EE00018C018C018B018B018B018B018B018BAF
:10F1FE00018A018A018A018A018A018A01890189AB
:10F20E0001890189018901890188018801880188A4
:10F21E00018801880187018701870187018701879E
:10F22E000186018601860186018601860186018599
:10F23E000185018501850185018501840184018493
:10F24E00018401840184018301830183018301838D
:10F25E000183018201820182018201820182018188
:10F26E000181018101810181018101810180018082
:10F27E000180018001800180017F017F017F017F7C
:10F28E00017F017F017F017E017E017E017E017E75
:10F29E00017E017D017D017D017D017D017D017C70
:10F2AE00017C017C017C017C017C017C017B017B6A
:10F2BE00017B017B017B017B017A017A017A017A64
:10F2CE00017A017A017A017901790179017901795D
:10F2DE000179017901780178017801780178017856
:10F2EE000177017701770177017701770177017651
:10F2FE00017601760176017601760175017501754B
:10F30E000175017501750175017401740174017443
:10F31E00017401740174017301730173017301733C
:10F32E000173017301720172017201720172017235
:10F33E00017201710171017101710171017101702F
:10F34E00017001700170017001700170016F016F29
:10F35E00016F016F016F016F016F016E016E016E22
:10F36E00016E016E016E016E016D016D016D016D1B
:10F37E00016D016D016D016C016C016C016C016C14
:10F38E00016C016C016B016B016B016B016B016B0D
:10F39E00016B016B016A016A016A016A016A016A05
:10F3AE00016A0169016901690169016901690169FE
:10F3BE0001680168016801680168016801680167F8
:10F3CE0001670167016701670167016701660166F1
:10F3DE0001660166016601660166016601650165E9
:10F3EE0001650165016501650165016401640164E2
:10F3FE0001640164016401640163016301630163DB
:10F40E0001630163016301630162016201620162D2
:10F41E0001620162016201610161016101610161CB
:10F42E0001610161016101600160016001600160C3
:10F43E0001600160015F015F015F015F015F015FBC
:10F44E00015F015F015E015E015E015E015E015EB4
:10F45E00015E015E015D015D015D015D015D015DAC
:10F46E00015D015C015C015C015C015C015C015CA5
:10F47E00015C015B015B015B015B015B015B015B9D
:10F48E00015B015A015A015A015A015A015A015A95
:10F49E00015A01590159015901590159015901598D
:10F4AE000158015801580158015801580158015886
:10F4BE00015701570157015701570157015701577E
:10F4CE000156015601560156015601560156015676
:10F4DE00015501550155015501550155015501556E
:10F4EE000154015401540154015401540154015466
:10F4FE00015301530153015301530153015301535E
:10F50E000153015201520152015201520152015254
:10F51E00015201510151015101510151015101514C
:10F52E000151015001500150015001500150015044
:10F53E000150014F014F014F014F014F014F014F3C
:10F54E00014F014F014E014E014E014E014E014E33
:10F55E00014E014E014D014D014D014D014D014D2B
:10F56E00014D014D014C014C014C014C014C014C23
:10F57E00014C014C014C014B014B014B014B014B1A
:10F58E00014B014B014B014A014A014A014A014A12
:10F59E00014A014A014A014A014901490149014909
:10F5AE000149014901490149014901480148014800
:10F5BE0001480148014801480148014701470147F8
:10F5CE0001470147014701470147014701460146EF
:10F5DE0001460146014601460146014601460145E6
:10F5EE0001450145014501450145014501450145DD
:10F5FE0001440144014401440144014401440144D5
:10F60E0001440143014301430143014301430143CB
:10F61E0001430143014201420142014201420142C2
:10F62E0001420142014201410141014101410141B9
:10F63E0001410141014101410140014001400140B0
:10F64E0001400140014001400140013F013F013FA7
:10F65E00013F013F013F013F013F013F013E013E9E
:10F66E00013E013E013E013E013E013E013E013D95
:10F67E00013D013D013D013D013D013D013D013D8C
:10F68E00013D013C013C013C013C013C013C013C83
:10F69E00013C013C013B013B013B013B013B013B7A
:10F6AE00013B013B013B013A013A013A013A013A71
:10F6BE00013A013A013A013A013A01390139013967
:10F6CE00013901390139013901390139013801385E
:10F6DE000138013801380138013801380138013854
:10F6EE00013701370137013701370137013701374C
:10F6FE000137013701360136013601360136013642
:10F70E000136013601360135013501350135013538
:10F71E00013501350135013501350134013401342E
:10F72E000134013401340134013401340134013324
:10F73E00013301330133013301330133013301331B
:10F74E000133013201320132013201320132013212
:10F75E000132013201320131013101310131013108
:10F76E0001310131013101310131013001300130FE
:10F77E000130013001300130013001300130012FF4
:10F78E00012F012F012F012F012F012F012F012FEB
:10F79E00012F012E012E012E012E012E012E012EE2
:10F7AE00012E012E012E012E012D012D012D012DD7
:10F7BE00012D012D012D012D012D012D012C012CCD
:10F7CE00012C012C012C012C012C012C012C012CC3
:10F7DE00012B012B012B012B012B012B012B012BBB
:10F7EE00012B012B012B012A012A012A012A012AB0
:10F7FE00012A012A012A012A012A012901290129A6
:10F80E00012901290129012901290129012901299A
:10F81E000128012801280128012801280128012892
:10F82E000128012801280127012701270127012787
:10F83E00012701270127012701270126012601267D
:10F84E000126012601260126012601260126012672
:10F85E00012501250125012501250125012501256A
:10F86E00012501250125012401240124012401245F
:10F87E000124012401240124012401240123012354
:10F88E00012301230123012301230123012301234A
:10F89E000123012201220122012201220122012241
:10F8AE000122012201220122012101210121012136
:10F8BE00012101210121012101210121012101202B
:10F8CE000120012001200120012001200120012022
:10F8DE00012001200120011F011F011F011F011F17
:10F8EE00011F011F011F011F011F011F011E011E0C
:10F8FE00011E011E011E011E011E011E011E011E02
:10F90E00011E011D011D011D011D011D011D011DF8
:10F91E00011D011D011D011D011D011C011C011CEC
:10F92E00011C011C011C011C011C011C011C011CE1
:10F93E00011C011B011B011B011B011B011B011BD8
:10F94E00011B011B011B011B011A011A011A011ACD
:10F95E00011A011A011A011A011A011A011A011AC1
:10F96E0001190119011901190119011901190119B9
:10F97E0001190119011901190118011801180118AD
:10F98E0001180118011801180118011801180118A1
:10F99E000117011701170117011701170117011799
:10F9AE00011701170117011701160116011601168D
:10F9BE000116011601160116011601160116011681
:10F9CE000115011501150115011501150115011579
:10F9DE00011501150115011501140114011401146D
:10F9EE000114011401140114011401140114011461
:10F9FE000113011301130113011301130113011359
:10FA0E00011301130113011301130112011201124B
:10FA1E000112011201120112011201120112011240
:10FA2E000112011101110111011101110111011137
:10FA3E00011101110111011101110111011001102A
:10FA4E000110011001100110011001100110011020
:10FA5E0001100110010F010F010F010F010F010F16
:10FA6E00010F010F010F010F010F010F010F010E09
:10FA7E00010E010E010E010E010E010E010E010E00
:10FA8E00010E010E010E010E010D010D010D010DF4
:10FA9E00010D010D010D010D010D010D010D010DE8
:10FAAE00010D010C010C010C010C010C010C010CDF
:10FABE00010C010C010C010C010C010C010B010BD2
:10FACE00010B010B010B010B010B010B010B010BC8
:10FADE00010B010B010B010A010A010A010A010ABD
:10FAEE00010A010A010A010A010A010A010A010AB0
:10FAFE0001090109010901090109010901090109A8
:10FB0E00010901090109010901090108010801089A
:10FB1E00010801080108010801080108010801088F
:10FB2E000108010801080107010701070107010784
:10FB3E000107010701070107010701070107010777
:10FB4E00010601060106010601060106010601066F
:10FB5E000106010601060106010601060105010561
:10FB6E000105010501050105010501050105010557
:10FB7E00010501050105010501040104010401044B
:10FB8E00010401040104010401040104010401043F
:10FB9E000104010401030103010301030103010335
:10FBAE000103010301030103010301030103010228
:10FBBE00010201020102010201020102010201021F
:10FBCE000102010201020102010201020101010111
:10FBDE000101010101010101010101010101010107
:10FBEE0001010101010101010100010001000100FB
:10FBFE0001000100010001000100010001000100EF
:10FC0E000100010001FF00FF00FF00FF00FF00FFE9
:10FC1E0000FF00FF00FF00FF00FF00FF00FF00FFDE
:10FC2E0000FE00FE00FE00FE00FE00FE00FE00FED6
:10FC3E0000FE00FE00FE00FE00FE00FE00FE00FDC7
:10FC4E0000FD00FD00FD00FD00FD00FD00FD00FDBE
:10FC5E0000FD00FD00FD00FD00FD00FC00FC00FCB1
:10FC6E0000FC00FC00FC00FC00FC00FC00FC00FCA6
:10FC7E0000FC00FC00FC00FC00FB00FB00FB00FB9A
:10FC8E0000FB00FB00FB00FB00FB00FB00FB00FB8E
:10FC9E0000FB00FB00FB00FA00FA00FA00FA00FA83
:10FCAE0000FA00FA00FA00FA00FA00FA00FA00FA76
:10FCBE0000FA00FA00F900F900F900F900F900F96C
:10FCCE0000F900F900F900F900F900F900F900F95E
:10FCDE0000F900F800F800F800F800F800F800F855
:10FCEE0000F800F800F800F800F800F800F800F846
:10FCFE0000F700F700F700F700F700F700F700F73E
:10FD0E0000F700F700F700F700F700F700F700F72D
:10FD1E0000F600F600F600F600F600F600F600F625
:10FD2E0000F600F600F600F600F600F600F600F516
:10FD3E0000F500F500F500F500F500F500F500F50D
:10FD4E0000F500F500F500F500F500F500F500F4FE
:10FD5E0000F400F400F400F400F400F400F400F4F5
:10FD6E0000F400F400F400F400F400F400F300F3E7
:10FD7E0000F300F300F300F300F300F300F300F3DD
:10FD8E0000F300F300F300F300F300F300F200F2CF
:10FD9E0000F200F200F200F200F200F200F200F2C5
:10FDAE0000F200F200F200F200F200F200F100F1B7
:10FDBE0000F100F100F100F100F100F100F100F1AD
:10FDCE0000F100F100F100F100F100F100F000F09F
:10FDDE0000F000F000F000F000F000F000F000F095
:10FDEE0000F000F000F000F000F000F000EF00EF87
:10FDFE0000EF00EF00EF00EF00EF00EF00EF00EF7D
:10FE0E0000EF00EF00EF00EF00EF00EF00EF00EE6D
:10FE1E0000EE00EE00EE00EE00EE00EE00EE00EE64
:10FE2E0000EE00EE00EE00EE00EE00EE00EE00ED55
:10FE3E0000ED00ED00ED00ED00ED00ED00ED00ED4C
:10FE4E0000ED00ED00ED00ED00ED00ED00ED00ED3C
:10FE5E0000EC00EC00EC00EC00EC00EC00EC00EC34
:10FE6E0000EC00EC00EC00EC00EC00EC00EC00EC24
:10FE7E0000EC00EB00EB00EB00EB00EB00EB00EB1B
:10FE8E0000EB00EB00EB00EB00EB00EB00EB00EB0C
:10FE9E0000EB00EB00EA00EA00EA00EA00EA00EA02
:10FEAE0000EA00EA00EA00EA00EA00EA00EA00EAF4
:10FEBE0000EA00EA00EA00E900E900E900E900E9E9
:10FECE0000E900E900E900E900E900E900E900E9DC
:10FEDE0000E900E900E900E900E800E800E800E8D0
:10FEEE0000E800E800E800E800E800E800E800E8C4
:10FEFE0000E800E800E800E800E800E700E700E7B7
:10FF0E0000E700E700E700E700E700E700E700E7AB
:10FF1E0000E700E700E700E700E700E700E700E69C
:10FF2E0000E600E600E600E600E600E600E600E693
:10FF3E0000E600E600E600E600E600E600E600E683
:10FF4E0000E500E500E500E500E500E500E500E57B
:10FF5E0000E500E500E500E500E500E500E500E56B
:10FF6E0000CA1D010000000000000000000000009B
:10FF7E000000000000000000000000000000000073
:10FF8E000000000000000000000000000000000063
:10FF9E0000000000000000000000000000CE25015F
:10FFAE00B625019E25010000008018010000001AF0
:10FFBE002401000000C42701000000000000000022
:10FFCE000000000000000000000000000000000023
:10FFDE000000000000000000000000000000000013
:10FFEE0000000000008625016E2501562501000047
:02FFFE00000001
:020000040001F9
:100000008F008F001E01AD013C02CB025A03E903B1
:100010007804070596052506B4064307D20761084C
:10002000F0087F090E0A9D0A2C0BBB0B4A0CD90C59
:10003000680DF70D860E150FA50F3410C310521161
:10004000E1117012FF128E131D14AC143B15CA156A
:100050005916E8167717061895182419B319421A75
:10006000D11A601BEF1B7E1C0D1D9C1D2B1EBA1E82
:100070004A1FD91F6820F72086211522A422332386
:10008000C2235124E0246F25FE258D261C27AB2793
:100090003A28C9285829E729762A052B942B232C9E
:1000A000B22C412DD02D5F2EEF2E7E2F0D309C30A7
:1000B0002B31BA314932D8326733F63385341435AF
:1000C000A3353236C1365037DF376E38FD388C39BC
:1000D0001B3AAA3A393BC83B573CE63C753D043EC7
:1000E000943E233FB23F4140D0405F41EE417D42CC
:1000F0000C439B432A44B9444845D7456646F546D8
:1001000084471348A2483149C0494F4ADE4A6D4BE3
:10011000FC4B8B4C1A4DA94D394EC84E574FE64FEC
:100120007550045193512252B1524053CF535E54F3
:10013000ED547C550B569A562957B8574758D65800
:100140006559F459835A125BA15B305CBF5C4F5D0B
:10015000DE5D6D5EFC5E8B5F1A60A9603861C76111
:100160005662E5627463036492642165B0653F661C
:10017000CE665D67EC677B680A699969286AB76A29
:10018000466BD56B646CF46C836D126EA16E306F30
:10019000BF6F4E70DD706C71FB718A721973A8733A
:1001A0003774C6745575E475737602779177207845
:1001B000AF783E79CD795C7AEB7A7A7B097C997C51
:1001C000287DB77D467ED57E647FF37F8280118156
:1001D000A0812F82BE824D83DC836B84FA84898563
:1001E0001886A7863687C5875488E3887289018A6E
:1001F000908A1F8BAE8B3E8CCD8C5C8DEB8D7A8E76
:100200000F0E0D0C0B0A0908070605040302010076
:1002100000000000000000000000000000000000DE
:1002200000000000000000000000000000000000CE
:1002300000000000000000000000000000000000BE
:100240000F0E0D0C0B0A0908070605040302010036
:10025000000000000000000000000000000000009E
:10026000000000000000000000000000000000008E
:10027000000000000000000000000000000000007E
:100280000F0E0D0C0B0A09080706050403020100F6
:10029000000000000000000000000000000000005E
:1002A000000000000000000000000000000000004E
:1002B000000000000000000000000000000000003E
:1002C0000F0E0D0C0B0A09080706050403020100B6
:1002D000000000000000000000000000000000001E
:1002E000000000000000000000000000000000000E
:1002F00000000000000000000000000000000000FE
:10030000000102030405060708090A0B0C0D0E0F75
:1003100000000000000000000000000000000000DD
:1003200000000000000000000000000000000000CD
:1003300000000000000000000000000000000000BD
:10034000000102030405060708090A0B0C0D0E0F35
:10035000000000000000000000000000000000009D
:10036000000000000000000000000000000000008D
:10037000000000000000000000000000000000007D
:10038000000102030405060708090A0B0C0D0E0FF5
:10039000000000000000000000000000000000005D
:1003A000000000000000000000000000000000004D
:1003B000000000000000000000000000000000003D
:1003C000000102030405060708090A0B0C0D0E0FB5
:1003D000000000000000000000000000000000001D
:1003E000000000000000000000000000000000000D
:1003F00000000000000000000000000000000000FD
:100400000F0E0D0C0B0A0908070605040302010074
:100410000F0E0D0C0B0A0908070605040302010064
:100420000F0E0D0C0B0A0908070605040302010054
:100430000F0E0D0C0B0A0908070605040302010044
:100440000F0E0D0C0B0A0908070605040302010034
:10045000000000000000000000000000000000009C
:10046000000000000000000000000000000000008C
:10047000000000000000000000000000000000007C
:100480000F0E0D0C0B0A09080706050403020100F4
:10049000000102030405060708090A0B0C0D0E0FE4
:1004A0000F0E0D0C0B0A09080706050403020100D4
:1004B000000102030405060708090A0B0C0D0E0FC4
:1004C0000F0E0D0C0B0A09080706050403020100B4
:1004D0000F0F0F0F0F0F0F0F0F0F0F0F0F0F0F0F2C
:1004E0000F0F0F0F0F0F0F0F0F0F0F0F0F0F0F0F1C
:1004F0000F0F0F0F0F0F0F0F0F0F0F0F0F0F0F0F0C
:10050000000102030405060708090A0B0C0D0E0F73
:10051000000102030405060708090A0B0C0D0E0F63
:10052000000102030405060708090A0B0C0D0E0F53
:10053000000102030405060708090A0B0C0D0E0F43
:10054000000102030405060708090A0B0C0D0E0F33
:100550000F0F0F0F0F0F0F0F0F0F0F0F0F0F0F0FAB
:100560000F0F0F0F0F0F0F0F0F0F0F0F0F0F0F0F9B
:100570000F0F0F0F0F0F0F0F0F0F0F0F0F0F0F0F8B
:10058000000102030405060708090A0B0C0D0E0FF3
:100590000F0E0D0C0B0A09080706050403020100E3
:1005A000000102030405060708090A0B0C0D0E0FD3
:1005B0000F0E0D0C0B0A09080706050403020100C3
:1005C000000102030405060708090A0B0C0D0E0FB3
:1005D000000000000000000000000000000000001B
:1005E000000000000000000000000000000000000B
:1005F00000000000000000000000000000000000FB
:1006000025C5CDF50DEC92F0256E64D11B0E251895
:10061000D8B437D0000E2524D96EDA6A090EDA2252
:10062000DF500F0B246E000E2524D96EDA6A0A0EF5
:10063000DA22DF50236E010E226E000E2524D96EC1
:10064000DA6A090EDA22DFAE03D0010EC76F01D0DD
:10065000C76B000E2524D96EDA6A090EDA22DFACE8
:1006600003D0010EC56F01D0C56BCD512518D8A49C
:1006700003D0010E216E01D0216AA76B000EA66F78
:100680001200010ECF6F12005B0E2518D8A403D004
:10069000020ECF6F12004F0E2518D8A403D0200EE3
:1006A000CF6F1200CF691200410E2518D8A40DD0CB
:1006B000080E246EDF0E236E010E226EC76BC56B13
:1006C000A76B000EA66FCF6B1200420E2518D8A4A0
:1006D00002D0080EECD0430E2518D8A402D0080E84
:1006E000EED0440E2518D8A402D0080ED2D0310E78
:1006F0002518D8A403D0030ECF6F1200320E251890
:10070000D8A403D0040ECF6F1200330E2518D8A43E
:1007100003D0050ECF6F1200340E2518D8A403D0D5
:10072000060ECF6F1200350E2518D8A403D0070E81
:10073000CF6F1200360E2518D8A4B4D7080ECF6F8D
:1007400012007E0E2518D8A402D0080E8DD0350ECA
:100750002518D8A403D0090ECF6F1200370E251824
:10076000D8A403D00A0ECF6F1200380E2518D8A4D3
:1007700003D00B0ECF6F1200390E2518D8A492D7D4
:100780000C0ECF6F12007E0E2518D8A402D0080ED2
:100790003BD0300E2518D8A403D00D0ECF6F120019
:1007A000310E2518D8A403D00E0ECF6F1200330ED1
:1007B0002518D8A403D00F0ECF6F1200340E2518C1
:1007C000D8A470D7100ECF6F12007E0E2518D8A4B3
:1007D00069D7080E56D07E0E2518D8A463D7070E09
:1007E000246EEF0E236E010E226EC76B010EC56FD5
:1007F00067D77E0E2518D8A455D7070E58D07E0E81
:100800002518D8A44FD7060E246EFB0E54D77E0EA3
:100810002518D8A447D7070E246EFD0E4CD77E0EA0
:100820002518D8A43FD7060E246EDF0E1FD07E0EEB
:100830002518D8A437D7060E246EBF0E17D07E0E0B
:100840002518D8A42FD7060E246E7F0E0FD07E0E4B
:100850002518D8A427D7070E246EFE0E07D07E0ECB
:100860002518D8A41FD7070E246EFD0E236E010E87
:10087000226E010EC76F23D77E0E2518D8A412D77B
:10088000060E246EF70E17D77E0E2518D8A40AD7A9
:10089000060E246EEF0E0FD7500E2518D8A402D0E6
:1008A000060E07D7510E2518D8A404D0060E246EC4
:1008B000BF0E01D7520E2518D8A404D0060E246E00
:1008C0007F0EF9D6530E2518D8A4ECD6070E246E49
:1008D000FE0EF1D60501CF51000AD8B497D6010A11
:1008E000D8B4D2D6030AD8B4DFD6010AD8B429D7EF
:1008F000070AD8B448D7010AD8B467D7030AD8B4CE
:100900006AD7010AD8B475D70F0AD8B478D7010AC4
:10091000D8B47DD7030AD8B482D7010AD8B487D710
:10092000070AD8B48CD7010AD8B491D7030AD8B42F
:1009300096D7010AD8B4A0D71F0AD8B4A5D7300AD1
:10094000D8B4AAD7DF0ABFD6AE9AD1C428F5CEA6AE
:10095000AED0D3C427F50001D785D795A00E2818AF
:10096000D8A404D027500F0B1E6E1100A10E28181A
:10097000D8A40ED027C51DF5000E2024D96EDA6A42
:10098000080EDA221EC5DFF4202A68EC8AF0110076
:10099000A20E2818D8B41100A80E2818D8A403D085
:1009A00027C5AFF51100A90E2818D8A403D027C574
:1009B000AEF51100AA0E2818D8A409D027C52FF526
:1009C0002F500F0B266E2F50F00BBF6E1100AB0E89
:1009D0002818D8A437D027C507F507BE110010D0B6
:1009E000BF981100BF881100BF9A1100BF8A110083
:1009F000BF9C1100BF8C1100BF9E1100BF8E110063
:100A000007500F0B436E446A4450000AD8A41100EB
:100A10004350080AD8B4E4D7010AD8B4E3D7030A8C
:100A2000D8B4E2D7010AD8B4E1D7070AD8B4E0D7DE
:100A3000010AD8B4DFD7030AD8B4DED7010AD8A494
:100A40001100DCD7B40E2818D8A404D027500F0BFF
:100A5000066E1100B50E2818D8A4110005C543F57F
:100A6000030E43164350100D600EF324446E060E21
:100A7000F420456E06504424D96E000E4520DA6EEF
:100A800027C5DFF40D0E0618D8A403D027C505F539
:100A900011000E0E0618D8A403D027C5ADF511001D
:100AA0000F0E0618D8A4110027C5ACF5110022506E
:100AB000D8B406D00BD000EC83F02250D8A41ED0BE
:100AC000E2EC93F00009D8B419D0F5D72150D8B48E
:100AD0000CD0000E0501A65D170EA759D8A00ED0A8
:100AE000216AA76B000EA66F09D00501A605130E9B
:100AF000A759D8A003D0C66B226AF3D7A20E281834
:100B0000D8A404D0CB6ADAEC8AF093D0A80E2818C7
:100B1000D8A404D0CB6AAFC5C3F48BD0A90E2818D3
:100B2000D8A449D0CB6A2250D8B420D02150D8A420
:100B30001DD00501C751D8B41BD024502618D8A405
:100B40000CD0060E2618D8A403D02350FE0B70D06C
:100B500023C5C3F4010EC66F6CD0C651D8B406D0FD
:100B6000060E2618D8A402D0FE0E62D0C36861D04B
:100B7000C551D8B419D024502618D8A40CD0060ECC
:100B80002618D8A403D02350FD0B52D023C5C3F49C
:100B9000010EC46F4ED0C451D8B4E8D7060E261843
:100BA000D8A4E4D7FD0E44D024502618D8A4DED70C
:100BB00023C5C3F43ED0AA0E2818D8A404D0CB6A0B
:100BC000BF50F00B35D0AB0E2818D8A404D0CB6A98
:100BD00007C5C3F42ED0B50E2818D8A42AD0CB6AE6
:100BE0000D0E0618D8A402D0055021D00E0E0618FE
:100BF000D8A403D00501AD511AD00F0E0618D8A401
:100C000003D00501AC5113D005C543F5030E4316BF
:100C10004350100D600EF324446E060EF420456E12
:100C200006504424D96E000E4520DA6EDF50F009DC
:100C3000C36ED1C5D7F0D0C5D7F0CEB2CB68CEB693
:100C4000CB68CEB2CB68CEB6CB68CB681100BE9075
:100C50000201016B0001D56BD785D795AE9A9E8AAC
:100C6000D7C0D0F5D75104090501D16FC26B2C0E46
:100C70000301196F0F0E196FB19EA19E1A8F236980
:100C8000248FB996A996309F63686468B29CA29C31
:100C9000699E010E0501686F000E696F000E6A6F94
:100CA000000E6B6F72687368789EB39CA39CCC0E29
:100CB0000301D76F81688268879EB59CA59C02015D
:100CC000036BA80E00017F6F0201C169010EC26FA4
:100CD000820ED46F060ED56F0501CF6BC86BC96B42
:100CE000170EA76F000EA66F226AC76BC66BC56B87
:100CF000C46BC36B216A266ACE692568CD692468F6
:100D0000CC692368CB69A780D86B010ED96FD66BED
:100D1000010ED76FD46B010ED56F010E146E010E4C
:100D2000136E010E126E010E116E010E106E010E89
:100D30000F6E0D6A0B6A096A0E6A0C6A0A6AB36B57
:100D40009D6B000E9C6FB16BB26BB251400D090EE2
:100D5000F324966F0D0EF420976F010E686F000E4E
:100D6000696F000E6A6F000E6B6F020E6C6F1D0EC6
:100D70006D6F010E6E6FF8EC93F00401468FEEEC90
:100D800093F004014E8FE9EC93F0BC96AC9604010D
:100D9000568F0001D56BBE80010E0201016FD68E09
:100DA00012006DD0A3EC8FF0120074EC8FF01200E3
:100DB00045EC8FF012003FEC91F012001CA003D024
:100DC000010E146E01D0146A1CA203D0010E136E22
:100DD00001D0136A1CA403D0010E126E01D0126A56
:100DE0001CA603D0010E116E01D0116A1CA803D0FD
:100DF000010E106E01D0106A1CAA03D0010E0F6EF6
:100E000012000F6A12001B500F0B0E6E1BA803D0AE
:100E1000010E0D6E12000D6A12001A500F0B0C6EAF
:100E20001AA803D0010E0B6E12000B6A12001950A3
:100E30000F0B0A6E19A803D0010E096E1200096A81
:100E40001200000E9A159A6FFF0E9B159B6F18509B
:100E50009A1312009A519A6F9B6B17500B01076FF0
:100E6000066B065105019A130B01075105019B13EF
:100E7000120016500F0BB26F9FEC8BF01200B651A0
:100E8000000AD8B48FD7010AD8B48CD7030AD8B4D3
:100E90008CD7010AD8B489D7070AD8B489D7010AF0
:100EA000D8B486D7030AD8B486D7010AD8B486D76F
:100EB0000F0AD8B4A8D7010AD8B4AFD7030AD8B458
:100EC000B6D7010AD8B4BDD7070AD8B4C3D7010A28
:100ED000D8B4CFD7030AD8B41200010A1200050112
:100EE000A56B000EA46F1450DC110601DC6F1350CB
:100EF0000501DB110601DD6F12500501DA11060153
:100F0000DE6F11500810DF6F10500810E06F0F50A7
:100F10000810E16FDC51DF150009D8B41AD00D506C
:100F2000D8B40AD0400E0501B325D96EDA6A060E90
:100F3000DA22DF50060107D0400E0E24D96EDA6A9D
:100F4000060EDA22DF50DB6FDB510501A427000E0D
:100F5000A5230601DD51E0150009D8B41AD00B50C5
:100F6000D8B40AD0400E0501B325D96EDA6A060E50
:100F7000DA22DF50060107D0400E0C24D96EDA6A5F
:100F8000060EDA22DF50DB6FDB510501A427000ECD
:100F9000A5230601DE51E1150009D8B4120009505D
:100FA000D8B410D0400E0501B325D96EDA6A060E0A
:100FB000DA22DF500601DB6FDB510501A427000EAA
:100FC000A5231200400E0A24D96EDA6A060EDA2230
:100FD000DF50DB6FDB510501A427000EA5231200B3
:100FE00041424243434343430707074444074444C1
:100FF00044444445454545454545450741424142F0
:10100000088080808080808081818281020102024C
:1010100000000000000000000101020182818282C4
:10102000018282838383838383838384848484840F
:101030008484848585858585858585010102018275
:1010400081020203030303030303030404040404EF
:10105000040404050505050505050581818281084F
:1010600047080808080808070706060607078686CF
:1010700086878707060F0F0F0F0F0F0F0F0F0F0F2A
:101080000F0F0F0F0F0F0F0F0F0F0F0F0F0F0F0F70
:101090000F0F0F0F0F0F0F0F0F0F0F0F0F0F0F0F60
:1010A0000F0F0F0F0F0F0F0F0F0F0F0F0F0F0F0F50
:1010B0000F0F0F0F0F0F0F0F0F0F0F0F0F0F0F0F40
:1010C0000F0F0F0F0F0F0F0F0F0F0F0F0F0F0F0F30
:1010D0000F0F0F0F0F0F0F0F0F0F0F0F0F0F0F0F20
:1010E000DFBF7FFEFDFBF7EFDFF77FFEFD7FF7EF52
:1010F000DFBF7FFEFDFBF7EFDFBF7FFBEFFDF7DF1D
:10110000FEFDFBF7EFDFBF7FFEFDFE7FFBFBF7EF92
:10111000FEFDFBF7EFDFBF7FFEFDFE7FFBFBF7EF82
:10112000DFBF7FFEFDFBF7EFDFBF7FFEFDFBF7EFCD
:10113000DFBF7FFEFDFBF7EFDFBF7FBFEFFDF7DF18
:10114000DFBF7FFEFDFBF7EFDFBF7FFEFDFBF7EFAD
:10115000DFBF7FFEFDFBF7EFDFBF7FBFEFFDF7F7E0
:10116000EFBFDFEF7FFDFBDFEFDFBF7FFEFDDFBF08
:101170007FFEFDBFFBFFFFFFFFFFFFFFFFFFFFFF46
:10118000FFFFFFFFFFFFFFFFFFFFFFFFFFFFFFFF6F
:10119000FFFFFFFFFFFFFFFFFFFFFFFFFFFFFFFF5F
:1011A000FFFFFFFFFFFFFFFFFFFFFFFFFFFFFFFF4F
:1011B000FFFFFFFFFFFFFFFFFFFFFFFFFFFFFFFF3F
:1011C000FFFFFFFFFFFFFFFFFFFFFFFFFFFFFFFF2F
:1011D000FFFFFFFFFFFFFFFFFFFFFFFFFFFFFFFF1F
:1011E000000EF66E000EF76E010EF86E02EE09F3B9
:1011F00011EE00F20900F5C4EEF4E550E150FAE119
:10120000E250F8E1E00EF66E100EF76E010EF86E89
:1012100002EE00F210EE00F10900F5C4EEF4E55024
:10122000E150FAE1E250F8E1E00EF66E0F0EF76ED3
:10123000010EF86E02EE00F110EE00F10900F5C4A7
:10124000EEF4E550E150FAE1E250F8E16A0EF66E94
:101250001D0EF76E010EF86E01EE00F210EE60F05A
:101260000900F5C4EEF4E550E150FAE104EE09F1AD
:1012700010EE00F2EE6AE550E150FCE1E250FAE1D6
:1012800002EE00F010EE00F1EE6AE550E150FCE1F4
:10129000E250FAE101EE00F310EE00F1EE6AE550E3
:1012A000E150FCE1E250FAE101EE60F2500EEE6A2C
:1012B000E806FDE101EE60F17D0EEE6AE806FDE173
:1012C00001EE01F12F0EEE6AE806FDE10401080EC1
:1012D0005D6F000E5E6F000E5F6F000124EF93F0F4
:1012E000A56B000EA46F1450DC110B01016F13509D
:1012F0000501DB110B01026F12500501DA110B0120
:10130000036F11500810046F10500810056F0F5034
:101310000810066F015104150009D8B41AD00D50F9
:10132000D8B40AD0400E0501B325D96EDA6A060E8C
:10133000DA22DF500B0107D0400E0E24D96EDA6A94
:10134000060EDA22DF50006F00510501A427000EBF
:10135000A5230B01025105150009D8B41AD00B5072
:10136000D8B40AD0400E0501B325D96EDA6A060E4C
:10137000DA22DF500B0107D0400E0C24D96EDA6A56
:10138000060EDA22DF50006F00510501A427000E7F
:10139000A5230B01035106150009D8B4120009500A
:1013A000D8B410D0400E0501B325D96EDA6A060E06
:1013B000DA22DF500B01006F00510501A427000E57
:1013C000A5231200400E0A24D96EDA6A060EDA222C
:1013D000DF50006F00510501A427000EA523120065
:1013E0002B50020D090EF324D96E110EF420DA6E83
:1013F000DE6ADD6A0201D8A71BD02B50020D090E50
:10140000F324D96E110EF420DA6EDF8205018A51C1
:101410008B118C11D8B40CD001D80AD00500FA6E0B
:101420008A51FD6E8B51FE6E8C51FF6EFA50120088
:101430000201D8A31BD02B50020D090EF324D96E44
:10144000110EF420DA6EDF840501875188118911AD
:10145000D8B40CD001D80AD00500FA6E8751FD6EC1
:101460008851FE6E8951FF6EFA5012000201D8AD0C
:101470001BD02B50020D090EF324D96E110EF4204F
:10148000DA6EDF800501845185118611D8B40CD045
:1014900001D80AD00500FA6E8451FD6E8551FE6EAA
:1014A0008651FF6EFA501200C7C23CF52B283D6EE4
:1014B0002A503D18D8B41200000E2B24D96EDA6AD7
:1014C000070EDA223CC5DFF43DC52BF5292A1200B0
:1014D0003FD01DC5BEF512001D500F0B0501BD6F9D
:1014E00012001DC5BCF512001D500F0B0501BB6F8E
:1014F00012001DC5BAF512001D500F0B0501B96F82
:1015000012001D501F0B0501B86F12001DC51CF500
:1015100012001D501F0B1B6E12001D501F0B1A6E68
:1015200012001D501F0B196E12001DC518F5120078
:101530001DC517F512001D500F0B166E12001DC5AC
:10154000B7F512001DC515F515380F0BC26E120048
:101550001E50000AD8B4BDD7010AD8B4BDD7030ABB
:10156000D8B4BFD7010AD8B4BFD7070AD8B4C1D7F7
:10157000010AD8B4C1D7030AD8B4C3D7010AD8B472
:10158000C5D70F0AD8B4C5D7010AD8B4C6D7030A3D
:10159000D8B4C7D7010AD8B4C8D7070AD8B4C8D7AF
:1015A000010AD8B4C8D7030AD8B4C9D7010AD8A445
:1015B0001200C8D732D0BEC5C3F41200BDC5C3F4F3
:1015C0001200BCC5C3F41200BBC5C3F41200BAC5F7
:1015D000C3F41200B9C5C3F41200B8C5C3F41200B5
:1015E0001CC5C3F412001BC5C3F412001AC5C3F412
:1015F000120019C5C3F4120018C5C3F4120017C5B0
:10160000C3F4120016C5C3F41200D0C4C3F4120010
:1016100015C5C3F41200C36812001E50000AD8B4E6
:10162000CAD7010AD8B4CAD7030AD8B4CAD7010A9C
:10163000D8B4CAD7070AD8B4CAD7010AD8B4CAD707
:10164000030AD8B4CAD7010AD8B4CAD70F0AD8B483
:10165000CAD7010AD8B4CAD7030AD8B4CAD7010A6C
:10166000D8B4CAD7070AD8B4CAD7010AD8B4CAD7D7
:10167000030AD8B4CAD7010AD8B4CAD7CCD7BE6A2D
:10168000BF6AC06AC16AC26AC36A010E0401026FFE
:101690000A6B126B1A6B226B2A6BFA0EC66EC76A44
:1016A000C868C968080ECA6ECB68040E006F070EC2
:1016B000086F106B186B206B286B01690969116941
:1016C0001969070E216F296903690B6913691B6981
:1016D000070E236F2B69400E046F080E0C6F146BFE
:1016E0001C6B080E246F2C6B0201896B886B876B57
:1016F000866B1C0E646F050E666F1D0E676F1E0EE7
:10170000686F010E616F1B0E636F040E656F060E2E
:10171000766F070E0B6F030E096F040E0A6F230E10
:101720000C6F0401056B066B076B0D6B0E6B0F6B7B
:10173000156B166B176B256B266B276B1200789E4B
:10174000B39CA39C000E9A5D010E9B59D8B017D094
:10175000B80E6C6F220E6D6F010E6E6F9A51020DF6
:10176000090EF324D96E0B0EF420DA6EDEC403FBEF
:10177000DDC404FB03CB72F404CB73F41ED09D6B69
:10178000000E9C6F9AC500FB9BC501FB040E0B016C
:10179000026FD89001330033022FFBD700CB98F5AE
:1017A00001CB99F5020E05016C6F1D0E6D6F010ED8
:1017B0006E6FC10E726E230E736EB16BB251400D1F
:1017C000090EF324966F0D0EF420976FB1519625F4
:1017D000D96E000E9721DA6EDF50B36FB2B102D02E
:1017E000B2B703D0010EB06F01D0B06BB39CA39C15
:1017F000788E1200B2AC34D0B29C000E0501681590
:10180000016E200E6915026E010E6A15036E000E40
:101810006B15046ED890683769376A376B376AA1E1
:1018200003D0010E086E01D0086A015002100310A7
:101830000410D8B415D0000E01180B01026F200E51
:101840000218036F010E0318046F000E0418056FD1
:101850000251031104110511D8B402D005016881A9
:10186000B3AC1200B39C01D812000500FA6E05015A
:101870006C51FD6E6D51FE6E6E51FF6EFA5012008E
:10188000A790E00E7B6F130E7C6F010E7D6FA79209
:10189000A00E816F230E826F010E836F0201CB6B4E
:1018A000CD6BCF6BB00ED16F800ED26FD36BD4697E
:1018B000010ED56F2E0ED66FD76B800ED86FD96BF9
:1018C0003E0E0B01006F280E016F010E026FC3EC7C
:1018D00092F03A0E006F280E016F010E026FB7EC06
:1018E00092F0360E006F280E016F010E026FABEC06
:1018F00092F00501AB6B000EAA6F2E6A2D6A080EDE
:101900002C6E2B6A2A6A296AA7801200D68A000EDA
:10191000D6BE010E0B01036FD69E550E0401596F02
:10192000AA0E596F59915F6B5E6B080E5D6F550E75
:10193000596FAA0E596F59810B0103B102D0D69E7F
:1019400001D0D68E0301628B658F668D678D698DA0
:101950006B816B836D877087AF90D6802E0E0B01E5
:10196000006F280E016F010E026FA3EC93F0B4908C
:10197000D682300E006F280E016F010E026F9CECB4
:1019800093F0B890D684320E006F280E016F010ECE
:10199000026F95EC93F0120045EC93F03FEC8BF066
:1019A00044EC92F032EC92F0E5EC91F021EC91F005
:1019B0007CEC90F0E0EC90F0BFEC90F05AEC90F002
:1019C00038EC90F001EC91F016EC90F08BEC91F08B
:1019D00000EC94F09EEC90F0F4EC8FF0D2EC8FF0F1
:1019E000FCEC93F0F3EC92F02FEC93F09DEC92F082
:1019F0003DEC8DF007EC8DF016EC8EF0E5EC8EF002
:101A000040EC8CF086EC8CF04FEC93F012006F6A97
:101A1000030E706E716A7F0E726E3E0E736E030E51
:101A2000746E756A766A776A796A400E7A6E1F0EEE
:101A30007B6E400E7C6E1F0E7D6EB39CB39E7690C7
:101A40007692A39EA38C220E006F280E016F010ECA
:101A5000026F72EC93F0200E006F280E016F010EE2
:101A6000026F6BEC93F0000E006F000E016F000E22
:101A7000026F79EC93F0786A1200606A030E616E6F
:101A8000626AC10E636E230E646E656A666A676A77
:101A9000686A6A6AE10E6B6E110E6C6EE10E6D6E15
:101AA000110E6E6EB29CB29E67906792A29EA28C3F
:101AB0002A0E0B01006F280E016F010E026F87ECDA
:101AC00093F0280E006F280E016F010E026F80EC5C
:101AD00093F0000E006F000E016F000E026F8EEC8F
:061AE00093F0696A120098
:101AE800FAC430F5FBC431F5B39E77B076A013D0B5
:101AF80076900501EC51ED11EE11D8B422D001D841
:101B080020D00500FA6EEC51FD6EED51FE6EEE51DF
:101B1800FF6EFA50120077B276A213D076920501C2
:101B2800E951EA11EB11D8B40CD001D80AD005005C
:101B3800FA6EE951FD6EEA51FE6EEB51FF6EFA50F6
:101B4800120031C5FBF430C5FAF41100FAC432F5BD
:101B5800FBC433F5B59E86B085A013D085900501EA
:101B6800E651E711E811D8B422D001D820D00500F9
:101B7800FA6EE651FD6EE751FE6EE851FF6EFA50BF
:101B8800120086B285A213D085920501E351E411B3
:101B9800E511D8B40CD001D80AD00500FA6EE3518B
:101BA800FD6EE451FE6EE551FF6EFA50120033C52A
:101BB800FBF432C5FAF41100FAC434F5FBC435F568
:101BC800B29E68B067A013D067900501E051E1119B
:101BD800E211D8B422D001D820D00500FA6EE05125
:101BE800FD6EE151FE6EE251FF6EFA50120068B2CE
:101BF80067A213D067920501DD51DE11DF11D8B459
:101C08000CD001D80AD00500FA6EDD51FD6EDE5108
:101C1800FE6EDF51FF6EFA50120035C5FBF434C575
:101C2800FAF411007E6A030E7F6E806AD60E816E0A
:101C3800020E826E836A846A856A866A886A6B0E77
:101C4800896E010E8A6E6B0E8B6E010E8C6EB59CC2
:101C5800B59E85908592A59EA58C260E006F280EB0
:101C6800016F010E026F5DEC93F0240E006F280ED9
:101C7800016F010E026F56EC93F0000E006F000E1C
:0E1C8800016F000E026F64EC93F0876A120089
:101C9800B29C000E05016815016E200E6915026ED2
:101CA800010E6A15036E000E6B15046ED890683726
:101CB80069376A376B376AA103D0010E086E01D005
:101CC800086A0150021003100410D8B41100000E65
:101CD80001180601E86F200E0218E96F010E0318BB
:101CE800EA6F000E0418EB6FE851E911EA11EB11E5
:101CF800D8B41100050168811100D7AE02D015EFE4
:101D08008FF0040E9C27000E9D23FC0E98150B01E6
:101D1800006FFF0E050199150B01016F05019C511C
:101D28000B0100191DE105019D510B010119D8A4F2
:101D3800120005019D6B000E9C6FB12B1F0EB16543
:101D480007D0B051D8B403D01F0EB16F01D0B16B1A
:101D5800B1519625D96E000E9721DA6EDF50B36F18
:101D680012003B023B027704B306EF082B0B670D0A
:101D7800A30FE0111C1458169418D01A0C1D481FF4
:101D88008521C123FD253928752AB12CED2E2A314C
:101D98006633A235DE371A3A563C923ECF400B43A3
:101DA80047450002030406080B1017202D405A80EF
:101DB800B4FF403228201914100C0A080605040341
:101DC80002000201B86BBA6BBC6BB00EBE6F800E1E
:101DD800BF6FC06BC169010EC26F2E0EC36FC46B9B
:101DE800800EC56FC66B3C0E0B01006F280E016F8D
:101DF800010E026FE7EC92F0380E006F280E016FAB
:101E0800010E026FDBEC92F0340E006F280E016FAA
:101E1800010E026FCFEC92F00501A96B000EA86FBE
:101E28001200040E9C27000E9D23FC0E9815060137
:101E3800E46FFF0E050199150601E56F05019C5138
:101E48000601E4191DE105019D510601E519D8A413
:101E5800120005019D6B000E9C6FB12B1F0EB16522
:101E680007D0B051D8B403D01F0EB16F01D0B16BF9
:101E7800B1519625D96E000E9721DA6EDF50B36FF7
:101E88001200BAC59EF59F6BB9510B01016F006B2B
:101E9800005105019E130B01015105019F13D890B4
:101EA8009E35F66E9F35F76E6F0EF626DF0EF7221B
:101EB800F86A000EF8220900F5C404FB0A00F5C40C
:101EC80005FB04CB02FB0B010551046F056B04CB2A
:101ED80003FB0401556B03CB54F402CB53F41200FB
:101EE800BCC5A0F5A16BBB510B01016F006B005184
:101EF8000501A0130B0101510501A113D890A035CC
:101F0800F66EA135F76E6F0EF626DF0EF722F86A29
:101F1800000EF8220900F5C404FB0A00F5C405FB0D
:101F280004CB02FB0B010551046F056B04CB03FBCB
:101F380004014D6B03CB4CF402CB4BF41200BEC52D
:101F4800A2F5A36BBD510B01016F006B0051050198
:101F5800A2130B0101510501A313D890A235F66E07
:101F6800A335F76E6F0EF626DF0EF722F86A000E1D
:101F7800F8220900F5C404FB0A00F5C405FB04CBEC
:101F880002FB0B010551046F056B04CB03FB040135
:101F9800456B03CB44F402CB43F41200020EE86F06
:101FA800D40EF96F050EFA6F000EFB6F050EF16F78
:101FB800DA0EF06F020EFD6FF86B020EF76FEF6B23
:101FC800010EEE6F730EFF6FFE6BB89AB898B89E4D
:101FD800B89CA89AA898A89EA89C800EFC6F12008E
:101FE800010EE86FD60EF96F050EFA6F000EFB6F43
:101FF800050EF16FDB0EF06F020EFD6FF86B020E2F
:10200800F76FEF6B010EEE6F530EFF6FFE6BB49A16
:10201800B498B49EB49CA49AA498A49EA49C800E40
:10202800FC6F1200070E0001D56FD76B030ED86F37
:10203800060ED96F070EDA6F050EDB6F020EDC6F26
:10204800040EDD6F100EDE6F800EDF6FD46B820E14
:10205800D66F000E0B01006F000E016F000E026FAD
:10206800AAEC93F0BD921200050E0001D56FD76B54
:10207800040ED86F060ED96F070EDA6F050EDB6FE8
:10208800020EDC6F080EDD6F100EDE6F800EDF6F44
:10209800D46B820ED66F000E0B01006F000E016F1D
:1020A800000E026FB8EC93F0B9921200040E000112
:1020B800D56FD76B030ED86F060ED96F070EDA6F80
:1020C800050EDB6F020EDC6F080EDD6F200EDE6F73
:1020D800800EDF6FD46B820ED66F000E0B01006F7F
:1020E800000E016F000E026FBFEC93F0B892120061
:1020F800010E0001D56FD76B030ED86F060ED96F8E
:10210800070EDA6F050EDB6F010EDC6F080EDD6F50
:10211800100EDE6F800EDF6FD46B820ED66F000E4E
:102128000B01006F000E016F000E026FD4EC93F0EC
:10213800B4921200E86BD80EF96F050EFA6F000E14
:10214800FB6F050EF16FDC0EF06F020EFD6FF86B82
:10215800020EF76FEF6B010EEE6F330EFF6FFE6B23
:10216800B09AB098B09EB09CA09AA098A09EA09C4F
:10217800800EFC6F1200030E0001D56FD76B370E6F
:10218800D86F020ED96FDA6B040EDB6F020EDC6FAC
:10219800080EDD6F100EDE6F800EDF6FD46B820EBF
:1021A800D66F000E0B01006F000E016F000E026F5C
:1021B800C6EC93F0B79A1200020E0001D56FD76BE8
:1021C800340ED86F020ED96FDA6B040EDB6F020E75
:1021D800DC6F080EDD6F100EDE6F800EDF6FD46BC4
:1021E800820ED66F000E0B01006F000E016F000EFD
:1021F800026FCDEC93F0B59A1200060E0001D56F70
:10220800880ED76F3A0ED86F020ED96FDA6BDB6B78
:10221800020EDC6F080EDD6F100EDE6FDF6BD46B05
:10222800820ED66F000E0B01006F000E016F000EBC
:10223800026FB1EC93F0BC9212000001D56B800ED6
:10224800D76FD86B380ED96FDA6BDB6B010EDC6F8A
:10225800080EDD6FDE6BDF6BD46B8C0ED66FAE9A1B
:10226800000E0B01006F000E016F000E026FDBEC19
:1022780093F09E8A1200B851020D000EF324D96E15
:10228800060EF420DA6EDEC400FBDDC401FB699E95
:1022980000CB63F401CB64F4B29CA29C698E010E5E
:1022A800686F000E696F000E6A6F000E6B6F120088
:1022B800D7AE02D0F9EF91F0B12B1F0EB16507D060
:1022C800B051D8B403D01F0EB16F01D0B16BB1516A
:1022D8009625D96E000E9721DA6EDF50B36F120083
:1022E800B1AE1200B19E0501A64BA72B70EC89F088
:1022F800A4C507FBA5C508FB0B01D8900833073315
:10230800D89008330733075100017D6F1200070E7C
:102318000001B56F070EB66F070EB76F070EB86FDF
:10232800070EB96F070EBA6F070EBB6F070EBE6FA9
:10233800070EBF6FF46AF36AB46B1200FAC4E6F6CC
:10234800FBC4E7F6B39C01D80BD00500FA6E050173
:102358006C51FD6E6D51FE6E6E51FF6EFA5012009B
:0A236800E7C6FBF4E6C6FAF4110024
:10237400B59C6FEC87F0A4C5E2F6A5C5E3F60601AB
:10238400D890E333E233D890E333E233E2C6DBF6AA
:10239400E3C6DCF6F3EC93F087841100080E2C609E
:1023A40010D0600E2D24D96EDA6A050EDA22DF50C1
:1023B4000201C96F2D28070B406E40C52DF52C2A4C
:1023C4001200A7921200050E326F316B336B8E0E22
:1023D4002F6F2E6B000E0601B06F000EB16F000E52
:1023E400B26FB996A986300E0301306F1200B12B7B
:1023F4001F0EB16507D0B051D8B403D01F0EB16F12
:1024040001D0B16BB1519625D96E000E9721DA6EC9
:10241400DF50B36F1200000E2A24D96EDA6A070E59
:10242400DA22DF50426E2A28416E41C52AF5A79070
:102434002950D8A42906A780425012000CD0000EBF
:102444001F24D96EDA6A080EDA22DF500501B66F4E
:10245400D1EC86F01F2A1F502018D8B41200EFD7F1
:10246400030E266F256B276B0F0E236F226B000E56
:102474000601B36F000EB46F000EB56FB196030181
:10248400246B1200590E0301196F186B740E1B6F25
:10249400000E0601B66F000EB76F000EB86FB19E46
:1024A400A18E03011A6B1200050193519411951129
:1024B400D8B4120001D812000500FA6E9351FD6ED3
:1024C4009451FE6E9551FF6EFA5012000501905121
:1024D40091119211D8B4120001D812000500FA6EBD
:1024E4009051FD6E9151FE6E9251FF6EFA501200A2
:1024F40005018D518E118F11D8B4120001D812002C
:102504000500FA6E8D51FD6E8E51FE6E8F51FF6E79
:10251400FA501200B19E6FEC87F0A4C546F5A5C52C
:1025240047F5D89047324632D89047324632465023
:1025340000017D6F1100080E576F526B516B506B89
:102544000F0E556F54695369BC96AC86800E566F56
:102554001200005101110211D8B4120000CB84F50D
:1025640001CB85F502CB86F5120000510111021151
:10257400D8B4120000CB87F501CB88F502CB89F5DE
:102584001200005101110211D8B4120000CB8AF5D7
:1025940001CB8BF502CB8CF5120000510111021115
:1025A400D8B4120000CB6FF501CB70F502CB71F5F6
:1025B4001200005101110211D8B4120000CB72F5BF
:1025C40001CB73F502CB74F5120000510111021115
:1025D400D8B4120000CB75F501CB76F502CB77F5B4
:1025E4001200080E0401476F426B416B406B0F0EE3
:0A25F400456F44694369466B12000D
:10260000FAC436F5FBC437F5AF9056EC92F037C5F7
:10261000FBF436C5FAF41100FAC438F5FBC439F5F9
:10262000B49068EC92F039C5FBF438C5FAF41100A7
:10263000FAC43AF5FBC43BF5B8907AEC92F03BC58E
:10264000FBF43AC5FAF41100CCEC8CF027EC86F0E0
:1026500020EC92F0FAEC8BF074EC91F0F9D7080EC4
:102660004F6F4A6B496B486B0F0E4D6F4C694B694E
:102670004E6B1200FAC43EF5FBC43FF5F0EC89F056
:102680003FC5FBF43EC5FAF41100600E0001AD6FCA
:10269000AF6BB36B080EB16FB06BAC6B1200550E25
:1026A0000001B46FAA0EB46FB481120000CBE3F541
:1026B00001CBE4F502CBE5F5120000CBE6F501CB4A
:1026C000E7F502CBE8F5120000CBBCF601CBBDF676
:1026D00002CBBEF6120000CBE9F501CBEAF502CB46
:1026E000EBF5120000CBECF501CBEDF502CBEEF5EE
:1026F000120000CBBFF601CBC0F602CBC1F6120030
:1027000000CBDDF501CBDEF502CBDFF5120000CB0F
:10271000E0F501CBE1F502CBE2F5120000CBB9F612
:1027200001CBBAF602CBBBF6120000CB8DF501CB84
:102730008EF502CB8FF5120000CB90F501CB91F511
:1027400002CB92F5120000CB93F501CB94F502CBAE
:1027500095F5120000CBC5F601CBC6F602CBC7F645
:10276000120000CBC2F601CBC3F602CBC4F61200B6
:1027700000CBF2F501CBF3F502CBF4F5120000CB60
:10278000CBF601CBCCF602CBCDF6120000CBC8F6CF
:1027900001CBC9F602CBCAF6120000CBCEF601CBB4
:1027A000CFF602CBD0F6120000CBD1F601CBD2F699
:1027B00002CBD3F6120000CBEFF501CBF0F502CB44
:1027C000F1F512002950D8B402D0010E1200000E0B
:1027D0001200020E0001E86FFC8D1200010E0001D4
:1027E000E86FFC8D1200DBC689F4DCC68AF41200A7
:1027F0000001E86BFC8D1200CC0E0301D76F1200B4
:0E280000A80E7F6F7D6B1200D0EC91F01100DE
:10281000BC961100B8961100B4961100B99611003B
:102820001200120012001200120012001100120019
:102830001200120012001200120012001200120008
:020000040030CA
:080000008CFFFFFF9FFFFFFFD3
:01000900FFF7
:00000001FF
