:0400000081EF00F09C
:10000800990A990A990A990A4000990A4000990A96
:10001800100A990A990A990A990A990A990A990A49
:10002800990A400040004000990A990A990A990AD9
:10003800990A990A990A990A990A990A990A9909A1
:10004800990A990A990A990A4000400080094607C6
:10005800990A990A990A4000990A990A73092D0779
:10006800160A4A05990A950A990A990A990A990A4B
:10007800990A990A990A990A4000990A990A990AC3
:10008800990A990A990A990A990A990A990A990A50
:10009800990A990A990A990A4000990A4000400069
:1000A8001C0A990A990A940A990A990A990A990AB2
:1000B800990A990A990A990A990A990A990A990A20
:1000C800990A990A990A990A990A990A990A990A10
:1000D800990A990A990A990A990A990A990A990A00
:1000E8004000990A990A930A4000400040004000E5
:1000F800990A7902990A990AFF0031EF09F0C19823
:1001080002011D6BA492010E0001D56FD785B49230
:10011800D795A492AD92070ED56FD785BD92D79586
:10012800AD82536A010E4C6E0501E56B020E0001AB
:10013800916FC40E926F020E936F010E966F996BBA
:10014800360E0201196FC990C9940001956B906B26
:100158008F6B300E0501E36FD2940001918F020E70
:100168008F6F4B0E8E6F8E6B0201AE69010EAF6FF3
:10017800350E0601B96FFE0EBA6F73EC13F0A80EB8
:10018800B96FFF0EBA6F73EC13F0D50EB96FFF0E8F
:10019800BA6F73EC13F0EA0EB96FFF0EBA6F73EC17
:1001A80013F0C00EB96FFF0EBA6F73EC13F0560E52
:1001B800B96FFE0EBA6F73EC13F0750EB96FFE0EC1
:1001C800BA6F73EC13F0760EB96FFF0EBA6F73EC5B
:1001D80013F003011969186B1A8F18C34BF59FECBC
:1001E80007F018C34AF503011A9F8F0E0601B96F6D
:1001F800FF0EBA6F4B504A5CBB6FBC6BD8A0BC07F4
:1002080073EC13F003011969186B1A8F18C34BF5B7
:10021800496A000E486E72EC10F018C34AF50301E3
:100228001A9F930E0601B96FFE0EBA6F4B504A5CC7
:10023800BB6FBC6BD8A0BC0773EC13F00301196942
:10024800186B1A8F18C34BF5070E476E466851ECAA
:1002580010F018C34AF503011A9FB10E0601B96FD1
:10026800FE0EBA6F4B504A5CBB6FBC6BD8A0BC0784
:1002780073EC13F003011969186B1A8F18C34BF547
:100288000F0E456E446830EC10F018C34AF50301B0
:100298001A9FCF0E0601B96FFE0EBA6F4B504A5C1B
:1002A800BB6FBC6BD8A0BC0773EC13F003011969D2
:1002B800186B1A8F18C34BF5436A000E426E43EC55
:1002C80012F018C34AF503011A9FED0E0601B96F23
:1002D800FE0EBA6F4B504A5CBB6FBC6BD8A0BC0714
:1002E80073EC13F003011969186B1A8F18C34BF5D7
:1002F8000F0E416E406827EC12F018C34AF503014F
:100308001A9F0B0E0601B96FFF0EBA6F4B504A5C6D
:10031800BB6FBC6BD8A0BC0773EC13F00501E26B94
:100328004C50D8B402D0380E01D0590EE46FB19EAB
:10033800A18E03011A8FE4C519F3430E0601B96FA4
:10034800FF0EBA6FE4C5BBF6BC6B73EC13F0040E7A
:100358000301236F248F0501EA6B17D0000E0501F6
:10036800C36F800E0ED0000E0501C36FA00E09D01A
:10037800000E0501C36FC00E04D0000E0501C36F47
:10038800E00EC46F010EC56F15D0D250030B0601E5
:10039800BF6FC06BC051000AD8A4EFD7BF51000A85
:1003A800D8B4DCD7010AD8B4DED7030AD8B4E0D76A
:1003B800010AE3D7CD6B000ECC6FCF6B000ECE6F6A
:1003C800CEC5B0F5CFC5B1F5BBEC0DF0E86BE96B68
:1003D8004E6AE769E669010E0001D56FD785D795A2
:1003E800B492A482D7C058F5D7510409596E070EA4
:1003F800D56FD785D795BD92AD82D7C0F1F5D751C6
:1004080004090501F26FC188030E02011D6F0FEC8C
:1004180015F00BEC15F007EC15F003EC15F0FFECFC
:1004280014F00401468F4E8F568F698E788E010E18
:100438000001D56FD68E1200200E5B600FD05B5086
:100448001F0B0501A16FA26B000EA125D96E060E28
:10045800A221DA6E5F50800FDF6E1200400E5B60E3
:100468000FD05B501F0B0501A16FA26B200EA125B9
:10047800D96E060EA221DA6E5F50800FDF6E120071
:10048800600E5B600FD05B501F0B0501A16FA26B64
:10049800400EA125D96E060EA221DA6E5F50800F9C
:1004A800DF6E1200800E5B601CD0800E5F265B50F2
:1004B8001F0B0501A16FA26B600EA125D96E060E58
:1004C800A221DA6E5FC5DFF45B501F0BA16FA26B30
:1004D800800EA125D96E060EA221DA6E5FC5DFF463
:1004E8001200800E5B18D8A40FD0000E4814050126
:1004F800A16F0F0E4914A26F5F50A111486EA2514F
:10050800496E72EC10F01200810E5B18D8A416D058
:100518005F500501A26FA16BFF0E4814A36F000E78
:100528004914A46FA151A311486EA251A411496E98
:10053800FF0E4814486E0F0E4914E2D7820E5B185E
:10054800D8A40FD0000E46140501A16F0F0E471452
:10055800A26F5F50A111466EA251476E51EC10F088
:100568001200830E5B18D8A416D05F500501A26F45
:10057800A16BFF0E4614A36F000E4714A46FA15180
:10058800A311466EA251A411476EFF0E4614466E83
:100598000F0E4714E2D7840E5B18D8A40FD0000EB4
:1005A80044140501A16F0F0E4514A26F5F50A111ED
:1005B800446EA251456E30EC10F01200850E5B18A7
:1005C800D8A416D05F500501A26FA16BFF0E44148A
:1005D800A36F000E4514A46FA151A311446EA2513C
:1005E800A411456EFF0E4414446E0F0E4514E2D755
:1005F800860E5B18D8A40FD0000E42140501A16F17
:100608000F0E4314A26F5F50A111426EA251436EA8
:1006180043EC12F01200870E5B18D8A416D05F5076
:100628000501A26FA16BFF0E4214A36F000E4314C5
:10063800A46FA151A311426EA251A411436EFF0EE3
:100648004214426E0F0E4314E2D7880E5B18D8A4EA
:100658000FD0000E40140501A16F0F0E4114A26FB8
:100668005F50A111406EA251416E27EC12F01200AA
:10067800890E5B18D8A416D05F500501A26FA16B34
:10068800FF0E4014A36F000E4114A46FA151A311D3
:10069800406EA251A411416EFF0E4014406E0F0E21
:1006A8004114E2D78A0E5B18D8A405D05F500F0B0F
:1006B8000501F06F12008B0E5B18D8A405D05F50AF
:1006C8000F0B0501EF6F12008C0E5B18D8A405D034
:1006D8005F500F0B0501EE6F12008D0E5B18D8A44A
:1006E80005D05F500F0B0501ED6F12008E0E5B18E1
:1006F800D8A405D05F500F0B0501EC6F12008F0EC8
:100708005B18D8A403D05FC5EBF51200DF0E5B645D
:1007180012005FC557F51200200E5B600ED05B50CB
:100728001F0B136E146A000E1324D96E060E1420C4
:10073800DA6E5F50800FDF6E1200400E5B600ED0E5
:100748005B501F0B136E146A200E1324D96E060E0D
:100758001420DA6E5F50800FDF6E1200600E5B604F
:100768000ED05B501F0B136E146A400E1324D96E03
:10077800060E1420DA6E5F50800FDF6E1200800EB6
:100788005B601BD0800E5F265B501F0B136E146AD4
:10079800600E1324D96E060E1420DA6E5FC5DFF4DE
:1007A8005B501F0B136E146A800E1324D96E060E4D
:1007B8001420DA6E5FC5DFF41200800E5B18D8A42F
:1007C8000ED0000E4814136E0F0E4914146E5F50AD
:1007D8001310486E1450496E34EC11F01200810E5B
:1007E8005B18D8A415D05F50146E136AFF0E481416
:1007F800156E000E4914166E13501510486E1450DD
:100808001610496EFF0E4814486E0F0E4914E3D7B0
:10081800820E5B18D8A40ED0000E4614136E0F0E6D
:100828004714146E5F501310466E1450476E14EC44
:1008380011F01200830E5B18D8A415D05F50146E07
:10084800136AFF0E4614156E000E4714166E1350E9
:100858001510466E14501610476EFF0E4614466E5D
:100868000F0E4714E3D7840E5B18D8A40ED0000EE1
:100878004414136E0F0E4514146E5F501310446E1B
:100888001450456EF4EC10F01200850E5B18D8A4D5
:1008980015D05F50146E136AFF0E4414156E000EC7
:1008A8004514166E13501510446E14501610456EEC
:1008B800FF0E4414446E0F0E4514E3D7860E5B18E2
:1008C800D8A40ED0000E4214136E0F0E4314146EEB
:1008D8005F501310426E1450436EB0EC12F01200C9
:1008E800870E5B18D8A415D05F50146E136AFF0EDC
:1008F8004214156E000E4314166E13501510426EF6
:1009080014501610436EFF0E4214426E0F0E43141D
:10091800E3D7880E5B18D8A40ED0000E4014136ECF
:100928000F0E4114146E5F501310406E1450416E38
:1009380095EC12F01200890E5B18D8A415D05F5000
:10094800146E136AFF0E4014156E000E4114166ED5
:1009580013501510406E14501610416EFF0E4014BF
:10096800406E0F0E4114E3D78A0E5B18D8A405D049
:100978005F500F0B0501F06F12008B0E5B18D8A4A7
:1009880005D05F500F0B0501EF6F12008C0E5B183E
:10099800D8A405D05F500F0B0501EE6F12008D0E25
:1009A8005B18D8A405D05F500F0B0501ED6F12003E
:1009B8008E0E5B18D8A405D05F500F0B0501EC6FA5
:1009C80012008F0E5B18D8A403D05FC5EBF5120098
:1009D800DF0E5B6412005FC557F51200F6C490F590
:1009E800F7C491F5F8C492F5F5C493F5070E000124
:1009F800D56FCEC496F5D0C498F5900E050196191A
:100A0800D8A417D0D1AC11D0F2C5D7F0BD92F1C59A
:100A1800D7F03F0E9819D8A403D0010EEA6F01D081
:100A2800EA6B010E0001D56F9DD0BD92F2C5D7F0DB
:100A380034D0CFC497F55F0E9619D8A431D097510A
:100A4800FE0BFE0AD8A42CD0D1ACEFD7E851D8B40D
:100A580006D0CEC581F5CFC582F56FEC08F0FE0E45
:100A68009719D8A403D098C5E7F504D09729D8B426
:100A780098C5E6F54D0EE719D8A409D0690EE61910
:100A8800D8A405D0010EE96F03011A9F03D0E96BC2
:100A980003011A8FF2C5D7F0BD92F1C5D7F0C1D7BF
:100AA800E905D8A4C2D79651E00B400AD8A4BDD70F
:100AB800BD9296511F0B956F946B97519413CEC5A9
:100AC800CCF5CFC5CDF594C5CEF595C5CFF5000EBF
:100AD800CC158C6FFF0ECD158D6F000ECE158E6F59
:100AE800FF0ECF158F6F8C518E1904E18D518F1920
:100AF800D8B40FD0E851D8B406D0CCC581F5CDC54F
:100B080082F56FEC08F0CEC531F5CFC532F5F2ECC1
:100B18000DF0D1AC15D0000E0501CE25D96EDA6ADC
:100B2800070EDA2298C5DFF4010EE86FCE29D8A4A3
:100B38007DD7CEC581F5CFC582F56FEC08F076D7A5
:100B4800C86A000E0501CE25D96EDA6A070EDA22C8
:100B5800DF50C06EF2C5D7F0F1C5D7F0D1ACFED7E3
:100B6800C8685FD793C5F5F492C5F8F491C5F7F452
:100B780090C5F6F41100A8C6D9F4A9C6DAF4DEC403
:100B8800F6F4DDC4F7F4F86A0800F550250AD8A48D
:100B98009DD0A8C6D9F4A9C6DAF4DE2A000EDD2253
:100BA8000501C76B000EC66FC6C5E0F5C869C969FF
:100BB8000601B06B1CD00501E083A8C6D9F4A9C60C
:100BC800DAF4DE2A000EDD2212D0010EB06F0FD04B
:100BD800A8C6D9F4A9C6DAF4DEC4F6F4DDC4F7F47D
:100BE800F86A0800F550300AD8B4E5D7EED7060100
:100BF800B051D8B4EDD7A8C69DF5A9C69EF5AAC62A
:100C08009FF5ABC6A0F58BEC09F09DC5C6F59EC552
:100C1800C7F5C7AF05D0E081C66DC71FD8B0C72BD1
:100C2800A8C6D9F4A9C6DAF4DEC4B1F6DDC4B2F6B2
:100C3800B1C6F6F4B2C6F7F4F86A0800F550780AB7
:100C4800D8A43CD0AAC6D9F4ABC6DAF4DFC4BFF541
:100C5800020EDE26DFC4C0F5000EDD22BFC5D9F4C2
:100C6800C0C5DAF4DEC4ACF6DDC4ADF6010E06018B
:100C7800B1250501BF6F000E0601B2210501C06F45
:100C8800A8C6D9F4A9C6DAF4BFC5DEF4C0C5DDF438
:100C98000BD0A6C6B8F5A7C6B9F5ACC6BAF5ADC6A9
:100CA800BBF536EC07F01200B1C6F6F4B2C6F7F49D
:100CB800F86A0800F550780AD8B4EBD7A8C6D9F472
:100CC800A9C6DAF4DE2A000EDD221200A8C6D9F47D
:100CD800A9C6DAF4DEC4F6F4DDC4F7F4F86A08004D
:100CE800F55005019F6FA06BA6C6A1F5A7C6A2F592
:100CF80035EC0BF0E3D768C5D9F469C5DAF4DEC47E
:100D0800F6F4DDC4F7F4F86A0800F550250AD8A40B
:100D180095D068C5D9F469C5DAF4DE2A000EDD225B
:100D2800C76B000EC66FC6C5E0F5C869C969726BA6
:100D38001BD0E08368C5D9F469C5DAF4DE2A000E51
:100D4800DD2212D0010E726F0FD068C5D9F469C5C3
:100D5800DAF4DEC4F6F4DDC4F7F4F86A0800F550F6
:100D6800300AD8B4E6D7EED77251D8B4EED768C5F2
:100D78001EF569C51FF56AC520F56BC521F53CEC64
:100D88000AF01EC5C6F51FC5C7F5C7AF05D0E08177
:100D9800C66DC71FD8B0C72B68C5D9F469C5DAF4C2
:100DA800DEC473F5DDC474F573C5F6F474C5F7F4E1
:100DB800F86A0800F550780AD8A438D06AC5D9F47A
:100DC8006BC5DAF4DFC46CF5020EDE26DFC46DF500
:100DD800000EDD226CC5D9F46DC5DAF4DEC46EF5FB
:100DE800DDC46FF5010E73256C6F000E74216D6FF5
:100DF80068C5D9F469C5DAF46CC5DEF46DC5DDF4EF
:100E08000BD066C539F567C53AF56EC53BF56FC5B4
:100E18003CF5D3EC08F0120073C5F6F474C5F7F48A
:100E2800F86A0800F550780AD8B4EBD768C5D9F441
:100E380069C5DAF4DE2A000EDD22120068C5D9F48D
:100E480069C5DAF4DEC4F6F4DDC4F7F4F86A08001C
:100E5800F550206E216A66C522F567C523F585EC35
:100E68000BF0E4D7010E0601A06FC6C5A1F6C7C5F1
:100E7800A2F6A56B1F0EA46FE06B2CD00601A40789
:100E8800D8A0A5070501BA510F0B0601A36F0A0EDA
:100E9800A36102D0300E01D0570EA327C10EA4259E
:100EA800D96E060EA521DA6EA3C6DFF4A06BA107E2
:100EB800D8A0A207BAC5BCF5BBC5BDF5040E05018F
:100EC800BE6FD890BD33BC33BE2FFBD7BCC5BAF5B7
:100ED800BDC5BBF50601A5BF19D0A55104E1020E99
:100EE800A45DD8A013D00501BA51BB11D8A4C6D7A8
:100EF8000601A051D8A4C2D7A2BF08D0A25103E1CD
:100F0800A105D8A003D00501E0B3B8D7B8C5AFF59F
:100F1800B9C5B0F5C10E0601A4250501B16F060ECD
:100F28000601A5210501B26FA1C6B3F5A2C6B4F5A5
:100F38004BEC0DF0120005019F6B000E9E6FF051F7
:100F48009E27000E9F23EF519E27000E9F23EE51F0
:100F58009E27000E9F23ED519E27000E9F23EC51E4
:100F68009E27000E9F239E514B089E6F9F51D8A02D
:100F7800E82A00089F6F070ED8909E379F37E82E03
:100F8800FBD7EBB102D0800EFB6FEBB302D0800E23
:100F9800FC6FEBB502D0800EFD6FEBB702D0800E70
:100FA800FE6FEBB902D0800EFF6FEBC59DF51F0EEB
:100FB8009D17D8A405D0250ED16F800ED06F1200D2
:100FC800FB51F003F3C4D0F5F4C4D1F5FC51EF03A1
:100FD800F350D027F450D123FD51EE03F350D0271E
:100FE800F450D123FE51ED03F350D027F450D12310
:100FF800FF51EC03F350D027F450D1239E51D02752
:101008009F51D123120005019B6B000E9A6FF0517E
:101018009A27000E9B23EF519A27000E9B23EE512F
:101028009A27000E9B23ED519A27000E9B23EC5123
:101038009A27000E9B239A514B089A6F9B51D8A070
:10104800E82A00089B6F070ED8909A379B37E82E3E
:10105800FBD7EBB102D0800EFB6FEBB302D0800E52
:10106800FC6FEBB502D0800EFD6FEBB702D0800E9F
:10107800FE6FEBB902D0800EFF6FEBC599F51F0E1E
:101088009917D8A405D0250ED16F800ED06F120005
:10109800FB51F003F3C4D0F5F4C4D1F5FC51EF03D0
:1010A800F350D027F450D123FD51EE03F350D0274D
:1010B800F450D123FE51ED03F350D027F450D1233F
:1010C800FF51EC03F350D027F450D1239A51D02785
:1010D8009B51D123120081C583F582C584F5856BA8
:1010E800C35183251E6EC45184211F6EC5518521AD
:1010F800206E6CEC14F01EC586F51FC587F520C55B
:1011080088F58A6B000E896FAA0E1F6E550E1E6E2B
:10111800F6EC14F086C51EF587C51FF588C520F5C1
:101128000EEC10F005018B6F20EC15F08B51D8A454
:1011380023D0AA0E1F6E550E1E6EF6EC14F086C54F
:101148001EF587C51FF588C520F5000E216E070E10
:10115800226ED5EC0BF005018B6F20EC15F08B514E
:10116800D8B41BD01DEC15F05D0E05017D6FFF0E88
:101178007E6F86EC13F009D01DEC15F0290E0501E1
:101188007D6FFF0E7E6F86EC13F0894B8A2B8A5198
:1011980004E1030E895DD8A0B7D7E86B1200010EF1
:1011A800606FC6C561F5C7C562F5656B1F0E646FD4
:1011B8000601E06B28D06407D8A065073B500F0BE9
:1011C800636F0A0E636102D0300E01D0570E632799
:1011D800C10E6425D96E060E6521DA6E63C5DFF48B
:1011E800606B6107D8A062073BC53DF53CC53EF57D
:1011F800040E3F6ED8903E323D323F2EFBD73DC5A0
:101208003BF53EC53CF5050165BF16D0655104E1C7
:10121800020E645DD8A010D03B503C10D8A4CBD7A8
:101228006051D8A4C8D762BF07D0625103E16105F5
:10123800D8A002D0E0B3BFD739C530F53AC531F5EB
:10124800C10E6425326E060E6521336E61C534F514
:1012580062C535F583EC0DF01200CA0EF66E150E58
:10126800F76E000EF86E01EE00F210EEA0F0090025
:10127800F5C4EEF4E550E150FAE1460EF66E2A0E9A
:10128800F76E000EF86E01EEFBF110EE05F00900A6
:10129800F5C4EEF4E550E150FAE102EE00F110EE8B
:1012A80000F1EE6AE550E150FCE1E250FAE102EEAD
:1012B80000F010EE00F1EE6AE550E150FCE1E2507A
:1012C800FAE101EE00F310EE00F1EE6AE550E150AC
:1012D800FCE1E250FAE101EEC1F2200EEE6AE80606
:1012E800FDE101EEC3F1300EEE6AE806FDE101EE24
:1012F80040F1200EEE6AE806FDE10401080E5D6F7C
:10130800000E5E6F000E5F6F000149EF13F00501DC
:10131800A56B000EA46F9DC5D9F49EC5DAF4DEC492
:10132800F6F4DDC4F7F4F86A0800F5502A0AD8A4E0
:1013380032D09DC5D9F49EC5DAF4DE2A000EDD222E
:101348009FC5D9F4A0C5DAF4DFC4A1F5020EDE26E4
:10135800DFC4A2F5000EDD22A1C5D9F4A2C5DAF4D6
:10136800DEC4A4F5DDC4A5F526D00A0EA403F3C493
:10137800A1F5F4C4A2F5A503F350A227A351A12512
:10138800A46F000EA221A56F9DC5D9F49EC5DAF4FD
:10139800DE2A000EDD229DC5D9F49EC5DAF4DEC42E
:1013A800F6F4DDC4F7F4F86A0800F550D00FA36F1F
:1013B800090EA365DAD7A4C59DF5A5C59EF512004B
:1013C800BE6ABF6AC06A010EC16E040EC26E040115
:1013D800026B0A6B126B100E1A6F226BC668C76815
:1013E800C868E40EC96E0B0ECA6E006B086B106BF2
:1013F800186B206B016909691169F00E196F070EE6
:10140800216F03690B691369F80E1B6F070E236FB1
:10141800046B0C6B146B1F0E1C6F0F0E246F0201F4
:10142800896B886B876B866B040E616F050E626F24
:10143800060E656F070E666F1D0E676F1F0E636FD2
:101448001E0E646F350E1A6F230E1C6F1A0E6D6F09
:10145800340E1B6F0401056B066B076B0D6B0E6B6F
:101468000F6B156B166B176B256B266B276B1200B2
:10147800266A000E256E1EC5D9F41FC5DAF4DEC42F
:10148800F6F4DDC4F7F4F86A0800F5502A0AD8A47F
:1014980032D01EC5D9F41FC5DAF4DE2A000EDD22CB
:1014A80020C5D9F421C5DAF4DFC422F5020EDE2600
:1014B800DFC423F5000EDD2222C5D9F423C5DAF4F2
:1014C800DEC425F5DDC426F526D00A0E2502F3C4B0
:1014D80022F5F4C423F52602F350232624502224AF
:1014E800256E000E2320266E1EC5D9F41FC5DAF41A
:1014F800DE2A000EDD221EC5D9F41FC5DAF4DEC4CB
:10150800F6F4DDC4F7F4F86A0800F550D00F246E3D
:10151800090E2464DAD725C51EF526C51FF5120065
:10152800F6C418F5F7C419F5F8C41AF5F5C41BF58F
:10153800CFC41CF5D0C41DF5D1AC1DD059C5D7F00A
:10154800B49258C5D7F0000E5524D96EDA6A090E40
:10155800DA221CC5DFF4000E5524D96EDA6A080EAB
:10156800DA221DC5DFF4552A4C50D8B421D0590EC3
:101578000301196F1DD0B4920501EA51D8A408D00F
:1015880059C5D7F058C5D7F0010E0001D56F10D056
:101598007AEC12F0CFC45BF51DEC0CF0C86A59C5A3
:1015A800D7F058C5D7F0D1AAFED7C8685B68ECD782
:1015B8001BC5F5F41AC5F8F419C5F7F418C5F6F4FF
:1015C8001100808080808080808080808080808002
:1015D8008080808080808080808080808080808003
:1015E80080808080808080808080808080808080F3
:1015F80080808080808080808080808080808080E3
:1016080080808080808080808080808080808080D2
:1016180080808080808080808080808080808080C2
:1016280080808080808080808080808080808080B2
:1016380080808080808080808080808080808080A2
:101648008080808080808080808080808080808092
:101658008080808080808080808080808080808082
:101668008080A151A211D8B404D0A151A211D8A44C
:1016780004D09F5144EC14F0120020EE09F0A1515F
:10168800D926A251DA22DE50DE10D8B416D020EEC8
:1016980009F0A151D926A251DA2210EE02F0A15187
:1016A800E126A251E222DE50E65CE650800AA76FEE
:1016B800DE50800AA759D8B0120020EE02F0A151DE
:1016C800D926A251DA22DEC4A3F5DDC4A4F5A1C54A
:1016D800D9F4A2C5DAF4DEC4A5F5DDC4A6F5A35194
:1016E800A525D96EA451A621DA6E9FC5DFF420EE98
:1016F80002F0A151D926A251DA22DE2A000EDD22FB
:10170800120022502310D8B404D022502310D8A499
:1017180004D0205062EC14F0120020EE09F02250A0
:10172800D9262350DA22DE50DE10D8B416D020EEA7
:1017380009F02250D9262350DA2210EE02F0225066
:10174800E1262350E222DE50E65CE650800A286E4D
:10175800DE50800A2858D8B0120020EE02F022503D
:10176800D9262350DA22DEC424F5DDC425F522C5A6
:10177800D9F423C5DAF4DEC426F5DDC427F52450F0
:101788002624D96E25502720DA6E20C5DFF420EEF6
:1017980002F02250D9262350DA22DE2A000EDD225A
:1017A8001200000E266E250E276E010E246E000E06
:1017B800236E000ED6BE010E256E250E22182110AE
:1017C800D8A40FD016D021C5D9F422C5DAF426C57D
:1017D800E1F427C5E2F4DFC4E7F4214A222A264AC5
:1017E800272A2306D8A024062328EDE12428D8A4F4
:1017F800EAD720C545F01FC544F01EC543F00001D7
:101808004151F80B0509416FD69E00015EC542F0B3
:101818005D50426F408125B002D0D69E01D0D68E51
:10182800F80E0001411741AF02D0010E1200000E60
:101838001200200E5B600ED05B501F0B0F6E106AFB
:10184800000E0F24D96E060E1020DA6EDF50800FBE
:10185800C06E1200400E5B600ED05B501F0B0F6E07
:10186800106A200E0F24D96E060E1020DA6EDF5093
:10187800800FC06E1200600E5B600ED05B501F0BB5
:101888000F6E106A400E0F24D96E060E1020DA6E05
:10189800DF50800FC06E1200800E5B600ED05B5070
:1018A8001F0B0F6E106A600E0F24D96E060E1020E3
:1018B800DA6EDF50800FC06E1200C0681200F7C4E5
:1018C800A0F5A16BA26BA36BA2C5A3F5A1C5A2F558
:1018D800A0C5A1F5A06BF8C4A4F5A56BA66BA76B72
:1018E800A5C5A7F5A4C5A6F5A56BA46BA051A41121
:1018F800A86FA151A511A96FA251A611AA6FA35152
:10190800A711AB6FF650A811AC6FA951AD6FAA51D2
:10191800AE6FAB51AF6F9FC5F8F49EC5F7F49DC588
:10192800F6F40800AEC5F8F4ADC5F7F4ACC5F6F4A6
:10193800F5501200F7C421F5226A236A246A23C5E8
:1019480024F522C523F521C522F5216AF8C425F519
:10195800266A276A286A26C528F525C527F5266A2E
:10196800256A21502510296E225026102A6E2350F0
:1019780027102B6E245028102C6EF65029102D6E2F
:101988002A502E6E2B502F6E2C50306E20C5F8F436
:101998001FC5F7F41EC5F6F408002FC5F8F42EC5C8
:1019A800F7F42DC5F6F4F550120058EC14F0E4ECF9
:1019B80009F05FEC13F0A9EC13F099EC13F0EDECDF
:1019C80011F0D4EC10F092EC11F073EC11F0CFECB4
:1019D80011F0B1EC11F054EC11F0B4EC10F01AEC79
:1019E80013F093EC10F0ECEC0FF0CAEC0FF0A8EC4D
:1019F8000FF086EC0FF0E9EC13F006EC14F0F8ECBD
:101A080013F017EC15F028EC0EF0BEEC0EF0EFEC2E
:101A18000EF012EC0DF09AEC14F01200D68A000EBB
:101A2800D6BE010E9F6FD69E550E0401596FAA0EA1
:101A3800596F59915F6B5E6B080E5D6F550E596F4C
:101A4800AA0E596F598105019FB102D0D69E01D0C7
:101A5800D68E0301658F68837183AF90D680660E3A
:101A680005019D6F2A0E9E6FC9EC14F0B490D682C2
:101A7800680E9D6F2A0E9E6FC4EC14F0B890D68441
:101A88006A0E9D6F2A0E9E6FBFEC14F01200E0A143
:101A98000AD0B1C5A8F5B2C5A9F5AFC5AAF5B0C5B4
:101AA800ABF50BEC12F0B4AF03D0B46B000EB36F10
:101AB800B76B000EB66F0CD0A06B200E9F6FAFC532
:101AC800A1F5B0C5A2F535EC0BF00501B64BB72B67
:101AD800B351B65DB751800AB56FB451800AB55994
:101AE800D8A0EAD7E0B11200B1C5A8F5B2C5A9F5EA
:101AF800AFC5AAF5B0C5ABF50BEC12F01200E0A12A
:101B08000AD032C529F533C52AF530C52BF531C5BC
:101B18002CF5CBEC12F035AE03D0356A000E346EDE
:101B2800386A000E376E0BD0216A200E206E30C541
:101B380022F531C523F585EC0BF0374A382A3450A5
:101B4800375C3850800A366E3550800A3658D8A02F
:101B5800EBD70501E0B1120032C529F533C52AF5E6
:101B680030C52BF531C52CF5CBEC12F01200B0C501
:101B7800B2F5B1C5B3F5B46BC351B2259D6FC4516D
:101B8800B3219E6FC551B4219F6F4EEC14F09DC5D3
:101B9800B5F59EC5B6F59FC5B7F5B96B000EB86F1C
:101BA800000EB825D96E070EB921DA6EB8C5B2F5A0
:101BB800B9C5B3F5B46BB551B2259D6FB651B32114
:101BC8009E6FB751B4219F6F63EC0CF0DF6E050177
:101BD800B84BB92BB905D8B01200E2D731C533F5E7
:101BE80032C534F5356AC35133241E6EC4513420CE
:101BF8001F6EC5513520206E6CEC14F01EC536F5ED
:101C08001FC537F520C538F53A6A000E396E000E43
:101C18003924D96E070E3A20DA6E39C533F53AC53C
:101C280034F5356A365033241E6E375034201F6E13
:101C380038503520206E9EEC0CF0DF6E394A3A2A77
:101C48003A04D8B01200E3D7606A020E616E626A85
:101C58006F0E636E040E646E030E656E666A676AC5
:101C6800686A6A6A380E6B6E020E6C6E380E6D6E9C
:101C7800020E6E6EB29CB29E67906792A29EA29C64
:101C8800600E05019D6F2A0E9E6FB5EC14F05E0E76
:101C98009D6F2A0E9E6FB0EC14F0620E9D6F2A0E97
:101CA8009E6FBAEC14F0800E696E1200FAC401F54A
:101CB800FBC402F5B39E77B076A011D076900501EB
:101CC800F951FA11D8B41FD001D81DD00500FA6E09
:101CD800F951FD6EFA51FE6EFF6AFA50120077B2A2
:101CE80076A211D076920501F751F811D8B40BD02D
:101CF80001D809D00500FA6EF751FD6EF851FE6E55
:101D0800FF6AFA50120002C5FBF401C5FAF411008B
:101D1800FAC405F5FBC406F5B29E68B067A011D0F9
:101D280067900501F351F411D8B41FD001D81DD024
:101D38000500FA6EF351FD6EF451FE6EFF6AFA501B
:101D4800120068B267A211D067920601E751E81144
:101D5800D8B40BD001D809D00500FA6EE751FD6E52
:101D6800E851FE6EFF6AFA50120006C5FBF405C57D
:101D7800FAF411006F6A020E706E716A7F0E726E4D
:101D88003E0E736E030E746E756A766A776A796AA8
:101D9800400E7A6E1F0E7B6E400E7C6E1F0E7D6E9F
:101DA800B39CB39E76907692A39EA39C5A0E9D6F89
:101DB8002A0E9E6FA6EC14F0580E9D6F2A0E9E6F89
:101DC800A1EC14F05C0E9D6F2A0E9E6FABEC14F024
:101DD800800E786E12000201B86BBA6BBC6BA00E55
:101DE800BE6F800EBF6FC06BC169010EC26F2E0E31
:101DF800C36FC46B800EC56FC66B000E05019D6F67
:101E0800000E9E6F88EC14F0000E9D6F000E9E6F02
:101E18007FEC14F0000E9D6F000E9E6F76EC14F0B0
:101E2800D96B000ED86F12000501E551D8B40DD05A
:101E3800590EE46105D0E42BE4C519F3440E01D032
:101E4800230E0201B66F0501E56BF051EF11EE119B
:101E5800ED11EC119D6F9D51D8A41200EA05D8A48C
:101E68001200380EE4651200380EE46FE4C519F369
:101E7800490E0201B66F1200B5C6C1F5B6C6C2F565
:101E88000FD0B3C6A6F6B4C6A7F6C10E0601A86F52
:101E9800050EA96FB7C6AAF6B8C6ABF6BFEC05F033
:101EA800C1C5F6F4C2C5F7F4F86A0800F550000990
:101EB800D8A4E7D70601B46B000EB36F120077C53C
:101EC8007BF578C57CF50FD075C566F576C567F5E1
:101ED8007B0E0501686F050E696F79C56AF57AC5CD
:101EE8006BF57FEC06F07BC5F6F47CC5F7F4F86A71
:101EF8000800F5500009D8A4E7D70501766B000E55
:101F0800756F1200040EE86F800EF96F060EFA6FF7
:101F1800000EFB6F050EF16FFF0EF06F020EFD6FE6
:101F2800F86B200EF76FEF6B010EEE6F2E0EFF6F42
:101F3800FE6BBA9ABA98BA9EBA9CAA9AAA98AA9E0E
:101F4800AA9C800EFC6F1200030EE86F600EF96FFA
:101F5800060EFA6F000EFB6F050EF16FFE0EF06FA6
:101F6800020EFD6FF86B200EF76FEF6B010EEE6F30
:101F7800260EFF6FFE6BB99AB998B99EB99CA99ABB
:101F8800A998A99EA99C800EFC6F1200020EE86F0A
:101F9800400EF96F060EFA6F000EFB6F050EF16F1B
:101FA800FD0EF06F020EFD6FF86B200EF76FEF6BF2
:101FB800010EEE6F730EFF6FFE6BB89AB898B89E5D
:101FC800B89CA89AA898A89EA89C800EFC6F12009E
:101FD800010EE86F200EF96F060EFA6F000EFB6F08
:101FE800050EF16FFC0EF06F020EFD6FF86B200E00
:101FF800F76FEF6B010EEE6F530EFF6FFE6BB49A27
:10200800B498B49EB49CA49AA498A49EA49C800E50
:10201800FC6F1200000ED6BE010E216E20C545F0E1
:102028001FC544F000014151F80B0609416FD69EC7
:1020380000015EC542F05D50426F408121B002D080
:10204800D69E01D0D68EF80E0001411741AF02D0BE
:10205800010E1200000E1200D8904434F66E45347A
:10206800F76E0D0EF626DE0EF722F86A000EF8223D
:102078000900F5C49FF50A00F5C4A0F59FC59DF5B4
:102088000501A0519F6FA06B9FC59EF50401556B7C
:102098009EC554F49DC553F41200D8904634F66E8C
:1020A8004734F76E0D0EF626DE0EF722F86A000E9C
:1020B800F8220900F5C49FF50A00F5C4A0F59FC5EC
:1020C8009DF50501A0519F6FA06B9FC59EF504016A
:1020D8004D6B9EC54CF49DC54BF41200D890483406
:1020E800F66E4934F76E0D0EF626DE0EF722F86A04
:1020F800000EF8220900F5C49FF50A00F5C4A0F502
:102108009FC59DF50501A0519F6FA06B9FC59EF5CA
:102118000401456B9EC544F49DC543F41200E86B69
:10212800000EF96F060EFA6F000EFB6F050EF16FC9
:10213800FB0EF06F020EFD6FF86B200EF76FEF6B62
:10214800010EEE6F330EFF6FFE6BB09AB098B09E23
:10215800B09CA09AA098A09EA09C800EFC6F120034
:10216800070E0001D56F800ED76F380ED86F330E6B
:10217800D96F330EDA6F330EDB6F010EDC6F080E8A
:10218800DD6FDE6BDF6BD46B8C0ED66FBD92000EED
:1021980005019D6F000E9E6FCEEC14F0AD8212000B
:1021A800010E0001D56F800ED76F380ED86F360E2E
:1021B800D96F380EDA6F380EDB6F010EDC6F080E40
:1021C800DD6FDE6BDF6BD46B8C0ED66FB492000EB6
:1021D80005019D6F000E9E6FECEC14F0A4821200B6
:1021E800D8904434F66E4534F76E0D0EF626DE0EA2
:1021F800F722F86A000EF8220900F5C411F50A0062
:10220800F5C412F511C50FF51250116E126A11C5F9
:1022180010F50401556B10C554F40FC553F41200A2
:10222800D8904634F66E4734F76E0D0EF626DE0E5D
:10223800F722F86A000EF8220900F5C411F50A0021
:10224800F5C412F511C50FF51250116E126A11C5B9
:1022580010F504014D6B10C54CF40FC54BF412007A
:10226800D8904834F66E4934F76E0D0EF626DE0E19
:10227800F722F86A000EF8220900F5C411F50A00E1
:10228800F5C412F511C50FF51250116E126A11C579
:1022980010F50401456B10C544F40FC543F4120052
:1022A800060E0001D56FD76B050ED86F040ED96FD7
:1022B800010EDA6FDB6B020EDC6F040EDD6F100EA1
:1022C800DE6F800EDF6FD46B820ED66F000E0501B5
:1022D8009D6F000E9E6FD3EC14F0BC921200030E9B
:1022E8000001D56F0C0ED76F390ED86F020ED96F5B
:1022F800020EDA6F030EDB6F020EDC6F080EDD6F65
:10230800DE6BDF6BD46B820ED66F000E05019D6FFE
:10231800000E9E6FE2EC14F0B79A1200020E000154
:10232800D56F0C0ED76F340ED86F3A0ED96F340EA6
:10233800DA6F3A0EDB6F020EDC6F080EDD6FDE6BB4
:10234800DF6BD46B820ED66F000E05019D6F000EF9
:102358009E6FE7EC14F0B59A1200050E0001D56FD8
:10236800010ED76F060ED86F060ED96F060EDA6FFC
:10237800060EDB6FDC6B080EDD6FDE6BDF6BD46B7C
:10238800870ED66F000E05019D6F000E9E6FD8EC6C
:1023980014F0B9921200040E0001D56F0C0ED76F1D
:1023A800050ED86F040ED96F010EDA6FDB6B020EC3
:1023B800DC6F080EDD6FDE6BDF6BD46B820ED66FC1
:1023C800000E05019D6F000E9E6FDDEC14F0B892B3
:1023D80012000001D56B060ED76F370ED86F360E78
:1023E800D96F360EDA6F360EDB6F010EDC6FDD6BE0
:1023F800DE6B400EDF6FD46B820ED66F000E0501C8
:102408009D6F000E9E6FF1EC14F0AE9A1200AE6B49
:10241800000EAD6F0CD0ACC59FF5A06BAAC5A1F599
:10242800ABC5A2F535EC0BF00501AD4BAE2BAD51AC
:10243800A825D96EAE51A921DA6EDF50AC6FAC5128
:10244800D8B41200E8D7D8904034F66E4134F76E0D
:102458000D0EF626BE0EF722F86A000EF8220900C5
:10246800F5C49DF50A00F5C49EF59DC572F40501F5
:102478009E519D6F9E6B9DC573F478841200D89011
:102488004234F66E4334F76E0D0EF626BE0EF72272
:10249800F86A000EF8220900F5C49DF50A00F5C493
:1024A8009EF59DC563F405019E519D6F9E6B9DC56C
:1024B80064F46984120013D0000E5424D96EDA6AC9
:1024C800090EDA22DF505B6E000E5424D96EDA6AE8
:1024D800080EDA22DF505F6E20EC02F0542A5450C6
:1024E8005518D8A4E9D7E4C519F3120054C517F54F
:1024F80013D0000E1724D96EDA6A090EDA22DF50DB
:102508005B6E000E1724D96EDA6A080EDA22DF50E5
:102518005F6E90EC03F0172A17505518D8B41200C4
:10252800E8D7D8904034F66E4134F76E0D0EF62693
:10253800BE0EF722F86A000EF8220900F5C40FF55E
:102548000A00F5C410F50FC572F410500F6E106A2A
:102558000FC573F478841200D8904234F66E433471
:10256800F76E0D0EF626BE0EF722F86A000EF82258
:102578000900F5C40FF50A00F5C410F50FC563F49A
:1025880010500F6E106A0FC564F4698412002F6A28
:10259800000E2E6E0BD02DC520F5216A2BC522F515
:1025A8002CC523F585EC0BF02E4A2F2A2E50292412
:1025B800D96E2F502A20DA6EDF502D6E2D50D8B4E8
:1025C8001200E9D7FAC403F5FBC404F5B39C05016E
:1025D800F551F611D8B40BD001D809D00500FA6E20
:1025E800F551FD6EF651FE6EFF6AFA50120004C5F1
:1025F800FBF403C5FAF41100FAC407F5FBC408F5A7
:10260800B29C0601E551E611D8B40BD001D809D027
:102618000500FA6EE551FD6EE651FE6EFF6AFA504E
:10262800120008C5FBF407C5FAF41100070E0001F3
:10263800B56F070EB66F070EB76F070EB86F070EA8
:10264800B96F070EBA6F070EBB6F070EBE6F070E86
:0A265800BF6FF46AF36AB46B12005E
:10266400B19E07EC08F0D890D037D137D1C59CF58E
:10267400020E00018F6F9CC58EF0D0C58EF0B1AEF6
:102684001100010E0501E16F010EE56F1100D9EC97
:102694000CF083EC00F05FEC12F04C50D8B403D093
:1026A40018EC0FF0F8D70501E151D8B4F4D72A0E8D
:1026B4000201B66F0501E16BEED70001919FA3946F
:1026C400A392A390400E926F936B966B996B8F6B52
:1026D400906B946B956B986B976B9485020E916FCE
:1026E4001200BB0EBD6F060EBE6F000EB36F000E60
:1026F400B46FB9C6B5F6BAC6B6F6BD0EB76F060E58
:10270400B86F40EC0FF012007F0E7F6F050E806FE4
:10271400000E756F000E766F7DC577F57EC578F572
:102724007F0E796F050E7A6F63EC0FF01200030EC3
:10273400266F256B276B0F0E236F226B000E06018D
:10274400E16F000EE26FB1960301246B12002C0EB0
:102754000301196F186B740E1B6F000E0601E36FF3
:10276400000EE46FB19EA18E03011A6B12000501E5
:10277400DE51DF11D8B4120001D812000500FA6E40
:10278400DE51FD6EDF51FE6EFF6AFA501200050144
:10279400DC51DD11D8B4120001D812000500FA6E24
:1027A400DC51FD6EDD51FE6EFF6AFA501200050128
:1027B400DA51DB11D8B4120001D812000500FA6E08
:1027C400DA51FD6EDB51FE6EFF6AFA501200080EFC
:1027D4000401476F426B416B406B0E0E456F140E44
:1027E400446F7B0E436F800E466F1200080E576FC6
:1027F400526B516B506B0E0E556F140E546F7B0E53
:10280400536F800E566F1200080E4F6F4A6B496B60
:10281400486B0E0E4D6F140E4C6F7B0E4B6F800E7B
:102824004E6F120005019D6B0201C3BBBEAB03D00A
:10283400010E05019D6F05019D511200FAC409F5B1
:10284400FBC40AF5AF90B9EC13F00AC5FBF409C553
:10285400FAF41100FAC40BF5FBC40CF5B490C9ECFE
:1028640013F00CC5FBF40BC5FAF41100FAC40DF512
:10287400FBC40EF5B890D9EC13F00EC5FBF40DC5EE
:10288400FAF411009E6F14EC14F00009D8B4FBD7CD
:102894009E51FBEC14F01200000E9D159D6FFF0E6F
:1028A4009E159E6F010E9F159F6F1200600E000112
:1028B400AD6FAF6BB36B080EB16FB06BAC6B120046
:1028C4001F6E91EC14F00009D8B4FBD71F5013EC21
:1028D40015F01200000E1E141E6EFF0E1F141F6E44
:1028E400010E2014206E12009D519E11D8B41200C6
:1028F4009DC5D2F59EC5D3F512009D519E11D8B445
:1029040012009DC5D4F59EC5D5F512009D519E11AA
:10291400D8B412009DC5D6F59EC5D7F512001E6A1F
:102924000201C3BBBEAB02D0010E1E6E1E501200CC
:10293400550E0001B46FAA0EB46FB48112009DC588
:10294400F7F59EC5F8F512009DC5F9F59EC5FAF593
:1029540012009DC5F5F59EC5F6F512009DC5E7F676
:102964009EC5E8F612009DC5F3F59EC5F4F5120068
:102974009DC5E5F69EC5E6F612009DC5DAF59EC531
:10298400DBF512009DC5DCF59EC5DDF512009DC585
:10299400DEF59EC5DFF512009DC5EBF69EC5ECF68F
:1029A40012009DC5F5F69EC5F6F612009DC5F7F614
:1029B4009EC5F8F612009DC5E9F69EC5EAF612001A
:1029C4009DC5EFF69EC5F0F612009DC5F1F69EC5B5
:1029D400F2F612009DC5F3F69EC5F4F612009DC5ED
:1029E400EDF69EC5EEF612001FC55DF51EC55EF53B
:1029F40012009D6F9DC5B6F21200040EE86FFC8DA7
:102A04001200030EE86FFC8D1200020EE86FFC8DBD
:102A14001200010EE86FFC8D12000001E86BFC8DC2
:102A240012001E6E1EC5B6F212001AEC15F012004A
:102A34000001419F12000001419F12005D6A5E6A1D
:072A440012008080808080F9
:102A4C00BC961100B8961100B49611001200120039
:102A5C0012001200120012001100120012001200DB
:10BE0C0000040008000D00110016001A001F00238A
:10BE1C000028002C00310035003A003E004300475A
:10BE2C00004B005000540059005D00620066006B2E
:10BE3C00006F00740078007D00810086008A008FFE
:10BE4C0000930097009C00A000A500A900AE00B2D2
:10BE5C0000B700BB00C000C400C900CD00D200D6A2
:10BE6C0000DB00DF00E300E800EC00F100F500FA75
:10BE7C0000FE00030107010C011001150119011E40
:10BE8C0001220127012B012F01340138013D014111
:10BE9C000146014A014F01530158015C01610165E2
:10BEAC00016A016E01720177017B018001840189B5
:10BEBC00018D01920196019B019F01A401A801AD86
:10BECC0001B101B601BA01BE01C301C701CC01D059
:10BEDC0001D501D901DE01E201E701EB01F001F42A
:10BEEC0001F901FD01020206020A020F02130218F7
:10BEFC00021C02210225022A022E02330237023CC6
:10BF0C00024002450249024E02520256025B025F97
:10BF1C0002640268026D02710276027A027F028369
:10BF2C000288028C02910295029A029E02A202A73A
:10BF3C0002AB02B002B402B902BD02C202C602CB0D
:10BF4C0002CF02D402D802DD02E102E502EA02EEDF
:10BF5C0002F302F702FC020003050309030E0312AD
:10BF6C000317031B032003240329032D033103367A
:10BF7C00033A033F03430348034C03510355035A4D
:10BF8C00035E03630367036C037003750379037D1E
:10BF9C0003820386038B038F03940398039D03A1F1
:10BFAC0003A603AA03AF03B303B803BC03C103C5C1
:10BFBC0003C903CE03D203D703DB03E003E403E995
:10BFCC0003ED03F203F603FB03FF03040408040D63
:10BFDC0004110415041A041E04230427042C043031
:10BFEC0004350439043E04420447044B0450045401
:10BFFC000458045D04610466046A046F04730478D5
:10C00C00047C04810485048A048E04930497049CA4
:10C01C0004A004A404A904AD04B204B604BB04BF78
:10C02C0004C404C804CD04D104D604DA04DF04E348
:10C03C0004E804EC04F004F504F904FE040205071A
:10C04C00050B051005140519051D05220526052BE4
:10C05C00052F05340538053C05410545054A054EB7
:10C06C0005530557055C056005650569056E057288
:10C07C000577057B058005840588058D059105965A
:10C08C00059A059F05A305A805AC05B105B505BA2C
:10C09C0005BE05C305C705CB05D005D405D905DDFF
:10C0AC0005E205E605EB05EF05F405F805FD0501D0
:10C0BC000606060A060F06130617061C062006259A
:10C0CC000629062E06320637063B0640064406496C
:10C0DC00064D06520656065B065F06630668066C3E
:10C0EC0006710675067A067E06830687068C069010
:10C0FC0006950699069E06A206A706AB06AF06B4E1
:10C10C0006B806BD06C106C606CA06CF06D306D8B3
:10C11C0006DC06E106E506EA06EE06F206F706FB85
:10C12C00060007040709070D07120716071B071F50
:10C13C0007240728072D07310736073A073E074320
:10C14C000747074C075007550759075E07620767F3
:10C15C00076B077007740779077D07820786078AC4
:10C16C00078F07930798079C07A107A507AA07AE97
:10C17C0007B307B707BC07C007C507C907CE07D267
:10C18C0007D607DB07DF07E407E807ED07F107F63B
:10C19C0007FA07FF07030808080C08110815081A06
:10C1AC00081E08220827082B083008340839083DD7
:10C1BC0008420846084B084F08540858085D0861A7
:10C1CC000865086A086E08730877087C088008857B
:10C1DC000889088E08920897089B08A008A408A94B
:10C1EC0008AD08B108B608BA08BF08C308C808CC1F
:10C1FC0008D108D508DA08DE08E308E708EC08F0EF
:10C20C0008F508F908FD08020906090B090F0914BD
:10C21C000918091D09210926092A092F093309388A
:10C22C00093C094109450949094E09520957095B5D
:10C23C00096009640969096D09720976097B097F2E
:10C24C0009840988098D09910995099A099E09A300
:10C25C0009A709AC09B009B509B909BE09C209C7D2
:10C26C0009CB09D009D409D809DD09E109E609EAA5
:10C27C0009EF09F309F809FC09010A050A0A0A0E73
:10C28C000A130A170A1C0A200A240A290A2D0A3240
:10C29C000A360A3B0A3F0A440A480A4D0A510A5612
:10C2AC000A5A0A5F0A630A680A6C0A700A750A79E4
:10C2BC000A7E0A820A870A8B0A900A940A990A9DB6
:10C2CC000AA20AA60AAB0AAF0AB40AB80ABC0AC187
:10C2DC000AC50ACA0ACE0AD30AD70ADC0AE00AE55A
:10C2EC000AE90AEE0AF20AF70AFB0A000B040B0829
:10C2FC000B0D0B110B160B1A0B1F0B230B280B2CF6
:10C30C000B310B350B3A0B3E0B430B470B4B0B50C6
:10C31C000B540B590B5D0B620B660B6B0B6F0B7499
:10C32C000B780B7D0B810B860B8A0B8F0B930B976A
:10C33C000B9C0BA00BA50BA90BAE0BB20BB70BBB3D
:10C34C000BC00BC40BC90BCD0BD20BD60BDB0BDF0D
:10C35C000BE30BE80BEC0BF10BF50BFA0BFE0B03E1
:10C36C000C070C0C0C100C150C190C1E0C220C27A9
:10C37C000C2B0C2F0C340C380C3D0C410C460C4A7D
:10C38C000C4F0C530C580C5C0C610C650C6A0C6E4D
:10C39C000C720C770C7B0C800C840C890C8D0C9221
:10C3AC000C960C9B0C9F0CA40CA80CAD0CB10CB6F1
:10C3BC000CBA0CBE0CC30CC70CCC0CD00CD50CD9C5
:10C3CC000CDE0CE20CE70CEB0CF00CF40CF90CFD95
:10C3DC000C020D060D0A0D0F0D130D180D1C0D2161
:10C3EC000D250D2A0D2E0D330D370D3C0D400D4531
:10C3FC000D490D4E0D520D560D5B0D5F0D640D6804
:10C40C000D6D0D710D760D7A0D7F0D830D880D8CD4
:10C41C000D910D950D9A0D9E0DA20DA70DAB0DB0A6
:10C42C000DB40DB90DBD0DC20DC60DCB0DCF0DD478
:10C43C000DD80DDD0DE10DE50DEA0DEE0DF30DF74B
:10C44C000DFC0D000E050E090E0E0E120E170E1B16
:10C45C000E200E240E290E2D0E310E360E3A0E3FE6
:10C46C000E430E480E4C0E510E550E5A0E5E0E63B8
:10C47C000E670E6C0E700E750E790E7D0E820E868A
:10C48C000E8B0E8F0E940E980E9D0EA10EA60EAA5C
:10C49C000EAF0EB30EB80EBC0EC10EC50EC90ECE2D
:10C4AC000ED20ED70EDB0EE00EE40EE90EED0EF200
:10C4BC000EF60EFB0EFF0E040F080F0D0F110F15CD
:10C4CC000F1A0F1E0F230F270F2C0F300F350F399C
:10C4DC000F3E0F420F470F4B0F500F540F580F5D6D
:10C4EC000F610F660F6A0F6F0F730F780F7C0F8140
:10C4FC000F850F8A0F8E0F930F970F9C0FA00FA411
:10C50C000FA90FAD0FB20FB60FBB0FBF0FC40FC8E3
:10C51C000FCD0FD10FD60FDA0FDF0FE30FE80FECB3
:10C52C000FF00FF50FF90FFE0F021007100B101084
:10C53C0010141019101D10221026102B102F10344F
:10C54C001038103C10411045104A104E1053105723
:10C55C00105C106010651069106E10721077107BF3
:10C56C00108010841088108D10911096109A109FC6
:10C57C0010A310A810AC10B110B510BA10BE10C397
:10C58C0010C710CB10D010D410D910DD10E210E66B
:10C59C0010EB10EF10F410F810FD10011106110A39
:10C5AC00110F11131117111C112011251129112E06
:10C5BC0011321137113B114011441149114D1152D7
:10C5CC001156115B115F11631168116C11711175AA
:10C5DC00117A117E11831187118C1190119511997B
:10C5EC00119E11A211A711AB11AF11B411B811BD4D
:10C5FC0011C111C611CA11CF11D311D811DC11E11F
:10C60C0011E511EA11EE11F211F711FB11001204F0
:10C61C001209120D12121216121B121F12241228BA
:10C62C00122D12311236123A123E12431247124C8C
:10C63C00125012551259125E12621267126B12705E
:10C64C0012741279127D12821286128A128F129330
:10C65C001298129C12A112A512AA12AE12B312B702
:10C66C0012BC12C012C512C912CE12D212D612DBD3
:10C67C0012DF12E412E812ED12F112F612FA12FFA6
:10C68C0012031308130C13111315131A131E132270
:10C69C001327132B133013341339133D1342134642
:10C6AC00134B134F13541358135D13611365136A13
:10C6BC00136E13731377137C138013851389138EE6
:10C6CC0013921397139B13A013A413A913AD13B1B7
:10C6DC0013B613BA13BF13C313C813CC13D113D58A
:10C6EC0013DA13DE13E313E713EC13F013F513F95A
:10C6FC0013FD13021406140B140F14141418141D28
:10C70C0014211426142A142F14331438143C1441F5
:10C71C0014451449144E14521457145B14601464C9
:10C72C001469146D14721476147B147F1484148899
:10C73C00148D14911495149A149E14A314A714AC6C
:10C74C0014B014B514B914BE14C214C714CB14D03D
:10C75C0014D414D814DD14E114E614EA14EF14F311
:10C76C0014F814FC14011505150A150E15131517DC
:10C77C00151C152015241529152D15321536153BAC
:10C78C00153F15441548154D15511556155A155F7D
:10C79C0015631568156C157015751579157E158250
:10C7AC001587158B159015941599159D15A215A621
:10C7BC0015AB15AF15B415B815BC15C115C515CAF3
:10C7CC0015CE15D315D715DC15E015E515E915EEC5
:10C7DC0015F215F715FB150016041608160D161193
:10C7EC001616161A161F16231628162C1631163561
:10C7FC00163A163E16431647164B16501654165933
:10C80C00165D16621666166B166F16741678167D04
:10C81C0016811686168A168F16931697169C16A0D6
:10C82C0016A516A916AE16B216B716BB16C016C4A8
:10C83C0016C916CD16D216D616DB16DF16E316E879
:10C84C0016EC16F116F516FA16FE16031707170C4A
:10C85C00171017151719171E17221727172B172F15
:10C86C0017341738173D17411746174A174F1753E8
:10C87C001758175C17611765176A176E17721777B9
:10C88C00177B178017841789178D17921796179B8C
:10C89C00179F17A417A817AD17B117B617BA17BE5D
:10C8AC0017C317C717CC17D017D517D917DE17E230
:10C8BC0017E717EB17F017F417F917FD17021806FF
:10C8CC00180A180F18131818181C18211825182ACC
:10C8DC00182E18331837183C184018451849184E9C
:10C8EC0018521856185B185F18641868186D187170
:10C8FC001876187A187F18831888188C1891189540
:10C90C00189A189E18A218A718AB18B018B418B912
:10C91C0018BD18C218C618CB18CF18D418D818DDE3
:10C92C0018E118E518EA18EE18F318F718FC1800B7
:10C93C0019051909190E19121917191B192019247F
:10C94C001929192D19311936193A193F1943194852
:10C95C00194C19511955195A195E19631967196C23
:10C96C00197019751979197D19821986198B198FF6
:10C97C0019941998199D19A119A619AA19AF19B3C7
:10C98C0019B819BC19C119C519C919CE19D219D799
:10C99C0019DB19E019E419E919ED19F219F619FB6B
:10C9AC0019FF19041A081A0D1A111A151A1A1A1E37
:10C9BC001A231A271A2C1A301A351A391A3E1A4207
:10C9CC001A471A4B1A501A541A581A5D1A611A66D9
:10C9DC001A6A1A6F1A731A781A7C1A811A851A8AAB
:10C9EC001A8E1A931A971A9C1AA01AA41AA91AAD7D
:10C9FC001AB21AB61ABB1ABF1AC41AC81ACD1AD14F
:10CA0C001AD61ADA1ADF1AE31AE81AEC1AF01AF51F
:10CA1C001AF91AFE1A021B071B0B1B101B141B19ED
:10CA2C001B1D1B221B261B2B1B2F1B341B381B3CBB
:10CA3C001B411B451B4A1B4E1B531B571B5C1B608E
:10CA4C001B651B691B6E1B721B771B7B1B801B845E
:10CA5C001B881B8D1B911B961B9A1B9F1BA31BA832
:10CA6C001BAC1BB11BB51BBA1BBE1BC31BC71BCB03
:10CA7C001BD01BD41BD91BDD1BE21BE61BEB1BEFD6
:10CA8C001BF41BF81BFD1B011C061C0A1C0F1C13A2
:10CA9C001C171C1C1C201C251C291C2E1C321C3772
:10CAAC001C3B1C401C441C491C4D1C521C561C5B42
:10CABC001C5F1C631C681C6C1C711C751C7A1C7E16
:10CACC001C831C871C8C1C901C951C991C9E1CA2E6
:10CADC001CA71CAB1CAF1CB41CB81CBD1CC11CC6B9
:10CAEC001CCA1CCF1CD31CD81CDC1CE11CE51CEA8A
:10CAFC001CEE1CF21CF71CFB1C001D041D091D0D5B
:10CB0C001D121D161D1B1D1F1D241D281D2D1D3125
:10CB1C001D361D3A1D3E1D431D471D4C1D501D55F8
:10CB2C001D591D5E1D621D671D6B1D701D741D79C9
:10CB3C001D7D1D821D861D8A1D8F1D931D981D9C9C
:10CB4C001DA11DA51DAA1DAE1DB31DB71DBC1DC06D
:10CB5C001DC51DC91DCE1DD21DD61DDB1DDF1DE43F
:10CB6C001DE81DED1DF11DF61DFA1DFF1D031E0810
:10CB7C001E0C1E111E151E1A1E1E1E221E271E2BDB
:10CB8C001E301E341E391E3D1E421E461E4B1E4FAD
:10CB9C001E541E581E5D1E611E651E6A1E6E1E737F
:10CBAC001E771E7C1E801E851E891E8E1E921E9751
:10CBBC001E9B1EA01EA41EA91EAD1EB11EB61EBA23
:10CBCC001EBF1EC31EC81ECC1ED11ED51EDA1EDEF5
:10CBDC001EE31EE71EEC1EF01EF51EF91EFD1E02C6
:10CBEC001F061F0B1F0F1F141F181F1D1F211F2691
:10CBFC001F2A1F2F1F331F381F3C1F411F451F4962
:10CC0C001F4E1F521F571F5B1F601F641F691F6D34
:10CC1C001F721F761F7B1F7F1F841F881F8D1F9104
:10CC2C001F951F9A1F9E1FA31FA71FAC1FB01FB5D8
:10CC3C001FB91FBE1FC21FC71FCB1FD01FD41FD8A9
:10CC4C001FDD1FE11FE61FEA1FEF1FF31FF81FFC7C
:10CC5C001F012005200A200E20132017201C202045
:10CC6C0020242029202D20322036203B203F204418
:10CC7C002048204D20512056205A205F20632068E8
:10CC8C00206C207020752079207E20822087208BBC
:10CC9C00209020942099209D20A220A620AB20AF8C
:10CCAC0020B420B820BC20C120C520CA20CE20D35F
:10CCBC0020D720DC20E020E520E920EE20F220F730
:10CCCC0020FB200021042108210D21112116211AFD
:10CCDC00211F21232128212C21312135213A213ECC
:10CCEC0021432147214B215021542159215D21629F
:10CCFC002166216B216F21742178217D2181218670
:10CD0C00218A218F21932197219C21A021A521A942
:10CD1C0021AE21B221B721BB21C021C421C921CD13
:10CD2C0021D221D621DB21DF21E321E821EC21F1E5
:10CD3C0021F521FA21FE21032207220C22102215B3
:10CD4C002219221E22222227222B222F2234223881
:10CD5C00223D22412246224A224F22532258225C53
:10CD6C0022612265226A226E22722277227B228025
:10CD7C0022842289228D22922296229B229F22A4F7
:10CD8C0022A822AD22B122B622BA22BE22C322C7C9
:10CD9C0022CC22D022D522D922DE22E222E722EB9B
:10CDAC0022F022F422F922FD22022306230A230F69
:10CDBC0023132318231C23212325232A232E233337
:10CDCC002337233C234023452349234E2352235608
:10CDDC00235B235F23642368236D23712376237ADB
:10CDEC00237F23832388238C23912395239A239EAB
:10CDFC0023A223A723AB23B023B423B923BD23C27F
:10CE0C0023C623CB23CF23D423D823DD23E123E54F
:10CE1C0023EA23EE23F323F723FC23002405240920
:10CE2C00240E24122417241B242024242429242DEA
:10CE3C0024312436243A243F24432448244C2451BE
:10CE4C002455245A245E24632467246C247024758E
:10CE5C002479247D24822486248B248F2494249862
:10CE6C00249D24A124A624AA24AF24B324B824BC32
:10CE7C0024C124C524C924CE24D224D724DB24E005
:10CE8C0024E424E924ED24F224F624FB24FF2404D6
:10CE9C002508250D25112515251A251E25232527A1
:10CEAC00252C253025352539253E25422547254B72
:10CEBC00255025542558255D25612566256A256F45
:10CECC0025732578257C25812585258A258E259316
:10CEDC002597259C25A025A425A925AD25B225B6E9
:10CEEC0025BB25BF25C425C825CD25D125D625DABA
:10CEFC0025DF25E325E825EC25F025F525F925FE8C
:10CF0C0025022607260B261026142619261D262256
:10CF1C002626262B262F26342638263C2641264527
:10CF2C00264A264E26532657265C266026652669F9
:10CF3C00266E26722677267B268026842688268DCA
:10CF4C0026912696269A269F26A326A826AC26B19D
:10CF5C0026B526BA26BE26C326C726CB26D026D46F
:10CF6C0026D926DD26E226E626EB26EF26F426F841
:10CF7C0026FD26012706270A270F27132717271C0C
:10CF8C00272027252729272E27322737273B2740DD
:10CF9C0027442749274D27522756275B275F2763AE
:10CFAC002768276C27712775277A277E2783278781
:10CFBC00278C279027952799279E27A227A727AB51
:10CFCC0027AF27B427B827BD27C127C627CA27CF25
:10CFDC0027D327D827DC27E127E527EA27EE27F2F6
:10CFEC0027F727FB270028042809280D28122816C4
:10CFFC00281B281F28242828282D28312836283A91
:10D00C00283E28432847284C285028552859285E64
:10D01C0028622867286B287028742879287D288234
:10D02C002886288A288F28932898289C28A128A508
:10D03C0028AA28AE28B328B728BC28C028C528C9D8
:10D04C0028CE28D228D628DB28DF28E428E828EDAB
:10D05C0028F128F628FA28FF28032908290C291179
:10D06C002915291A291E29222927292B2930293447
:10D07C002939293D29422946294B294F2954295818
:10D08C00295D29612965296A296E29732977297CEB
:10D09C00298029852989298E29922997299B29A0BC
:10D0AC0029A429A929AD29B129B629BA29BF29C38F
:10D0BC0029C829CC29D129D529DA29DE29E329E760
:10D0CC0029EC29F029F529F929FD29022A062A0B30
:10D0DC002A0F2A142A182A1D2A212A262A2A2A2FFC
:10D0EC002A332A382A3C2A412A452A492A4E2A52CE
:10D0FC002A572A5B2A602A642A692A6D2A722A76A0
:10D10C002A7B2A7F2A842A882A8D2A912A952A9A70
:10D11C002A9E2AA32AA72AAC2AB02AB52AB92ABE43
:10D12C002AC22AC72ACB2AD02AD42AD82ADD2AE115
:10D13C002AE62AEA2AEF2AF32AF82AFC2A012B05E6
:10D14C002B0A2B0E2B132B172B1C2B202B242B29B0
:10D15C002B2D2B322B362B3B2B3F2B442B482B4D83
:10D16C002B512B562B5A2B5F2B632B682B6C2B7054
:10D17C002B752B792B7E2B822B872B8B2B902B9427
:10D18C002B992B9D2BA22BA62BAB2BAF2BB42BB8F7
:10D19C002BBC2BC12BC52BCA2BCE2BD32BD72BDCCB
:10D1AC002BE02BE52BE92BEE2BF22BF72BFB2B009B
:10D1BC002C042C082C0D2C112C162C1A2C1F2C2367
:10D1CC002C282C2C2C312C352C3A2C3E2C432C4737
:10D1DC002C4B2C502C542C592C5D2C622C662C6B0B
:10D1EC002C6F2C742C782C7D2C812C862C8A2C8FDB
:10D1FC002C932C972C9C2CA02CA52CA92CAE2CB2AF
:10D20C002CB72CBB2CC02CC42CC92CCD2CD22CD67E
:10D21C002CDB2CDF2CE32CE82CEC2CF12CF52CFA51
:10D22C002CFE2C032D072D0C2D102D152D192D1E1C
:10D23C002D222D272D2B2D2F2D342D382D3D2D41ED
:10D24C002D462D4A2D4F2D532D582D5C2D612D65BE
:10D25C002D6A2D6E2D722D772D7B2D802D842D8991
:10D26C002D8D2D922D962D9B2D9F2DA42DA82DAD62
:10D27C002DB12DB62DBA2DBE2DC32DC72DCC2DD035
:10D28C002DD52DD92DDE2DE22DE72DEB2DF02DF406
:10D29C002DF92DFD2D022E062E0A2E0F2E132E18D3
:10D2AC002E1C2E212E252E2A2E2E2E332E372E3CA2
:10D2BC002E402E452E492E4E2E522E562E5B2E5F74
:10D2CC002E642E682E6D2E712E762E7A2E7F2E8346
:10D2DC002E882E8C2E912E952E9A2E9E2EA22EA717
:10D2EC002EAB2EB02EB42EB92EBD2EC22EC62ECBEA
:10D2FC002ECF2ED42ED82EDD2EE12EE52EEA2EEEBC
:10D30C002EF32EF72EFC2E002F052F092F0E2F1289
:10D31C002F172F1B2F202F242F292F2D2F312F3656
:10D32C002F3A2F3F2F432F482F4C2F512F552F5A29
:10D33C002F5E2F632F672F6C2F702F752F792F7DFA
:10D34C002F822F862F8B2F8F2F942F982F9D2FA1CD
:10D35C002FA62FAA2FAF2FB32FB82FBC2FC12FC59D
:10D36C002FC92FCE2FD22FD72FDB2FE02FE42FE971
:10D37C002FED2FF22FF62FFB2FFF2F043008300D3F
:10D38C0030113015301A301E30233027302C30300D
:10D39C0030353039303E30423047304B30503054DD
:10D3AC003058305D30613066306A306F30733078B1
:10D3BC00307C30813085308A308E30933097309C81
:10D3CC0030A030A430A930AD30B230B630BB30BF55
:10D3DC0030C430C830CD30D130D630DA30DF30E325
:10D3EC0030E830EC30F030F530F930FE30023107F7
:10D3FC00310B311031143119311D31223126312BC1
:10D40C00312F31343138313C31413145314A314E93
:10D41C0031533157315C316031653169316E317264
:10D42C003177317B318031843188318D3191319636
:10D43C00319A319F31A331A831AC31B131B531BA08
:10D44C0031BE31C331C731CB31D031D431D931DDDB
:10D45C0031E231E631EB31EF31F431F831FD3101AC
:10D46C003206320A320F32133217321C3220322576
:10D47C003229322E32323237323B32403244324948
:10D48C00324D32523256325B325F32633268326C1A
:10D49C0032713275327A327E32833287328C3290EC
:10D4AC0032953299329E32A232A732AB32AF32B4BD
:10D4BC0032B832BD32C132C632CA32CF32D332D890
:10D4CC0032DC32E132E532EA32EE32F232F732FB62
:10D4DC00320033043309330D33123316331B331F2D
:10D4EC0033243328332D33313336333A333E3343FD
:10D4FC003347334C335033553359335E33623367D0
:10D50C00336B337033743379337D33823386338AA0
:10D51C00338F33933398339C33A133A533AA33AE73
:10D52C0033B333B733BC33C033C533C933CE33D243
:10D53C0033D633DB33DF33E433E833ED33F133F617
:10D54C0033FA33FF33033408340C34113415341AE2
:10D55C00341E34223427342B343034343439343DB3
:10D56C0034423446344B344F34543458345D346183
:10D57C003465346A346E34733477347C3480348557
:10D58C003489348E34923497349B34A034A434A927
:10D59C0034AD34B134B634BA34BF34C334C834CCFB
:10D5AC0034D134D534DA34DE34E334E734EC34F0CB
:10D5BC0034F534F934FD34023506350B350F35149A
:10D5CC003518351D35213526352A352F3533353867
:10D5DC00353C354135453549354E35523557355B3A
:10D5EC00356035643569356D35723576357B357F0B
:10D5FC0035843588358D35913595359A359E35A3DD
:10D60C0035A735AC35B035B535B935BE35C235C7AE
:10D61C0035CB35D035D435D835DD35E135E635EA81
:10D62C0035EF35F335F835FC35013605360A360E4F
:10D63C0036133617361C362036243629362D36321C
:10D64C003636363B363F36443648364D36513656EE
:10D65C00365A365F36633668366C367036753679C0
:10D66C00367E36823687368B369036943699369D92
:10D67C0036A236A636AB36AF36B436B836BC36C163
:10D68C0036C536CA36CE36D336D736DC36E036E536
:10D69C0036E936EE36F236F736FB36003704370805
:10D6AC00370D37113716371A371F37233728372CD2
:10D6BC0037313735373A373E37433747374B3750A3
:10D6CC0037543759375D37623766376B376F377476
:10D6DC003778377D37813786378A378F3793379747
:10D6EC00379C37A037A537A937AE37B237B737BB1A
:10D6FC0037C037C437C937CD37D237D637DB37DFEA
:10D70C0037E337E837EC37F137F537FA37FE3703BD
:10D71C003807380C381038153819381E3822382785
:10D72C00382B382F38343838383D38413846384A59
:10D73C00384F38533858385C38613865386A386E29
:10D74C0038723877387B388038843889388D3892FD
:10D75C003896389B389F38A438A838AD38B138B6CD
:10D76C0038BA38BE38C338C738CC38D038D538D9A1
:10D77C0038DE38E238E738EB38F038F438F938FD71
:10D78C0038023906390A390F39133918391C39213D
:10D79C003925392A392E39333937393C394039450D
:10D7AC003949394E39523956395B395F39643968E0
:10D7BC00396D39713976397A397F39833988398CB1
:10D7CC0039913995399A399E39A239A739AB39B083
:10D7DC0039B439B939BD39C239C639CB39CF39D455
:10D7EC0039D839DD39E139E539EA39EE39F339F728
:10D7FC0039FC39003A053A093A0E3A123A173A1BF3
:10D80C003A203A243A293A2D3A313A363A3A3A3FC2
:10D81C003A433A483A4C3A513A553A5A3A5E3A6394
:10D82C003A673A6C3A703A753A793A7D3A823A8666
:10D83C003A8B3A8F3A943A983A9D3AA13AA63AAA38
:10D84C003AAF3AB33AB83ABC3AC13AC53AC93ACE09
:10D85C003AD23AD73ADB3AE03AE43AE93AED3AF2DC
:10D86C003AF63AFB3AFF3A043B083B0D3B113B15A9
:10D87C003B1A3B1E3B233B273B2C3B303B353B3978
:10D88C003B3E3B423B473B4B3B503B543B583B5D49
:10D89C003B613B663B6A3B6F3B733B783B7C3B811C
:10D8AC003B853B8A3B8E3B933B973B9C3BA03BA4ED
:10D8BC003BA93BAD3BB23BB63BBB3BBF3BC43BC8C0
:10D8CC003BCD3BD13BD63BDA3BDF3BE33BE83BEC90
:10D8DC003BF03BF53BF93BFE3B023C073C0B3C1061
:10D8EC003C143C193C1D3C223C263C2B3C2F3C342C
:10D8FC003C383C3C3C413C453C4A3C4E3C533C5700
:10D90C003C5C3C603C653C693C6E3C723C773C7BCF
:10D91C003C803C843C883C8D3C913C963C9A3C9FA2
:10D92C003CA33CA83CAC3CB13CB53CBA3CBE3CC373
:10D93C003CC73CCB3CD03CD43CD93CDD3CE23CE647
:10D94C003CEB3CEF3CF43CF83CFD3C013D063D0A15
:10D95C003D0F3D133D173D1C3D203D253D293D2EE2
:10D96C003D323D373D3B3D403D443D493D4D3D52B3
:10D97C003D563D5B3D5F3D633D683D6C3D713D7586
:10D98C003D7A3D7E3D833D873D8C3D903D953D9957
:10D99C003D9E3DA23DA73DAB3DAF3DB43DB83DBD29
:10D9AC003DC13DC63DCA3DCF3DD33DD83DDC3DE1FB
:10D9BC003DE53DEA3DEE3DF23DF73DFB3D003E04CD
:10D9CC003E093E0D3E123E163E1B3E1F3E243E2897
:10D9DC003E2D3E313E363E3A3E3E3E433E473E4C69
:10D9EC003E503E553E593E5E3E623E673E6B3E703B
:10D9FC003E743E793E7D3E823E863E8A3E8F3E930D
:10DA0C003E983E9C3EA13EA53EAA3EAE3EB33EB7DE
:10DA1C003EBC3EC03EC53EC93ECE3ED23ED63EDBAF
:10DA2C003EDF3EE43EE83EED3EF13EF63EFA3EFF82
:10DA3C003E033F083F0C3F113F153F1A3F1E3F224C
:10DA4C003F273F2B3F303F343F393F3D3F423F461E
:10DA5C003F4B3F4F3F543F583F5D3F613F653F6AEF
:10DA6C003F6E3F733F773F7C3F803F853F893F8EC2
:10DA7C003F923F973F9B3FA03FA43FA93FAD3FB193
:10DA8C003FB63FBA3FBF3FC33FC83FCC3FD13FD566
:10DA9C003FDA3FDE3FE33FE73FEC3FF03FF53FF936
:10DAAC003FFD3F024006400B400F40144018401D04
:10DABC0040214026402A402F40334038403C4041D2
:10DACC0040454049404E40524057405B40604064A6
:10DADC004069406D40724076407B407F4084408876
:10DAEC00408D40914095409A409E40A340A740AC49
:10DAFC0040B040B540B940BE40C240C740CB40D01A
:10DB0C0040D440D840DD40E140E640EA40EF40F3ED
:10DB1C0040F840FC40014105410A410E41134117B8
:10DB2C00411C412041244129412D41324136413B88
:10DB3C00413F41444148414D41514156415A415F59
:10DB4C0041634168416C417041754179417E41822C
:10DB5C004187418B419041944199419D41A241A6FD
:10DB6C0041AB41AF41B441B841BC41C141C541CACF
:10DB7C0041CE41D341D741DC41E041E541E941EEA1
:10DB8C0041F241F741FB410042044208420D42116F
:10DB9C004216421A421F42234228422C423142353D
:10DBAC00423A423E42434247424B4250425442590F
:10DBBC00425D42624266426B426F42744278427DE1
:10DBCC0042814286428A428F42934297429C42A0B3
:10DBDC0042A542A942AE42B242B742BB42C042C485
:10DBEC0042C942CD42D242D642DB42DF42E342E856
:10DBFC0042EC42F142F542FA42FE42034307430C27
:10DC0C00431043154319431E43224327432B432FF1
:10DC1C0043344338433D43414346434A434F4353C4
:10DC2C004358435C43614365436A436E4372437795
:10DC3C00437B438043844389438D43924396439B68
:10DC4C00439F43A443A843AD43B143B643BA43BE39
:10DC5C0043C343C743CC43D043D543D943DE43E20C
:10DC6C0043E743EB43F043F443F943FD43024406DB
:10DC7C00440A440F44134418441C44214425442AA8
:10DC8C00442E44334437443C444044454449444E78
:10DC9C0044524456445B445F44644468446D44714C
:10DCAC004476447A447F44834488448C449144951C
:10DCBC00449A449E44A244A744AB44B044B444B9EF
:10DCCC0044BD44C244C644CB44CF44D444D844DDC0
:10DCDC0044E144E544EA44EE44F344F744FC440094
:10DCEC0045054509450E45124517451B452045245C
:10DCFC004529452D45314536453A453F454345482F
:10DD0C00454C45514555455A455E45634567456CFF
:10DD1C00457045754579457D45824586458B458FD2
:10DD2C0045944598459D45A145A645AA45AF45B3A3
:10DD3C0045B845BC45C145C545C945CE45D245D775
:10DD4C0045DB45E045E445E945ED45F245F645FB47
:10DD5C0045FF45044608460D46114615461A461E13
:10DD6C0046234627462C463046354639463E4642E3
:10DD7C004647464B465046544658465D46614666B5
:10DD8C00466A466F46734678467C46814685468A87
:10DD9C00468E46934697469C46A046A446A946AD59
:10DDAC0046B246B646BB46BF46C446C846CD46D12B
:10DDBC0046D646DA46DF46E346E846EC46F046F5FC
:10DDCC0046F946FE46024707470B471047144719CA
:10DDDC00471D47224726472B472F47344738473C98
:10DDEC0047414745474A474E47534757475C47606B
:10DDFC0047654769476E47724777477B478047843B
:10DE0C0047FFFFFFFFFFFFFFFF17E5E8BEA2A32EB2
:10DE1C008F457F8B722168745F1C58D1515D4C9774
:10DE2C00476143A23F493C45398B361034CD31BA5A
:10DE3C002FD12D0E2C6C2AE8287F272E26F324CBED
:10DE4C0023B522B021BA20D11FF51E241E5E1DA2BF
:10DE5C001CF01B451BA31A081A7419E6185F18DD71
:10DE6C00176017E816751607169C153615D314741B
:10DE7C00141814BF136A131713C71279122E12E554
:10DE8C00119F115A111811D81099105D102210E819
:10DE9C000FB00F7A0F450F120FE00EAF0E7F0E5121
:10DEAC000E240EF80DCC0DA20D790D510D2A0D047A
:10DEBC000DDE0CBA0C960C730C510C2F0C0E0CEED8
:10DECC000BCF0BB00B910B740B570B3A0B1E0B03B8
:10DEDC000BE80ACE0AB40A9B0A820A690A510A3A6A
:10DEEC000A230A0C0AF509DF09CA09B509A0098B2E
:10DEFC00097709630950093C09290917090409F232
:10DF0C0008E108CF08BE08AD089C088C087C086C9A
:10DF1C00085C084C083D082E081F0811080208F47C
:10DF2C0007E607D807CA07BD07B007A207950789F8
:10DF3C00077C077007630757074B073F0734072811
:10DF4C00071D0712070607FC06F106E606DB06D1DD
:10DF5C0006C706BC06B206A8069F0695068B068267
:10DF6C000678066F0666065D0654064B06420639B1
:10DF7C000631062806200617060F060706FF05F7CA
:10DF8C0005EF05E705DF05D805D005C805C105BABD
:10DF9C0005B205AB05A4059D0596058F0588058181
:10DFAC00057B0574056D05670560055A0553054D20
:10DFBC0005470541053A0534052E05280522051DA2
:10DFCC0005170511050B0506050005FA04F504EF08
:10DFDC0004EA04E504DF04DA04D504D004CA04C559
:10DFEC0004C004BB04B604B104AC04A804A3049E8E
:10DFFC00049904940490048B04870482047D0479AE
:10E00C0004740470046C04670463045F045A0456BB
:10E01C000452044E044A04460442043E043A0436B4
:10E02C000432042E042A04260422041E041B0417A2
:10E03C000413040F040C04080404040104FD03FA83
:10E04C0003F603F303EF03EC03E803E503E203DE5B
:10E05C0003DB03D803D403D103CE03CA03C703C421
:10E06C0003C103BE03BB03B803B403B103AE03ABDC
:10E07C0003A803A503A2039F039D039A039703948C
:10E08C000391038E038B0389038603830380037E32
:10E09C00037B0378037503730370036D036B0368D1
:10E0AC00036603630361035E035B03590356035466
:10E0BC000351034F034D034A0348034503430341F4
:10E0CC00033E033C033A0337033503330330032E7B
:10E0DC00032C032A0327032503230321031F031CFB
:10E0EC00031A03180316031403120310030D030B76
:10E0FC000309030703050303030103FF02FD02FBEE
:10E10C0002F902F702F502F302F102EF02ED02EC62
:10E11C0002EA02E802E602E402E202E002DE02DDCA
:10E12C0002DB02D902D702D502D402D202D002CE2F
:10E13C0002CC02CB02C902C702C602C402C202C090
:10E14C0002BF02BD02BB02BA02B802B602B502B3EC
:10E15C0002B102B002AE02AD02AB02A902A802A645
:10E16C0002A502A302A202A0029F029D029B029A98
:10E17C000298029702950294029202910290028EEA
:10E18C00028D028B028A0288028702850284028336
:10E19C0002810280027E027D027C027A0279027781
:10E1AC0002760275027302720271026F026E026DC8
:10E1BC00026B026A0269026802660265026402620C
:10E1CC0002610260025F025D025C025B025A02584D
:10E1DC000257025602550254025202510250024F8B
:10E1EC00024E024C024B024A0249024802460245C8
:10E1FC0002440243024202410240023E023D023C02
:10E20C00023B023A02390238023702360235023337
:10E21C00023202310230022F022E022D022C022B6E
:10E22C00022A02290228022702260225022402239E
:10E23C00022202210220021F021E021D021C021BCE
:10E24C00021A0219021802170216021502140213FE
:10E25C00021202110210020F020E020D020C020B2E
:10E26C00020A02090208020702070206020502045A
:10E27C00020302020201020002FF01FE01FD01FD88
:10E28C0001FC01FB01FA01F901F801F701F601F6B5
:10E29C0001F501F401F301F201F101F101F001EFDB
:10E2AC0001EE01ED01EC01EC01EB01EA01E901E801
:10E2BC0001E701E701E601E501E401E301E301E225
:10E2CC0001E101E001DF01DF01DE01DD01DC01DC48
:10E2DC0001DB01DA01D901D801D801D701D601D56A
:10E2EC0001D501D401D301D201D201D101D001CF8A
:10E2FC0001CF01CE01CD01CD01CC01CB01CA01CAA8
:10E30C0001C901C801C801C701C601C501C501C4C5
:10E31C0001C301C301C201C101C101C001BF01BFE1
:10E32C0001BE01BD01BC01BC01BB01BA01BA01B9FE
:10E33C0001B801B801B701B601B601B501B501B418
:10E34C0001B301B301B201B101B101B001AF01AF31
:10E35C0001AE01AD01AD01AC01AC01AB01AA01AA4A
:10E36C0001A901A801A801A701A701A601A501A562
:10E37C0001A401A401A301A201A201A101A101A078
:10E38C00019F019F019E019E019D019D019C019B8E
:10E39C00019B019A019A01990198019801970197A3
:10E3AC0001960196019501950194019301930192B7
:10E3BC0001920191019101900190018F018E018ECA
:10E3CC00018D018D018C018C018B018B018A018ADD
:10E3DC0001890189018801880187018601860185EF
:10E3EC000185018401840183018301820182018101
:10E3FC00018101800180017F017F017E017E017D11
:10E40C00017D017C017C017B017B017A017A017920
:10E41C00017901780178017701770176017601762F
:10E42C00017501750174017401730173017201723C
:10E43C000171017101700170016F016F016F016E4B
:10E44C00016E016D016D016C016C016B016B016A58
:10E45C00016A016A01690169016801680167016764
:10E46C000166016601660165016501640164016371
:10E47C00016301630162016201610161016001607C
:10E48C000160015F015F015E015E015D015D015D87
:10E49C00015C015C015B015B015B015A015A015992
:10E4AC00015901580158015801570157015601569D
:10E4BC0001560155015501540154015401530153A6
:10E4CC0001530152015201510151015101500150AE
:10E4DC00014F014F014F014E014E014D014D014DB8
:10E4EC00014C014C014C014B014B014A014A014AC0
:10E4FC0001490149014901480148014801470147C7
:10E50C0001460146014601450145014501440144CE
:10E51C0001440143014301420142014201410141D5
:10E52C000141014001400140013F013F013F013EDB
:10E53C00013E013E013D013D013D013C013C013BE1
:10E54C00013B013B013A013A013A013901390139E8
:10E55C0001380138013801370137013701360136EE
:10E56C0001360135013501350134013401340134F2
:10E57C0001330133013301320132013201310131F6
:10E58C000131013001300130012F012F012F012EFB
:10E59C00012E012E012D012D012D012D012C012CFF
:10E5AC00012C012B012B012B012A012A012A012A02
:10E5BC000129012901290128012801280127012706
:10E5CC000127012701260126012601250125012508
:10E5DC00012401240124012401230123012301220C
:10E5EC00012201220122012101210121012001200E
:10E5FC0001200120011F011F011F011E011E011E10
:10E60C00011E011D011D011D011C011C011C011C11
:10E61C00011B011B011B011B011A011A011A011913
:10E62C000119011901190118011801180118011714
:10E63C000117011701170116011601160115011515
:10E64C000115011501140114011401140113011316
:10E65C000113011301120112011201120111011116
:10E66C00011101110110011001100110010F010F16
:10E67C00010F010F010E010E010E010E010D010D16
:10E68C00010D010D010C010C010C010C010B010B16
:10E69C00010B010B010A010A010A010A0109010916
:10E6AC000109010901080108010801080107010716
:10E6BC000107010701060106010601060106010515
:10E6CC000105010501050104010401040104010314
:10E6DC000103010301030103010201020102010212
:10E6EC000101010101010101010001000100010012
:10E6FC00010001FF00FF00FF00FF00FE00FE00FE16
:10E70C0000FE00FE00FD00FD00FD00FD00FD00FC14
:10E71C0000FC00FC00FC00FB00FB00FB00FB00FB12
:10E72C0000FA00FA00FA00FA00F900F900F900F911
:10E73C0000F900F800F800F800F800F800F700F70E
:10E74C0000F700F700F700F600F600F600F600F60A
:10E75C0000F500F500F500F500F400F400F400F409
:10E76C0000F400F300F300F300F300F300F200F206
:10E77C0000F200F200F200F100F100F100F100F102
:10E78C0000F000F000F000F000F000EF00EF00EF00
:10E79C0000EF00EF00EE00EE00EE00EE00EE00EEFB
:10E7AC0000ED00ED00ED00ED00ED00EC00EC00ECF8
:10E7BC0000EC00EC00EB00EB00EB00EB00EB00EAF4
:10E7CC0000EA00EA00EA00EA00EA00E900E900E9F0
:10E7DC0000E900E900E800E800E800E800E800E7EC
:10E7EC0000E700E700E700E700E700E600E600E6E8
:10E7FC0000E600E600E500E500E500E500E500E5E3
:10E80C0000E400E400E400E400E400E400E300E3DE
:10E81C0000E300E300E300E200E200E200E200E2D9
:10E82C0000E200E100E100E100E100E100E100E0D4
:10E83C0000E000E000E000E000E000DF00DF00DFCF
:10E84C0000DF00DF00DE00DE00DE00DE00DE00DECA
:10E85C0000DD00DD00DD00DD00DD00DD00DC00DCC6
:10E86C0000DC00DC00DC00DC00DB00DB00DB00DBC0
:10E87C0000DB00DB00DA00DA00DA00DA00DA00DABA
:10E88C0000DA00D900D900D900D900D900D900D8B4
:10E89C0000D800D800D800D800D800D700D700D7AF
:10E8AC0000D700D700D700D600D600D600D600D6A9
:10E8BC0000D600D600D500D500D500D500D500D5A2
:10E8CC0000D400D400D400D400D400D400D400D39D
:10E8DC0000D300D300D300D300D300D200D200D297
:10E8EC0000D200D200D200D200D100D100D100D190
:10E8FC0000D100D100D100D000D000D000D000D089
:10E90C0000D000CF00CF00CF00CF00CF00CF00CF82
:10E91C0000CE00CE00CE00CE00CE00CE00CE00CD7C
:10E92C0000CD00CD00CD00CD00CD00CD00CC00CC75
:10E93C0000CC00CC00CC00CC00CC00CB00CB00CB6E
:10E94C0000CB00CB00CB00CB00CA00CA00CA00CA67
:10E95C0000CA00CA00CA00C900C900C900C900C960
:10E96C0000C900C900C800C800C800C800C800C859
:10E97C0000C800C800C700C700C700C700C700C751
:10E98C0000C700C600C600C600C600C600C600C64A
:10E99C0000C500C500C500C500C500C500C500C543
:10E9AC0000C400C400C400C400C400C400C400C43B
:10E9BC0000C300C300C300C300C300C300C300C234
:10E9CC0000C200C200C200C200C200C200C200C12C
:10E9DC0000C100C100C100C100C100C100C100C024
:10E9EC0000C000C000C000C000C000C000C000BF1C
:10E9FC0000BF00BF00BF00BF00BF00BF00BF00BE14
:10EA0C0000BE00BE00BE00BE00BE00BE00BE00BD0B
:10EA1C0000BD00BD00BD00BD00BD00BD00BD00BC03
:10EA2C0000BC00BC00BC00BC00BC00BC00BC00BBFB
:10EA3C0000BB00BB00BB00BB00BB00BB00BB00BBF2
:10EA4C0000BA00BA00BA00BA00BA00BA00BA00BAEA
:10EA5C0000B900B900B900B900B900B900B900B9E2
:10EA6C0000B900B800B800B800B800B800B800B8D9
:10EA7C0000B800B700B700B700B700B700B700B7D1
:10EA8C0000B700B700B600B600B600B600B600B6C8
:10EA9C0000B600B600B600B500B500B500B500B5BF
:10EAAC0000B500B500B500B500B400B400B400B4B6
:10EABC0000B400B400B400B400B400B300B300B3AD
:10EACC0000B300B300B300B300B300B300B200B2A4
:10EADC0000B200B200B200B200B200B200B200B19B
:10EAEC0000B100B100B100B100B100B100B100B192
:10EAFC0000B000B000B000B000B000B000B000B08A
:10EB0C0000B000B000AF00AF00AF00AF00AF00AF7F
:10EB1C0000AF00AF00AF00AE00AE00AE00AE00AE76
:10EB2C0000AE00AE00AE00AE00AE00AD00AD00AD6C
:10EB3C0000AD00AD00AD00AD00AD00AD00AD00AC62
:10EB4C0000AC00AC00AC00AC00AC00AC00AC00AC59
:10EB5C0000AB00AB00AB00AB00AB00AB00AB00AB51
:10EB6C0000AB00AB00AA00AA00AA00AA00AA00AA47
:10EB7C0000AA00AA00AA00AA00A900A900A900A93D
:10EB8C0000A900A900A900A900A900A900A900A832
:10EB9C0000A800A800A800A800A800A800A800A829
:10EBAC0000A800A700A700A700A700A700A700A720
:10EBBC0000A700A700A700A600A600A600A600A616
:10EBCC0000A600A600A600A600A600A600A500A50B
:10EBDC0000A500A500A500A500A500A500A500A501
:10EBEC0000A500A400A400A400A400A400A400A4F8
:10EBFC0000A400A400A400A400A300A300A300A3ED
:10EC0C0000A300A300A300A300A300A300A200A2E2
:10EC1C0000A200A200A200A200A200A200A200A2D8
:10EC2C0000A200A200A100A100A100A100A100A1CE
:10EC3C0000A100A100A100A100A100A000A000A0C3
:10EC4C0000A000A000A000A000A000A000A000A0B8
:10EC5C00009F009F009F009F009F009F009F009FB0
:10EC6C00009F009F009F009F009E009E009E009EA4
:10EC7C00009E009E009E009E009E009E009E009D99
:10EC8C00009D009D009D009D009D009D009D009D90
:10EC9C00009D009D009D009C009C009C009C009C85
:10ECAC00009C009C009C009C009C009C009C009B79
:10ECBC00009B009B009B009B009B009B009B009B70
:10ECCC00009B009B009B009A009A009A009A009A65
:10ECDC00009A009A009A009A009A009A009A009A58
:10ECEC000099009900990099009900990099009950
:10ECFC000099009900990099009800980098009844
:10ED0C000098009800980098009800980098009837
:10ED1C00009800970097009700970097009700972E
:10ED2C000097009700970097009700960096009622
:10ED3C000096009600960096009600960096009617
:10ED4C00009600960095009500950095009500950D
:10ED5C0000950095009500950095009500950095FF
:10ED6C0000940094009400940094009400940094F7
:10ED7C0000940094009400940094009300930093EA
:10ED8C0000930093009300930093009300930093DF
:10ED9C0000930093009200920092009200920092D5
:10EDAC0000920092009200920092009200920092C7
:10EDBC0000910091009100910091009100910091BF
:10EDCC0000910091009100910091009100900090B1
:10EDDC0000900090009000900090009000900090A7
:10EDEC000090009000900090008F008F008F008F9B
:10EDFC00008F008F008F008F008F008F008F008F8F
:10EE0C00008F008F008E008E008E008E008E008E84
:10EE1C00008E008E008E008E008E008E008E008E76
:10EE2C00008E008D008D008D008D008D008D008D6D
:10EE3C00008D008D008D008D008D008D008D008C5F
:10EE4C00008C008C008C008C008C008C008C008C56
:10EE5C00008C008C008C008C008C008C008B008B48
:10EE6C00008B008B008B008B008B008B008B008B3E
