:020000040000FA
:0400000000EFC0F05D
:10000800DB61DB61DB61DB614000DA614000DB6101
:100018009861DB61DB61DB61DB61DB61DB61DB613B
:10002800DB61400040004000DB61DB61DB61DB61DC
:10003800DB61DB61DB61DB61DB61DB61DB61606153
:10004800DB61DB61DB61DB6140004000DB61DB61C0
:10005800DB61DB61DB614000DB61DB61DB61DB61B4
:100068009E61DB61DB61D961DB61DB61DB61DB61E7
:10007800DB61DB61DB61DB614000DB61DB61DB6194
:10008800DB61DB61DB61DB61DB61DB61DB61DB6188
:10009800DB61DB61DB61DB614000DB61400040006C
:1000A800A461DB61DB61DB61DB61DB61DB61DB619F
:1000B800DB61DB61DB61DB61DB61DB61DB61DB6158
:1000C800DB61DB61DB61DB61DB61DB61DB61DB6148
:1000D800DB61DB61DB61DB61DB61DB61DB61DB6138
:1000E8004000DB61DB61DB61400040004000400014
:0A00F800DB61DB61DB61DB61FF000F
:10260000000C82010000000000000000000000003B
:1026100000000000000000000000000000000000BA
:1026200000000000000000000000000000000000AA
:1026300000000000000000000000000000488601CB
:0A264000308601188601000000003A
:020000040001F9
:10800000D1EFC2F0BE6ABF6AC06AC16AC26AC36AFF
:10801000010E0401026F0A6B126B1A6B040E226FC1
:108020002A6B3A0EC66EE00EC76EC868C9680A0EA3
:10803000CA6ECB68800E006FCF0E086F106B186B86
:10804000206B286B01693F0E096F11691969070ED2
:10805000216F296903690B6913691B69070E236F77
:108060002B69046BD00E0C6F146B1C6B0F0E246FFE
:108070002C6B0201896B886B876B866B010E616FBD
:108080000D0E636F040E656F050E666F030E626F53
:108090001E0E646F1F0E676F040E0A6F080E0C6FC2
:1080A000030E096F050E076F020E036F070E0B6FAD
:1080B0003F0E086F230E0D6F0401056B066B076BF7
:1080C0000D6B0E6B0F6B156B166B176B256B266BA1
:1080D000276B1200C290BE900201016BC294000196
:1080E000D56B800ED76F040EDD6FD785D795AE9A0E
:1080F0009E9AD7C01DF5D75104091E6E010E0401CA
:10810000456FCA0E446F2F0E436F8A0E0201C16F76
:10811000C26B03011A9FB19EA19E226A1F6A000EC4
:10812000046E000E056E000E066E000E016E000E4F
:10813000026E000E036E1C6A1B6ABF80FFECC2F069
:108140001B50D8B403D00201096B06D00001D56BD7
:10815000D785030E0201096F0001D56B010E0201E4
:10816000016FBE80D00E486ECA0EE82EFED7482E94
:10817000FCD7C284C2801B50D8B403D034ECC1F009
:108180001200B19EA18E03011A8FD68E1B50D8A467
:108190001200FCD7D68A000ED6BE010E4B6ED69EBC
:1081A000550E0401596FAA0E596F59915F6B5E6BA2
:1081B000080E5D6F550E596FAA0E596F59814BB05D
:1081C00002D0D69E01D0D68E0301628B658FAF9010
:1081D000D6806E0E486E870E496E010E4A6E73ECA5
:1081E000C3F0B490D682700E486E870E496E010EB1
:1081F0004A6E6CECC3F0B890D684720E486E870E4F
:10820000496E010E4A6E65ECC3F012000201B86BB4
:10821000BA6BBC6BB00EBE6F800EBF6FC06BC16916
:10822000010EC26F2E0EC36FC46B800EC56FC66B7E
:10823000000E486E000E496E000E4A6E24ECC3F02C
:10824000000E486E000E496E000E4A6E18ECC3F028
:10825000000E486E000E496E000E4A6E0CECC3F024
:108260001A6A000E196E1200D69E0001D56B010E1F
:10827000F86E13D0AEAAFED7D1C4F7F4D0C4F6F48A
:108280000800F5C4C3F4CB6A1EC5D7F0AE9A1DC56D
:10829000D7F0CEA2FED7CB681C2A1C28D8A4EAD7D8
:1082A000D2B21200040E0401456F446B436B1200FE
:1082B000070ED56F800ED76F040ED86F050ED96FDD
:1082C000DA6B020EDB6F020EDC6F080EDD6F100E34
:1082D000DE6F800EDF6FD46B820ED66F000E486E9D
:1082E000000E496E000E4A6E7AECC3F0BD92120089
:1082F000060ED56F800ED76F040ED86F050ED96F9E
:10830000DA6B020EDB6F010EDC6F080EDD6F100EF4
:10831000DE6F800EDF6FD46B820ED66F000E486E5C
:10832000000E496E000E4A6E81ECC3F0BC92120042
:10833000040ED56F800ED76F030ED86F060ED96F5F
:10834000DA6B010EDB6F010EDC6F080EDD6F100EB5
:10835000DE6F400EDF6FD46B820ED66F000E486E5C
:10836000000E496E000E4A6E8FECC3F0B8921200F8
:10837000030ED56F800ED76F040ED86F050ED96F20
:10838000DA6B020EDB6F020EDC6F040EDD6F100E77
:10839000DE6F800EDF6FD46B820ED66F000E486EDC
:1083A000000E496E000E4A6E96ECC3F0B79A1200AA
:1083B000020ED56F800ED76F040ED86F050ED96FE1
:1083C000DA6B020EDB6F010EDC6F040EDD6F100E38
:1083D000DE6F800EDF6FD46B820ED66F000E486E9C
:1083E000000E496E000E4A6E9DECC3F0B59A120065
:1083F000010ED56F800ED76F030ED86F060ED96FA2
:10840000DA6B010EDB6F020EDC6F040EDD6F100EF7
:10841000DE6F400EDF6FD46B820ED66F000E486E9B
:10842000000E496E000E4A6EA4ECC3F0B492120026
:108430000001D56B800ED76F380ED86F010ED96F43
:10844000010EDA6F010EDB6F010EDC6F040EDD6FC3
:10845000DE6BDF6BD46B8C0ED66FAE9A000E486E5F
:10846000000E496E000E4A6EABECC3F09E8A1200FD
:10847000050ED56F010ED76F350ED86F350ED96F3B
:10848000350EDA6F350EDB6FDC6B080EDD6FDE6BE1
:10849000DF6BD46B870ED66F000E486E000E496EF0
:1084A000000E4A6E88ECC3F0B992120054ECC3F08F
:1084B00002ECC0F0E1ECC2F018ECC2F0F8ECC1F054
:1084C000D8ECC1F0B8ECC1F098ECC1F038ECC2F0D7
:1084D00078ECC1F058ECC1F0F0ECC2F006ECC1F061
:1084E000CAECC0F012000001D56B010EF86ED1C4C9
:1084F000F7F4AEAAFCD7D0C4F6F40800F5C4C3F470
:108500001EC5D7F0CB6AAE9A1DC5D7F0CEB2CB68E8
:10851000CEB6CB68CB68EBD7165017101810D8B46E
:10852000120001D812000500FA6E1650FD6E1750A9
:10853000FE6E1850FF6EFA501200135014101510F2
:10854000D8B4120001D812000500FA6E1350FD6E67
:108550001450FE6E1550FF6EFA501200105011109C
:108560001210D8B4120001D812000500FA6E105093
:0E857000FD6E1150FE6E1250FF6EFA5012009A
:10858000B19ED2B206D0040E0401456F446B436B1A
:108590001100010E0401456FCA0E446F2F0E436F88
:1085A000110001EE01F1260EEE6AE806FDE104017C
:1085B000080E5D6F000E5E6F000E5F6F00015EEFD4
:1085C000C3F003011969186B5F0E1B6F000E276E55
:1085D000000E286E000E296EB19EA18E1A6B12003D
:1085E000010E0401476F426B416B406B010E456FFA
:1085F000CA0E446F2F0E436F800E466F1200D69E38
:10860000010E1B6E010EF86EF76AF66A0800F52877
:10861000D8A412001B6A1200485049104A10D8B45E
:10862000120048C507F549C508F54AC509F5120005
:10863000485049104A10D8B4120048C50AF549C537
:108640000BF54AC50CF51200485049104A10D8B431
:10865000120048C50DF549C50EF54AC50FF51200C3
:10866000FAC442F5FBC443F5AF908CECC2F043C5AD
:10867000FBF442C5FAF41100FAC444F5FBC445F515
:10868000B4909DECC2F045C5FBF444C5FAF411006A
:10869000FAC446F5FBC447F5B890AEECC2F047C546
:1086A000FBF446C5FAF41100600E0001AD6FAF6B2C
:1086B000B36B080EB16FB06BAC6B120056ECC2F02E
:1086C0006AECC0F073ECC2F0FFD748C510F549C59D
:1086D00011F54AC512F5120048C513F549C514F540
:1086E0004AC515F5120048C516F549C517F54AC51E
:1086F00018F5120048C530F549C531F54AC532F5BF
:10870000120048C533F549C534F54AC535F51200A0
:1087100048C53CF549C53DF54AC53EF5120048C57A
:108720002AF549C52BF54AC52CF5120048C536F582
:1087300049C537F54AC538F5120048C539F549C568
:108740003AF54AC53BF5120048C52DF549C52EF549
:108750004AC52FF5120048C53FF549C540F54AC541
:0A87600041F51200B496110011005B
:08876C001100120012001200BE
:020000040030CA
:080000008CFFFFFF9FFFFFFFD3
:01000900FFF7
:00000001FF
