:040000008031102813
:100008007E1480310B1F0E2841011A19101D0E286D
:10001800823180227E10090080311228F801F9010E
:10002800FA01FB01FC01FD0120308400003085004D
:1000380010308231C6227E104001813104291830E7
:1000480080150F180006A514E9010A280E38343D5A
:10005800AD00DA0040030A28AC008A0D6018343D70
:10006800B0000001000000006200CA0CA000C60C2D
:10007800A008050A7020C3140000000000001E003C
:1000880001000D1EA70B0104AE02CA0D6018142949
:1000980040010C1481010C30E8010A280510343D98
:1000A800AF00F00000000000AF00EA0D6018A615D0
:1000B800A6340A0640130A2800000000000014298C
:1000C80040010F14401380150018000000000000C4
:1000D80000000000000000000000003CE0090000F3
:1000E8000000000000000000010101201F3CE103A6
:1000F8001F3CF0011F3EE0031F3EE1031F3C0000D0
:10010800000000000000003800004001980199013B
:100118009A013730920093015F3094007D018C0181
:100128009601A00137308D00F0309700FF30A10014
:100138008E0198012030A20037308F00F0309900EE
:10014800DF30A300283090009A01A40101307C011F
:10015800BE000130D7000530BD000430D80024307F
:100168007B0198002530990026309A0027309B00A3
:100178002830A3007D019101920193019B019C010C
:100188009D01A501A601A70108009A127B01A10102
:1001980041011A114D0196018D15410110112830A8
:1001A8007B01A3004001AF010130AE000230AD0079
:1001B8000330AC004A010C18DE2840012C084A0123
:1001C8008D0040012D084A018E0040012E084A0189
:1001D8008F0040012F084A0190004D018D110D1527
:1001E8000D11410110111A154D010D08F8000D08E7
:1001F8000438F90040019A1601307B01A10008007B
:100208008131CD2181318031C92081314101101DD9
:100218000A2940010C081739FB000E081F39FA009B
:1002280013307B06031D1C298231392281310A29AA
:1002380011307B06031D242982314B2281310A2982
:1002480007307B06031D2C2982315D2281310A2962
:1002580005307B06031D342982316F2281310A293A
:100268008231B42281310A29E8340134003400345F
:1002780000340034003400340034003400340034D6
:1002880000340034003400340034003400340034C6
:1002980000340034003400340034003400340034B6
:1002A80000340034003400340034003400340034A6
:1002B8000034003400340034A0340234963402345C
:1002C80000340034003400347901A5010730A60059
:1002D8000730A7002508F3390838A500A401A301B1
:1002E800A201D530A100F330A505A401A301A20104
:1002F800A101A0019F019E019D01FF309700FF30E1
:100308009600940193019A0141018D1097100D11E7
:1003180017117901A50110309200080001304D0134
:1003280096000E308D0001308E0001308F000130B4
:1003380090000130910002309200930194019501E0
:10034800970182308C000030F0000030F1008231DB
:10035800D2224101901108007408663EF600003070
:10036800753DF7007508F1007408F0007708F30090
:100378007608F2008231AA2281318231E722813166
:100388008231DE228131003A031DC4298231E32201
:1003980008008231BD22813182311E2281318031B3
:1003A8008920813182310322813181319221813149
:1003B8008131682181318131E82181318231EB221B
:1003C800813182318C22080048304E0192009030F1
:1003D800900026309100FF308E008F010030F00031
:1003E8000030F1008231A02281310030F00000306D
:1003F800F100823196224001A401A50108004D01B7
:10040800960182308D008E018F019001910101309B
:10041800920093019401950197018C308C00410161
:100428001011F130F0000230F1008231D822410180
:100438001A1508004A018C132330F4000030F50027
:100448008131B02106304A01950099019801970140
:100458009601410113101D1093109D1013111D11C9
:1004680093119D114A018C1708008C1E392A7908AE
:100478004D018D007A084A018D0040012F084A017C
:1004880090004101101178084D018D0008008C1E64
:100498004B2A79084D018D007A084A018E004001E7
:1004A8002F084A0190004101101178084D018D0074
:1004B80008008C1E5D2A79084D018D007A084A01D2
:1004C8008F0040012F084A0190004101101178085F
:1004D8004D018D0008008C1E6F2A79084D018D0092
:1004E8007A084A0190004101101178084D018D00E9
:1004F8007A084001AF000800101140012A082B04B7
:10050800031908002B088A002A080A00823108000B
:1005180041010C100B140030F0000030F100823162
:10052800CC22080070087104031908007108400102
:10053800A1007008A00008007008710403190800E1
:1005480071084001A3007008A2000800730879012F
:1005580097007208960071089400700893000800CC
:1005680079084D018D004101101178084D018D0069
:100578000800603045018D008F019101053093001E
:1005880092010800640080010131890BC72A0034F8
:1005980071084001A7007008A60008007108400112
:1005A800A9007008A800080071084001AB00700895
:1005B800AA0008007901120E890C013908001910E7
:1005C8001213921308009217191412170800823197
:0C05D800EE2208007901901108000800D4
:020000040001F9
:0A000E008C3FFF3D9F3FFF3FFF3F87
:00000001FF
