:0400000081EF00F09C
:10000800C448C448C448C4484000C4484000C44820
:100018005148C448C448C448C448C448C448C448EB
:10002800C448400040004000C448C448C448C448CC
:10003800C448C448C448C448C448C448C448AF476E
:10004800C448C448C448C44840004000FF459445DB
:10005800C448C448C4484000C448C4489847AF4549
:100068005748BC44C448BF48C448C448C448C448A6
:10007800C448C448C448C4484000C4487347CA4533
:10008800C448C448C448C448C448C448C448C44808
:10009800C448C448C448C4484000C448400040005C
:1000A8005D48C448C448BE48C448C448C448C44855
:1000B800C448C448C448C048C448C448C448C448DC
:1000C800C448C448C448C448C448C448C448C448C8
:1000D800C448C448C448C448C448C448C448C448B8
:1000E8004000C448C4481048400040004000400058
:0E00F800C448C448C448C448FF00EAEF88F07A
:10C67C0000FFFFFFFFFFFFFFFFFFFFFFFFFFFFFFBD
:10C68C00FFFFFFFFFFFFFFFFFFFFFFFFFFFFFF5D50
:10C69C00F417E59DD7A2CBEBC045B78BAE9CA65E3D
:10C6AC009FBA989E92FA8CC187E882657E2E7A3D5D
:10C6BC00768B72136FCE6BBA68D16510637560FCA4
:10C6CC005DA25B665945573E554E537451AF4FFDB5
:10C6DC004D5D4CCE4A4F49DF477D462845E043A58A
:10C6EC004274414E40323F203E173D163C1E3B2EBD
:10C6FC003A453964388937B536E7351F355D34A08E
:10C70C0033E83236328831DF303A309A2FFE2E65DC
:10C71C002ED12D402DB32C292CA22B1F2B9F2A213F
:10C72C002AA7292F29BA284728D7276927FE269513
:10C73C00262E26C92567250625A7244A24EF2396ED
:10C74C00233E23E82294224122F021A021522105EC
:10C75C0021BA2070202720DF1F991F541F101FCDD6
:10C76C001E8B1E4B1E0B1ECC1D8F1D521D171DDC50
:10C77C001CA21C6A1C321CFB1BC41B8F1B5A1B26C5
:10C78C001BF31AC11A8F1A5E1A2E1AFF19D019A18F
:10C79C0019741947191B19EF18C41899186F1846F2
:10C7AC00181D18F517CD17A5177F17581732170D29
:10C7BC0017E816C416A0167C16591637161416F25E
:10C7CC0015D115B0158F156F154F1530151015F2B5
:10C7DC0014D314B51497147A145D1440142314074D
:10C7EC0014EB13D013B41399137F1364134A13303F
:10C7FC00131713FD12E412CC12B3129B1283126B9B
:10C80C001253123C1225120E12F711E111CB11B575
:10C81C00119F11891174115F114A11351120110CDE
:10C82C0011F810E410D010BC10A910951082106FE4
:10C83C00105D104A103810251013100110EF0FDE88
:10C84C000FCC0FBB0FAA0F990F880F770F660F56DF
:10C85C000F450F350F250F150F050FF60EE60ED7EA
:10C86C000EC70EB80EA90E9A0E8B0E7C0E6E0E5FB6
:10C87C000E510E430E350E260E190E0B0EFD0DEF3E
:10C88C000DE20DD40DC70DBA0DAD0DA00D930D8697
:10C89C000D790D6D0D600D540D470D3B0D2F0D23B6
:10C8AC000D170D0B0DFF0CF30CE80CDC0CD00CC5AC
:10C8BC000CBA0CAE0CA30C980C8D0C820C770C6C77
:10C8CC000C620C570C4C0C420C370C2D0C230C1816
:10C8DC000C0E0C040CFA0BF00BE60BDC0BD20BC998
:10C8EC000BBF0BB50BAC0BA20B990B900B860B7DF6
:10C8FC000B740B6B0B620B590B500B470B3E0B3530
:10C90C000B2C0B240B1B0B120B0A0B010BF90AF152
:10C91C000AE80AE00AD80AD00AC70ABF0AB70AAF5F
:10C92C000AA70A9F0A980A900A880A800A790A714B
:10C93C000A690A620A5A0A530A4B0A440A3D0A3522
:10C94C000A2E0A270A200A190A110A0A0A030AFCE3
:10C95C0009F509EE09E809E109DA09D309CC09C698
:10C96C0009BF09B909B209AB09A5099E0998099231
:10C97C00098B0985097E09780972096C0966095FBA
:10C98C0009590953094D09470941093B0935092F33
:10C99C0009290924091E09180912090C090709019A
:10C9AC0009FB08F608F008EB08E508E008DA08D5FA
:10C9BC0008CF08CA08C408BF08BA08B408AF08AA48
:10C9CC0008A5089F089A08950890088B0886088186
:10C9DC00087C08770872086D08680863085E0859B7
:10C9EC000854084F084A08460841083C08370833E1
:10C9FC00082E082908250820081C08170812080EFC
:10CA0C0008090805080008FC07F707F307EF07EA11
:10CA1C0007E607E107DD07D907D507D007CC07C81C
:10CA2C0007C407BF07BB07B707B307AF07AB07A61A
:10CA3C0007A2079E079A07960792078E078A078612
:10CA4C000782077E077B07770773076F076B0767FC
:10CA5C0007630760075C075807540750074D0749E1
:10CA6C0007450742073E073A07370733072F072CBE
:10CA7C00072807250721071E071A07170713071092
:10CA8C00070C07090705070207FE06FB06F706F465
:10CA9C0006F106ED06EA06E706E306E006DD06D932
:10CAAC0006D606D306D006CC06C906C606C306C0F3
:10CABC0006BC06B906B606B306B006AD06AA06A7AE
:10CACC0006A306A0069D069A069706940691068E66
:10CADC00068B068806850682067F067C0679067616
:10CAEC0006740671066E066B066806650662065FBE
:10CAFC00065D065A065706540651064F064C064963
:10CB0C00064606440641063E063B06390636063303
:10CB1C000631062E062B0629062606230621061E9E
:10CB2C00061B0619061606140611060F060C060936
:10CB3C0006070604060206FF05FD05FA05F805F5CD
:10CB4C0005F305F005EE05EB05E905E705E405E25F
:10CB5C0005DF05DD05DA05D805D605D305D105CFEA
:10CB6C0005CC05CA05C805C505C305C105BE05BC70
:10CB7C0005BA05B705B505B305B105AE05AC05AAF3
:10CB8C0005A805A505A305A1059F059C059A059873
:10CB9C00059605940592058F058D058B05890587EE
:10CBAC00058505830580057E057C057A0578057667
:10CBBC00057405720570056E056C056A05680565DA
:10CBCC0005630561055F055D055B05590557055551
:10CBDC0005530551054F054D054C054A05480546BD
:10CBEC00054405420540053E053C053A0538053629
:10CBFC00053405330531052F052D052B0529052792
:10CC0C000525052405220520051E051C051A0519F8
:10CC1C0005170515051305110510050E050C050A5C
:10CC2C0005080507050505030501050005FE04FCBF
:10CC3C0004FA04F904F704F504F404F204F004EE25
:10CC4C0004ED04EB04E904E804E604E404E304E181
:10CC5C0004DF04DE04DC04DA04D904D704D504D4DC
:10CC6C0004D204D104CF04CD04CC04CA04C904C733
:10CC7C0004C504C404C204C104BF04BD04BC04BA8A
:10CC8C0004B904B704B604B404B304B104AF04AEDD
:10CC9C0004AC04AB04A904A804A604A504A304A230
:10CCAC0004A0049F049D049C049A04990497049680
:10CCBC000494049304920490048F048D048C048ACD
:10CCCC000489048704860485048304820480047F19
:10CCDC00047D047C047B0479047804760475047464
:10CCEC00047204710470046E046D046B046A0469AC
:10CCFC00046704660465046304620461045F045EF3
:10CD0C00045D045B045A0459045704560455045337
:10CD1C0004520451044F044E044D044C044A04497B
:10CD2C000448044604450444044304410440043FBD
:10CD3C00043E043C043B043A0439043704360435FD
:10CD4C000434043204310430042F042D042C042B3D
:10CD5C00042A04290427042604250424042304217A
:10CD6C000420041F041E041D041B041A04190418B7
:10CD7C000417041604140413041204110410040FF1
:10CD8C00040E040C040B040A04090408040704062A
:10CD9C000404040304020401040004FF03FE03FD65
:10CDAC0003FB03FA03F903F803F703F603F503F4A3
:10CDBC0003F303F203F003EF03EE03ED03EC03EBD9
:10CDCC0003EA03E903E803E703E603E503E403E30B
:10CDDC0003E203E003DF03DE03DD03DC03DB03DA42
:10CDEC0003D903D803D703D603D503D403D303D273
:10CDFC0003D103D003CF03CE03CD03CC03CB03CAA3
:10CE0C0003C903C803C703C603C503C403C303C2D2
:10CE1C0003C103C003BF03BE03BD03BC03BB03BA02
:10CE2C0003B903B803B703B603B503B403B303B232
:10CE3C0003B103B003B003AF03AE03AD03AC03AB5C
:10CE4C0003AA03A903A803A703A603A503A403A38A
:10CE5C0003A203A103A103A0039F039E039D039CB4
:10CE6C00039B039A039903980397039703960395DF
:10CE7C0003940393039203910390038F038F038E08
:10CE8C00038D038C038B038A038903880388038730
:10CE9C000386038503840383038203810381038058
:10CEAC00037F037E037D037C037B037B037A03797F
:10CEBC0003780377037603760375037403730372A5
:10CECC00037103710370036F036E036D036C036CCA
:10CEDC00036B036A036903680368036703660365EE
:10CEEC000364036403630362036103600360035F11
:10CEFC00035E035D035C035C035B035A0359035835
:10CF0C000358035703560355035503540353035255
:10CF1C00035103510350034F034E034E034D034C77
:10CF2C00034B034B034A0349034803480347034697
:10CF3C0003450345034403430342034203410340B7
:10CF4C00033F033F033E033D033C033C033B033AD7
:10CF5C00033A0339033803370337033603350334F5
:10CF6C00033403330332033203310330032F032F13
:10CF7C00032E032D032D032C032B032B032A032930
:10CF8C00032803280327032603260325032403244D
:10CF9C0003230322032203210320031F031F031E69
:10CFAC00031D031D031C031B031B031A0319031985
:10CFBC0003180317031703160315031503140313A0
:10CFCC0003130312031103110310030F030F030EBA
:10CFDC00030D030D030C030C030B030A030A0309D3
:10CFEC0003080308030703060306030503040304ED
:10CFFC0003030303030203010301030003FF02FF06
:10D00C0002FE02FE02FD02FC02FC02FB02FA02FA24
:10D01C0002F902F902F802F702F702F602F502F53C
:10D02C0002F402F402F302F202F202F102F102F053
:10D03C0002EF02EF02EE02EE02ED02EC02EC02EB6A
:10D04C0002EB02EA02E902E902E802E802E702E680
:10D05C0002E602E502E502E402E402E302E202E295
:10D06C0002E102E102E002DF02DF02DE02DE02DDAB
:10D07C0002DD02DC02DB02DB02DA02DA02D902D9BF
:10D08C0002D802D702D702D602D602D502D502D4D4
:10D09C0002D402D302D202D202D102D102D002D0E7
:10D0AC0002CF02CF02CE02CD02CD02CC02CC02CBFB
:10D0BC0002CB02CA02CA02C902C902C802C702C70D
:10D0CC0002C602C602C502C502C402C402C302C320
:10D0DC0002C202C202C102C102C002BF02BF02BE32
:10D0EC0002BE02BD02BD02BC02BC02BB02BB02BA44
:10D0FC0002BA02B902B902B802B802B702B702B654
:10D10C0002B602B502B502B402B402B302B202B264
:10D11C0002B102B102B002B002AF02AF02AE02AE77
:10D12C0002AD02AD02AC02AC02AB02AB02AA02AA87
:10D13C0002A902A902A802A802A702A702A602A697
:10D14C0002A602A502A502A402A402A302A302A2A3
:10D15C0002A202A102A102A002A0029F029F029EB3
:10D16C00029E029D029D029C029C029B029B029AC3
:10D17C00029A0299029902990298029802970297D0
:10D18C0002960296029502950294029402930293DF
:10D19C000292029202920291029102900290028FEC
:10D1AC00028F028E028E028D028D028C028C028CFA
:10D1BC00028B028B028A028A028902890288028807
:10D1CC000288028702870286028602850285028413
:10D1DC00028402840283028302820282028102811F
:10D1EC00028002800280027F027F027E027E027D2C
:10D1FC00027D027D027C027C027B027B027A027A37
:10D20C00027A027902790278027802770277027741
:10D21C00027602760275027502740274027402734D
:10D22C000273027202720271027102710270027058
:10D23C00026F026F026F026E026E026D026D026D62
:10D24C00026C026C026B026B026A026A026A02696D
:10D25C000269026802680268026702670266026677
:10D26C000266026502650264026402640263026380
:10D27C00026202620262026102610260026002608A
:10D28C00025F025F025E025E025E025D025D025D93
:10D29C00025C025C025B025B025B025A025A02599C
:10D2AC0002590259025802580257025702570256A5
:10D2BC0002560256025502550254025402540253AD
:10D2CC0002530253025202520251025102510250B5
:10D2DC0002500250024F024F024E024E024E024DBD
:10D2EC00024D024D024C024C024B024B024B024AC5
:10D2FC00024A024A024902490249024802480247CC
:10D30C0002470247024602460246024502450245D2
:10D31C0002440244024302430243024202420242DA
:10D32C00024102410241024002400240023F023FE0
:10D33C00023E023E023E023D023D023D023C023CE8
:10D34C00023C023B023B023B023A023A023A0239ED
:10D35C0002390239023802380238023702370236F3
:10D36C0002360236023502350235023402340234FA
:10D37C000233023302330232023202320231023100
:10D38C000231023002300230022F022F022F022E05
:10D39C00022E022E022D022D022D022C022C022C0A
:10D3AC00022B022B022B022A022A022A0229022910
:10D3BC000229022802280228022702270227022714
:10D3CC000226022602260225022502250224022418
:10D3DC00022402230223022302220222022202211D
:10D3EC0002210221022002200220021F021F021F22
:10D3FC00021F021E021E021E021D021D021D021C25
:10D40C00021C021C021B021B021B021A021A021A29
:10D41C00021A02190219021902180218021802172C
:10D42C000217021702160216021602160215021530
:10D43C000215021402140214021302130213021333
:10D44C000212021202120211021102110210021037
:10D45C0002100210020F020F020F020E020E020E39
:10D46C00020D020D020D020D020C020C020C020B3D
:10D47C00020B020B020B020A020A020A020902093F
:10D48C000209020902080208020802070207020741
:10D49C000207020602060206020502050205020543
:10D4AC000204020402040203020302030203020246
:10D4BC000202020202010201020102010200020048
:10D4CC00020002FF01FF01FF01FF01FE01FE01FE50
:10D4DC0001FD01FD01FD01FD01FC01FC01FC01FC54
:10D4EC0001FB01FB01FB01FA01FA01FA01FA01F956
:10D4FC0001F901F901F901F801F801F801F701F757
:10D50C0001F701F701F601F601F601F601F501F557
:10D51C0001F501F401F401F401F401F301F301F359
:10D52C0001F301F201F201F201F201F101F101F159
:10D53C0001F101F001F001F001EF01EF01EF01EF5A
:10D54C0001EE01EE01EE01EE01ED01ED01ED01ED5B
:10D55C0001EC01EC01EC01EC01EB01EB01EB01EB5B
:10D56C0001EA01EA01EA01EA01E901E901E901E85C
:10D57C0001E801E801E801E701E701E701E701E65D
:10D58C0001E601E601E601E501E501E501E501E45D
:10D59C0001E401E401E401E301E301E301E301E25D
:10D5AC0001E201E201E201E101E101E101E101E05D
:10D5BC0001E001E001E001DF01DF01DF01DF01DE5D
:10D5CC0001DE01DE01DE01DE01DD01DD01DD01DD5B
:10D5DC0001DC01DC01DC01DC01DB01DB01DB01DB5B
:10D5EC0001DA01DA01DA01DA01D901D901D901D95B
:10D5FC0001D801D801D801D801D801D701D701D75A
:10D60C0001D701D601D601D601D601D501D501D558
:10D61C0001D501D401D401D401D401D401D301D357
:10D62C0001D301D301D201D201D201D201D101D156
:10D63C0001D101D101D001D001D001D001D001CF55
:10D64C0001CF01CF01CF01CE01CE01CE01CE01CE53
:10D65C0001CD01CD01CD01CD01CC01CC01CC01CC52
:10D66C0001CB01CB01CB01CB01CB01CA01CA01CA51
:10D67C0001CA01C901C901C901C901C901C801C84F
:10D68C0001C801C801C701C701C701C701C701C64D
:10D69C0001C601C601C601C501C501C501C501C54B
:10D6AC0001C401C401C401C401C401C301C301C349
:10D6BC0001C301C201C201C201C201C201C101C147
:10D6CC0001C101C101C001C001C001C001C001BF45
:10D6DC0001BF01BF01BF01BF01BE01BE01BE01BE42
:10D6EC0001BD01BD01BD01BD01BD01BC01BC01BC41
:10D6FC0001BC01BC01BB01BB01BB01BB01BB01BA3D
:10D70C0001BA01BA01BA01B901B901B901B901B93A
:10D71C0001B801B801B801B801B801B701B701B738
:10D72C0001B701B701B601B601B601B601B601B534
:10D73C0001B501B501B501B501B401B401B401B431
:10D74C0001B401B301B301B301B301B301B201B22E
:10D75C0001B201B201B201B101B101B101B101B12A
:10D76C0001B001B001B001B001B001AF01AF01AF28
:10D77C0001AF01AF01AE01AE01AE01AE01AE01AD24
:10D78C0001AD01AD01AD01AD01AC01AC01AC01AC21
:10D79C0001AC01AB01AB01AB01AB01AB01AA01AA1E
:10D7AC0001AA01AA01AA01A901A901A901A901A91A
:10D7BC0001A801A801A801A801A801A801A701A717
:10D7CC0001A701A701A701A601A601A601A601A612
:10D7DC0001A501A501A501A501A501A401A401A410
:10D7EC0001A401A401A401A301A301A301A301A30A
:10D7FC0001A201A201A201A201A201A101A101A108
:10D80C0001A101A101A101A001A001A001A001A001
:10D81C00019F019F019F019F019F019F019E019EFE
:10D82C00019E019E019E019D019D019D019D019DF9
:10D83C00019D019C019C019C019C019C019B019BF5
:10D84C00019B019B019B019B019A019A019A019AF0
:10D85C00019A0199019901990199019901990198EC
:10D86C0001980198019801980197019701970197E8
:10D87C0001970197019601960196019601960196E2
:10D88C0001950195019501950195019401940194DF
:10D89C0001940194019401930193019301930193D9
:10D8AC0001930192019201920192019201920191D4
:10D8BC0001910191019101910191019001900190CF
:10D8CC0001900190018F018F018F018F018F018FCA
:10D8DC00018E018E018E018E018E018E018D018DC6
:10D8EC00018D018D018D018D018C018C018C018CC0
:10D8FC00018C018C018B018B018B018B018B018BBA
:10D90C00018A018A018A018A018A018A01890189B5
:10D91C0001890189018901890188018801880188AF
:10D92C0001880188018701870187018701870187A9
:10D93C0001860186018601860186018601860185A4
:10D94C00018501850185018501850184018401849E
:10D95C000184018401840183018301830183018398
:10D96C000183018201820182018201820182018193
:10D97C00018101810181018101810181018001808D
:10D98C000180018001800180017F017F017F017F87
:10D99C00017F017F017F017E017E017E017E017E80
:10D9AC00017E017D017D017D017D017D017D017C7B
:10D9BC00017C017C017C017C017C017C017B017B75
:10D9CC00017B017B017B017B017A017A017A017A6F
:10D9DC00017A017A017A0179017901790179017968
:10D9EC000179017901780178017801780178017861
:10D9FC00017701770177017701770177017701765C
:10DA0C000176017601760176017601750175017555
:10DA1C00017501750175017501740174017401744E
:10DA2C000174017401740173017301730173017347
:10DA3C000173017301720172017201720172017240
:10DA4C00017201710171017101710171017101703A
:10DA5C00017001700170017001700170016F016F34
:10DA6C00016F016F016F016F016F016E016E016E2D
:10DA7C00016E016E016E016E016D016D016D016D26
:10DA8C00016D016D016D016C016C016C016C016C1F
:10DA9C00016C016C016B016B016B016B016B016B18
:10DAAC00016B016B016A016A016A016A016A016A10
:10DABC00016A016901690169016901690169016909
:10DACC000168016801680168016801680168016703
:10DADC0001670167016701670167016701660166FC
:10DAEC0001660166016601660166016601650165F4
:10DAFC0001650165016501650165016401640164ED
:10DB0C0001640164016401640163016301630163E5
:10DB1C0001630163016301630162016201620162DD
:10DB2C0001620162016201610161016101610161D6
:10DB3C0001610161016101600160016001600160CE
:10DB4C0001600160015F015F015F015F015F015FC7
:10DB5C00015F015F015E015E015E015E015E015EBF
:10DB6C00015E015E015D015D015D015D015D015DB7
:10DB7C00015D015C015C015C015C015C015C015CB0
:10DB8C00015C015B015B015B015B015B015B015BA8
:10DB9C00015B015A015A015A015A015A015A015AA0
:10DBAC00015A015901590159015901590159015998
:10DBBC000158015801580158015801580158015891
:10DBCC000157015701570157015701570157015789
:10DBDC000156015601560156015601560156015681
:10DBEC000155015501550155015501550155015579
:10DBFC000154015401540154015401540154015471
:10DC0C000153015301530153015301530153015368
:10DC1C00015301520152015201520152015201525F
:10DC2C000152015101510151015101510151015157
:10DC3C00015101500150015001500150015001504F
:10DC4C000150014F014F014F014F014F014F014F47
:10DC5C00014F014F014E014E014E014E014E014E3E
:10DC6C00014E014E014D014D014D014D014D014D36
:10DC7C00014D014D014C014C014C014C014C014C2E
:10DC8C00014C014C014C014B014B014B014B014B25
:10DC9C00014B014B014B014A014A014A014A014A1D
:10DCAC00014A014A014A014A014901490149014914
:10DCBC00014901490149014901490148014801480B
:10DCCC000148014801480148014801470147014703
:10DCDC0001470147014701470147014701460146FA
:10DCEC0001460146014601460146014601460145F1
:10DCFC0001450145014501450145014501450145E8
:10DD0C0001440144014401440144014401440144DF
:10DD1C0001440143014301430143014301430143D6
:10DD2C0001430143014201420142014201420142CD
:10DD3C0001420142014201410141014101410141C4
:10DD4C0001410141014101410140014001400140BB
:10DD5C0001400140014001400140013F013F013FB2
:10DD6C00013F013F013F013F013F013F013E013EA9
:10DD7C00013E013E013E013E013E013E013E013DA0
:10DD8C00013D013D013D013D013D013D013D013D97
:10DD9C00013D013C013C013C013C013C013C013C8E
:10DDAC00013C013C013B013B013B013B013B013B85
:10DDBC00013B013B013B013A013A013A013A013A7C
:10DDCC00013A013A013A013A013A01390139013972
:10DDDC000139013901390139013901390138013869
:10DDEC00013801380138013801380138013801385F
:10DDFC000137013701370137013701370137013757
:10DE0C00013701370136013601360136013601364C
:10DE1C000136013601360135013501350135013543
:10DE2C000135013501350135013501340134013439
:10DE3C00013401340134013401340134013401332F
:10DE4C000133013301330133013301330133013326
:10DE5C00013301320132013201320132013201321D
:10DE6C000132013201320131013101310131013113
:10DE7C000131013101310131013101300130013009
:10DE8C000130013001300130013001300130012FFF
:10DE9C00012F012F012F012F012F012F012F012FF6
:10DEAC00012F012E012E012E012E012E012E012EED
:10DEBC00012E012E012E012E012D012D012D012DE2
:10DECC00012D012D012D012D012D012D012C012CD8
:10DEDC00012C012C012C012C012C012C012C012CCE
:10DEEC00012B012B012B012B012B012B012B012BC6
:10DEFC00012B012B012B012A012A012A012A012ABB
:10DF0C00012A012A012A012A012A012901290129B0
:10DF1C0001290129012901290129012901290129A5
:10DF2C00012801280128012801280128012801289D
:10DF3C000128012801280127012701270127012792
:10DF4C000127012701270127012701260126012688
:10DF5C00012601260126012601260126012601267D
:10DF6C000125012501250125012501250125012575
:10DF7C00012501250125012401240124012401246A
:10DF8C00012401240124012401240124012301235F
:10DF9C000123012301230123012301230123012355
:10DFAC00012301220122012201220122012201224C
:10DFBC000122012201220122012101210121012141
:10DFCC000121012101210121012101210121012036
:10DFDC00012001200120012001200120012001202D
:10DFEC00012001200120011F011F011F011F011F22
:10DFFC00011F011F011F011F011F011F011E011E17
:10E00C00011E011E011E011E011E011E011E011E0C
:10E01C00011E011D011D011D011D011D011D011D03
:10E02C00011D011D011D011D011D011C011C011CF7
:10E03C00011C011C011C011C011C011C011C011CEC
:10E04C00011C011B011B011B011B011B011B011BE3
:10E05C00011B011B011B011B011A011A011A011AD8
:10E06C00011A011A011A011A011A011A011A011ACC
:10E07C0001190119011901190119011901190119C4
:10E08C0001190119011901190118011801180118B8
:10E09C0001180118011801180118011801180118AC
:10E0AC0001170117011701170117011701170117A4
:10E0BC000117011701170117011601160116011698
:10E0CC00011601160116011601160116011601168C
:10E0DC000115011501150115011501150115011584
:10E0EC000115011501150115011401140114011478
:10E0FC00011401140114011401140114011401146C
:10E10C000113011301130113011301130113011363
:10E11C000113011301130113011301120112011256
:10E12C00011201120112011201120112011201124B
:10E13C000112011101110111011101110111011142
:10E14C000111011101110111011101110110011035
:10E15C00011001100110011001100110011001102B
:10E16C0001100110010F010F010F010F010F010F21
:10E17C00010F010F010F010F010F010F010F010E14
:10E18C00010E010E010E010E010E010E010E010E0B
:10E19C00010E010E010E010E010D010D010D010DFF
:10E1AC00010D010D010D010D010D010D010D010DF3
:10E1BC00010D010C010C010C010C010C010C010CEA
:10E1CC00010C010C010C010C010C010C010B010BDD
:10E1DC00010B010B010B010B010B010B010B010BD3
:10E1EC00010B010B010B010A010A010A010A010AC8
:10E1FC00010A010A010A010A010A010A010A010ABB
:10E20C0001090109010901090109010901090109B2
:10E21C0001090109010901090109010801080108A5
:10E22C00010801080108010801080108010801089A
:10E23C00010801080108010701070107010701078F
:10E24C000107010701070107010701070107010782
:10E25C00010601060106010601060106010601067A
:10E26C00010601060106010601060106010501056C
:10E27C000105010501050105010501050105010562
:10E28C000105010501050105010401040104010456
:10E29C00010401040104010401040104010401044A
:10E2AC000104010401030103010301030103010340
:10E2BC000103010301030103010301030103010233
:10E2CC00010201020102010201020102010201022A
:10E2DC00010201020102010201020102010101011C
:10E2EC000101010101010101010101010101010112
:10E2FC000101010101010101010001000100010006
:10E30C0001000100010001000100010001000100F9
:10E31C000100010001FF00FF00FF00FF00FF00FFF4
:10E32C0000FF00FF00FF00FF00FF00FF00FF00FFE9
:10E33C0000FE00FE00FE00FE00FE00FE00FE00FEE1
:10E34C0000FE00FE00FE00FE00FE00FE00FE00FDD2
:10E35C0000FD00FD00FD00FD00FD00FD00FD00FDC9
:10E36C0000FD00FD00FD00FD00FD00FC00FC00FCBC
:10E37C0000FC00FC00FC00FC00FC00FC00FC00FCB1
:10E38C0000FC00FC00FC00FC00FB00FB00FB00FBA5
:10E39C0000FB00FB00FB00FB00FB00FB00FB00FB99
:10E3AC0000FB00FB00FB00FA00FA00FA00FA00FA8E
:10E3BC0000FA00FA00FA00FA00FA00FA00FA00FA81
:10E3CC0000FA00FA00F900F900F900F900F900F977
:10E3DC0000F900F900F900F900F900F900F900F969
:10E3EC0000F900F800F800F800F800F800F800F860
:10E3FC0000F800F800F800F800F800F800F800F851
:10E40C0000F700F700F700F700F700F700F700F748
:10E41C0000F700F700F700F700F700F700F700F738
:10E42C0000F600F600F600F600F600F600F600F630
:10E43C0000F600F600F600F600F600F600F600F521
:10E44C0000F500F500F500F500F500F500F500F518
:10E45C0000F500F500F500F500F500F500F500F409
:10E46C0000F400F400F400F400F400F400F400F400
:10E47C0000F400F400F400F400F400F400F300F3F2
:10E48C0000F300F300F300F300F300F300F300F3E8
:10E49C0000F300F300F300F300F300F300F200F2DA
:10E4AC0000F200F200F200F200F200F200F200F2D0
:10E4BC0000F200F200F200F200F200F200F100F1C2
:10E4CC0000F100F100F100F100F100F100F100F1B8
:10E4DC0000F100F100F100F100F100F100F000F0AA
:10E4EC0000F000F000F000F000F000F000F000F0A0
:10E4FC0000F000F000F000F000F000F000EF00EF92
:10E50C0000EF00EF00EF00EF00EF00EF00EF00EF87
:10E51C0000EF00EF00EF00EF00EF00EF00EF00EE78
:10E52C0000EE00EE00EE00EE00EE00EE00EE00EE6F
:10E53C0000EE00EE00EE00EE00EE00EE00EE00ED60
:10E54C0000ED00ED00ED00ED00ED00ED00ED00ED57
:10E55C0000ED00ED00ED00ED00ED00ED00ED00ED47
:10E56C0000EC00EC00EC00EC00EC00EC00EC00EC3F
:10E57C0000EC00EC00EC00EC00EC00EC00EC00EC2F
:10E58C0000EC00EB00EB00EB00EB00EB00EB00EB26
:10E59C0000EB00EB00EB00EB00EB00EB00EB00EB17
:10E5AC0000EB00EB00EA00EA00EA00EA00EA00EA0D
:10E5BC0000EA00EA00EA00EA00EA00EA00EA00EAFF
:10E5CC0000EA00EA00EA00E900E900E900E900E9F4
:10E5DC0000E900E900E900E900E900E900E900E9E7
:10E5EC0000E900E900E900E900E800E800E800E8DB
:10E5FC0000E800E800E800E800E800E800E800E8CF
:10E60C0000E800E800E800E800E800E700E700E7C1
:10E61C0000E700E700E700E700E700E700E700E7B6
:10E62C0000E700E700E700E700E700E700E700E6A7
:10E63C0000E600E600E600E600E600E600E600E69E
:10E64C0000E600E600E600E600E600E600E600E68E
:10E65C0000E500E500E500E500E500E500E500E586
:10E66C0000E500E500E500E500E500E500E500E576
:10E67C0000040008000D00110016001A001F0023F2
:10E68C000028002C00310035003A003E00430047C2
:10E69C00004B005000540059005D00620066006B96
:10E6AC00006F00740078007D00810086008A008F66
:10E6BC0000930097009C00A000A500A900AE00B23A
:10E6CC0000B700BB00C000C400C900CD00D200D60A
:10E6DC0000DB00DF00E300E800EC00F100F500FADD
:10E6EC0000FE00030107010C011001150119011EA8
:10E6FC0001220127012B012F01340138013D014179
:10E70C000146014A014F01530158015C0161016549
:10E71C00016A016E01720177017B0180018401891C
:10E72C00018D01920196019B019F01A401A801ADED
:10E73C0001B101B601BA01BE01C301C701CC01D0C0
:10E74C0001D501D901DE01E201E701EB01F001F491
:10E75C0001F901FD01020206020A020F021302185E
:10E76C00021C02210225022A022E02330237023C2D
:10E77C00024002450249024E02520256025B025FFF
:10E78C0002640268026D02710276027A027F0283D1
:10E79C000288028C02910295029A029E02A202A7A2
:10E7AC0002AB02B002B402B902BD02C202C602CB75
:10E7BC0002CF02D402D802DD02E102E502EA02EE47
:10E7CC0002F302F702FC020003050309030E031215
:10E7DC000317031B032003240329032D03310336E2
:10E7EC00033A033F03430348034C03510355035AB5
:10E7FC00035E03630367036C037003750379037D86
:10E80C0003820386038B038F03940398039D03A158
:10E81C0003A603AA03AF03B303B803BC03C103C528
:10E82C0003C903CE03D203D703DB03E003E403E9FC
:10E83C0003ED03F203F603FB03FF03040408040DCA
:10E84C0004110415041A041E04230427042C043098
:10E85C0004350439043E04420447044B0450045468
:10E86C000458045D04610466046A046F047304783C
:10E87C00047C04810485048A048E04930497049C0C
:10E88C0004A004A404A904AD04B204B604BB04BFE0
:10E89C0004C404C804CD04D104D604DA04DF04E3B0
:10E8AC0004E804EC04F004F504F904FE0402050782
:10E8BC00050B051005140519051D05220526052B4C
:10E8CC00052F05340538053C05410545054A054E1F
:10E8DC0005530557055C056005650569056E0572F0
:10E8EC000577057B058005840588058D05910596C2
:10E8FC00059A059F05A305A805AC05B105B505BA94
:10E90C0005BE05C305C705CB05D005D405D905DD66
:10E91C0005E205E605EB05EF05F405F805FD050137
:10E92C000606060A060F06130617061C0620062501
:10E93C000629062E06320637063B064006440649D3
:10E94C00064D06520656065B065F06630668066CA5
:10E95C0006710675067A067E06830687068C069077
:10E96C0006950699069E06A206A706AB06AF06B448
:10E97C0006B806BD06C106C606CA06CF06D306D81B
:10E98C0006DC06E106E506EA06EE06F206F706FBED
:10E99C00060007040709070D07120716071B071FB8
:10E9AC0007240728072D07310736073A073E074388
:10E9BC000747074C075007550759075E076207675B
:10E9CC00076B077007740779077D07820786078A2C
:10E9DC00078F07930798079C07A107A507AA07AEFF
:10E9EC0007B307B707BC07C007C507C907CE07D2CF
:10E9FC0007D607DB07DF07E407E807ED07F107F6A3
:10EA0C0007FA07FF07030808080C08110815081A6D
:10EA1C00081E08220827082B083008340839083D3E
:10EA2C0008420846084B084F08540858085D08610E
:10EA3C000865086A086E08730877087C08800885E2
:10EA4C000889088E08920897089B08A008A408A9B2
:10EA5C0008AD08B108B608BA08BF08C308C808CC86
:10EA6C0008D108D508DA08DE08E308E708EC08F056
:10EA7C0008F508F908FD08020906090B090F091425
:10EA8C000918091D09210926092A092F09330938F2
:10EA9C00093C094109450949094E09520957095BC5
:10EAAC00096009640969096D09720976097B097F96
:10EABC0009840988098D09910995099A099E09A368
:10EACC0009A709AC09B009B509B909BE09C209C73A
:10EADC0009CB09D009D409D809DD09E109E609EA0D
:10EAEC0009EF09F309F809FC09010A050A0A0A0EDB
:10EAFC000A130A170A1C0A200A240A290A2D0A32A8
:10EB0C000A360A3B0A3F0A440A480A4D0A510A5679
:10EB1C000A5A0A5F0A630A680A6C0A700A750A794B
:10EB2C000A7E0A820A870A8B0A900A940A990A9D1D
:10EB3C000AA20AA60AAB0AAF0AB40AB80ABC0AC1EE
:10EB4C000AC50ACA0ACE0AD30AD70ADC0AE00AE5C1
:10EB5C000AE90AEE0AF20AF70AFB0A000B040B0890
:10EB6C000B0D0B110B160B1A0B1F0B230B280B2C5D
:10EB7C000B310B350B3A0B3E0B430B470B4B0B502E
:10EB8C000B540B590B5D0B620B660B6B0B6F0B7401
:10EB9C000B780B7D0B810B860B8A0B8F0B930B97D2
:10EBAC000B9C0BA00BA50BA90BAE0BB20BB70BBBA5
:10EBBC000BC00BC40BC90BCD0BD20BD60BDB0BDF75
:10EBCC000BE30BE80BEC0BF10BF50BFA0BFE0B0349
:10EBDC000C070C0C0C100C150C190C1E0C220C2711
:10EBEC000C2B0C2F0C340C380C3D0C410C460C4AE5
:10EBFC000C4F0C530C580C5C0C610C650C6A0C6EB5
:10EC0C000C720C770C7B0C800C840C890C8D0C9288
:10EC1C000C960C9B0C9F0CA40CA80CAD0CB10CB658
:10EC2C000CBA0CBE0CC30CC70CCC0CD00CD50CD92C
:10EC3C000CDE0CE20CE70CEB0CF00CF40CF90CFDFC
:10EC4C000C020D060D0A0D0F0D130D180D1C0D21C8
:10EC5C000D250D2A0D2E0D330D370D3C0D400D4598
:10EC6C000D490D4E0D520D560D5B0D5F0D640D686B
:10EC7C000D6D0D710D760D7A0D7F0D830D880D8C3C
:10EC8C000D910D950D9A0D9E0DA20DA70DAB0DB00E
:10EC9C000DB40DB90DBD0DC20DC60DCB0DCF0DD4E0
:10ECAC000DD80DDD0DE10DE50DEA0DEE0DF30DF7B3
:10ECBC000DFC0D000E050E090E0E0E120E170E1B7E
:10ECCC000E200E240E290E2D0E310E360E3A0E3F4E
:10ECDC000E430E480E4C0E510E550E5A0E5E0E6320
:10ECEC000E670E6C0E700E750E790E7D0E820E86F2
:10ECFC000E8B0E8F0E940E980E9D0EA10EA60EAAC4
:10ED0C000EAF0EB30EB80EBC0EC10EC50EC90ECE94
:10ED1C000ED20ED70EDB0EE00EE40EE90EED0EF267
:10ED2C000EF60EFB0EFF0E040F080F0D0F110F1534
:10ED3C000F1A0F1E0F230F270F2C0F300F350F3903
:10ED4C000F3E0F420F470F4B0F500F540F580F5DD4
:10ED5C000F610F660F6A0F6F0F730F780F7C0F81A7
:10ED6C000F850F8A0F8E0F930F970F9C0FA00FA478
:10ED7C000FA90FAD0FB20FB60FBB0FBF0FC40FC84B
:10ED8C000FCD0FD10FD60FDA0FDF0FE30FE80FEC1B
:10ED9C000FF00FF50FF90FFE0F021007100B1010EC
:10EDAC0010141019101D10221026102B102F1034B7
:10EDBC001038103C10411045104A104E105310578B
:10EDCC00105C106010651069106E10721077107B5B
:10EDDC00108010841088108D10911096109A109F2E
:10EDEC0010A310A810AC10B110B510BA10BE10C3FF
:10EDFC0010C710CB10D010D410D910DD10E210E6D3
:10EE0C0010EB10EF10F410F810FD10011106110AA0
:10EE1C00110F11131117111C112011251129112E6D
:10EE2C0011321137113B114011441149114D11523E
:10EE3C001156115B115F11631168116C1171117511
:10EE4C00117A117E11831187118C119011951199E2
:10EE5C00119E11A211A711AB11AF11B411B811BDB4
:10EE6C0011C111C611CA11CF11D311D811DC11E186
:10EE7C0011110023003500470059006B007D008FF5
:10EE8C0000A000B200C400D600E800FA000C011E7D
:10EE9C00012F01410153016501770189019B01ADEE
:10EEAC0001BE01D001E201F401060218022A023C63
:10EEBC00024E025F02710283029502A702B902CBD5
:10EECC0002DD02EE02000312032403360348035A48
:10EEDC00036C037D038F03A103B303C503D703E9BD
:10EEEC0003FB030D041E043004420454046604782E
:10EEFC00048A049C04AD04BF04D104E304F50407A4
:10EF0C000519052B053C054E056005720584059613
:10EF1C0005A805BA05CB05DD05EF05010613062589
:10EF2C0006370649065B066C067E069006A206B4FA
:10EF3C0006C606D806EA06FB060D071F073107436F
:10EF4C00075507670779078A079C07AE07C007D2E2
:10EF5C0007E407F60708081A082B083D084F086154
:10EF6C0008730885089708A908BA08CC08DE08F0C9
:10EF7C0008020914092609380949095B096D097F3A
:10EF8C00099109A309B509C709D809EA09FC090EB1
:10EF9C000A200A320A440A560A680A790A8B0A9D20
:10EFAC000AAF0AC10AD30AE50AF70A080B1A0B2C96
:10EFBC000B3E0B500B620B740B860B970BA90BBB08
:10EFCC000BCD0BDF0BF10B030C150C270C380C4A7B
:10EFDC000C5C0C6E0C800C920CA40CB60CC70CD9EF
:10EFEC000CEB0CFD0C0F0D210D330D450D560D6862
:10EFFC000D7A0D8C0D9E0DB00DC20DD40DE50DF7D7
:10F00C000D090E1B0E2D0E3F0E510E630E750E8646
:10F01C000E980EAA0EBC0ECE0EE00EF20E040F15BC
:10F02C000F270F390F4B0F5D0F6F0F810F930FA42D
:10F03C000FB60FC80FDA0FEC0FFE0F1010221034A2
:10F04C00104510571069107B108D109F10B110C314
:10F05C0010D410E610F8100A111C112E1140115288
:10F06C00116311751187119911AB11BD11CF11E1FC
:10F07C0011F2110412161228123A124C125E12706E
:10F08C001282129312A512B712C912DB12ED12FFE3
:10F09C0012111322133413461358136A137C138E54
:10F0AC0013A013B113C313D513E713F9130B141DCA
:10F0BC00142F14411452146414761488149A14AC3A
:10F0CC0014BE14D014E114F3140515171529153BAF
:10F0DC00154D155F15701582159415A615B815CA22
:10F0EC0015DC15EE15001611162316351647165994
:10F0FC00166B167D168F16A016B216C416D616E809
:10F10C0016FA160C171E172F17411753176517777A
:10F11C001789179B17AD17BE17D017E217F41706F0
:10F12C001818182A183C184E185F1871188318955F
:10F13C0018A718B918CB18DD18EE180019121924D5
:10F14C0019361948195A196C197D198F19A119B347
:10F15C0019C519D719E919FB190D1A1E1A301A42BB
:10F16C001A541A661A781A8A1A9C1AAD1ABF1AD12E
:10F17C001AE31AF51A071B191B2B1B3C1B4E1B60A1
:10F18C001B721B841B961BA81BBA1BCB1BDD1BEF16
:10F19C001B011C131C251C371C491C5B1C6C1C7E86
:10F1AC001C901CA21CB41CC61CD81CEA1CFB1C0DFD
:10F1BC001D1F1D311D431D551D671D791D8A1D9C6D
:10F1CC001DAE1DC01DD21DE41DF61D081E1A1E2BE2
:10F1DC001E3D1E4F1E611E731E851E971EA91EBA54
:10F1EC001ECC1EDE1EF01E021F141F261F381F49C8
:10F1FC001F5B1F6D1F7F1F911FA31FB51FC71FD83C
:10F20C001FEA1FFC1F0E20202032204420562068AD
:10F21C002079208B209D20AF20C120D320E520F722
:10F22C002008211A212C213E215021622174218693
:10F23C00219721A921BB21CD21DF21F12103221509
:10F24C0022272238224A225C226E2280229222A479
:10F25C0022B622C722D922EB22FD220F23212333EF
:10F26C00234523562368237A238C239E23B023C261
:10F27C0023D423E523F72309241B242D243F2451D5
:10F28C00246324752486249824AA24BC24CE24E048
:10F29C0024F22404251525272539254B255D256FBA
:10F2AC002581259325A425B625C825DA25EC25FE30
:10F2BC00251026222634264526572669267B268DA0
:10F2CC00269F26B126C326D426E626F8260A271C16
:10F2DC00272E27402752276327752787279927AB87
:10F2EC0027BD27CF27E127F2270428162828283AFC
:10F2FC00284C285E28702882289328A528B728C96E
:10F30C0028DB28ED28FF28112922293429462958E1
:10F31C00296A297C298E29A029B129C329D529E755
:10F32C0029F9290B2A1D2A2F2A412A522A642A76C6
:10F33C002A882A9A2AAC2ABE2AD02AE12AF32A053C
:10F34C002B172B292B3B2B4D2B5F2B702B822B94AC
:10F35C002BA62BB82BCA2BDC2BEE2B002C112C2321
:10F36C002C352C472C592C6B2C7D2C8F2CA02CB293
:10F37C002CC42CD62CE82CFA2C0C2D1E2D2F2D4108
:10F38C002D532D652D772D892D9B2DAD2DBE2DD07B
:10F39C002DE22DF42D062E182E2A2E3C2E4E2E5FED
:10F3AC002E712E832E952EA72EB92ECB2EDD2EEE62
:10F3BC002E002F122F242F362F482F5A2F6C2F7DD3
:10F3CC002F8F2FA12FB32FC52FD72FE92FFB2F0D49
:10F3DC00301E30303042305430663078308A309CB9
:10F3EC0030AD30BF30D130E330F530073119312B2F
:10F3FC00313C314E316031723184319631A831BAA1
:10F40C0031CB31DD31EF3101321332253237324914
:10F41C00325B326C327E329032A232B432C632D887
:10F42C0032EA32FB320D331F3331334333553367FA
:10F43C003379338A339C33AE33C033D233E433F66F
:10F44C003308341A342B343D344F346134733485DF
:10F45C00349734A934BA34CC34DE34F03402351455
:10F46C00352635383549355B356D357F359135A3C6
:10F47C0035B535C735D835EA35FC350E362036323C
:10F48C003644365636683679368B369D36AF36C1AD
:10F49C0036D336E536F73608371A372C373E375021
:10F4AC00376237743786379737A937BB37CD37DF95
:10F4BC0037F13703381538273838384A385C386E06
:10F4CC003880389238A438B638C738D938EB38FD7C
:10F4DC00380F39213933394539563968397A398CED
:10F4EC00399E39B039C239D439E539F739093A1B63
:10F4FC003A2D3A3F3A513A633A753A863A983AAAD3
:10F50C003ABC3ACE3AE03AF23A043B153B273B3947
:10F51C003B4B3B5D3B6F3B813B933BA43BB63BC8BA
:10F52C003BDA3BEC3BFE3B103C223C343C453C572D
:10F53C003C693C7B3C8D3C9F3CB13CC33CD43CE6A1
:10F54C003CF83C0A3D1C3D2E3D403D523D633D7513
:10F55C003D873D993DAB3DBD3DCF3DE13DF23D0489
:10F56C003E163E283E3A3E4C3E5E3E703E823E93F8
:10F57C003EA53EB73EC93EDB3EED3EFF3E113F226F
:10F58C003F343F463F583F6A3F7C3F8E3FA03FB1E0
:10F59C003FC33FD53FE73FF93F0B401D402F404154
:10F5AC004052406440764088409A40AC40BE40D0C7
:10F5BC0040E140F3400541174129413B414D415F3A
:10F5CC0041704182419441A641B841CA41DC41EEAF
:10F5DC00410042114223423542474259426B427D1F
:10F5EC00428F42A042B242C442D642E842FA420C96
:10F5FC00431E432F43414353436543774389439B06
:10F60C0043AD43BE43D043E243F443064418442A7B
:10F61C00443C444E445F44714483449544A744B9EC
:10F62C0044CB44DD44EE4400451245244536454860
:10F63C00455A456C457D458F45A145B345C545D7D4
:10F64C0045E945FB450D461E463046424654466646
:10F65C004678468A469C46AD46BF46D146E346F5BB
:10F66C0046074719472B473C474E4760477247842C
:10F67C0047FFFFFFFFFFFF17E545B7BA98E8828BFE
:10F68C0072D165A25B4E535D4C7D467441173D456E
:10F69C0039E735E8323A30D12DA22BA729D7272EBE
:10F6AC0026A7243E23F021BA20991F8B1E8F1DA262
:10F6BC001CC41BF31A2E1A7419C4181D187F17E8D2
:10F6CC00165916D1154F15D3145D14EB137F131760
:10F6DC0013B3125312F7119F114A11F810A9105DB0
:10F6EC00101310CC0F880F450F050FC70E8B0E5142
:10F6FC000E190EE20DAD0D790D470D170DE80CBA74
:10F70C000C8D0C620C370C0E0CE60BBF0B990B74AA
:10F71C000B500B2C0B0A0BE80AC70AA70A880A69BC
:10F72C000A4B0A2E0A110AF509DA09BF09A5098B39
:10F73C000972095909410929091209FB08E508CF81
:10F74C0008BA08A50890087C086808540841082ED7
:10F75C00081C080908F707E607D507C407B307A272
:10F76C000792078207730763075407450737072873
:10F77C00071A070C07FE06F106E306D606C906BCF7
:10F78C0006B006A30697068B067F06740668065D10
:10F79C0006510646063B06310626061B06110607D1
:10F7AC0006FD05F305E905DF05D605CC05C305BA4D
:10F7BC0005B105A8059F0596058D0585057C057485
:10F7CC00056C0563055B0553054C0544053C053488
:10F7DC00052D0525051E051705100508050105FA5B
:10F7EC0004F404ED04E604DF04D904D204CC04C50B
:10F7FC0004BF04B904B304AC04A604A0049A049492
:10F80C00048F04890483047D04780472046D0467F6
:10F81C000462045D04570452044D04480443043E3E
:10F82C0004390434042F042A04250420041B04176F
:10F83C000412040E04090404040004FB03F703F38C
:10F84C0003EE03EA03E603E203DD03D903D503D198
:10F85C0003CD03C903C503C103BD03B903B503B18C
:10F86C0003AE03AA03A603A2039F039B039703946F
:10F87C000390038D038903860382037F037B037844
:10F88C0003750371036E036B036803640361035E0A
:10F89C00035B035803550351034E034B03480345C5
:10F8AC000342033F033C033A033703340331032E73
:10F8BC00032B0328032603230320031D031B031818
:10F8CC00031503130310030D030B030803060303B3
:10F8DC00030103FE02FC02F902F702F402F202EF4A
:10F8EC0002ED02EB02E802E602E402E102DF02DDD5
:10F8FC0002DA02D802D602D402D102CF02CD02CB58
:10F90C0002C902C602C402C202C002BE02BC02BAD2
:10F91C0002B802B602B402B102AF02AD02AB02A948
:10F92C0002A702A602A402A202A0029E029C029AB4
:10F93C0002980296029402920291028F028D028B1F
:10F94C00028902880286028402820280027F027D82
:10F95C00027B027A02780276027402730271026FE1
:10F96C00026E026C026A026902670266026402623B
:10F97C000261025F025E025C025B02590257025690
:10F98C000254025302510250024E024D024B024AE3
:10F99C000249024702460244024302410240023E2F
:10F9AC00023D023C023A0239023802360235023379
:10F9BC0002320231022F022E022D022B022A0229C0
:10F9CC000227022602250224022202210220021F03
:10F9DC00021D021C021B021A021802170216021543
:10F9EC000213021202110210020F020D020C020B82
:10F9FC00020A0209020802070205020402030202BB
:10FA0C000201020002FF01FD01FC01FB01FA01F9F8
:10FA1C0001F801F701F601F501F401F301F201F12E
:10FA2C0001EF01EE01ED01EC01EB01EA01E901E866
:10FA3C0001E701E601E501E401E301E201E101E096
:10FA4C0001DF01DE01DD01DC01DB01DA01D901D8C6
:10FA5C0001D801D701D601D501D401D301D201D1EE
:10FA6C0001D001CF01CE01CD01CC01CB01CB01CA1C
:10FA7C0001C901C801C701C601C501C401C401C344
:10FA8C0001C201C101C001BF01BE01BD01BD01BC6C
:10FA9C0001BB01BA01B901B801B801B701B601B592
:10FAAC0001B401B401B301B201B101B001B001AFB5
:10FABC0001AE01AD01AC01AC01AB01AA01A901A8D9
:10FACC0001A801A701A601A501A501A401A301A2FA
:10FADC0001A201A101A0019F019F019E019D019D19
:10FAEC00019C019B019A019A019901980197019738
:10FAFC000196019501950194019301930192019155
:10FB0C0001910190018F018E018E018D018C018C70
:10FB1C00018B018A018A018901880188018701868C
:10FB2C0001860185018501840183018301820181A4
:10FB3C0001810180017F017F017E017E017D017CBD
:10FB4C00017C017B017A017A0179017901780177D5
:10FB5C0001770176017601750174017401730173EB
:10FB6C0001720172017101700170016F016F016E00
:10FB7C00016D016D016C016C016B016B016A016A15
:10FB8C000169016801680167016701660166016529
:10FB9C00016501640163016301620162016101613C
:10FBAC0001600160015F015F015E015E015D015D4D
:10FBBC00015C015C015B015B015A015A015901585E
:10FBCC000158015701570156015601550155015471
:10FBDC00015401530153015301520152015101517E
:10FBEC0001500150014F014F014E014E014D014D8D
:10FBFC00014C014C014B014B014A014A014901499D
:10FC0C0001490148014801470147014601460145A8
:10FC1C0001450144014401440143014301420142B5
:10FC2C0001410141014001400140013F013F013EC2
:10FC3C00013E013D013D013D013C013C013B013BCD
:10FC4C00013A013A013A01390139013801380137D9
:10FC5C0001370137013601360135013501350134E3
:10FC6C0001340133013301330132013201310131ED
:10FC7C00013101300130012F012F012F012E012EF6
:10FC8C00012D012D012D012C012C012B012B012B00
:10FC9C00012A012A012A0129012901280128012808
:10FCAC000127012701270126012601250125012510
:10FCBC000124012401240123012301230122012217
:10FCCC00012101210121012001200120011F011F1F
:10FCDC00011F011E011E011E011D011D011D011C24
:10FCEC00011C011C011B011B011A011A011A01192B
:10FCFC000119011901180118011801170117011731
:10FD0C000116011601160115011501150114011436
:10FD1C000114011301130113011301120112011239
:10FD2C00011101110111011001100110010F010F3E
:10FD3C00010F010E010E010E010D010D010D010D42
:10FD4C00010C010C010C010B010B010B010A010A46
:10FD5C00010A010901090109010901080108010849
:10FD6C00010701070107010601060106010601054D
:10FD7C00010501050104010401040104010301034F
:10FD8C000103010201020102010201010101010151
:10FD9C00010001000100010001FF00FF00FF00FE57
:10FDAC0000FE00FE00FE00FD00FD00FD00FD00FC5D
:10FDBC0000FC00FC00FB00FB00FB00FB00FA00FA5F
:10FDCC0000FA00FA00F900F900F900F900F800F85F
:10FDDC0000F800F700F700F700F700F600F600F661
:10FDEC0000F600F500F500F500F500F400F400F461
:10FDFC0000F400F300F300F300F300F200F200F261
:10FE0C0000F200F100F100F100F100F000F000F060
:10FE1C0000F000EF00EF00EF00EF00EE00EE00EE60
:10FE2C0000EE00ED00ED00ED00ED00EC00EC00EC60
:10FE3C0000EC00EC00EB00EB00EB00EB00EA00EA5E
:10FE4C0000EA00EA00E900E900E900E900E800E85E
:10FE5C0000E800E800E800E700E700E700E700E65C
:10FE6C0000E600E600E600E500E500E500E500E55B
:10FE7C0000DC1501000000000000E8220100000079
:10FE8C00E020010000000000000000000000000065
:10FE9C000000000000000000000000000000000056
:10FEAC00000000000000000000000000002A2101FA
:10FEBC00122101FA2001000000021D0100000000C7
:10FECC000000000000C821010000008E1E0100008F
:10FEDC0000000000000000E421010000002E1E01C3
:10FEEC00000000000000000000D6210100000049C5
:10FEFC004F45753A205053472D456D752053696D0C
:10FF0C00706C6578206275696C742D696E20444143
:10FF1C00430D0A0020534F554E445F4D4F44453A14
:10FF2C0020505347202841592D332D383931302951
:10FF3C0020456D750D0A0020504F4C4C494E475FC3
:10FF4C005053475F4E4F4953455F4D4F44453A2000
:10FF5C004F4E0D0A0020504F4C4C494E475F5053AA
:10FF6C00475F4857454E565F4D4F44453A204F4EDC
:10FF7C000D0A00204441435F4656525F4D4F4445A5
:10FF8C003A2078342028342E30393656290D0A0080
:10FF9C0020504F4C4C494E475F44524956455F4D9B
:10FFAC004F44453A204F4E0D0A002053796E746829
:10FFBC00657369732053706565643A202530327817
:10FFCC000D0A00205265762E20312E302E303A202C
:10FFDC0032303236303530390D0A00205345434F1C
:10FFEC004E445F5053475F4D4F44453A204F4E0DA2
:03FFFC000A0000F8
:020000040001F9
:100000008F008F001E01AD013C02CB025A03E903B1
:100010007804070596052506B4064307D20761084C
:10002000F0087F090E0A9D0A2C0BBB0B4A0CD90C59
:10003000680DF70D860E150FA50F3410C310521161
:10004000E1117012FF128E131D14AC143B15CA156A
:100050005916E8167717061895182419B319421A75
:10006000D11A601BEF1B7E1C0D1D9C1D2B1EBA1E82
:100070004A1FD91F6820F72086211522A422332386
:10008000C2235124E0246F25FE258D261C27AB2793
:100090003A28C9285829E729762A052B942B232C9E
:1000A000B22C412DD02D5F2EEF2E7E2F0D309C30A7
:1000B0002B31BA314932D8326733F63385341435AF
:1000C000A3353236C1365037DF376E38FD388C39BC
:1000D0001B3AAA3A393BC83B573CE63C753D043EC7
:1000E000943E233FB23F4140D0405F41EE417D42CC
:1000F0000C439B432A44B9444845D7456646F546D8
:1001000084471348A2483149C0494F4ADE4A6D4BE3
:10011000FC4B8B4C1A4DA94D394EC84E574FE64FEC
:100120007550045193512252B1524053CF535E54F3
:10013000ED547C550B569A562957B8574758D65800
:100140006559F459835A125BA15B305CBF5C4F5D0B
:10015000DE5D6D5EFC5E8B5F1A60A9603861C76111
:100160005662E5627463036492642165B0653F661C
:10017000CE665D67EC677B680A699969286AB76A29
:10018000466BD56B646CF46C836D126EA16E306F30
:10019000BF6F4E70DD706C71FB718A721973A8733A
:1001A0003774C6745575E475737602779177207845
:1001B000AF783E79CD795C7AEB7A7A7B097C997C51
:1001C000287DB77D467ED57E647FF37F8280118156
:1001D000A0812F82BE824D83DC836B84FA84898563
:1001E0001886A7863687C5875488E3887289018A6E
:1001F000908A1F8BAE8B3E8CCD8C5C8DEB8D7A8E76
:100200000F0E0D0C0B0A0908070605040302010076
:1002100000000000000000000000000000000000DE
:1002200000000000000000000000000000000000CE
:1002300000000000000000000000000000000000BE
:100240000F0E0D0C0B0A0908070605040302010036
:10025000000000000000000000000000000000009E
:10026000000000000000000000000000000000008E
:10027000000000000000000000000000000000007E
:100280000F0E0D0C0B0A09080706050403020100F6
:10029000000000000000000000000000000000005E
:1002A000000000000000000000000000000000004E
:1002B000000000000000000000000000000000003E
:1002C0000F0E0D0C0B0A09080706050403020100B6
:1002D000000000000000000000000000000000001E
:1002E000000000000000000000000000000000000E
:1002F00000000000000000000000000000000000FE
:10030000000102030405060708090A0B0C0D0E0F75
:1003100000000000000000000000000000000000DD
:1003200000000000000000000000000000000000CD
:1003300000000000000000000000000000000000BD
:10034000000102030405060708090A0B0C0D0E0F35
:10035000000000000000000000000000000000009D
:10036000000000000000000000000000000000008D
:10037000000000000000000000000000000000007D
:10038000000102030405060708090A0B0C0D0E0FF5
:10039000000000000000000000000000000000005D
:1003A000000000000000000000000000000000004D
:1003B000000000000000000000000000000000003D
:1003C000000102030405060708090A0B0C0D0E0FB5
:1003D000000000000000000000000000000000001D
:1003E000000000000000000000000000000000000D
:1003F00000000000000000000000000000000000FD
:100400000F0E0D0C0B0A0908070605040302010074
:100410000F0E0D0C0B0A0908070605040302010064
:100420000F0E0D0C0B0A0908070605040302010054
:100430000F0E0D0C0B0A0908070605040302010044
:100440000F0E0D0C0B0A0908070605040302010034
:10045000000000000000000000000000000000009C
:10046000000000000000000000000000000000008C
:10047000000000000000000000000000000000007C
:100480000F0E0D0C0B0A09080706050403020100F4
:10049000000102030405060708090A0B0C0D0E0FE4
:1004A0000F0E0D0C0B0A09080706050403020100D4
:1004B000000102030405060708090A0B0C0D0E0FC4
:1004C0000F0E0D0C0B0A09080706050403020100B4
:1004D0000F0F0F0F0F0F0F0F0F0F0F0F0F0F0F0F2C
:1004E0000F0F0F0F0F0F0F0F0F0F0F0F0F0F0F0F1C
:1004F0000F0F0F0F0F0F0F0F0F0F0F0F0F0F0F0F0C
:10050000000102030405060708090A0B0C0D0E0F73
:10051000000102030405060708090A0B0C0D0E0F63
:10052000000102030405060708090A0B0C0D0E0F53
:10053000000102030405060708090A0B0C0D0E0F43
:10054000000102030405060708090A0B0C0D0E0F33
:100550000F0F0F0F0F0F0F0F0F0F0F0F0F0F0F0FAB
:100560000F0F0F0F0F0F0F0F0F0F0F0F0F0F0F0F9B
:100570000F0F0F0F0F0F0F0F0F0F0F0F0F0F0F0F8B
:10058000000102030405060708090A0B0C0D0E0FF3
:100590000F0E0D0C0B0A09080706050403020100E3
:1005A000000102030405060708090A0B0C0D0E0FD3
:1005B0000F0E0D0C0B0A09080706050403020100C3
:1005C000000102030405060708090A0B0C0D0E0FB3
:1005D000000000000000000000000000000000001B
:1005E000000000000000000000000000000000000B
:1005F00000000000000000000000000000000000FB
:10060000BE90000E0201016FA492010E0001D56F91
:10061000D787B492050ED56F840ED76F070ED56FAE
:10062000000ED76F020ED86F030ED96F060EDA6F69
:10063000070EDB6F020EDC6F040EDD6F100EDE6F37
:10064000400EDF6F000ED46F820ED66FFB0E0601D8
:10065000AD6FFE0EAE6FC4EC8FF0CF0EAD6FFF0E20
:10066000AE6FC4EC8FF0200EAD6FFF0EAE6FC4EC1A
:100670008FF0E70EAD6FFF0EAE6FC4EC8FF09C0EE7
:10068000AD6FFF0EAE6FC4EC8FF0430EAD6FFF0E7B
:10069000AE6FC4EC8FF0610EAD6FFF0EAE6FC4ECA9
:1006A0008FF07F0EAD6FFF0EAE6FC4EC8FF00301C5
:1006B0001969000E186FB19E1A8F18C393F5B2EC2A
:1006C00086F018C392F503011A9FB60E0601AD6FAE
:1006D000FF0EAE6F05019351925D0601AF6FB06BD7
:1006E000D8A0B007C4EC8FF0000E0501976F2C0E58
:1006F0000301196F100E196FB19EA19E1A8F236905
:10070000248FB996A996309F63686468B29CA29CB6
:10071000699E010E0501646F000E656F000E666F25
:10072000000E676F72687368789EB39CA39CCC0EB2
:100730000301D76F81688268879EB59CA59C000ED7
:100740000201036FA80E00017F6F000E0501AB6F61
:10075000010EAC6F000EAF6F010EB06F000EAD6FEB
:10076000010EAE6F0F0EA86F0F0EA76F0F0EA66FC4
:100770000F0EA46F010E156E010E146E010E136E96
:10078000010E126E010E116E010E106E000E0E6E35
:10079000000E0C6E000E9A6F000E0F6E000E0D6EA6
:1007A000000E9B6F000E0B6E000E846F000E836FA9
:1007B000000E086E000E096E0950400D000EF32465
:1007C000016E0A0EF420026E010E646F000E656F5A
:1007D000000E666F000E676FC20E686F180E696FAD
:1007E000010E6A6F65EC91F00401468F60EC91F0A8
:1007F00004014E8F5BEC91F0BC96AC960401568FD1
:10080000010E0001D56FD797D785D795B492A482F2
:10081000BE80020E0201016FD68E120098C6D9F476
:1008200099C6DAF4DEC4F6F4DDC4F7F4000EF86E0F
:100830000800F550250AD8A49ED098C6D9F499C6C8
:10084000DAF4DE2A000EDD22000E05017E6F000EB6
:100850007D6F7DC58FF57F698069000E06010BD025
:1008600005018F8398C6D9F499C6DAF4DE2A000E02
:10087000DD2213D0010EA26F10D098C6D9F499C60C
:10088000DAF4DEC4F6F4DDC4F7F4000EF86E080006
:10089000F550300AD8B4E4D7EDD70601A251D8B448
:1008A000ECD798C6C3F599C6C4F59AC6C5F59BC6DC
:1008B000C6F5E5EC87F0C3C57DF5C4C57EF57EAF12
:1008C00005D08F817D6D7E1FD8B07E2B98C6D9F460
:1008D00099C6DAF4DEC4A3F6DDC4A4F6A3C6F6F422
:1008E000A4C6F7F4000EF86E0800F550780AD8A4F4
:1008F0003AD09AC6D9F49BC6DAF4DFC49CF6020E4D
:10090000DE26DFC49DF6000EDD229CC6D9F49DC60E
:10091000DAF4DEC49EF6DDC49FF6010E0601A325BF
:100920009C6F000EA4219D6F98C6D9F499C6DAF485
:100930009CC6DEF49DC6DDF40BD096C6D8F597C6EE
:10094000D9F59EC6DAF59FC6DBF5DCEC85F0120022
:10095000A3C6F6F4A4C6F7F4000EF86E0800F5502E
:10096000780AD8B4EAD798C6D9F499C6DAF4DE2A58
:10097000000EDD22120098C6D9F499C6DAF4DEC45E
:10098000F6F4DDC4F7F4000EF86E0800F55005012A
:10099000BF6FC06B96C6C1F597C6C2F59AEC88F0DA
:1009A000E2D76DD0E4EC8CF01200B9EC8CF01200C0
:1009B0008EEC8CF0120013EC8EF012001CA002D012
:1009C000010E01D0000E156E1CA202D0010E01D046
:1009D000000E146E1CA402D0010E01D0000E136E86
:1009E0001CA602D0010E01D0000E126E1CA802D06F
:1009F000010E01D0000E116E1CAA03D0010E106E64
:100A00001200000E106E12001B500F0B0F6E1BA871
:100A100003D0010E0E6E1200000E0E6E12001A5060
:100A20000F0B0D6E1AA803D0010E0C6E1200000EF3
:100A30000C6E120019500F0B9B6F19A803D0010EFA
:100A40009A6F1200000E9A6F1200000E0314036ECC
:100A5000FF0E0414046E1850031212000350036EAC
:100A6000046A1750C46FC36BC3510312C4510412FC
:100A7000120016500F0B096E42EC88F012009E51C6
:100A8000000AD8B48FD7010AD8B48CD7030AD8B4D7
:100A90008CD7010AD8B489D7070AD8B489D7010AF4
:100AA000D8B486D7030AD8B486D7010AD8B486D773
:100AB0000F0AD8B4A9D7010AD8B4B1D7030AD8B459
:100AC000B9D7010AD8B4C1D7070AD8B4C7D7010A21
:100AD000D8B4CFD7030AD8B41200010A1200100EFE
:100AE000BE6E000EBF6E000EC06E000EC16E000E18
:100AF000C26E6A0EC66EC768C868C968080ECA6E3C
:100B0000040E0401006F000E086F000E106FFB0E44
:100B1000016F09691169000E216F410E026F000E0D
:100B20000A6F000E126F000E226F000E036F000E90
:100B30000B6F000E136F000E236F040E046F000E78
:100B40000C6F000E146F080E246F000E0201896FE7
:100B5000000E886F000E876F000E866F050E626FA5
:100B60000C0E636F0D0E646F0E0E676F0F0E686FC5
:100B7000030E666F010E616F260E086F060E056F7D
:100B8000010E036F000E0401056F000E066F000ECC
:100B9000076F000E0D6F000E0E6F000E0F6F000E30
:100BA000156F000E166F000E176F000E256F000EEA
:100BB000266F000E276F1200010E906F7DC591F613
:100BC0007EC592F6000E956F1F0E946F000E8F6F0C
:100BD0002DD006019407D8A095070501DA510F0B17
:100BE0000601936F0A0E936102D0300E01D0570EAA
:100BF0009327700E9425D96E060E9521DA6E93C652
:100C0000DFF4000E906F9107D8A09207DAC5DCF5EB
:100C1000DBC5DDF5040E0501DE6FD890DD33DC3376
:100C2000DE2FFBD7DCC5DAF5DDC5DBF5060195BFA8
:100C300019D0955104E1020E945DD8A013D005019E
:100C4000DA51DB11D8A4C5D706019051D8A4C1D779
:100C500092BF08D0925103E19105D8A003D00501BD
:100C60008FB3B7D7D8C5CFF5D9C5D0F5700E06016B
:100C700094250501D16F060E060195210501D26F5D
:100C800091C6D3F592C6D4F5B3EC8AF0120038D0F1
:100C900024C523F5120024500F0B226E120024C528
:100CA00021F5120024500F0B206E120024C51FF5F1
:100CB000120024500F0B1E6E120024501F0B1D6ECD
:100CC000120024C51CF5120024501F0B1B6E1200CD
:100CD00024501F0B1A6E120024501F0B196E1200A5
:100CE00024C518F5120024C517F5120024500F0B67
:100CF000166E120024C5A0F5120024C59FF512003F
:100D00002550000AD8B4C4D7010AD8B4C4D7030AFE
:100D1000D8B4C5D7010AD8B4C5D7070AD8B4C6D73E
:100D2000010AD8B4C6D7030AD8B4C7D7010AD8B4C1
:100D3000C8D70F0AD8B4C8D7010AD8B4C9D7030A8C
:100D4000D8B4CAD7010AD8B4CBD7070AD8B4CBD7FE
:100D5000010AD8B4CBD7030AD8B4CCD7010AD8A497
:100D60001200CBD7000E05018C6F000E8B6F155053
:100D70002810BE6F14502A10BF6F13502910C06F77
:100D800012500A10C16F11500A10C26F10500A1091
:100D9000C36FBE51C1150009D8B412D00E50D8B4DB
:100DA00003D0400E0B2402D0400E0F24D96EDA6A15
:100DB000060EDA22DF50BD6FBD518B27000E8C234B
:100DC000BF51C2150009D8B412D00C50D8B403D00A
:100DD000400E0B2402D0400E0D24D96EDA6A060EA6
:100DE000DA22DF50BD6FBD518B27000E8C23C0511E
:100DF000C3150009D8B412009A51D8B40DD0400ED2
:100E00000B24D96EDA6A060EDA22DF50BD6FBD51AF
:100E10008B27000E8C231200400E9B25D96EDA6AB8
:100E2000060EDA22DF50BD6FBD518B27000E8C23DA
:100E30001200000E05018C6F000E8B6F15502810EC
:100E4000416E14502A10426E13502910436E1250F6
:100E50000A10446E11500A10456E10500A10466E6A
:100E6000415044140009D8B412D00E50D8B403D065
:100E7000400E0B2402D0400E0F24D96EDA6A060E03
:100E8000DA22DF50406E40508B27000E8C234250F8
:100E900045140009D8B412D00C50D8B403D0400E79
:100EA0000B2402D0400E0D24D96EDA6A060EDA2227
:100EB000DF50406E40508B27000E8C234350461469
:100EC0000009D8B412009A51D8B40DD0400E0B24AA
:100ED000D96EDA6A060EDA22DF50406E40508B2758
:100EE000000E8C231200400E9B25D96EDA6A060E86
:100EF000DA22DF50406E40508B27000E8C23120008
:100F000032D023C5C0F4120022C5C0F4120021C59E
:100F1000C0F4120020C5C0F412001FC5C0F41200B6
:100F20001EC5C0F412001DC5C0F412001CC5C0F4DB
:100F300012001BC5C0F412001AC5C0F4120019C576
:100F4000C0F4120018C5C0F4120017C5C0F4120096
:100F500016C5C0F41200A0C5C0F412009FC5C0F4AD
:100F60001200C06812002550000AD8B4CAD7010A7E
:100F7000D8B4CAD7030AD8B4CAD7010AD8B4CAD7D2
:100F8000070AD8B4CAD7010AD8B4CAD7030AD8B452
:100F9000CAD7010AD8B4CAD70F0AD8B4CAD7010A27
:100FA000D8B4CAD7030AD8B4CAD7010AD8B4CAD7A2
:100FB000070AD8B4CAD7010AD8B4CAD7030AD8B422
:100FC000CAD7010AD8B4CAD7CCD7000E0501CB6F57
:100FD000000ECA6FC3C5D9F4C4C5DAF4DEC4F6F492
:100FE000DDC4F7F4000EF86E0800F5502A0AD8A404
:100FF00033D0C3C5D9F4C4C5DAF4DE2A000EDD222D
:10100000C5C5D9F4C6C5DAF4DFC4C7F5020EDE26BD
:10101000DFC4C8F5000EDD22C7C5D9F4C8C5DAF4AF
:10102000DEC4CAF5DDC4CBF528D0CAC5BDF5CBC535
:10103000BEF5000EC06F0A0EBF6FD7EC8FF0C9511E
:10104000BD25CA6F000EBE21CB6FC3C5D9F4C4C580
:10105000DAF4DE2A000EDD22C3C5D9F4C4C5DAF401
:10106000DEC4F6F4DDC4F7F4000EF86E0800F550A7
:10107000D00FC96F090EC965D8D7CAC5C3F5CBC58E
:10108000C4F51200789EB39CA39C0404D8B017D07A
:10109000FE0E686F1D0E696F010E6A6F0350020D20
:1010A000000EF324D96E080EF420DA6EDEC4C0F50B
:1010B000DDC4C1F5C0C572F4C1C573F41DD0000E06
:1010C000846F000E836F03C5BDF504C5BEF5040E25
:1010D000BF6FD890BE33BD33BF2FFBD7BDC581F5E1
:1010E000BEC582F5C20E686F180E696F010E6A6F79
:1010F000C10E726E230E736E000E086E0950400D05
:10110000000EF324016E0A0EF420026E0850012432
:10111000D96E000E0220DA6EDF500B6E09B002D0DD
:1011200009B602D0010E01D0000E076EB39CA39C3D
:10113000788E1200C151C211D8B404D0C151C2116D
:10114000D8A404D0BF51D1EC90F0120020EE0AF0E8
:10115000C151D926C251DA22DE50DE10D8B416D0E1
:1011600020EE0AF0C151D926C251DA2210EE03F066
:10117000C151E126C251E222DE50E65CE650800A0F
:10118000C76FDE50800AC759D8B0120020EE03F0B6
:10119000C151D926C251DA22DEC4C3F5DDC4C4F57B
:1011A000C1C5D9F4C2C5DAF4DEC4C5F5DDC4C6F5DF
:1011B000C351C525D96EC451C621DA6EBFC5DFF44F
:1011C00020EE03F0C151D926C251DA22DE2A000EE8
:1011D000DD221200000EF66E000EF76E010EF86EA4
:1011E00002EE00F011EE00F20900F5C4EEF4E55055
:1011F000E150FAE1E250F8E1620EF66E180EF76E79
:10120000010EF86E01EE00F210EE60F00900F5C478
:10121000EEF4E550E150FAE101EE00F310EE00F1DA
:10122000EE6AE550E150FCE1E250FAE101EE60F2D5
:10123000300EEE6AE806FDE101EE60F1510EEE6A55
:10124000E806FDE101EE01F12A0EEE6AE806FDE195
:101250000401080E5D6F000E5E6F000E5F6F0001EF
:10126000C6EF90F0D68A000ED6BE010EC06FD69E95
:10127000550E0401596FAA0E596F5991000E5F6FF8
:10128000000E5E6F080E5D6F550E596FAA0E596FF6
:1012900059810501C0B102D0D69E01D0D68E03017E
:1012A000658F668D678D6883698D6D877087AF9058
:1012B000D680120E0501BD6F230EBE6F010EBF6FEB
:1012C0004DEC91F0B490D682140EBD6F230EBE6F1C
:1012D000010EBF6F46EC91F0B890D684160EBD6F2C
:0E12E000230EBE6F010EBF6F3FEC91F01200A7
:1012F000CFC427F5CEAA21D0D0C426F50001D785CA
:10130000B492D795100E2718D8A404D026500F0BEE
:10131000256E1100110E2718D8A4110026C524F53A
:10132000000E05019925D96EDA6A070EDA2225C565
:10133000DFF4992B47EC86F01100120E2718D8A481
:101340001100B492050E0001D56F8C0ED76F000E00
:10135000C86E80EC87F0010ED56FD785D795CEA2E9
:10136000FED7C868050E0001D56F840ED76F010E39
:10137000D56F1100B2AC30D0B29C000E6415606F16
:10138000200E6515616F010E6615626F000E671500
:10139000636FD890643765376637673766A102D0C8
:1013A000010E01D0000E0A6E6051611162116311CD
:1013B000D8B412D0000E6019BF6F200E6119C06F33
:1013C000010E6219C16F000E6319C26FBF51C011C7
:1013D000C111C211D8A46481B3AC1200B39C01D86E
:1013E00012000500FA6E6851FD6E6951FE6E6A5179
:1013F000FF6EFA501200000E606E030E616E000E5A
:10140000626EC10E636E230E646E000E656E000E7A
:10141000666E000E676E000E686E000E6A6EE10E5C
:101420006B6E110E6C6EE10E6D6E110E6E6EB29CD7
:10143000B29E67906792A29EA28C060E0501BD6FB8
:10144000230EBE6F010EBF6F31EC91F0040EBD6F25
:10145000230EBE6F010EBF6F2AEC91F0000EBD6F20
:10146000000EBE6F000EBF6F38EC91F0000E696E7B
:101470001200000E7E6E020E7F6E000E806ED60E83
:10148000816E020E826E000E836E000E846E000E60
:10149000856E000E866E000E886E6B0E896E010ED4
:1014A0008A6E6B0E8B6E010E8C6EB59CB59E859010
:1014B0008592A59EA58C0E0EBD6F230EBE6F010EEC
:1014C000BF6F07EC91F00C0EBD6F230EBE6F010EC7
:1014D000BF6F00EC91F0000EBD6F000EBE6F000EEE
:1014E000BF6F0EEC91F0800E876E1200000E6F6ED3
:1014F000020E706E000E716E7F0E726E3E0E736E77
:10150000030E746E000E756E000E766E000E776E12
:10151000000E796E400E7A6E1F0E7B6E400E7C6E52
:101520001F0E7D6EB39CB39E76907692A39EA38C85
:101530000A0EBD6F230EBE6F010EBF6F1CEC91F043
:10154000080EBD6F230EBE6F010EBF6F15EC91F03C
:10155000000EBD6F000EBE6F000EBF6F23EC91F04A
:10156000000E786E12008FA10AD0D1C5C8F5D2C581
:10157000C9F5CFC5CAF5D0C5CBF530EC8EF0D4AFE8
:1015800004D0000ED46F000ED36F000ED76F000E84
:10159000D66F0DD0000EC06F200EBF6FCFC5C1F546
:1015A000D0C5C2F59AEC88F00501D64BD72BD351A4
:1015B000D65DD751800AD56FD451800AD559D8A0AD
:1015C000E9D78FB11200D1C5C8F5D2C5C9F5CFC5CD
:1015D000CAF5D0C5CBF530EC8EF01200000E02013A
:1015E000C76F000EC96F000ECB6F000ECD6F000EDF
:1015F000CF6FB00ED16F800ED26F000ED36FD46953
:10160000010ED56F2E0ED66F000ED76F800ED86FDD
:10161000000ED96F000E0501BD6F000EBE6F000EEB
:10162000BF6F95EC90F0000EBD6F000EBE6F000E08
:10163000BF6F89EC90F0000EBD6F000EBE6F000E04
:10164000BF6F7DEC90F0000E8E6F000E8D6F12005C
:10165000FAC42BF5FBC42CF5B29E68B067A013D07A
:1016600067900501F151F211F311D8B422D001D8DD
:1016700020D00500FA6EF151FD6EF251FE6EF3516D
:10168000FF6EFA50120068B267A213D0679205018C
:10169000EE51EF11F011D8B40CD001D80AD00500EA
:1016A000FA6EEE51FD6EEF51FE6EF051FF6EFA5084
:1016B00012002CC5FBF42BC5FAF41100FAC42DF569
:1016C000FBC42EF5B39E77B076A013D076900501BB
:1016D000EB51EC11ED11D8B422D001D820D0050087
:1016E000FA6EEB51FD6EEC51FE6EED51FF6EFA504D
:1016F000120077B276A213D076920501E851E91173
:10170000EA11D8B40CD001D80AD00500FA6EE8511D
:10171000FD6EE951FE6EEA51FF6EFA5012002EC5C1
:10172000FBF42DC5FAF41100FAC42FF5FBC430F513
:10173000B59E86B085A013D085900501E551E611D0
:10174000E711D8B422D001D820D00500FA6EE551B7
:10175000FD6EE651FE6EE751FF6EFA50120086B242
:1017600085A213D085920501E251E311E411D8B4AA
:101770000CD001D80AD00500FA6EE251FD6EE3519B
:10178000FE6EE451FF6EFA50120030C5FBF42FC517
:10179000FAF4110062EC90F06FEC85F067EC8EF0DB
:1017A000CCEC8DF04DEC8EF0CCEC8EF0B3EC8EF0FA
:1017B0009AEC8EF06AEC91F0A7EC8DF082EC8DF053
:1017C0005DEC8DF078EC91F043EC90F053EC90F000
:1017D00032EC90F0FBEC89F076EC8AF039EC8AF090
:1017E00047EC8FF017EC8FF081EC8EF0EEEC8AF086
:0A17F00032EC89F0F9EC90F01200E1
:1017FC00B29C000E05016415606F200E6515616FBB
:10180C00010E6615626F000E6715636FD890643712
:10181C0065376637673766A102D0010E01D0000E1E
:10182C000A6E6051611162116311D8B41100000E7F
:10183C006019B56F200E6119B66F010E6219B76F82
:10184C00000E6319B86FB551B611B711B811D8B4F1
:10185C001100648111003B023B027704B306EF08D0
:10186C002B0B670DA30FE0111C1458169418D01AEB
:10187C000C1D481F8521C123FD253928752AB12C43
:10188C00ED2E2A316633A235DE371A3A563C923E9B
:10189C00CF400B4347450002030406080B101720EA
:1018AC002D405A80B4FF403228201914100C0A081D
:1018BC00060504030200D7AE02D00FEF8DF0040E24
:1018CC008327000E8423FC0E8115BD6FFF0E82153D
:1018DC00BE6F8351BD191BE18451BE19D8A41200EF
:1018EC00000E846F000E836F082A1F0E086407D049
:1018FC000750D8B402D01F0E01D0000E086E08504D
:10190C000124D96E000E0220DA6EDF500B6E12002D
:10191C001FC585F5866B1E50BE6FBD6BBD51851303
:10192C00BE518613D8908535F66E8635F76E7D0ED2
:10193C00F626C60EF722F86A000EF8220900F5C446
:10194C00C1F50A00F5C4C2F5C1C5BFF5C2C5C1F5E4
:10195C00C26BC1C5C0F5000E0401556FC0C554F46F
:10196C00BFC553F4120021C587F5886B2050BE6F9C
:10197C00BD6BBD518713BE518813D8908735F66E59
:10198C008835F76E7D0EF626C60EF722F86A000E25
:10199C00F8220900F5C4C1F50A00F5C4C2F5C1C5A9
:1019AC00BFF5C2C5C1F5C26BC1C5C0F5000E0401BF
:1019BC004D6FC0C54CF4BFC54BF4120023C589F55F
:1019CC008A6B2250BE6FBD6BBD518913BE518A13F9
:1019DC00D8908935F66E8A35F76E7D0EF626C60ED2
:1019EC00F722F86A000EF8220900F5C4C1F50A00C6
:1019FC00F5C4C2F5C1C5BFF5C2C5C1F5C26BC1C541
:101A0C00C0F5000E0401456FC0C544F4BFC543F4D6
:101A1C001200040E8327000E8423FC0E8115B16F77
:101A2C00FF0E8215B26F8351B1191BE18451B219AB
:101A3C00D8A41200000E846F000E836F082A1F0EAC
:101A4C00086407D00750D8B402D01F0E01D0000E86
:101A5C00086E08500124D96E000E0220DA6EDF5099
:101A6C000B6E1200A7C6ABF6A8C6ACF60FD0A5C677
:101A7C0096F6A6C697F6AB0E0601986F060E996FF2
:101A8C00A9C69AF6AAC69BF60EEC84F0ABC6F6F481
:101A9C00ACC6F7F4000EF86E0800F5500009D8A497
:101AAC00E6D7000E0601A66F000EA56F1200020EFF
:101ABC00E86FAD0EF96F050EFA6F000EFB6F050E99
:101ACC00F16F290EF06F020EFD6F000EF86F020E13
:101ADC00F76F000EEF6F010EEE6F730EFF6F000EBF
:101AEC00FE6FB89AB898B89EB89CA89AA898A89E69
:101AFC00A89C800EFC6F1200010EE86FAF0EF96F00
:101B0C00050EFA6F000EFB6F050EF16F2A0EF06FCB
:101B1C00020EFD6F000EF86F020EF76F000EEF6FE6
:101B2C00010EEE6F530EFF6F000EFE6FB49AB49859
:101B3C00B49EB49CA49AA498A49EA49C800EFC6F02
:101B4C001200000EE86FAB0EF96F050EFA6F000E67
:101B5C00FB6F050EF16F280EF06F020EFD6F000E7D
:101B6C00F86F020EF76F000EEF6F010EEE6F330E73
:101B7C00FF6F000EFE6FB09AB098B09EB09CA09A0A
:101B8C00A098A09EA09C800EFC6F1200010ED56F39
:101B9C00800ED76F000ED86F370ED96F000EDA6F2C
:101BAC00000EDB6F010EDC6F080EDD6F000EDE6FBA
:101BBC00000EDF6F000ED46F8C0ED66FB492000E39
:101BCC000501BD6F000EBE6F000EBF6F54EC91F09F
:101BDC00A4821200000E0514BB6F600E0614BC6FBD
:101BEC00D8900536063606AC02D0010E01D0000E98
:101BFC00A36F000EBB19B96F600EBC19BA6FB95147
:101C0C00BA11D8B404D0BB51BC11D8A404D005501F
:101C1C000610D8A41200058012001D50020D000EF3
:101C2C00F324D96E060EF420DA6EDEC4BDF5DDC4E5
:101C3C00BEF5699EBDC563F4BEC564F4B29CA29C9E
:101C4C00698E010E646F000E656F000E666F000EDC
:101C5C00676F1200000ECE6F000ECD6F0CD0CCC58E
:101C6C00BFF5C06BCAC5C1F5CBC5C2F59AEC88F0FF
:101C7C000501CD4BCE2BCD51C825D96ECE51C921E6
:101C8C00DA6EDF50CC6FCC51D8B41200E8D7040E0A
:101C9C000001D56F0C0ED76F3A0ED86F050ED96FA9
:101CAC00050EDA6F050EDB6F020EDC6F080EDD6FB2
:101CBC00000EDE6F000EDF6F000ED46F820ED66F3B
:101CCC001200000E0001D56F0E0ED76F260ED86FC6
:101CDC00000ED96F000EDA6F000EDB6F020EDC6F98
:101CEC00000EDD6F000EDE6F000EDF6F000ED46F86
:101CFC00820ED66F1200050E326F000E316F000E81
:101D0C00336F8E0E2F6F000E2E6F000E0501BD6F00
:101D1C00000EBE6F000EBF6FE4EC90F0B996A98672
:101D2C00300E0301306F1200000EB46F070EB56F4A
:101D3C00070EB66F070EB76F070EB86F070EB96FA9
:101D4C00070EBA6F070EBB6F070EBE6F070EBF6F85
:101D5C00000EF46E000EF36E1200070ED56F000E1F
:101D6C00D76F020ED86F030ED96F060EDA6F070EFF
:101D7C00DB6F010EDC6F080EDD6F100EDE6F800E58
:101D8C00DF6F000ED46F820ED66F1200050ED56F6A
:101D9C00840ED76F3A0ED86F010ED96F010EDA6F21
:101DAC00010EDB6F020EDC6F040EDD6F000EDE6FBA
:0E1DBC00000EDF6F000ED46F820ED66F120085
:101DCC00B59C19EC87F08BC547F58CC548F5D890B8
:101DDC0048324732D8904832473247C540F548C55B
:101DEC0041F56FEC91F08784B5AC1100010E946F46
:101DFC001100D7AE02D08AEF8FF0082A1F0E0864AC
:101E0C0007D00750D8B402D01F0E01D0000E086EB8
:101E1C0008500124D96E000E0220DA6EDF500B6ED2
:101E2C001200030E266F000E256F000E276F0F0E8B
:101E3C00236F000E226F000E0501BD6F000EBE6FEA
:101E4C00000EBF6FEBEC90F0B196000E0301246F07
:021E5C00120072
:101E6000FAC4B3F5FBC4B4F5B39C01D80BD005009C
:101E7000FA6E05016851FD6E6951FE6E6A51FF6E82
:101E8000FA501200B4C5FBF4B3C5FAF41100590EB0
:101E90000301196F000E186F740E1B6F000E050101
:101EA000BD6F000EBE6F000EBF6FF2EC90F0B19EE2
:0A1EB000A18E000E03011A6F12004C
:101EBC00B19E19EC87F08BC53EF58CC53FF5D890DB
:101ECC003F323E32D8903F323E323E5000017D6F61
:101EDC00B1AE1100010E0501966F110006BC04D0C5
:101EEC0005500610D8A405D0000E066E010E056E26
:101EFC0003D0D8900536063606AC03D0010EA36F7E
:101F0C001200000EA36F1200082A1F0E086407D0DF
:101F1C000750D8B402D01F0E01D0000E086E085026
:101F2C000124D96E000E0220DA6EDF500B6E120007
:101F3C00B1AE1200B19EB2EC86F08BC5C4F58CC567
:101F4C00C5F5D890C533C433D890C533C433C45108
:101F5C0000017D6F12000CD0000E9825D96EDA6A44
:101F6C00070EDA22DF509E6FD1EC84F00501982B1E
:101F7C00050198519919D8B41200EED7AF0EB16F74
:101F8C00060EB26F000EA56F000EA66FADC6A7F6BB
:101F9C00AEC6A8F6B10EA96F060EAA6F38EC8DF07E
:101FAC001200BD51BF03F3C4C1F5F4C4C2F5BD5159
:101FBC00C003F350C227BE51BF03F350C227C1C5A3
:101FCC00BDF5C2C5BEF5120005017A517B117C111D
:101FDC00D8B4120001D812000500FA6E7A51FD6EC9
:101FEC007B51FE6E7C51FF6EFA5012000501775149
:101FFC0078117911D8B4120001D812000500FA6ECC
:10200C007751FD6E7851FE6E7951FF6EFA501200C9
:10201C000501745175117611D8B4120001D8120053
:10202C000500FA6E7451FD6E7551FE6E7651FF6EA1
:10203C00FA501200BC9605019151D8B403D0000E91
