:040000008031102813
:100008007E1480310B1F0E2841011A19101D0E286D
:100018008231B4227E10090080311228F801F901DA
:10002800FA01FB01FC01FD0120308400003085004D
:1000380014308231F1227E10400181310429861565
:10004800A030FF075F13801561184614BF10E10345
:100058001F3CF0211F3EF003AD3EAA0D7F00353D49
:10006800AD3CDC00813FEC331F3EE1031F3ECA0C70
:100078006414FA0B5F01EA2B1F3EFF03E13D353D97
:10008800AF3CFA005F0BEA2B1F3EE1031F3EFF0364
:10009800013CFA1F5F13EA2BE83E8E085F18E10364
:1000A8001F3CF0211F3EF003483FF52B5F3DC6156E
:1000B800A038F5076F1E0314E93FEA2B0E38E10359
:1000C8001F3CFF215F11A0141F0AE1031F3EE1033B
:1000D8001F3CF0211F3EF0031F3EE03FFF1DE103E0
:1000E8001F3CF0211F3EF003013E11001F3DF1238C
:1000F8001F3DF8111F3FE8231F3FF1231F3DC0019B
:10010800003C0000000000380000400198019901FF
:100118009A013430920030309300DF3094007D0132
:100128008C019601A00137308D00F0309700FF3028
:10013800A1008E0198012030A20037308F00F030E6
:100148009900DF30A300083090009A01A40105301F
:100158007C01BF001430C0000230BD000430BE0076
:100168001630D7001730D80024307B019A0025308C
:100178009B0026308C0027308D007D019101920173
:1001880093019B019C019D01A501A601A7010800FF
:100198009A127B01A10141011A114D0196018D1599
:1001A8004101101103304001B3000230B2000130A8
:1001B800B100B0014A010C18DE28400130084A019C
:1001C8008D00400131084A018E00400132084A0181
:1001D8008F00400133084A0190004D018D110D1523
:1001E8000D11410110111A154D010D08F8000D08E7
:1001F8000438F90040019A1604307B01A100080078
:100208008131922181318031CC2081314101101D11
:100218000A29101140010D083039FB000E080F396A
:10022800FA0030307B06031D1D298231812281317D
:100238000A2920307B06031D252982318E2281312F
:100248000A2910307B06031D2D2982319B2281311A
:100258000A297B08031D34298231A82281310A2901
:100268008231F72281310A294B34023400340034B8
:1002780000340034003400340034003400340034D6
:1002880000340034003400340034003400340034C6
:1002980000340034003400340034003400340034B6
:1002A80000340034003400340034003400340034A6
:1002B8000034003400340034D4340234CA340234F4
:1002C80000340034003400347901A5010730A60059
:1002D8000730A7002508F3390838A500A401A301B1
:1002E800A201D530A100F330A505A401A301A20104
:1002F800A101A0019F019E019D01FF309700FF30E1
:100308009600940193019A0141018D1097100D11E7
:1003180017117901A5011030920008008231E822F6
:100328008131803189208131823166228131823167
:10033800112281318131F22181318131D321813101
:100348008131B321813181316821813182314B2260
:1003580081318331282381318231C0220800033062
:100368004D01960088308D0024308E0025308F0096
:10037800233090002430910001309200083093001F
:10038800103094009501970180308C000030F00007
:100398000030F1008331032341019012080002303C
:1003A8004D01960001308D0002308E0024308F0000
:1003B80024309000243091000230920008309300DD
:1003C80094019501970184308C000030F0000030D2
:1003D800F1008331092341011012080001304D0159
:1003E800960001308D0002308E0003308F000230FD
:1003F800900002309100023092000830930094017E
:100408009501970184308C000030F0000030F10035
:1004180083310F234101901108004D01960180306E
:100428008D008E0101308F00900191010230920001
:10043800043093009401950197018C308C004101A0
:1004480010112E30F0000330F100833115234101E3
:100458001A1508007408663EF6000030753DF7006E
:100468007508F1007408F0007708F3007608F200C8
:100478008231DE22823183312423823183311B236E
:100488008231003A031D422A833120230800483074
:100498004E0192009030900026309100FF308E007F
:1004A8008F010030F0000030F1008231D422823117
:1004B8000030F0000030F1008231CA224001A4016E
:1004C800A50108004A018C132330F4000030F50020
:1004D80082312E2206304A01950099019801970130
:1004E8009601410113101D1093109D1013111D1139
:1004F80093119D114A018C1708007A084A018D0052
:1005080079084D018D0078088D00400133084A01B3
:10051800900008007A084A018E0079084D018D0084
:1005280078088D00400133084A01900008007A08D5
:100538004A018F0079084D018D0078088D0040012F
:1005480033084A019000080079084D018D007808A9
:100558008D007A084A0190007A084001B30008002B
:10056800101140012E082F04031908002F088A00D3
:100578002E080A008231080041010C100B140030CB
:10058800F0000030F1008231FD220800700871048B
:100598000319080071084001A1007008A0000800B4
:1005A800700871040319080071084001A30070085D
:1005B800A200080073087901970072089600710874
:1005C8009400700893000800603045018D008F0189
:1005D8009101053093009201080064008001013107
:1005E800890BF22A003479084D018D0078088D00B6
:1005F800080071084001A7007008A60008007108EB
:100608004001A9007008A800080071084001AB006B
:100618007008AA00080071084001AD007008AC001D
:10062800080071084001AF007008AE0008007901A9
:10063800120E890C013908001910121392130800C0
:10064800921719141217080083312B230800790117
:06065800901108000800EB
:020000040001F9
:0A000E008C3FFF3D9F3FFF3FFF3F87
:00000001FF
