:020000040000FA
:0400000000EFC0F05D
:10000800DE61DE61DE61DE614000DD614000DE61EF
:100018009B61DE61DE61DE61DE61DE61DE61DE6123
:10002800DE61400040004000DE61DE61DE61DE61CD
:10003800DE61DE61DE61DE61DE61DE61DE6163613B
:10004800DE61DE61DE61DE6140004000DE61DE61AE
:10005800DE61DE61DE614000DE61DE61DE61DE619F
:10006800A161DE61DE61DC61DE61DE61DE61DE61CF
:10007800DE61DE61DE61DE614000DE61DE61DE617F
:10008800DE61DE61DE61DE61DE61DE61DE61DE6170
:10009800DE61DE61DE61DE614000DE61400040005D
:1000A800A761DE61DE61DE61DE61DE61DE61DE6187
:1000B800DE61DE61DE61DE61DE61DE61DE61DE6140
:1000C800DE61DE61DE61DE61DE61DE61DE61DE6130
:1000D800DE61DE61DE61DE61DE61DE61DE61DE6120
:1000E8004000DE61DE61DE6140004000400040000B
:0A00F800DE61DE61DE61DE61FF0003
:102600000016820100000000000000000000000031
:1026100000000000000000000000000000000000BA
:1026200000000000000000000000000000000000AA
:1026300000000000000000000000000000548601BF
:0A2640003C86012486010000000022
:020000040001F9
:10800000D7EFC2F0BE6ABF6AC06AC16AC26AC36AF9
:10801000010E0401026F0A6B126B1A6B040E226FC1
:108020002A6B3A0EC66EE00EC76EC868C9680A0EA3
:10803000CA6ECB68800E006FCF0E086F106B186B86
:10804000206B286B01693F0E096F11691969070ED2
:10805000216F296903690B6913691B69070E236F77
:108060002B69046BD00E0C6F146B1C6B0F0E246FFE
:108070002C6B0201896B886B876B866B010E616FBD
:108080000D0E636F040E656F050E666F030E626F53
:108090001E0E646F1F0E676F040E0A6F080E0C6FC2
:1080A000030E096F050E076F020E036F070E0B6FAD
:1080B0003F0E086F230E0D6F0401056B066B076BF7
:1080C0000D6B0E6B0F6B156B166B176B256B266BA1
:1080D000276B1200C290BE900201016BC294000196
:1080E000D56B800ED76F040EDD6FD785D795AE9A0E
:1080F0009E9AD7C01DF5D75104091E6E010E0401CA
:10810000456FCA0E446F2F0E436F8A0E0201C16F76
:10811000C26B03011A9FB19EA19E226A1F6A000EC4
:10812000046E000E056E000E066E000E016E000E4F
:10813000026E000E036E1C6A1B6ABF8005ECC3F062
:108140001B50D8B403D00201096B06D00001D56BD7
:10815000D785030E0201096F0001D56B010E0201E4
:10816000016FBE80D00E486ECA0EE82EFED7482E94
:10817000FCD7C284C2801B50D8B408D039ECC1F0FF
:10818000B19EA18E03011A8FD68E1200B19EA18ED0
:1081900003011A8FD68E1B50D8A41200FCD7D68AA2
:1081A000000ED6BE010E4B6ED69E550E0401596FC1
:1081B000AA0E596F59915F6B5E6B080E5D6F550E7D
:1081C000596FAA0E596F59814BB002D0D69E01D07B
:1081D000D68E0301628B658FAF90D6807A0E486E83
:1081E000870E496E010E4A6E79ECC3F0B490D682C8
:1081F0007C0E486E870E496E010E4A6E72ECC3F01B
:10820000B890D6847E0E486E870E496E010E4A6E77
:108210006BECC3F012000201B86BBA6BBC6BB00E12
:10822000BE6F800EBF6FC06BC169010EC26F2E0E94
:10823000C36FC46B800EC56FC66B000E486E000E18
:10824000496E000E4A6E2AECC3F0000E486E000E16
:10825000496E000E4A6E1EECC3F0000E486E000E12
:10826000496E000E4A6E12ECC3F01A6A000E196EC7
:108270001200D69E0001D56B010EF86E13D0AEAA87
:10828000FED7D1C4F7F4D0C4F6F40800F5C4C3F4A3
:10829000CB6A1EC5D7F0AE9A1DC5D7F0CEA2FED7C9
:1082A000CB681C2A1C28D8A4EAD7D2B21200040E2C
:1082B0000401456F446B436B1200070ED56F800EAF
:1082C000D76F040ED86F050ED96FDA6B020EDB6F15
:1082D000020EDC6F080EDD6F100EDE6F800EDF6F9A
:1082E000D46B820ED66F000E486E000E496E000EE3
:1082F0004A6E80ECC3F0BD921200060ED56F800E60
:10830000D76F040ED86F050ED96FDA6B020EDB6FD4
:10831000010EDC6F080EDD6F100EDE6F800EDF6F5A
:10832000D46B820ED66F000E486E000E496E000EA2
:108330004A6E87ECC3F0BC921200040ED56F800E1B
:10834000D76F030ED86F060ED96FDA6B010EDB6F95
:10835000010EDC6F080EDD6F100EDE6F400EDF6F5A
:10836000D46B820ED66F000E486E000E496E000E62
:108370004A6E95ECC3F0B8921200030ED56F800ED2
:10838000D76F040ED86F050ED96FDA6B020EDB6F54
:10839000020EDC6F040EDD6F100EDE6F800EDF6FDD
:1083A000D46B820ED66F000E486E000E496E000E22
:1083B0004A6E9CECC3F0B79A1200020ED56F800E85
:1083C000D76F040ED86F050ED96FDA6B020EDB6F14
:1083D000010EDC6F040EDD6F100EDE6F800EDF6F9E
:1083E000D46B820ED66F000E486E000E496E000EE2
:1083F0004A6EA3ECC3F0B59A1200010ED56F800E41
:10840000D76F030ED86F060ED96FDA6B010EDB6FD4
:10841000020EDC6F040EDD6F100EDE6F400EDF6F9C
:10842000D46B820ED66F000E486E000E496E000EA1
:108430004A6EAAECC3F0B49212000001D56B800E14
:10844000D76F380ED86F010ED96F010EDA6F010E9B
:10845000DB6F010EDC6F040EDD6FDE6BDF6BD46B48
:108460008C0ED66FAE9A000E486E000E496E000E4E
:108470004A6EB1ECC3F09E8A1200050ED56F010E54
:10848000D76F350ED86F350ED96F350EDA6F350EC2
:10849000DB6FDC6B080EDD6FDE6BDF6BD46B870E82
:1084A000D66F000E486E000E496E000E4A6E8EECBE
:1084B000C3F0B99212005AECC3F002ECC0F0E7EC42
:1084C000C2F01DECC2F0FDECC1F0DDECC1F0BDEC82
:1084D000C1F09DECC1F03DECC2F07DECC1F05DEC73
:1084E000C1F0F6ECC2F00BECC1F0CFECC0F0120022
:1084F0000001D56B010EF86EAEAAFED7D69ED1C490
:10850000F7F4D0C4F6F40800F5C4C3F41EC5D7F0E0
:10851000CB6AAE9A1DC5D7F0CEB2CB68CEB6CB68CB
:10852000CB68D68EE9D7165017101810D8B41200A1
:1085300001D812000500FA6E1650FD6E1750FE6E3F
:108540001850FF6EFA501200135014101510D8B4C2
:10855000120001D812000500FA6E1350FD6E14507F
:10856000FE6E1550FF6EFA501200105011101210CE
:10857000D8B4120001D812000500FA6E1050FD6E3A
:108580001150FE6E1250FF6EFA501200B19ED2B220
:1085900006D0040E0401456F446B436B1100010EBD
:1085A0000401456FCA0E446F2F0E436F110001EE98
:1085B00001F1260EEE6AE806FDE10401080E5D6F8A
:1085C000000E5E6F000E5F6F000164EFC3F00301E9
:1085D0001969186B5F0E1B6F000E276E000E286E58
:1085E000000E296EB19EA18E1A6B1200010E0401BD
:1085F000476F426B416B406B010E456FCA0E446F73
:108600002F0E436F800E466F1200D69E010E1B6E1A
:10861000010EF86EF76AF66A0800F528D8A4120071
:108620001B6A1200485049104A10D8B4120048C5BD
:1086300007F549C508F54AC509F512004850491023
:108640004A10D8B4120048C50AF549C50BF54AC509
:108650000CF51200485049104A10D8B4120048C511
:108660000DF549C50EF54AC50FF51200FAC442F5DD
:10867000FBC443F5AF9093ECC2F043C5FBF442C595
:10868000FAF41100FAC444F5FBC445F5B490A4EC27
:10869000C2F045C5FBF444C5FAF41100FAC446F52E
:1086A000FBC447F5B890B5ECC2F047C5FBF446C52E
:1086B000FAF41100600E0001AD6FAF6BB36B080EE2
:1086C000B16FB06BAC6B12005BECC2F06AECC0F047
:1086D00078ECC2F0FFD748C510F549C511F54AC579
:1086E00012F5120048C513F549C514F54AC515F52C
:1086F000120048C516F549C517F54AC518F5120008
:1087000048C530F549C531F54AC532F5120048C5AE
:1087100033F549C534F54AC535F5120048C53CF571
:1087200049C53DF54AC53EF5120048C52AF549C57B
:108730002BF54AC52CF5120048C536F549C537F565
:108740004AC538F5120048C539F549C53AF54AC554
:108750003BF5120048C52DF549C52EF54AC52FF544
:10876000120048C53FF549C540F54AC541F512001C
:06877000B4961100110097
:088778001100120012001200B2
:020000040030CA
:080000008CFFFFFF9FFFFFFFD3
:01000900FFF7
:00000001FF
